{
  "contractName": "ACE",
  "abi": [
    {
      "inputs": [],
      "payable": false,
      "stateMutability": "nonpayable",
      "type": "constructor"
    },
    {
      "anonymous": false,
      "inputs": [
        {
          "indexed": false,
          "internalType": "address",
          "name": "registryOwner",
          "type": "address"
        },
        {
          "indexed": false,
          "internalType": "address",
          "name": "registryAddress",
          "type": "address"
        },
        {
          "indexed": false,
          "internalType": "uint256",
          "name": "scalingFactor",
          "type": "uint256"
        },
        {
          "indexed": false,
          "internalType": "address",
          "name": "linkedTokenAddress",
          "type": "address"
        },
        {
          "indexed": false,
          "internalType": "bool",
          "name": "canAdjustSupply",
          "type": "bool"
        },
        {
          "indexed": false,
          "internalType": "bool",
          "name": "canConvert",
          "type": "bool"
        }
      ],
      "name": "CreateNoteRegistry",
      "type": "event"
    },
    {
      "anonymous": false,
      "inputs": [
        {
          "indexed": false,
          "internalType": "uint8",
          "name": "newLatestEpoch",
          "type": "uint8"
        }
      ],
      "name": "IncrementLatestEpoch",
      "type": "event"
    },
    {
      "anonymous": false,
      "inputs": [
        {
          "indexed": true,
          "internalType": "address",
          "name": "previousOwner",
          "type": "address"
        },
        {
          "indexed": true,
          "internalType": "address",
          "name": "newOwner",
          "type": "address"
        }
      ],
      "name": "OwnershipTransferred",
      "type": "event"
    },
    {
      "anonymous": false,
      "inputs": [
        {
          "indexed": false,
          "internalType": "bytes32[6]",
          "name": "_commonReferenceString",
          "type": "bytes32[6]"
        }
      ],
      "name": "SetCommonReferenceString",
      "type": "event"
    },
    {
      "anonymous": false,
      "inputs": [
        {
          "indexed": true,
          "internalType": "uint8",
          "name": "epoch",
          "type": "uint8"
        },
        {
          "indexed": true,
          "internalType": "uint8",
          "name": "cryptoSystem",
          "type": "uint8"
        },
        {
          "indexed": true,
          "internalType": "uint8",
          "name": "assetType",
          "type": "uint8"
        },
        {
          "indexed": false,
          "internalType": "address",
          "name": "factoryAddress",
          "type": "address"
        }
      ],
      "name": "SetFactory",
      "type": "event"
    },
    {
      "anonymous": false,
      "inputs": [
        {
          "indexed": true,
          "internalType": "uint8",
          "name": "epoch",
          "type": "uint8"
        },
        {
          "indexed": true,
          "internalType": "uint8",
          "name": "category",
          "type": "uint8"
        },
        {
          "indexed": true,
          "internalType": "uint8",
          "name": "id",
          "type": "uint8"
        },
        {
          "indexed": false,
          "internalType": "address",
          "name": "validatorAddress",
          "type": "address"
        }
      ],
      "name": "SetProof",
      "type": "event"
    },
    {
      "anonymous": false,
      "inputs": [
        {
          "indexed": false,
          "internalType": "address",
          "name": "registryOwner",
          "type": "address"
        },
        {
          "indexed": false,
          "internalType": "address",
          "name": "proxyAddress",
          "type": "address"
        },
        {
          "indexed": false,
          "internalType": "address",
          "name": "newBehaviourAddress",
          "type": "address"
        }
      ],
      "name": "UpgradeNoteRegistry",
      "type": "event"
    },
    {
      "constant": true,
      "inputs": [],
      "name": "BURN_PROOF",
      "outputs": [
        {
          "internalType": "uint24",
          "name": "",
          "type": "uint24"
        }
      ],
      "payable": false,
      "stateMutability": "view",
      "type": "function"
    },
    {
      "constant": true,
      "inputs": [],
      "name": "DIVIDEND_PROOF",
      "outputs": [
        {
          "internalType": "uint24",
          "name": "",
          "type": "uint24"
        }
      ],
      "payable": false,
      "stateMutability": "view",
      "type": "function"
    },
    {
      "constant": true,
      "inputs": [],
      "name": "JOIN_SPLIT_PROOF",
      "outputs": [
        {
          "internalType": "uint24",
          "name": "",
          "type": "uint24"
        }
      ],
      "payable": false,
      "stateMutability": "view",
      "type": "function"
    },
    {
      "constant": true,
      "inputs": [],
      "name": "MINT_PROOF",
      "outputs": [
        {
          "internalType": "uint24",
          "name": "",
          "type": "uint24"
        }
      ],
      "payable": false,
      "stateMutability": "view",
      "type": "function"
    },
    {
      "constant": true,
      "inputs": [],
      "name": "PRIVATE_RANGE_PROOF",
      "outputs": [
        {
          "internalType": "uint24",
          "name": "",
          "type": "uint24"
        }
      ],
      "payable": false,
      "stateMutability": "view",
      "type": "function"
    },
    {
      "constant": true,
      "inputs": [],
      "name": "PUBLIC_RANGE_PROOF",
      "outputs": [
        {
          "internalType": "uint24",
          "name": "",
          "type": "uint24"
        }
      ],
      "payable": false,
      "stateMutability": "view",
      "type": "function"
    },
    {
      "constant": false,
      "inputs": [
        {
          "internalType": "address",
          "name": "_linkedTokenAddress",
          "type": "address"
        },
        {
          "internalType": "uint256",
          "name": "_scalingFactor",
          "type": "uint256"
        },
        {
          "internalType": "bool",
          "name": "_canAdjustSupply",
          "type": "bool"
        },
        {
          "internalType": "bool",
          "name": "_canConvert",
          "type": "bool"
        }
      ],
      "name": "createNoteRegistry",
      "outputs": [],
      "payable": false,
      "stateMutability": "nonpayable",
      "type": "function"
    },
    {
      "constant": false,
      "inputs": [
        {
          "internalType": "address",
          "name": "_linkedTokenAddress",
          "type": "address"
        },
        {
          "internalType": "uint256",
          "name": "_scalingFactor",
          "type": "uint256"
        },
        {
          "internalType": "bool",
          "name": "_canAdjustSupply",
          "type": "bool"
        },
        {
          "internalType": "bool",
          "name": "_canConvert",
          "type": "bool"
        },
        {
          "internalType": "uint24",
          "name": "_factoryId",
          "type": "uint24"
        }
      ],
      "name": "createNoteRegistry",
      "outputs": [],
      "payable": false,
      "stateMutability": "nonpayable",
      "type": "function"
    },
    {
      "constant": true,
      "inputs": [],
      "name": "defaultCryptoSystem",
      "outputs": [
        {
          "internalType": "uint8",
          "name": "",
          "type": "uint8"
        }
      ],
      "payable": false,
      "stateMutability": "view",
      "type": "function"
    },
    {
      "constant": true,
      "inputs": [],
      "name": "defaultRegistryEpoch",
      "outputs": [
        {
          "internalType": "uint8",
          "name": "",
          "type": "uint8"
        }
      ],
      "payable": false,
      "stateMutability": "view",
      "type": "function"
    },
    {
      "constant": true,
      "inputs": [
        {
          "internalType": "uint256",
          "name": "",
          "type": "uint256"
        },
        {
          "internalType": "uint256",
          "name": "",
          "type": "uint256"
        },
        {
          "internalType": "uint256",
          "name": "",
          "type": "uint256"
        }
      ],
      "name": "disabledValidators",
      "outputs": [
        {
          "internalType": "bool",
          "name": "",
          "type": "bool"
        }
      ],
      "payable": false,
      "stateMutability": "view",
      "type": "function"
    },
    {
      "constant": true,
      "inputs": [
        {
          "internalType": "uint24",
          "name": "_factoryId",
          "type": "uint24"
        }
      ],
      "name": "getFactoryAddress",
      "outputs": [
        {
          "internalType": "address",
          "name": "factoryAddress",
          "type": "address"
        }
      ],
      "payable": false,
      "stateMutability": "view",
      "type": "function"
    },
    {
      "constant": true,
      "inputs": [
        {
          "internalType": "address",
          "name": "_registryOwner",
          "type": "address"
        },
        {
          "internalType": "bytes32",
          "name": "_noteHash",
          "type": "bytes32"
        }
      ],
      "name": "getNote",
      "outputs": [
        {
          "internalType": "uint8",
          "name": "status",
          "type": "uint8"
        },
        {
          "internalType": "uint40",
          "name": "createdOn",
          "type": "uint40"
        },
        {
          "internalType": "uint40",
          "name": "destroyedOn",
          "type": "uint40"
        },
        {
          "internalType": "address",
          "name": "noteOwner",
          "type": "address"
        }
      ],
      "payable": false,
      "stateMutability": "view",
      "type": "function"
    },
    {
      "constant": true,
      "inputs": [
        {
          "internalType": "address",
          "name": "_registryOwner",
          "type": "address"
        }
      ],
      "name": "getRegistry",
      "outputs": [
        {
          "internalType": "address",
          "name": "linkedToken",
          "type": "address"
        },
        {
          "internalType": "uint256",
          "name": "scalingFactor",
          "type": "uint256"
        },
        {
          "internalType": "bytes32",
          "name": "confidentialTotalMinted",
          "type": "bytes32"
        },
        {
          "internalType": "bytes32",
          "name": "confidentialTotalBurned",
          "type": "bytes32"
        },
        {
          "internalType": "uint256",
          "name": "totalSupply",
          "type": "uint256"
        },
        {
          "internalType": "uint256",
          "name": "totalSupplemented",
          "type": "uint256"
        },
        {
          "internalType": "bool",
          "name": "canConvert",
          "type": "bool"
        },
        {
          "internalType": "bool",
          "name": "canAdjustSupply",
          "type": "bool"
        }
      ],
      "payable": false,
      "stateMutability": "view",
      "type": "function"
    },
    {
      "constant": false,
      "inputs": [],
      "name": "incrementDefaultRegistryEpoch",
      "outputs": [],
      "payable": false,
      "stateMutability": "nonpayable",
      "type": "function"
    },
    {
      "constant": true,
      "inputs": [],
      "name": "isOwner",
      "outputs": [
        {
          "internalType": "bool",
          "name": "",
          "type": "bool"
        }
      ],
      "payable": false,
      "stateMutability": "view",
      "type": "function"
    },
    {
      "constant": true,
      "inputs": [],
      "name": "latestEpoch",
      "outputs": [
        {
          "internalType": "uint8",
          "name": "",
          "type": "uint8"
        }
      ],
      "payable": false,
      "stateMutability": "view",
      "type": "function"
    },
    {
      "constant": false,
      "inputs": [
        {
          "internalType": "address",
          "name": "_registryOwner",
          "type": "address"
        }
      ],
      "name": "makeAssetAvailable",
      "outputs": [],
      "payable": false,
      "stateMutability": "nonpayable",
      "type": "function"
    },
    {
      "constant": true,
      "inputs": [],
      "name": "owner",
      "outputs": [
        {
          "internalType": "address",
          "name": "",
          "type": "address"
        }
      ],
      "payable": false,
      "stateMutability": "view",
      "type": "function"
    },
    {
      "constant": false,
      "inputs": [
        {
          "internalType": "address",
          "name": "_registryOwner",
          "type": "address"
        },
        {
          "internalType": "bytes32",
          "name": "_proofHash",
          "type": "bytes32"
        },
        {
          "internalType": "uint256",
          "name": "_value",
          "type": "uint256"
        }
      ],
      "name": "publicApprove",
      "outputs": [],
      "payable": false,
      "stateMutability": "nonpayable",
      "type": "function"
    },
    {
      "constant": true,
      "inputs": [
        {
          "internalType": "address",
          "name": "",
          "type": "address"
        }
      ],
      "name": "registries",
      "outputs": [
        {
          "internalType": "contract NoteRegistryBehaviour",
          "name": "behaviour",
          "type": "address"
        },
        {
          "internalType": "contract IERC20Mintable",
          "name": "linkedToken",
          "type": "address"
        },
        {
          "internalType": "uint24",
          "name": "latestFactory",
          "type": "uint24"
        },
        {
          "internalType": "uint256",
          "name": "totalSupply",
          "type": "uint256"
        },
        {
          "internalType": "uint256",
          "name": "totalSupplemented",
          "type": "uint256"
        }
      ],
      "payable": false,
      "stateMutability": "view",
      "type": "function"
    },
    {
      "constant": false,
      "inputs": [],
      "name": "renounceOwnership",
      "outputs": [],
      "payable": false,
      "stateMutability": "nonpayable",
      "type": "function"
    },
    {
      "constant": false,
      "inputs": [
        {
          "internalType": "uint8",
          "name": "_defaultCryptoSystem",
          "type": "uint8"
        }
      ],
      "name": "setDefaultCryptoSystem",
      "outputs": [],
      "payable": false,
      "stateMutability": "nonpayable",
      "type": "function"
    },
    {
      "constant": false,
      "inputs": [
        {
          "internalType": "uint24",
          "name": "_factoryId",
          "type": "uint24"
        },
        {
          "internalType": "address",
          "name": "_factoryAddress",
          "type": "address"
        }
      ],
      "name": "setFactory",
      "outputs": [],
      "payable": false,
      "stateMutability": "nonpayable",
      "type": "function"
    },
    {
      "constant": false,
      "inputs": [
        {
          "internalType": "uint256",
          "name": "_value",
          "type": "uint256"
        }
      ],
      "name": "supplementTokens",
      "outputs": [],
      "payable": false,
      "stateMutability": "nonpayable",
      "type": "function"
    },
    {
      "constant": false,
      "inputs": [
        {
          "internalType": "address",
          "name": "newOwner",
          "type": "address"
        }
      ],
      "name": "transferOwnership",
      "outputs": [],
      "payable": false,
      "stateMutability": "nonpayable",
      "type": "function"
    },
    {
      "constant": false,
      "inputs": [
        {
          "internalType": "uint24",
          "name": "_proof",
          "type": "uint24"
        },
        {
          "internalType": "bytes",
          "name": "_proofOutput",
          "type": "bytes"
        },
        {
          "internalType": "address",
          "name": "_proofSender",
          "type": "address"
        }
      ],
      "name": "updateNoteRegistry",
      "outputs": [],
      "payable": false,
      "stateMutability": "nonpayable",
      "type": "function"
    },
    {
      "constant": false,
      "inputs": [
        {
          "internalType": "uint24",
          "name": "_factoryId",
          "type": "uint24"
        }
      ],
      "name": "upgradeNoteRegistry",
      "outputs": [],
      "payable": false,
      "stateMutability": "nonpayable",
      "type": "function"
    },
    {
      "constant": true,
      "inputs": [
        {
          "internalType": "bytes32",
          "name": "",
          "type": "bytes32"
        }
      ],
      "name": "validatedProofs",
      "outputs": [
        {
          "internalType": "bool",
          "name": "",
          "type": "bool"
        }
      ],
      "payable": false,
      "stateMutability": "view",
      "type": "function"
    },
    {
      "constant": true,
      "inputs": [
        {
          "internalType": "uint256",
          "name": "",
          "type": "uint256"
        },
        {
          "internalType": "uint256",
          "name": "",
          "type": "uint256"
        },
        {
          "internalType": "uint256",
          "name": "",
          "type": "uint256"
        }
      ],
      "name": "validators",
      "outputs": [
        {
          "internalType": "address",
          "name": "",
          "type": "address"
        }
      ],
      "payable": false,
      "stateMutability": "view",
      "type": "function"
    },
    {
      "constant": false,
      "inputs": [
        {
          "internalType": "uint24",
          "name": "_proof",
          "type": "uint24"
        },
        {
          "internalType": "bytes",
          "name": "_proofData",
          "type": "bytes"
        },
        {
          "internalType": "address",
          "name": "_proofSender",
          "type": "address"
        }
      ],
      "name": "mint",
      "outputs": [
        {
          "internalType": "bytes",
          "name": "",
          "type": "bytes"
        }
      ],
      "payable": false,
      "stateMutability": "nonpayable",
      "type": "function"
    },
    {
      "constant": false,
      "inputs": [
        {
          "internalType": "uint24",
          "name": "_proof",
          "type": "uint24"
        },
        {
          "internalType": "bytes",
          "name": "_proofData",
          "type": "bytes"
        },
        {
          "internalType": "address",
          "name": "_proofSender",
          "type": "address"
        }
      ],
      "name": "burn",
      "outputs": [
        {
          "internalType": "bytes",
          "name": "",
          "type": "bytes"
        }
      ],
      "payable": false,
      "stateMutability": "nonpayable",
      "type": "function"
    },
    {
      "constant": false,
      "inputs": [
        {
          "internalType": "uint24",
          "name": "_proof",
          "type": "uint24"
        },
        {
          "internalType": "address",
          "name": "_sender",
          "type": "address"
        },
        {
          "internalType": "bytes",
          "name": "",
          "type": "bytes"
        }
      ],
      "name": "validateProof",
      "outputs": [
        {
          "internalType": "bytes",
          "name": "",
          "type": "bytes"
        }
      ],
      "payable": false,
      "stateMutability": "nonpayable",
      "type": "function"
    },
    {
      "constant": false,
      "inputs": [
        {
          "internalType": "uint24",
          "name": "_proof",
          "type": "uint24"
        },
        {
          "internalType": "bytes32[]",
          "name": "_proofHashes",
          "type": "bytes32[]"
        }
      ],
      "name": "clearProofByHashes",
      "outputs": [],
      "payable": false,
      "stateMutability": "nonpayable",
      "type": "function"
    },
    {
      "constant": false,
      "inputs": [
        {
          "internalType": "bytes32[6]",
          "name": "_commonReferenceString",
          "type": "bytes32[6]"
        }
      ],
      "name": "setCommonReferenceString",
      "outputs": [],
      "payable": false,
      "stateMutability": "nonpayable",
      "type": "function"
    },
    {
      "constant": false,
      "inputs": [
        {
          "internalType": "uint24",
          "name": "_proof",
          "type": "uint24"
        }
      ],
      "name": "invalidateProof",
      "outputs": [],
      "payable": false,
      "stateMutability": "nonpayable",
      "type": "function"
    },
    {
      "constant": true,
      "inputs": [
        {
          "internalType": "uint24",
          "name": "_proof",
          "type": "uint24"
        },
        {
          "internalType": "bytes32",
          "name": "_proofHash",
          "type": "bytes32"
        },
        {
          "internalType": "address",
          "name": "_sender",
          "type": "address"
        }
      ],
      "name": "validateProofByHash",
      "outputs": [
        {
          "internalType": "bool",
          "name": "",
          "type": "bool"
        }
      ],
      "payable": false,
      "stateMutability": "view",
      "type": "function"
    },
    {
      "constant": false,
      "inputs": [
        {
          "internalType": "uint24",
          "name": "_proof",
          "type": "uint24"
        },
        {
          "internalType": "address",
          "name": "_validatorAddress",
          "type": "address"
        }
      ],
      "name": "setProof",
      "outputs": [],
      "payable": false,
      "stateMutability": "nonpayable",
      "type": "function"
    },
    {
      "constant": false,
      "inputs": [],
      "name": "incrementLatestEpoch",
      "outputs": [],
      "payable": false,
      "stateMutability": "nonpayable",
      "type": "function"
    },
    {
      "constant": true,
      "inputs": [],
      "name": "getCommonReferenceString",
      "outputs": [
        {
          "internalType": "bytes32[6]",
          "name": "",
          "type": "bytes32[6]"
        }
      ],
      "payable": false,
      "stateMutability": "view",
      "type": "function"
    },
    {
      "constant": true,
      "inputs": [
        {
          "internalType": "uint24",
          "name": "_proof",
          "type": "uint24"
        }
      ],
      "name": "getValidatorAddress",
      "outputs": [
        {
          "internalType": "address",
          "name": "validatorAddress",
          "type": "address"
        }
      ],
      "payable": false,
      "stateMutability": "view",
      "type": "function"
    }
  ],
  "bytecode": "0x60806040526401000000028054610100600160ff19928316811761ff0019169190911790925564020800000a805490911690911790553480156200004257600080fd5b506000620000586001600160e01b03620000a816565b600080546001600160a01b0319166001600160a01b0383169081178255604051929350917f8be0079c531659141344cd1fd0a4f28419497f9722a3daafe3b4186f6b6457e0908290a350620000ac565b3390565b61481580620000bc6000396000f3fe60806040523480156200001157600080fd5b50600436106200028b5760003560e01c80638f19301b1162000165578063caaaa5d811620000d5578063e308d6ff1162000093578063e308d6ff1462000a1c578063edc6197c1462000a51578063f2fde38b1462000a76578063f625e8e71462000a9f578063f971d77c1462000ad3578063fedee2661462000b4b576200028b565b8063caaaa5d814620008bc578063caed80df14620008e1578063d19287a61462000945578063dd695b7214620009ce578063df9246251462000a12576200028b565b8063a5468ca21162000123578063a5468ca214620007ff578063a962b0cf146200083e578063b05dd1731462000848578063b21d10f81462000852578063b2aad218146200089c576200028b565b80638f19301b14620006625780638f32d59b146200069c578063977796d214620006a65780639cb118bf1462000767578063a2866ea31462000771576200028b565b806349518b28116200020157806380037eeb11620001bf57806380037eeb146200051e5780638500e1f8146200061f57806385b69d7c14620006295780638da5cb5b146200064e5780638e526d9b1462000658576200028b565b806349518b2814620004555780634d1d4dc6146200045f5780634e982ca7146200049357806356a0d47714620004bf578063715018a61462000514576200028b565b8063257926cd116200024f578063257926cd1462000332578063351d203214620003555780633b418280146200037557806343b5420814620003f5578063465903dd1462000415576200028b565b80625bf732146200029057806308ae900a14620002b25780630b4cc5d914620002bc5780631e13d93914620002fd578063244f818f1462000309575b600080fd5b6200029a62000bb6565b6040805162ffffff9092168252519081900360200190f35b6200029a62000bbd565b620002e160048036036020811015620002d457600080fd5b503562ffffff1662000bc4565b604080516001600160a01b039092168252519081900360200190f35b6200030762000c1f565b005b62000307600480360360208110156200032157600080fd5b50356001600160a01b031662000c86565b62000307600480360360208110156200034a57600080fd5b503560ff1662000d8d565b6200035f62000df8565b6040805160ff9092168252519081900360200190f35b62000307600480360360408110156200038d57600080fd5b62ffffff8235169190810190604081016020820135600160201b811115620003b457600080fd5b820183602082011115620003c757600080fd5b803590602001918460208302840111600160201b83111715620003e957600080fd5b50909250905062000e05565b62000307600480360360208110156200040d57600080fd5b503562000f3b565b62000441600480360360608110156200042d57600080fd5b5080359060208101359060400135620011b8565b604080519115158252519081900360200190f35b6200029a6200120d565b62000307600480360360408110156200047757600080fd5b50803562ffffff1690602001356001600160a01b031662001214565b620002e160048036036060811015620004ab57600080fd5b508035906020810135906040013562001457565b62000307600480360360c0811015620004d757600080fd5b810190808060c001906006806020026040519081016040528092919082600660200280828437600092019190915250919450620014a39350505050565b620003076200155f565b620005a7600480360360608110156200053657600080fd5b62ffffff8235169190810190604081016020820135600160201b8111156200055d57600080fd5b8201836020820111156200057057600080fd5b803590602001918460018302840111600160201b831117156200059257600080fd5b9193509150356001600160a01b0316620015f4565b6040805160208082528351818301528351919283929083019185019080838360005b83811015620005e3578181015183820152602001620005c9565b50505050905090810190601f168015620006115780820380516001836020036101000a031916815260200191505b509250505060405180910390f35b6200029a620019c5565b62000307600480360360208110156200064157600080fd5b503562ffffff16620019cc565b620002e162001c67565b6200029a62001c77565b62000441600480360360608110156200067a57600080fd5b50803562ffffff1690602081013590604001356001600160a01b031662001c7e565b6200044162001d22565b6200030760048036036060811015620006be57600080fd5b62ffffff8235169190810190604081016020820135600160201b811115620006e557600080fd5b820183602082011115620006f857600080fd5b803590602001918460018302840111600160201b831117156200071a57600080fd5b91908080601f016020809104026020016040519081016040528093929190818152602001838380828437600092019190915250929550505090356001600160a01b0316915062001d489050565b6200035f62001fd6565b620005a7600480360360608110156200078957600080fd5b62ffffff823516916001600160a01b0360208201351691810190606081016040820135600160201b811115620007be57600080fd5b820183602082011115620007d157600080fd5b803590602001918460018302840111600160201b83111715620007f357600080fd5b50909250905062001fe3565b62000307600480360360808110156200081757600080fd5b506001600160a01b03813516906020810135906040810135151590606001351515620021bd565b6200035f62002201565b6200030762002213565b62000307600480360360a08110156200086a57600080fd5b5080356001600160a01b031690602081013590604081013515159060608101351515906080013562ffffff16620022c6565b6200044160048036036020811015620008b457600080fd5b503562002763565b6200030760048036036020811015620008d457600080fd5b503562ffffff166200277c565b6200090a60048036036020811015620008f957600080fd5b50356001600160a01b0316620028d4565b604080516001600160a01b03968716815294909516602085015262ffffff909216838501526060830152608082015290519081900360a00190f35b620005a7600480360360608110156200095d57600080fd5b62ffffff8235169190810190604081016020820135600160201b8111156200098457600080fd5b8201836020820111156200099757600080fd5b803590602001918460018302840111600160201b83111715620009b957600080fd5b9193509150356001600160a01b031662002917565b620009d862002c72565b604051808260c080838360005b83811015620009ff578181015183820152602001620009e5565b5050505090500191505060405180910390f35b6200029a62002cb4565b620003076004803603606081101562000a3457600080fd5b506001600160a01b03813516906020810135906040013562002cbb565b620002e16004803603602081101562000a6957600080fd5b503562ffffff1662002d4e565b620003076004803603602081101562000a8e57600080fd5b50356001600160a01b031662002e05565b620003076004803603604081101562000ab757600080fd5b50803562ffffff1690602001356001600160a01b031662002e5e565b62000afc6004803603602081101562000aeb57600080fd5b50356001600160a01b031662003039565b604080516001600160a01b0390991689526020890197909752878701959095526060870193909352608086019190915260a0850152151560c0840152151560e083015251908190036101000190f35b62000b7a6004803603604081101562000b6357600080fd5b506001600160a01b0381351690602001356200317b565b6040805160ff909516855264ffffffffff938416602086015291909216838201526001600160a01b039091166060830152519081900360800190f35b6201010181565b6201040381565b60028101548015801562000c19576001600160a01b03821662000c195760405162461bcd60e51b81526004018080602001828103825260258152602001806200448e6025913960400191505060405180910390fd5b50919050565b62000c2962001d22565b62000c6a576040805162461bcd60e51b8152602060048201819052602482015260008051602062004638833981519152604482015290519081900360640190fd5b640100000002805460ff8082166001011660ff19909116179055565b62000c9062001d22565b62000cd1576040805162461bcd60e51b8152602060048201819052602482015260008051602062004638833981519152604482015290519081900360640190fd5b62000cdb620037aa565b506001600160a01b038181166000908152600160208181526040808420815160a081018352815487168082529482015496871693810193909352600160a01b90950462ffffff1682820152600285015460608301526003909401546080820152835163ad32f92560e01b815293519093919263ad32f925926004808201939182900301818387803b15801562000d7057600080fd5b505af115801562000d85573d6000803e3d6000fd5b505050505050565b62000d9762001d22565b62000dd8576040805162461bcd60e51b8152602060048201819052602482015260008051602062004638833981519152604482015290519081900360640190fd5b640100000002805460ff9092166101000261ff0019909216919091179055565b6401000000025460ff1681565b8060005b8181101562000f3457600084848381811062000e2157fe5b60200291909101359150508062000e7f576040805162461bcd60e51b815260206004820152601c60248201527f6578706563746564206e6f20656d7074792070726f6f66206861736800000000604482015290519081900360640190fd5b60408051602080820184905262ffffff89168284015233606080840191909152835180840390910181526080909201835281519181019190912060008181526401000000039092529190205460ff16151560011462000f105760405162461bcd60e51b815260040180806020018281038252602a81526020018062004464602a913960400191505060405180910390fd5b600090815264010000000360205260409020805460ff191690555060010162000e09565b5050505050565b33600090815260016020526040902080546001600160a01b031662000fa7576040805162461bcd60e51b815260206004820152601c60248201527f6e6f746520726567697374727920646f6573206e6f7420657869737400000000604482015290519081900360640190fd5b600281015462000fbe908363ffffffff6200327816565b6002820155600381015462000fda908363ffffffff6200327816565b6003820155805460408051635ab1bd5360e01b81529051600092839283926001600160a01b0390921691635ab1bd539160048082019260a092909190829003018186803b1580156200102b57600080fd5b505afa15801562001040573d6000803e3d6000fd5b505050506040513d60a08110156200105757600080fd5b50805160608201516080909201519094509092509050600182151514620010b05760405162461bcd60e51b815260040180806020018281038252602d815260200180620044ff602d913960400191505060405180910390fd5b600181151514620010f35760405162461bcd60e51b81526004018080602001828103825260308152602001806200431d6030913960400191505060405180910390fd5b60018401546001600160a01b03166323b872dd33306200111a898863ffffffff620032dc16565b6040518463ffffffff1660e01b815260040180846001600160a01b03166001600160a01b03168152602001836001600160a01b03166001600160a01b031681526020018281526020019350505050602060405180830381600087803b1580156200118357600080fd5b505af115801562001198573d6000803e3d6000fd5b505050506040513d6020811015620011af57600080fd5b50505050505050565b64020000000a83620100008110620011cc57fe5b6108000201826101008110620011de57fe5b60080201816101008110620011ef57fe5b602081049091015460ff601f9092166101000a900416925083915050565b6201040281565b6200121e62001d22565b62001270576040805162461bcd60e51b815260206004820152601e60248201527f6f6e6c7920746865206f776e65722063616e2073657420612070726f6f660000604482015290519081900360640190fd5b6001600160a01b038116620012b75760405162461bcd60e51b81526004018080602001828103825260278152602001806200476e6027913960400191505060405180910390fd5b6000806000620012cc8562ffffff166200333a565b64020800000a54929550909350915060ff9081169084161115620013225760405162461bcd60e51b81526004018080602001828103825260368152602001806200439d6036913960400191505060405180910390fd5b600064010000000a60ff85166201000081106200133b57fe5b6201000002018360ff1661010081106200135157fe5b61010002018260ff1661010081106200136657fe5b01546001600160a01b031614620013af5760405162461bcd60e51b8152600401808060200182810382526022815260200180620043f96022913960400191505060405180910390fd5b8364010000000a8460ff16620100008110620013c757fe5b6201000002018360ff166101008110620013dd57fe5b61010002018260ff166101008110620013f257fe5b0180546001600160a01b0319166001600160a01b039283161790556040805191861682525160ff8381169285821692918716917f056d19b176848b2ba83ba7d1d83c9022e6c1bd37d5c648a143ccec369e53f3c9916020908290030190a45050505050565b64010000000a836201000081106200146b57fe5b6201000002018261010081106200147e57fe5b61010002018161010081106200149057fe5b01546001600160a01b0316925083915050565b620014ad62001d22565b620014ea5760405162461bcd60e51b81526004018080602001828103825260328152602001806200473c6032913960400191505060405180910390fd5b620014fd640100000004826006620037d8565b507f85adab12e45179738a96f914df934f3d0b656588ea13f75093bd4796dc3e2736816040518082600660200280838360005b838110156200154a57818101518382015260200162001530565b5050505090500191505060405180910390a150565b6200156962001d22565b620015aa576040805162461bcd60e51b8152602060048201819052602482015260008051602062004638833981519152604482015290519081900360640190fd5b600080546040516001600160a01b03909116907f8be0079c531659141344cd1fd0a4f28419497f9722a3daafe3b4186f6b6457e0908390a3600080546001600160a01b0319169055565b606062001600620037aa565b5033600090815260016020818152604092839020835160a08101855281546001600160a01b039081168083529483015490811693820193909352600160a01b90920462ffffff1693820193909352600283015460608201526003909201546080830152620016a05760405162461bcd60e51b81526004018080602001828103825260328152602001806200452c6032913960400191505060405180910390fd5b6000620016b28762ffffff166200333a565b5091505060ff81166002146200170f576040805162461bcd60e51b815260206004820152601860248201527f74686973206973206e6f742061206d696e742070726f6f660000000000000000604482015290519081900360640190fd5b60405163a2866ea360e01b815262ffffff8816600482019081526001600160a01b0386166024830152606060448301818152606484018990529092309263a2866ea3928c928a928d928d92608401848480828437600081840152601f19601f82011690508083019250505095505050505050600060405180830381600087803b1580156200179c57600080fd5b505af1158015620017b1573d6000803e3d6000fd5b505050506040513d6000823e601f3d908101601f191682016040526020811015620017db57600080fd5b8101908080516040519392919084600160201b821115620017fb57600080fd5b9083019060208201858111156200181157600080fd5b8251600160201b8111828201881017156200182b57600080fd5b82525081516020918201929091019080838360005b838110156200185a57818101518382015260200162001840565b50505050905090810190601f168015620018885780820380516001836020036101000a031916815260200191505b50604052505050905060006200189e8262003354565b11620018f1576040805162461bcd60e51b815260206004820152601c60248201527f63616c6c20746f2076616c696461746550726f6f66206661696c656400000000604482015290519081900360640190fd5b8251604051637ba0e2e760e01b81526020600482018181528451602484015284516001600160a01b0390941693637ba0e2e793869383926044909201919085019080838360005b838110156200195257818101518382015260200162001938565b50505050905090810190601f168015620019805780820380516001836020036101000a031916815260200191505b5092505050600060405180830381600087803b158015620019a057600080fd5b505af1158015620019b5573d6000803e3d6000fd5b50929a9950505050505050505050565b6201040181565b33600090815260016020526040902080546001600160a01b031662001a235760405162461bcd60e51b8152600401808060200182810382526026815260200180620043d36026913960400191505060405180910390fd5b60008062001a368462ffffff166200333a565b6001860154929450925050600160a01b900462ffffff1660008062001a5b836200333a565b92505091508160ff168560ff16101562001aa75760405162461bcd60e51b815260040180806020018281038252604c8152602001806200455e604c913960600191505060405180910390fd5b8060ff168460ff161462001aed5760405162461bcd60e51b815260040180806020018281038252603a815260200180620045aa603a913960400191505060405180910390fd5b600062001afa8862000bc4565b90506000816001600160a01b0316630f5d1a396040518163ffffffff1660e01b8152600401602060405180830381600087803b15801562001b3a57600080fd5b505af115801562001b4f573d6000803e3d6000fd5b505050506040513d602081101562001b6657600080fd5b50519050600062001b778662000bc4565b60018a01805462ffffff60a01b1916600160a01b62ffffff8e1602179055895460408051630b5ee31f60e41b81526001600160a01b0392831660048201528583166024820152868316604482015290519293509083169163b5ee31f09160648082019260009290919082900301818387803b15801562001bf657600080fd5b505af115801562001c0b573d6000803e3d6000fd5b50508a54604080513381526001600160a01b03928316602082015291861682820152517f42d58b58975590b8c8025b2176eac714ec611e69ee7cc1bbc562f2e0f70694489350908190036060019150a150505050505050505050565b6000546001600160a01b03165b90565b6201020181565b600583901c64020000000a015460408051600085815260208790528483526060812091909252909160f8600387901b161c801562001d03576040805162461bcd60e51b815260206004820152601d60248201527f70726f6f6620696420686173206265656e20696e76616c696461746564000000604482015290519081900360640190fd5b506000908152640100000003602052604090205460ff16949350505050565b600080546001600160a01b031662001d396200335b565b6001600160a01b031614905090565b62001d52620037aa565b5033600090815260016020818152604092839020835160a08101855281546001600160a01b039081168083529483015490811693820193909352600160a01b90920462ffffff169382019390935260028301546060820152600390920154608083015262001e07576040805162461bcd60e51b815260206004820152601c60248201527f6e6f746520726567697374727920646f6573206e6f7420657869737400000000604482015290519081900360640190fd5b82516020808501919091206040805180840183905262ffffff88168183015233606080830191909152825180830390910181526080909101909152805192019190912062001e5786838662001c7e565b151560011462001e995760405162461bcd60e51b8152600401808060200182810382526026815260200180620044b36026913960400191505060405180910390fd5b600081815264010000000360209081526040808320805460ff191690558551815163070cc24760e31b815262ffffff8b1660048201908152602482019384528a5160448301528a51869586956001600160a01b03909516946338661238948f948f9490936064909201918501908083838c5b8381101562001f2557818101518382015260200162001f0b565b50505050905090810190601f16801562001f535780820380516001836020036101000a031916815260200191505b509350505050606060405180830381600087803b15801562001f7457600080fd5b505af115801562001f89573d6000803e3d6000fd5b505050506040513d606081101562001fa057600080fd5b50805160208201516040909201519094509092509050801562001fcb5762001fcb838383886200335f565b505050505050505050565b64020800000a5460ff1681565b606062ffffff85166200203d576040805162461bcd60e51b815260206004820152601e60248201527f6578706563746564207468652070726f6f6620746f2062652076616c69640000604482015290519081900360640190fd5b60006200204a8662002d4e565b9050606060443560040160405161010060048201528760248201526401000000045460448201526401000000046001015460648201526401000000046002015460848201526401000000046003015460a48201526401000000046004015460c48201526401000000046005015460e48201526101048101602083350180848337610104810160008082868a5afa8015620020e457620020f0565b61019060005260206000fd5b503d6000853e5050503d810160405280510191505060ff600888901c1660011415620021b3576000620021238262003354565b905060005b81811015620021b057600062002145848363ffffffff6200354116565b8051602091820120604080518084019290925262ffffff8d168282015233606080840191909152815180840390910181526080909201815281519183019190912060009081526401000000039092529020805460ff1916600190811790915591909101905062002128565b50505b9695505050505050565b6000620021cb82846200359a565b64010000000254909150600090620021f09060ff8082169161010090041684620035cf565b905062000d858686868685620022c6565b64010000000254610100900460ff1681565b6200221d62001d22565b6200225a5760405162461bcd60e51b815260040180806020018281038252602a8152602001806200434d602a913960400191505060405180910390fd5b64020800000a54620022779060ff16600163ffffffff620035e316565b64020800000a805460ff191660ff92831617908190556040805191909216815290517f9a76c82938224c049c704b5f4bfdbe9ef61749be7b65291103b97274b874665d916020908290030190a1565b336000908152600160205260409020546001600160a01b0316156200231d5760405162461bcd60e51b815260040180806020018281038252602a81526020018062004795602a913960400191505060405180910390fd5b81156200236b576001600160a01b0385166200236b5760405162461bcd60e51b815260040180806020018281038252602a815260200180620046c8602a913960400191505060405180910390fd5b60006200237d8262ffffff166200333a565b9250505060006200238f84866200359a565b905060ff8116620023d25760405162461bcd60e51b815260040180806020018281038252603f81526020018062004658603f913960400191505060405180910390fd5b8160ff168160ff1614620024185760405162461bcd60e51b8152600401808060200182810382526025815260200180620047176025913960400191505060405180910390fd5b6000620024258462000bc4565b90506000816001600160a01b0316630f5d1a396040518163ffffffff1660e01b8152600401602060405180830381600087803b1580156200246557600080fd5b505af11580156200247a573d6000803e3d6000fd5b505050506040513d60208110156200249157600080fd5b505160408051306024820152604481018b905289151560648201528815156084808301919091528251808303909101815260a490910182526020810180516001600160e01b031663ce88434360e01b179052905191925090600090839085908490620024fd906200381b565b80846001600160a01b03166001600160a01b03168152602001836001600160a01b03166001600160a01b0316815260200180602001828103825283818151815260200191508051906020019080838360005b83811015620025695781810151838201526020016200254f565b50505050905090810190601f168015620025975780820380516001836020036101000a031916815260200191505b50945050505050604051809103906000f080158015620025bb573d6000803e3d6000fd5b5090506040518060a00160405280826001600160a01b031681526020018c6001600160a01b031681526020018862ffffff16815260200160008152602001600081525060016000336001600160a01b03166001600160a01b0316815260200190815260200160002060008201518160000160006101000a8154816001600160a01b0302191690836001600160a01b0316021790555060208201518160010160006101000a8154816001600160a01b0302191690836001600160a01b0316021790555060408201518160010160146101000a81548162ffffff021916908362ffffff16021790555060608201518160020155608082015181600301559050507f34fbbb932061028a5177da0c6ca6a7359202a390c458f2c2c042ca3e4357d53e33828c8e8d8d60405180876001600160a01b03166001600160a01b03168152602001866001600160a01b03166001600160a01b03168152602001858152602001846001600160a01b03166001600160a01b031681526020018315151515815260200182151515158152602001965050505050505060405180910390a15050505050505050505050565b6401000000036020526000908152604090205460ff1681565b6200278662001d22565b620027c35760405162461bcd60e51b8152600401808060200182810382526025815260200180620042f86025913960400191505060405180910390fd5b6000806000620027d88462ffffff166200333a565b91945092509050600064010000000a60ff8516620100008110620027f857fe5b6201000002018360ff1661010081106200280e57fe5b61010002018260ff1661010081106200282357fe5b01546001600160a01b031614156200286d5760405162461bcd60e51b8152600401808060200182810382526025815260200180620046f26025913960400191505060405180910390fd5b600164020000000a8460ff166201000081106200288657fe5b61080002018360ff1661010081106200289b57fe5b600802018260ff166101008110620028af57fe5b602091828204019190066101000a81548160ff02191690831515021790555050505050565b600160208190526000918252604090912080549181015460028201546003909201546001600160a01b0393841693821692600160a01b90920462ffffff16919085565b606062002923620037aa565b5033600090815260016020818152604092839020835160a08101855281546001600160a01b039081168083529483015490811693820193909352600160a01b90920462ffffff1693820193909352600283015460608201526003909201546080830152620029c35760405162461bcd60e51b81526004018080602001828103825260328152602001806200452c6032913960400191505060405180910390fd5b6000620029d58762ffffff166200333a565b5091505060ff811660031462002a32576040805162461bcd60e51b815260206004820152601860248201527f74686973206973206e6f742061206275726e2070726f6f660000000000000000604482015290519081900360640190fd5b60405163a2866ea360e01b815262ffffff8816600482019081526001600160a01b0386166024830152606060448301818152606484018990529092309263a2866ea3928c928a928d928d92608401848480828437600081840152601f19601f82011690508083019250505095505050505050600060405180830381600087803b15801562002abf57600080fd5b505af115801562002ad4573d6000803e3d6000fd5b505050506040513d6000823e601f3d908101601f19168201604052602081101562002afe57600080fd5b8101908080516040519392919084600160201b82111562002b1e57600080fd5b90830190602082018581111562002b3457600080fd5b8251600160201b81118282018810171562002b4e57600080fd5b82525081516020918201929091019080838360005b8381101562002b7d57818101518382015260200162002b63565b50505050905090810190601f16801562002bab5780820380516001836020036101000a031916815260200191505b506040525050509050600062002bc18262003354565b1162002c14576040805162461bcd60e51b815260206004820152601c60248201527f63616c6c20746f2076616c696461746550726f6f66206661696c656400000000604482015290519081900360640190fd5b8251604051632a07b6c760e01b81526020600482018181528451602484015284516001600160a01b0390941693632a07b6c7938693839260449092019190850190808383600083156200195257818101518382015260200162001938565b62002c7c62003829565b6040805160c0810191829052906401000000049060069082845b81548152602001906001019080831162002c96575050505050905090565b6201030181565b6001600160a01b038084166000908152600160205260409020805490911662002d2b576040805162461bcd60e51b815260206004820152601c60248201527f6e6f746520726567697374727920646f6573206e6f7420657869737400000000604482015290519081900360640190fd5b336000908152600490910160209081526040808320948352939052919091205550565b64010000000a810154600582901c64020000000a015460f8600384901b161c81158117801562002dfe576001600160a01b03831662002dbf5760405162461bcd60e51b81526004018080602001828103825260278152602001806200476e6027913960400191505060405180910390fd5b811562002dfe5760405162461bcd60e51b8152600401808060200182810382526031815260200180620046976031913960400191505060405180910390fd5b5050919050565b62002e0f62001d22565b62002e50576040805162461bcd60e51b8152602060048201819052602482015260008051602062004638833981519152604482015290519081900360640190fd5b62002e5b816200362f565b50565b62002e6862001d22565b62002ea9576040805162461bcd60e51b8152602060048201819052602482015260008051602062004638833981519152604482015290519081900360640190fd5b6001600160a01b03811662002ef05760405162461bcd60e51b8152600401808060200182810382526026815260200180620044d96026913960400191505060405180910390fd5b600080600062002f058562ffffff166200333a565b919450925090506000600260ff851662010000811062002f2157fe5b6201000002018360ff16610100811062002f3757fe5b61010002018260ff16610100811062002f4c57fe5b01546001600160a01b03161462002f955760405162461bcd60e51b81526004018080602001828103825260258152602001806200441b6025913960400191505060405180910390fd5b8360028460ff1662010000811062002fa957fe5b6201000002018360ff16610100811062002fbf57fe5b61010002018260ff16610100811062002fd457fe5b0180546001600160a01b0319166001600160a01b039283161790556040805191861682525160ff8381169285821692918716917f3506459ad40b99177e1a043acb15be95b16ae5e3101c3b5b12ae5d289781d2ce916020908290030190a45050505050565b6000806000806000806000806200304f620037aa565b506001600160a01b03898116600090815260016020818152604092839020835160a08082018652825487168083529483015496871693820193909352600160a01b90950462ffffff1685850152600281015460608601526003015460808501528251635ab1bd5360e01b815292519192635ab1bd539260048083019392829003018186803b158015620030e157600080fd5b505afa158015620030f6573d6000803e3d6000fd5b505050506040513d60a08110156200310d57600080fd5b810190808051906020019092919080519060200190929190805190602001909291908051906020019092919080519060200190929190505050809650819750829a50839b50849c50505050505080602001519850806060015194508060800151935050919395975091939597565b6000806000806200318b620037aa565b506001600160a01b03868116600090815260016020818152604092839020835160a081018552815486168082529382015495861692810192909252600160a01b90940462ffffff16818401526002840154606082015260039093015460808085019190915282516298df3d60e81b8152600481018a9052925191926398df3d009260248083019392829003018186803b1580156200322857600080fd5b505afa1580156200323d573d6000803e3d6000fd5b505050506040513d60808110156200325457600080fd5b50805160208201516040830151606090930151919a90995091975095509350505050565b600082820183811015620032d3576040805162461bcd60e51b815260206004820152601b60248201527f536166654d6174683a206164646974696f6e206f766572666c6f770000000000604482015290519081900360640190fd5b90505b92915050565b600082620032ed57506000620032d6565b82820282848281620032fb57fe5b0414620032d35760405162461bcd60e51b8152600401808060200182810382526021815260200180620046176021913960400191505060405180910390fd5b60ff62010000820481169261010083048216929190911690565b6020015190565b3390565b33600090815260016020526040812090831215620034cc576001600160a01b0385166000908152600482016020908152604080832085845290915281205460028301549091620033b9919086900363ffffffff6200327816565b60028301556000849003811015620034035760405162461bcd60e51b8152600401808060200182810382526033815260200180620045e46033913960400191505060405180910390fd5b6200341981600086900363ffffffff620036d116565b6001600160a01b0380881660008181526004808701602090815260408084208a8552825280842096909655600188015486516323b872dd60e01b815292830194909452306024830152604482018b9052945192909316936323b872dd936064808201949293918390030190829087803b1580156200349657600080fd5b505af1158015620034ab573d6000803e3d6000fd5b505050506040513d6020811015620034c257600080fd5b5062000f34915050565b6002810154620034e3908463ffffffff620036d116565b600282015560018101546040805163a9059cbb60e01b81526001600160a01b038881166004830152602482018890529151919092169163a9059cbb9160448083019260209291908290030181600087803b1580156200118357600080fd5b602082810151908202830160400151830190821080620035935760405162461bcd60e51b8152600401808060200182810382526022815260200180620047bf6022913960400191505060405180910390fd5b5092915050565b60008083620035ab576000620035ae565b60015b9050600083620035c0576000620035c3565b60025b91909101949350505050565b610100919091021762010000919091021790565b600082820160ff8085169082161015620032d35760405162461bcd60e51b8152600401808060200182810382526024815260200180620044406024913960400191505060405180910390fd5b6001600160a01b038116620036765760405162461bcd60e51b8152600401808060200182810382526026815260200180620043776026913960400191505060405180910390fd5b600080546040516001600160a01b03808516939216917f8be0079c531659141344cd1fd0a4f28419497f9722a3daafe3b4186f6b6457e091a3600080546001600160a01b0319166001600160a01b0392909216919091179055565b6000620032d383836040518060400160405280601e81526020017f536166654d6174683a207375627472616374696f6e206f766572666c6f77000081525060008184841115620037a25760405162461bcd60e51b81526004018080602001828103825283818151815260200191508051906020019080838360005b83811015620037665781810151838201526020016200374c565b50505050905090810190601f168015620037945780820380516001836020036101000a031916815260200191505b509250505060405180910390fd5b505050900390565b6040805160a08101825260008082526020820181905291810182905260608101829052608081019190915290565b826006810192821562003809579160200282015b8281111562003809578251825591602001919060010190620037ec565b506200381792915062003847565b5090565b610a93806200386583390190565b6040518060c001604052806006906020820280388339509192915050565b62001c7491905b808211156200381757600081556001016200384e56fe6080604052604051610a93380380610a938339818101604052606081101561002657600080fd5b8151602083015160408085018051915193959294830192918464010000000082111561005157600080fd5b90830190602082018581111561006657600080fd5b825164010000000081118282018810171561008057600080fd5b82525081516020918201929091019080838360005b838110156100ad578181015183820152602001610095565b50505050905090810190601f1680156100da5780820380516001836020036101000a031916815260200191505b5060408181527f656970313936372e70726f78792e696d706c656d656e746174696f6e0000000082525190819003601c019020869350849250600080516020610a0c83398151915260001990910114905061013157fe5b610143826001600160e01b036102c416565b8051156101fb576000826001600160a01b0316826040518082805190602001908083835b602083106101865780518252601f199092019160209182019101610167565b6001836020036101000a038019825116818451168082178552505050505050905001915050600060405180830381855af49150503d80600081146101e6576040519150601f19603f3d011682016040523d82523d6000602084013e6101eb565b606091505b50509050806101f957600080fd5b505b5050604080517f656970313936372e70726f78792e61646d696e00000000000000000000000000815290519081900360130190206000805160206109ec8339815191526000199091011461024b57fe5b6001600160a01b0382166102aa576040517f08c379a000000000000000000000000000000000000000000000000000000000815260040180806020018281038252602c815260200180610a67602c913960400191505060405180910390fd5b6102bc826001600160e01b0361033e16565b50505061038c565b6102d78161035060201b61053d1760201c565b61032c576040517f08c379a000000000000000000000000000000000000000000000000000000000815260040180806020018281038252603b815260200180610a2c603b913960400191505060405180910390fd5b600080516020610a0c83398151915255565b6000805160206109ec83398151915255565b6000813f7fc5d2460186f7233c927e7db2dcc703c0e500b653ca82273b7bfad8045d85a47081811480159061038457508115155b949350505050565b6106518061039b6000396000f3fe60806040526004361061004a5760003560e01c80633659cfe6146100545780634f1ef286146100875780635c60da1b146101075780638f28397014610138578063f851a4401461016b575b610052610180565b005b34801561006057600080fd5b506100526004803603602081101561007757600080fd5b50356001600160a01b031661019a565b6100526004803603604081101561009d57600080fd5b6001600160a01b0382351691908101906040810160208201356401000000008111156100c857600080fd5b8201836020820111156100da57600080fd5b803590602001918460018302840111640100000000831117156100fc57600080fd5b5090925090506101d4565b34801561011357600080fd5b5061011c610281565b604080516001600160a01b039092168252519081900360200190f35b34801561014457600080fd5b506100526004803603602081101561015b57600080fd5b50356001600160a01b03166102be565b34801561017757600080fd5b5061011c610378565b6101886103a3565b610198610193610403565b610428565b565b6101a261044c565b6001600160a01b0316336001600160a01b031614156101c9576101c481610471565b6101d1565b6101d1610180565b50565b6101dc61044c565b6001600160a01b0316336001600160a01b03161415610274576101fe83610471565b6000836001600160a01b031683836040518083838082843760405192019450600093509091505080830381855af49150503d806000811461025b576040519150601f19603f3d011682016040523d82523d6000602084013e610260565b606091505b505090508061026e57600080fd5b5061027c565b61027c610180565b505050565b600061028b61044c565b6001600160a01b0316336001600160a01b031614156102b3576102ac610403565b90506102bb565b6102bb610180565b90565b6102c661044c565b6001600160a01b0316336001600160a01b031614156101c9576001600160a01b0381166103245760405162461bcd60e51b81526004018080602001828103825260368152602001806105ac6036913960400191505060405180910390fd5b7f7e644d79422f17c01e4894b5f4f588d331ebfa28653d42ae832dc59e38c9798f61034d61044c565b604080516001600160a01b03928316815291841660208301528051918290030190a16101c4816104b1565b600061038261044c565b6001600160a01b0316336001600160a01b031614156102b3576102ac61044c565b6103ab61044c565b6001600160a01b0316336001600160a01b031614156103fb5760405162461bcd60e51b815260040180806020018281038252603281526020018061057a6032913960400191505060405180910390fd5b610198610198565b7f360894a13ba1a3210667c828492db98dca3e2076cc3735a920a3ca505d382bbc5490565b3660008037600080366000845af43d6000803e808015610447573d6000f35b3d6000fd5b7fb53127684a568b3173ae13b9f8a6016e243e63b6e8ee1178d6a717850b5d61035490565b61047a816104d5565b6040516001600160a01b038216907fbc7cd75a20ee27fd9adebab32041f755214dbc6bffa90cc0225b39da2e5c2d3b90600090a250565b7fb53127684a568b3173ae13b9f8a6016e243e63b6e8ee1178d6a717850b5d610355565b6104de8161053d565b6105195760405162461bcd60e51b815260040180806020018281038252603b8152602001806105e2603b913960400191505060405180910390fd5b7f360894a13ba1a3210667c828492db98dca3e2076cc3735a920a3ca505d382bbc55565b6000813f7fc5d2460186f7233c927e7db2dcc703c0e500b653ca82273b7bfad8045d85a47081811480159061057157508115155b94935050505056fe43616e6e6f742063616c6c2066616c6c6261636b2066756e6374696f6e2066726f6d207468652070726f78792061646d696e43616e6e6f74206368616e6765207468652061646d696e206f6620612070726f787920746f20746865207a65726f206164647265737343616e6e6f742073657420612070726f787920696d706c656d656e746174696f6e20746f2061206e6f6e2d636f6e74726163742061646472657373a265627a7a7231582000abdc1e2bec349606a319e2764a2ff519f8e1f6e4814111588cf52159fe7d9264736f6c63430005110032b53127684a568b3173ae13b9f8a6016e243e63b6e8ee1178d6a717850b5d6103360894a13ba1a3210667c828492db98dca3e2076cc3735a920a3ca505d382bbc43616e6e6f742073657420612070726f787920696d706c656d656e746174696f6e20746f2061206e6f6e2d636f6e7472616374206164647265737343616e6e6f7420736574207468652061646d696e206164647265737320746f206164647265737328307830296f6e6c7920746865206f776e65722063616e20696e76616c696461746520612070726f6f666e6f746520726567697374727920646f6573206e6f742068617665206d696e7420616e64206275726e207269676874736f6e6c7920746865206f776e65722063616e2075706461746520746865206c61746573742065706f63684f776e61626c653a206e6577206f776e657220697320746865207a65726f20616464726573737468652070726f6f662065706f63682063616e6e6f7420626520626967676572207468616e20746865206c61746573742065706f63686e6f746520726567697374727920666f722073656e64657220646f65736e27742065786973746578697374696e672070726f6f66732063616e6e6f74206265206d6f6469666965646578697374696e6720666163746f726965732063616e6e6f74206265206d6f64696669656475696e7438206164642074726967676572656420696e7465676572206f766572666c6f7763616e206f6e6c7920636c6561722070726576696f75736c792076616c6964617465642070726f6f667365787065637465642074686520666163746f7279206164647265737320746f20657869737441434520686173206e6f742076616c6964617465642061206d61746368696e672070726f6f6665787065637465642074686520666163746f727920636f6e747261637420746f2065786973746e6f746520726567697374727920646f6573206e6f74206861766520636f6e76657273696f6e207269676874736e6f746520726567697374727920646f6573206e6f7420657869737420666f722074686520676976656e20616464726573736578706563746564206e657720726567697374727920746f206265206f662065706f636820657175616c206f722067726561746572207468616e206578697374696e6720726567697374727965787065637465642061737365745479706520746f206265207468652073616d6520666f72206f6c6420616e64206e65772072656769737472797075626c6963206f776e657220686173206e6f742076616c6964617465642061207472616e73666572206f6620746f6b656e73536166654d6174683a206d756c7469706c69636174696f6e206f766572666c6f774f776e61626c653a2063616c6c6572206973206e6f7420746865206f776e657263616e206e6f7420637265617465206173736574207769746820636f6e7665727420616e642061646a75737420666c6167732073657420746f2066616c73656578706563746564207468652076616c696461746f72206164647265737320746f206e6f742062652064697361626c6564657870656374656420746865206c696e6b656420746f6b656e206164647265737320746f20657869737463616e206f6e6c7920696e76616c69646174652070726f6f667320746861742065786973746578706563746564206e6f746520726567697374727920746f206d6174636820666c6167736f6e6c7920746865206f776e65722063616e207365742074686520636f6d6d6f6e207265666572656e636520737472696e676578706563746564207468652076616c696461746f72206164647265737320746f2065786973746164647265737320616c7265616479206861732061206c696e6b6564206e6f7465207265676973747279415a54454320617272617920696e646578206973206f7574206f6620626f756e6473a265627a7a72315820b0a42e6e54dc81d63f6e120784f4dbc543147eb7d990e50b4ab7701bf19eabf064736f6c63430005110032",
  "source": "pragma solidity >=0.5.0 <0.6.0;\n\nimport \"openzeppelin-solidity/contracts/math/SafeMath.sol\";\nimport \"openzeppelin-solidity/contracts/ownership/Ownable.sol\";\n\nimport \"./noteRegistry/NoteRegistryManager.sol\";\n\nimport \"../interfaces/IAZTEC.sol\";\n\nimport \"../libs/NoteUtils.sol\";\n// TODO: v-- harmonize\nimport \"../libs/ProofUtils.sol\";\nimport \"../libs/VersioningUtils.sol\";\nimport \"../libs/SafeMath8.sol\";\n\n/**\n * @title The AZTEC Cryptography Engine\n * @author AZTEC\n * @dev ACE validates the AZTEC protocol's family of zero-knowledge proofs, which enables\n *      digital asset builders to construct fungible confidential digital assets according to the AZTEC token standard.\n * \n * Copyright 2020 Spilsbury Holdings Ltd \n *\n * Licensed under the GNU Lesser General Public Licence, Version 3.0 (the \"License\");\n * you may not use this file except in compliance with the License.\n *\n * This program is distributed in the hope that it will be useful,\n * but WITHOUT ANY WARRANTY; without even the implied warranty of\n * MERCHANTABILITY or FITNESS FOR A PARTICULAR PURPOSE.  See the\n * GNU Lesser General Public License for more details.\n *\n * You should have received a copy of the GNU Lesser General Public License\n * along with this program.  If not, see <https://www.gnu.org/licenses/>.\n**/\ncontract ACE is IAZTEC, Ownable, NoteRegistryManager {\n    using NoteUtils for bytes;\n    using ProofUtils for uint24;\n    using SafeMath for uint256;\n    using SafeMath8 for uint8;\n\n    event SetCommonReferenceString(bytes32[6] _commonReferenceString);\n    event SetProof(\n        uint8 indexed epoch,\n        uint8 indexed category,\n        uint8 indexed id,\n        address validatorAddress\n    );\n    event IncrementLatestEpoch(uint8 newLatestEpoch);\n\n    // The commonReferenceString contains one G1 group element and one G2 group element,\n    // that are created via the AZTEC protocol's trusted setup. All zero-knowledge proofs supported\n    // by ACE use the same common reference string.\n    bytes32[6] private commonReferenceString;\n\n    // `validators`contains the addresses of the contracts that validate specific proof types\n    address[0x100][0x100][0x10000] public validators;\n\n    // a list of invalidated proof ids, used to blacklist proofs in the case of a vulnerability being discovered\n    bool[0x100][0x100][0x10000] public disabledValidators;\n\n    // latest proof epoch accepted by this contract\n    uint8 public latestEpoch = 1;\n\n    /**\n    * @dev contract constructor. Sets the owner of ACE\n    **/\n    constructor() public Ownable() {}\n\n    /**\n    * @dev Mint AZTEC notes\n    *\n    * @param _proof the AZTEC proof object\n    * @param _proofData the mint proof construction data\n    * @param _proofSender the Ethereum address of the original transaction sender. It is explicitly assumed that\n    *        an asset using ACE supplies this field correctly - if they don't their asset is vulnerable to front-running\n    * Unnamed param is the AZTEC zero-knowledge proof data\n    * @return two `bytes` objects. The first contains the new confidentialTotalSupply note and the second contains the\n    * notes that were created. Returned so that a zkAsset can emit the appropriate events\n    */\n    function mint(\n        uint24 _proof,\n        bytes calldata _proofData,\n        address _proofSender\n    ) external returns (bytes memory) {\n\n        NoteRegistry memory registry = registries[msg.sender];\n        require(address(registry.behaviour) != address(0x0), \"note registry does not exist for the given address\");\n\n        // Check that it's a mintable proof\n        (, uint8 category, ) = _proof.getProofComponents();\n\n        require(category == uint8(ProofCategory.MINT), \"this is not a mint proof\");\n\n        bytes memory _proofOutputs = this.validateProof(_proof, _proofSender, _proofData);\n        require(_proofOutputs.getLength() > 0, \"call to validateProof failed\");\n\n        registry.behaviour.mint(_proofOutputs);\n        return(_proofOutputs);\n    }\n\n    /**\n    * @dev Burn AZTEC notes\n    *\n    * @param _proof the AZTEC proof object\n    * @param _proofData the burn proof construction data\n    * @param _proofSender the Ethereum address of the original transaction sender. It is explicitly assumed that\n    *        an asset using ACE supplies this field correctly - if they don't their asset is vulnerable to front-running\n    * Unnamed param is the AZTEC zero-knowledge proof data\n    * @return two `bytes` objects. The first contains the new confidentialTotalSupply note and the second contains the\n    * notes that were created. Returned so that a zkAsset can emit the appropriate events\n    */\n    function burn(\n        uint24 _proof,\n        bytes calldata _proofData,\n        address _proofSender\n    ) external returns (bytes memory) {\n        NoteRegistry memory registry = registries[msg.sender];\n        require(address(registry.behaviour) != address(0x0), \"note registry does not exist for the given address\");\n\n        // Check that it's a burnable proof\n        (, uint8 category, ) = _proof.getProofComponents();\n\n        require(category == uint8(ProofCategory.BURN), \"this is not a burn proof\");\n\n        bytes memory _proofOutputs = this.validateProof(_proof, _proofSender, _proofData);\n        require(_proofOutputs.getLength() > 0, \"call to validateProof failed\");\n\n        registry.behaviour.burn(_proofOutputs);\n        return _proofOutputs;\n    }\n\n    /**\n    * @dev Validate an AZTEC zero-knowledge proof. ACE will issue a validation transaction to the smart contract\n    *      linked to `_proof`. The validator smart contract will have the following interface:\n    *\n    *      function validate(\n    *          bytes _proofData,\n    *          address _sender,\n    *          bytes32[6] _commonReferenceString\n    *      ) public returns (bytes)\n    *\n    * @param _proof the AZTEC proof object\n    * @param _sender the Ethereum address of the original transaction sender. It is explicitly assumed that\n    *        an asset using ACE supplies this field correctly - if they don't their asset is vulnerable to front-running\n    * Unnamed param is the AZTEC zero-knowledge proof data\n    * @return a `bytes proofOutputs` variable formatted according to the Cryptography Engine standard\n    */\n    function validateProof(uint24 _proof, address _sender, bytes calldata) external returns (bytes memory) {\n        require(_proof != 0, \"expected the proof to be valid\");\n        // validate that the provided _proof object maps to a corresponding validator and also that\n        // the validator is not disabled\n        address validatorAddress = getValidatorAddress(_proof);\n        bytes memory proofOutputs;\n        assembly {\n            // the first evm word of the 3rd function param is the abi encoded location of proof data\n            let proofDataLocation := add(0x04, calldataload(0x44))\n\n            // manually construct validator calldata map\n            let memPtr := mload(0x40)\n            mstore(add(memPtr, 0x04), 0x100) // location in calldata of the start of `bytes _proofData` (0x100)\n            mstore(add(memPtr, 0x24), _sender)\n            mstore(add(memPtr, 0x44), sload(commonReferenceString_slot))\n            mstore(add(memPtr, 0x64), sload(add(0x01, commonReferenceString_slot)))\n            mstore(add(memPtr, 0x84), sload(add(0x02, commonReferenceString_slot)))\n            mstore(add(memPtr, 0xa4), sload(add(0x03, commonReferenceString_slot)))\n            mstore(add(memPtr, 0xc4), sload(add(0x04, commonReferenceString_slot)))\n            mstore(add(memPtr, 0xe4), sload(add(0x05, commonReferenceString_slot)))\n\n            // 0x104 because there's an address, the length 6 and the static array items\n            let destination := add(memPtr, 0x104)\n            // note that we offset by 0x20 because the first word is the length of the dynamic bytes array\n            let proofDataSize := add(calldataload(proofDataLocation), 0x20)\n            // copy the calldata into memory so we can call the validator contract\n            calldatacopy(destination, proofDataLocation, proofDataSize)\n            // call our validator smart contract, and validate the call succeeded\n            let callSize := add(proofDataSize, 0x104)\n            switch staticcall(gas, validatorAddress, memPtr, callSize, 0x00, 0x00)\n            case 0 {\n                mstore(0x00, 400) revert(0x00, 0x20) // call failed because proof is invalid\n            }\n\n            // copy returndata to memory\n            returndatacopy(memPtr, 0x00, returndatasize)\n            // store the proof outputs in memory\n            mstore(0x40, add(memPtr, returndatasize))\n            // the first evm word in the memory pointer is the abi encoded location of the actual returned data\n            proofOutputs := add(memPtr, mload(memPtr))\n        }\n\n        // if this proof satisfies a balancing relationship, we need to record the proof hash\n        if (((_proof >> 8) & 0xff) == uint8(ProofCategory.BALANCED)) {\n            uint256 length = proofOutputs.getLength();\n            for (uint256 i = 0; i < length; i += 1) {\n                bytes32 proofHash = keccak256(proofOutputs.get(i));\n                bytes32 validatedProofHash = keccak256(abi.encode(proofHash, _proof, msg.sender));\n                validatedProofs[validatedProofHash] = true;\n            }\n        }\n        return proofOutputs;\n    }\n\n    /**\n    * @dev Clear storage variables set when validating zero-knowledge proofs.\n    *      The only address that can clear data from `validatedProofs` is the address that created the proof.\n    *      Function is designed to utilize [EIP-1283](https://github.com/ethereum/EIPs/blob/master/EIPS/eip-1283.md)\n    *      to reduce gas costs. It is highly likely that any storage variables set by `validateProof`\n    *      are only required for the duration of a single transaction.\n    *      E.g. a decentralized exchange validating a swap proof and sending transfer instructions to\n    *      two confidential assets.\n    *      This method allows the calling smart contract to recover most of the gas spent by setting `validatedProofs`\n    * @param _proof the AZTEC proof object\n    * @param _proofHashes dynamic array of proof hashes\n    */\n    function clearProofByHashes(uint24 _proof, bytes32[] calldata _proofHashes) external {\n        uint256 length = _proofHashes.length;\n        for (uint256 i = 0; i < length; i += 1) {\n            bytes32 proofHash = _proofHashes[i];\n            require(proofHash != bytes32(0x0), \"expected no empty proof hash\");\n            bytes32 validatedProofHash = keccak256(abi.encode(proofHash, _proof, msg.sender));\n            require(validatedProofs[validatedProofHash] == true, \"can only clear previously validated proofs\");\n            validatedProofs[validatedProofHash] = false;\n        }\n    }\n\n    /**\n    * @dev Set the common reference string.\n    *      If the trusted setup is re-run, we will need to be able to change the crs\n    * @param _commonReferenceString the new commonReferenceString\n    */\n    function setCommonReferenceString(bytes32[6] memory _commonReferenceString) public {\n        require(isOwner(), \"only the owner can set the common reference string\");\n        commonReferenceString = _commonReferenceString;\n        emit SetCommonReferenceString(_commonReferenceString);\n    }\n\n    /**\n    * @dev Forever invalidate the given proof.\n    * @param _proof the AZTEC proof object\n    */\n    function invalidateProof(uint24 _proof) public {\n        require(isOwner(), \"only the owner can invalidate a proof\");\n        (uint8 epoch, uint8 category, uint8 id) = _proof.getProofComponents();\n        require(validators[epoch][category][id] != address(0x0), \"can only invalidate proofs that exist\");\n        disabledValidators[epoch][category][id] = true;\n    }\n\n    /**\n    * @dev Validate a previously validated AZTEC proof via its hash\n    *      This enables confidential assets to receive transfer instructions from a dApp that\n    *      has already validated an AZTEC proof that satisfies a balancing relationship.\n    * @param _proof the AZTEC proof object\n    * @param _proofHash the hash of the `proofOutput` received by the asset\n    * @param _sender the Ethereum address of the contract issuing the transfer instruction\n    * @return a boolean that signifies whether the corresponding AZTEC proof has been validated\n    */\n    function validateProofByHash(\n        uint24 _proof,\n        bytes32 _proofHash,\n        address _sender\n    ) public view returns (bool) {\n        // We need create a unique encoding of _proof, _proofHash and _sender,\n        // and use as a key to access validatedProofs\n        // We do this by computing bytes32 validatedProofHash = keccak256(ABI.encode(_proof, _proofHash, _sender))\n        // We also need to access disabledValidators[_proof.epoch][_proof.category][_proof.id]\n        // This bit is implemented in Yul, as 3-dimensional array access chews through\n        // a lot of gas in Solidity, as does ABI.encode\n        bytes32 validatedProofHash;\n        bool isValidatorDisabled;\n        assembly {\n            // inside _proof, we have 3 packed variables : [epoch, category, id]\n            // each is a uint8.\n\n            // We need to compute the storage key for `disabledValidators[epoch][category][id]`\n            // Type of array is bool[0x100][0x100][0x100]\n            // Solidity will only squish 32 boolean variables into a single storage slot, not 256\n            // => result of disabledValidators[epoch][category] is stored in 0x08 storage slots\n            // => result of disabledValidators[epoch] is stored in 0x08 * 0x100 = 0x800 storage slots\n\n            // To compute the storage slot  disabledValidators[epoch][category][id], we do the following:\n            // 1. get the disabledValidators slot\n            // 2. add (epoch * 0x800) to the slot (or epoch << 11)\n            // 3. add (category * 0x08) to the slot (or category << 3)\n            // 4. add (id / 0x20) to the slot (or id >> 5)\n\n            // Once the storage slot has been loaded, we need to isolate the byte that contains our boolean\n            // This will be equal to id % 0x20, which is also id & 0x1f\n\n            // Putting this all together. The storage slot offset from '_proof' is...\n            // epoch: ((_proof & 0xff0000) >> 16) << 11 = ((_proof & 0xff0000) >> 5)\n            // category: ((_proof & 0xff00) >> 8) << 3 = ((_proof & 0xff00) >> 5)\n            // id: (_proof & 0xff) >> 5\n            // i.e. the storage slot offset = _proof >> 5\n\n            // the byte index of the storage word that we require, is equal to (_proof & 0x1f)\n            // to convert to a bit index, we multiply by 8\n            // i.e. bit index = shl(3, and(_proof & 0x1f))\n            // => result = shr(shl(3, and(_proof & 0x1f), value))\n            isValidatorDisabled :=\n                shr(\n                    shl(\n                        0x03,\n                        and(_proof, 0x1f)\n                    ),\n                    sload(add(shr(5, _proof), disabledValidators_slot))\n                )\n\n            // Next, compute validatedProofHash = keccak256(abi.encode(_proofHash, _proof, _sender))\n            // cache free memory pointer - we will overwrite it when computing hash (cheaper than using free memory)\n            let memPtr := mload(0x40)\n            mstore(0x00, _proofHash)\n            mstore(0x20, _proof)\n            mstore(0x40, _sender)\n            validatedProofHash := keccak256(0x00, 0x60)\n            mstore(0x40, memPtr) // restore the free memory pointer\n        }\n        require(isValidatorDisabled == false, \"proof id has been invalidated\");\n        return validatedProofs[validatedProofHash];\n    }\n\n    /**\n    * @dev Adds or modifies a proof into the Cryptography Engine.\n    *       This method links a given `_proof` to a smart contract validator.\n    * @param _proof the AZTEC proof object\n    * @param _validatorAddress the address of the smart contract validator\n    */\n    function setProof(\n        uint24 _proof,\n        address _validatorAddress\n    ) public {\n        require(isOwner(), \"only the owner can set a proof\");\n        require(_validatorAddress != address(0x0), \"expected the validator address to exist\");\n        (uint8 epoch, uint8 category, uint8 id) = _proof.getProofComponents();\n        require(epoch <= latestEpoch, \"the proof epoch cannot be bigger than the latest epoch\");\n        require(validators[epoch][category][id] == address(0x0), \"existing proofs cannot be modified\");\n        validators[epoch][category][id] = _validatorAddress;\n        emit SetProof(epoch, category, id, _validatorAddress);\n    }\n\n    /**\n     * @dev Increments the `latestEpoch` storage variable.\n     */\n    function incrementLatestEpoch() public {\n        require(isOwner(), \"only the owner can update the latest epoch\");\n        latestEpoch = latestEpoch.add(1);\n        emit IncrementLatestEpoch(latestEpoch);\n    }\n\n    /**\n    * @dev Returns the common reference string.\n    * We use a custom getter for `commonReferenceString` - the default getter created by making the storage\n    * variable public indexes individual elements of the array, and we want to return the whole array\n    */\n    function getCommonReferenceString() public view returns (bytes32[6] memory) {\n        return commonReferenceString;\n    }\n\n    /**\n    * @dev Get the address of the relevant validator contract\n    *\n    * @param _proof unique identifier of a particular proof\n    * @return validatorAddress - the address of the validator contract\n    */\n    function getValidatorAddress(uint24 _proof) public view returns (address validatorAddress) {\n        bool isValidatorDisabled;\n        bool queryInvalid;\n        assembly {\n            // To compute the storage key for validatorAddress[epoch][category][id], we do the following:\n            // 1. get the validatorAddress slot\n            // 2. add (epoch * 0x10000) to the slot\n            // 3. add (category * 0x100) to the slot\n            // 4. add (id) to the slot\n            // i.e. the range of storage pointers allocated to validatorAddress ranges from\n            // validatorAddress_slot to (0xffff * 0x10000 + 0xff * 0x100 + 0xff = validatorAddress_slot 0xffffffff)\n\n            // Conveniently, the multiplications we have to perform on epoch, category and id correspond\n            // to their byte positions in _proof.\n            // i.e. (epoch * 0x10000) = and(_proof, 0xff0000)\n            // and  (category * 0x100) = and(_proof, 0xff00)\n            // and  (id) = and(_proof, 0xff)\n\n            // Putting this all together. The storage slot offset from '_proof' is...\n            // (_proof & 0xffff0000) + (_proof & 0xff00) + (_proof & 0xff)\n            // i.e. the storage slot offset IS the value of _proof\n            validatorAddress := sload(add(_proof, validators_slot))\n\n            isValidatorDisabled :=\n                shr(\n                    shl(0x03, and(_proof, 0x1f)),\n                    sload(add(shr(5, _proof), disabledValidators_slot))\n                )\n            queryInvalid := or(iszero(validatorAddress), isValidatorDisabled)\n        }\n\n        // wrap both require checks in a single if test. This means the happy path only has 1 conditional jump\n        if (queryInvalid) {\n            require(validatorAddress != address(0x0), \"expected the validator address to exist\");\n            require(isValidatorDisabled == false, \"expected the validator address to not be disabled\");\n        }\n    }\n}\n\n",
  "sourcePath": "/Users/suleymankardas/Desktop/aztec/aztec-protocol/contracts/ACE/ACE.sol",
  "compiler": {
    "name": "solc",
    "version": "0.5.17+commit.d19bba13.Emscripten.clang"
  },
  "schemaVersion": "3.4.1",
  "updatedAt": "2022-03-28T15:01:11.105Z",
  "networkType": "ethereum",
  "devdoc": {
    "author": "AZTEC",
    "details": "ACE validates the AZTEC protocol's family of zero-knowledge proofs, which enables     digital asset builders to construct fungible confidential digital assets according to the AZTEC token standard.  * Copyright 2020 Spilsbury Holdings Ltd  * Licensed under the GNU Lesser General Public Licence, Version 3.0 (the \"License\"); you may not use this file except in compliance with the License. * This program is distributed in the hope that it will be useful, but WITHOUT ANY WARRANTY; without even the implied warranty of MERCHANTABILITY or FITNESS FOR A PARTICULAR PURPOSE.  See the GNU Lesser General Public License for more details. * You should have received a copy of the GNU Lesser General Public License along with this program.  If not, see <https://www.gnu.org/licenses/>.*",
    "methods": {
      "burn(uint24,bytes,address)": {
        "details": "Burn AZTEC notes",
        "params": {
          "_proof": "the AZTEC proof object",
          "_proofData": "the burn proof construction data",
          "_proofSender": "the Ethereum address of the original transaction sender. It is explicitly assumed that       an asset using ACE supplies this field correctly - if they don't their asset is vulnerable to front-running Unnamed param is the AZTEC zero-knowledge proof data"
        },
        "return": "two `bytes` objects. The first contains the new confidentialTotalSupply note and the second contains the notes that were created. Returned so that a zkAsset can emit the appropriate events"
      },
      "clearProofByHashes(uint24,bytes32[])": {
        "details": "Clear storage variables set when validating zero-knowledge proofs.     The only address that can clear data from `validatedProofs` is the address that created the proof.     Function is designed to utilize [EIP-1283](https://github.com/ethereum/EIPs/blob/master/EIPS/eip-1283.md)     to reduce gas costs. It is highly likely that any storage variables set by `validateProof`     are only required for the duration of a single transaction.     E.g. a decentralized exchange validating a swap proof and sending transfer instructions to     two confidential assets.     This method allows the calling smart contract to recover most of the gas spent by setting `validatedProofs`",
        "params": {
          "_proof": "the AZTEC proof object",
          "_proofHashes": "dynamic array of proof hashes"
        }
      },
      "constructor": {
        "details": "contract constructor. Sets the owner of ACE*"
      },
      "createNoteRegistry(address,uint256,bool,bool)": {
        "details": "Default noteRegistry creation method. Doesn't take the id of the factory to use, but generates it based on defaults and on the passed flags.",
        "params": {
          "_canAdjustSupply": "- whether the noteRegistry can make use of minting and burning",
          "_canConvert": "- whether the noteRegistry can transfer value from private to public representation and vice versa",
          "_linkedTokenAddress": "- address of any erc20 linked token (can not be 0x0 if canConvert is true)",
          "_scalingFactor": "- defines the number of tokens that an AZTEC note value of 1 maps to."
        }
      },
      "createNoteRegistry(address,uint256,bool,bool,uint24)": {
        "details": "NoteRegistry creation method. Takes an id of the factory to use.",
        "params": {
          "_canAdjustSupply": "- whether the noteRegistry can make use of minting and burning",
          "_canConvert": "- whether the noteRegistry can transfer value from private to public representation and vice versa",
          "_factoryId": "- uint24 which contains 3 uint8s representing (epoch, cryptoSystem, assetType)",
          "_linkedTokenAddress": "- address of any erc20 linked token (can not be 0x0 if canConvert is true)",
          "_scalingFactor": "- defines the number of tokens that an AZTEC note value of 1 maps to."
        }
      },
      "getCommonReferenceString()": {
        "details": "Returns the common reference string. We use a custom getter for `commonReferenceString` - the default getter created by making the storage variable public indexes individual elements of the array, and we want to return the whole array"
      },
      "getFactoryAddress(uint24)": {
        "details": "Get the factory address associated with a particular factoryId. Fail if resulting address is 0x0.",
        "params": {
          "_factoryId": "- uint24 which contains 3 uint8s representing (epoch, cryptoSystem, assetType)"
        }
      },
      "getNote(address,bytes32)": {
        "details": "Returns the note for a given address and note hash.",
        "params": {
          "_noteHash": "- keccak256 hash of the note coordiantes (gamma and sigma)",
          "_registryOwner": "- address of the registry owner"
        },
        "return": "status - status of the note, details whether the note is in a note registry or has been destroyedcreatedOn - time the note was createddestroyedOn - time the note was destroyednoteOwner - address of the note owner"
      },
      "getRegistry(address)": {
        "details": "Returns the registry for a given address.",
        "params": {
          "_registryOwner": "- address of the registry owner in question"
        },
        "return": "linkedTokenAddress - public ERC20 token that is linked to the NoteRegistry. This is used to transfer public value into and out of the systemscalingFactor - defines how many ERC20 tokens are represented by one AZTEC notetotalSupply - represents the total current supply of public tokens associated with a particular registryconfidentialTotalMinted - keccak256 hash of the note representing the total minted supplyconfidentialTotalBurned - keccak256 hash of the note representing the total burned supplycanConvert - flag set by the owner to decide whether the registry has public to private, and vice versa, conversion privilegecanAdjustSupply - determines whether the registry has minting and burning privileges"
      },
      "getValidatorAddress(uint24)": {
        "details": "Get the address of the relevant validator contract",
        "params": {
          "_proof": "unique identifier of a particular proof"
        },
        "return": "validatorAddress - the address of the validator contract"
      },
      "incrementDefaultRegistryEpoch()": {
        "details": "Increment the default registry epoch"
      },
      "incrementLatestEpoch()": {
        "details": "Increments the `latestEpoch` storage variable."
      },
      "invalidateProof(uint24)": {
        "details": "Forever invalidate the given proof.",
        "params": {
          "_proof": "the AZTEC proof object"
        }
      },
      "isOwner()": {
        "details": "Returns true if the caller is the current owner."
      },
      "makeAssetAvailable(address)": {
        "details": "used for slow release, useless afterwards."
      },
      "mint(uint24,bytes,address)": {
        "details": "Mint AZTEC notes",
        "params": {
          "_proof": "the AZTEC proof object",
          "_proofData": "the mint proof construction data",
          "_proofSender": "the Ethereum address of the original transaction sender. It is explicitly assumed that       an asset using ACE supplies this field correctly - if they don't their asset is vulnerable to front-running Unnamed param is the AZTEC zero-knowledge proof data"
        },
        "return": "two `bytes` objects. The first contains the new confidentialTotalSupply note and the second contains the notes that were created. Returned so that a zkAsset can emit the appropriate events"
      },
      "owner()": {
        "details": "Returns the address of the current owner."
      },
      "publicApprove(address,bytes32,uint256)": {
        "details": "Adds a public approval record to the noteRegistry, for use by ACE when it needs to transfer public tokens it holds to an external address. It needs to be associated with the hash of a proof."
      },
      "renounceOwnership()": {
        "details": "Leaves the contract without owner. It will not be possible to call `onlyOwner` functions anymore. Can only be called by the current owner.     * NOTE: Renouncing ownership will leave the contract without an owner, thereby removing any functionality that is only available to the owner."
      },
      "setCommonReferenceString(bytes32[6])": {
        "details": "Set the common reference string.     If the trusted setup is re-run, we will need to be able to change the crs",
        "params": {
          "_commonReferenceString": "the new commonReferenceString"
        }
      },
      "setDefaultCryptoSystem(uint8)": {
        "details": "Set the default crypto system to be used",
        "params": {
          "_defaultCryptoSystem": "- default crypto system identifier"
        }
      },
      "setFactory(uint24,address)": {
        "details": "Register a new Factory, iff no factory for that ID exists. The epoch of any new factory must be at least as big as the default registry epoch. Each asset type for each cryptosystem for each epoch should have a note registry",
        "params": {
          "_factoryAddress": "- address of the deployed factory",
          "_factoryId": "- uint24 which contains 3 uint8s representing (epoch, cryptoSystem, assetType)"
        }
      },
      "setProof(uint24,address)": {
        "details": "Adds or modifies a proof into the Cryptography Engine.      This method links a given `_proof` to a smart contract validator.",
        "params": {
          "_proof": "the AZTEC proof object",
          "_validatorAddress": "the address of the smart contract validator"
        }
      },
      "supplementTokens(uint256)": {
        "details": "called when a mintable and convertible asset wants to perform an action which puts the zero-knowledge and public balance out of balance. For example, if minting in zero-knowledge, some public tokens need to be added to the pool managed by ACE, otherwise any private->public conversion runs the risk of not having any public tokens to send.",
        "params": {
          "_value": "the value to be added"
        }
      },
      "transferOwnership(address)": {
        "details": "Transfers ownership of the contract to a new account (`newOwner`). Can only be called by the current owner."
      },
      "updateNoteRegistry(uint24,bytes,address)": {
        "details": "Update the state of the note registry according to transfer instructions issued by a zero-knowledge proof. This method will verify that the relevant proof has been validated, make sure the same proof has can't be re-used, and it then delegates to the relevant noteRegistry.",
        "params": {
          "_proof": "- unique identifier for a proof",
          "_proofOutput": "- transfer instructions issued by a zero-knowledge proof",
          "_proofSender": "- address of the entity sending the proof"
        }
      },
      "upgradeNoteRegistry(uint24)": {
        "details": "Method to upgrade the registry linked with the msg.sender to a new factory, based on _factoryId. The submitted _factoryId must be of epoch equal or greater than previous _factoryId, and of the same assetType.",
        "params": {
          "_factoryId": "- uint24 which contains 3 uint8s representing (epoch, cryptoSystem, assetType)"
        }
      },
      "validateProof(uint24,address,bytes)": {
        "details": "Validate an AZTEC zero-knowledge proof. ACE will issue a validation transaction to the smart contract     linked to `_proof`. The validator smart contract will have the following interface:    *      function validate(         bytes _proofData,         address _sender,         bytes32[6] _commonReferenceString     ) public returns (bytes)",
        "params": {
          "_proof": "the AZTEC proof object",
          "_sender": "the Ethereum address of the original transaction sender. It is explicitly assumed that       an asset using ACE supplies this field correctly - if they don't their asset is vulnerable to front-running Unnamed param is the AZTEC zero-knowledge proof data"
        },
        "return": "a `bytes proofOutputs` variable formatted according to the Cryptography Engine standard"
      },
      "validateProofByHash(uint24,bytes32,address)": {
        "details": "Validate a previously validated AZTEC proof via its hash     This enables confidential assets to receive transfer instructions from a dApp that     has already validated an AZTEC proof that satisfies a balancing relationship.",
        "params": {
          "_proof": "the AZTEC proof object",
          "_proofHash": "the hash of the `proofOutput` received by the asset",
          "_sender": "the Ethereum address of the contract issuing the transfer instruction"
        },
        "return": "a boolean that signifies whether the corresponding AZTEC proof has been validated"
      }
    },
    "title": "The AZTEC Cryptography Engine"
  },
  "userdoc": {
    "methods": {}
  }
}