{
  "contractName": "ACETest",
  "abi": [
    {
      "anonymous": false,
      "inputs": [
        {
          "indexed": false,
          "internalType": "bytes",
          "name": "proofOutputs",
          "type": "bytes"
        }
      ],
      "name": "DebugValidateProofs",
      "type": "event"
    },
    {
      "constant": true,
      "inputs": [],
      "name": "ace",
      "outputs": [
        {
          "internalType": "contract ACE",
          "name": "",
          "type": "address"
        }
      ],
      "payable": false,
      "stateMutability": "view",
      "type": "function"
    },
    {
      "constant": false,
      "inputs": [
        {
          "internalType": "address",
          "name": "_aceAddress",
          "type": "address"
        }
      ],
      "name": "setACEAddress",
      "outputs": [],
      "payable": false,
      "stateMutability": "nonpayable",
      "type": "function"
    },
    {
      "constant": false,
      "inputs": [
        {
          "internalType": "uint24",
          "name": "_proof",
          "type": "uint24"
        },
        {
          "internalType": "address",
          "name": "_sender",
          "type": "address"
        },
        {
          "internalType": "bytes",
          "name": "_proofData",
          "type": "bytes"
        }
      ],
      "name": "validateProof",
      "outputs": [
        {
          "internalType": "bytes",
          "name": "",
          "type": "bytes"
        }
      ],
      "payable": false,
      "stateMutability": "nonpayable",
      "type": "function"
    }
  ],
  "bytecode": "0x608060405234801561001057600080fd5b5061048b806100206000396000f3fe608060405234801561001057600080fd5b50600436106100415760003560e01c80631a3b4dfe14610046578063a2866ea31461006e578063a5c8fa84146101a3575b600080fd5b61006c6004803603602081101561005c57600080fd5b50356001600160a01b03166101c7565b005b61012e6004803603606081101561008457600080fd5b62ffffff823516916001600160a01b03602082013516918101906060810160408201356401000000008111156100b957600080fd5b8201836020820111156100cb57600080fd5b803590602001918460018302840111640100000000831117156100ed57600080fd5b91908080601f0160208091040260200160405190810160405280939291908181526020018383808284376000920191909152509295506101e9945050505050565b6040805160208082528351818301528351919283929083019185019080838360005b83811015610168578181015183820152602001610150565b50505050905090810190601f1680156101955780820380516001836020036101000a031916815260200191505b509250505060405180910390f35b6101ab610447565b604080516001600160a01b039092168252519081900360200190f35b600080546001600160a01b0319166001600160a01b0392909216919091179055565b6000805460405163a2866ea360e01b815262ffffff8616600482019081526001600160a01b03868116602484015260606044840181815287516064860152875191968796939093169463a2866ea3948b948b948b949293608401916020860191908190849084905b83811015610269578181015183820152602001610251565b50505050905090810190601f1680156102965780820380516001836020036101000a031916815260200191505b50945050505050600060405180830381600087803b1580156102b757600080fd5b505af11580156102cb573d6000803e3d6000fd5b505050506040513d6000823e601f3d908101601f1916820160405260208110156102f457600080fd5b810190808051604051939291908464010000000082111561031457600080fd5b90830190602082018581111561032957600080fd5b825164010000000081118282018810171561034357600080fd5b82525081516020918201929091019080838360005b83811015610370578181015183820152602001610358565b50505050905090810190601f16801561039d5780820380516001836020036101000a031916815260200191505b5060405250505090507fda862b89d9be885b0c99f8ca3083e06c0dbab94477d868c210ca5c65dcf70a5a816040518080602001828103825283818151815260200191508051906020019080838360005b838110156104055781810151838201526020016103ed565b50505050905090810190601f1680156104325780820380516001836020036101000a031916815260200191505b509250505060405180910390a1509392505050565b6000546001600160a01b03168156fea265627a7a72315820e06d0a79af1133b5fc1cfa8fc8959e929681780a8b1b51d3191088ee24c6b2de64736f6c63430005110032",
  "source": "pragma solidity >=0.5.0 <0.6.0;\n\nimport \"../../ACE/ACE.sol\";\n\n/**\n * @title ACETest\n * @author AZTEC\n *\n * Copyright 2020 Spilsbury Holdings Ltd \n *\n * Licensed under the GNU Lesser General Public Licence, Version 3.0 (the \"License\");\n * you may not use this file except in compliance with the License.\n *\n * This program is distributed in the hope that it will be useful,\n * but WITHOUT ANY WARRANTY; without even the implied warranty of\n * MERCHANTABILITY or FITNESS FOR A PARTICULAR PURPOSE.  See the\n * GNU Lesser General Public License for more details.\n *\n * You should have received a copy of the GNU Lesser General Public License\n * along with this program.  If not, see <https://www.gnu.org/licenses/>.\n**/\ncontract ACETest {\n    event DebugValidateProofs(bytes proofOutputs);\n\n    ACE public ace;\n\n    function setACEAddress(address _aceAddress) public {\n        ace = ACE(_aceAddress);\n    }\n\n    function validateProof(\n        uint24 _proof,\n        address _sender,\n        bytes memory _proofData\n    ) public returns (bytes memory) {\n        bytes memory proofOutputs = ace.validateProof(_proof, _sender, _proofData);\n        emit DebugValidateProofs(proofOutputs);\n    }\n}\n",
  "sourcePath": "/Users/suleymankardas/Desktop/aztec/aztec-protocol/contracts/test/ACE/ACETest.sol",
  "compiler": {
    "name": "solc",
    "version": "0.5.17+commit.d19bba13.Emscripten.clang"
  },
  "schemaVersion": "3.4.1",
  "updatedAt": "2022-03-28T14:36:05.545Z",
  "devdoc": {
    "author": "AZTEC * Copyright 2020 Spilsbury Holdings Ltd  * Licensed under the GNU Lesser General Public Licence, Version 3.0 (the \"License\"); you may not use this file except in compliance with the License. * This program is distributed in the hope that it will be useful, but WITHOUT ANY WARRANTY; without even the implied warranty of MERCHANTABILITY or FITNESS FOR A PARTICULAR PURPOSE.  See the GNU Lesser General Public License for more details. * You should have received a copy of the GNU Lesser General Public License along with this program.  If not, see <https://www.gnu.org/licenses/>.*",
    "methods": {},
    "title": "ACETest"
  },
  "userdoc": {
    "methods": {}
  }
}