{
  "contractName": "Behaviour20200106",
  "abi": [
    {
      "anonymous": false,
      "inputs": [
        {
          "indexed": false,
          "internalType": "address",
          "name": "accountAddress",
          "type": "address"
        },
        {
          "indexed": false,
          "internalType": "address",
          "name": "signerAddress",
          "type": "address"
        }
      ],
      "name": "Addresses",
      "type": "event"
    },
    {
      "anonymous": false,
      "inputs": [
        {
          "indexed": true,
          "internalType": "bytes32",
          "name": "signatureHash",
          "type": "bytes32"
        },
        {
          "indexed": true,
          "internalType": "bool",
          "name": "success",
          "type": "bool"
        },
        {
          "indexed": false,
          "internalType": "uint256",
          "name": "actualCharge",
          "type": "uint256"
        }
      ],
      "name": "GSNTransactionProcessed",
      "type": "event"
    },
    {
      "anonymous": false,
      "inputs": [
        {
          "indexed": true,
          "internalType": "address",
          "name": "account",
          "type": "address"
        },
        {
          "indexed": false,
          "internalType": "bytes",
          "name": "linkedPublicKey",
          "type": "bytes"
        },
        {
          "indexed": false,
          "internalType": "bytes",
          "name": "spendingPublicKey",
          "type": "bytes"
        }
      ],
      "name": "RegisterExtension",
      "type": "event"
    },
    {
      "anonymous": false,
      "inputs": [
        {
          "indexed": true,
          "internalType": "address",
          "name": "oldRelayHub",
          "type": "address"
        },
        {
          "indexed": true,
          "internalType": "address",
          "name": "newRelayHub",
          "type": "address"
        }
      ],
      "name": "RelayHubChanged",
      "type": "event"
    },
    {
      "constant": true,
      "inputs": [],
      "name": "BURN_PROOF",
      "outputs": [
        {
          "internalType": "uint24",
          "name": "",
          "type": "uint24"
        }
      ],
      "payable": false,
      "stateMutability": "view",
      "type": "function"
    },
    {
      "constant": true,
      "inputs": [],
      "name": "DIVIDEND_PROOF",
      "outputs": [
        {
          "internalType": "uint24",
          "name": "",
          "type": "uint24"
        }
      ],
      "payable": false,
      "stateMutability": "view",
      "type": "function"
    },
    {
      "constant": true,
      "inputs": [],
      "name": "EIP712_DOMAIN_HASH",
      "outputs": [
        {
          "internalType": "bytes32",
          "name": "",
          "type": "bytes32"
        }
      ],
      "payable": false,
      "stateMutability": "view",
      "type": "function"
    },
    {
      "constant": true,
      "inputs": [],
      "name": "JOIN_SPLIT_PROOF",
      "outputs": [
        {
          "internalType": "uint24",
          "name": "",
          "type": "uint24"
        }
      ],
      "payable": false,
      "stateMutability": "view",
      "type": "function"
    },
    {
      "constant": true,
      "inputs": [],
      "name": "MINT_PROOF",
      "outputs": [
        {
          "internalType": "uint24",
          "name": "",
          "type": "uint24"
        }
      ],
      "payable": false,
      "stateMutability": "view",
      "type": "function"
    },
    {
      "constant": true,
      "inputs": [],
      "name": "PRIVATE_RANGE_PROOF",
      "outputs": [
        {
          "internalType": "uint24",
          "name": "",
          "type": "uint24"
        }
      ],
      "payable": false,
      "stateMutability": "view",
      "type": "function"
    },
    {
      "constant": true,
      "inputs": [],
      "name": "PUBLIC_RANGE_PROOF",
      "outputs": [
        {
          "internalType": "uint24",
          "name": "",
          "type": "uint24"
        }
      ],
      "payable": false,
      "stateMutability": "view",
      "type": "function"
    },
    {
      "constant": true,
      "inputs": [
        {
          "internalType": "address",
          "name": "relay",
          "type": "address"
        },
        {
          "internalType": "address",
          "name": "from",
          "type": "address"
        },
        {
          "internalType": "bytes",
          "name": "encodedFunction",
          "type": "bytes"
        },
        {
          "internalType": "uint256",
          "name": "transactionFee",
          "type": "uint256"
        },
        {
          "internalType": "uint256",
          "name": "gasPrice",
          "type": "uint256"
        },
        {
          "internalType": "uint256",
          "name": "gasLimit",
          "type": "uint256"
        },
        {
          "internalType": "uint256",
          "name": "nonce",
          "type": "uint256"
        },
        {
          "internalType": "bytes",
          "name": "approvalData",
          "type": "bytes"
        },
        {
          "internalType": "uint256",
          "name": "",
          "type": "uint256"
        }
      ],
      "name": "acceptRelayedCall",
      "outputs": [
        {
          "internalType": "uint256",
          "name": "",
          "type": "uint256"
        },
        {
          "internalType": "bytes",
          "name": "context",
          "type": "bytes"
        }
      ],
      "payable": false,
      "stateMutability": "view",
      "type": "function"
    },
    {
      "constant": true,
      "inputs": [
        {
          "internalType": "address",
          "name": "",
          "type": "address"
        }
      ],
      "name": "accountMapping",
      "outputs": [
        {
          "internalType": "bytes",
          "name": "",
          "type": "bytes"
        }
      ],
      "payable": false,
      "stateMutability": "view",
      "type": "function"
    },
    {
      "constant": true,
      "inputs": [],
      "name": "epoch",
      "outputs": [
        {
          "internalType": "uint256",
          "name": "",
          "type": "uint256"
        }
      ],
      "payable": false,
      "stateMutability": "view",
      "type": "function"
    },
    {
      "constant": true,
      "inputs": [],
      "name": "getHubAddr",
      "outputs": [
        {
          "internalType": "address",
          "name": "",
          "type": "address"
        }
      ],
      "payable": false,
      "stateMutability": "view",
      "type": "function"
    },
    {
      "constant": false,
      "inputs": [
        {
          "internalType": "bytes",
          "name": "context",
          "type": "bytes"
        },
        {
          "internalType": "bool",
          "name": "success",
          "type": "bool"
        },
        {
          "internalType": "uint256",
          "name": "actualCharge",
          "type": "uint256"
        },
        {
          "internalType": "bytes32",
          "name": "preRetVal",
          "type": "bytes32"
        }
      ],
      "name": "postRelayedCall",
      "outputs": [],
      "payable": false,
      "stateMutability": "nonpayable",
      "type": "function"
    },
    {
      "constant": false,
      "inputs": [
        {
          "internalType": "bytes",
          "name": "context",
          "type": "bytes"
        }
      ],
      "name": "preRelayedCall",
      "outputs": [
        {
          "internalType": "bytes32",
          "name": "",
          "type": "bytes32"
        }
      ],
      "payable": false,
      "stateMutability": "nonpayable",
      "type": "function"
    },
    {
      "constant": true,
      "inputs": [],
      "name": "relayHubVersion",
      "outputs": [
        {
          "internalType": "string",
          "name": "",
          "type": "string"
        }
      ],
      "payable": false,
      "stateMutability": "view",
      "type": "function"
    },
    {
      "constant": false,
      "inputs": [],
      "name": "setDefaultRelayHub",
      "outputs": [],
      "payable": false,
      "stateMutability": "nonpayable",
      "type": "function"
    },
    {
      "constant": true,
      "inputs": [
        {
          "internalType": "bytes32",
          "name": "",
          "type": "bytes32"
        }
      ],
      "name": "signatureLog",
      "outputs": [
        {
          "internalType": "bool",
          "name": "",
          "type": "bool"
        }
      ],
      "payable": false,
      "stateMutability": "view",
      "type": "function"
    },
    {
      "constant": true,
      "inputs": [
        {
          "internalType": "address",
          "name": "",
          "type": "address"
        }
      ],
      "name": "userToAZTECAccountMapping",
      "outputs": [
        {
          "internalType": "address",
          "name": "",
          "type": "address"
        }
      ],
      "payable": false,
      "stateMutability": "view",
      "type": "function"
    },
    {
      "constant": false,
      "inputs": [
        {
          "internalType": "address",
          "name": "_aceAddress",
          "type": "address"
        },
        {
          "internalType": "address",
          "name": "_trustedGSNSignerAddress",
          "type": "address"
        }
      ],
      "name": "initialize",
      "outputs": [],
      "payable": false,
      "stateMutability": "nonpayable",
      "type": "function"
    },
    {
      "constant": false,
      "inputs": [],
      "name": "initialize",
      "outputs": [],
      "payable": false,
      "stateMutability": "nonpayable",
      "type": "function"
    },
    {
      "constant": false,
      "inputs": [
        {
          "internalType": "address",
          "name": "_account",
          "type": "address"
        },
        {
          "internalType": "address",
          "name": "_AZTECaddress",
          "type": "address"
        },
        {
          "internalType": "bytes",
          "name": "_linkedPublicKey",
          "type": "bytes"
        },
        {
          "internalType": "bytes",
          "name": "_spendingPublicKey",
          "type": "bytes"
        },
        {
          "internalType": "bytes",
          "name": "_signature",
          "type": "bytes"
        }
      ],
      "name": "registerAZTECExtension",
      "outputs": [],
      "payable": false,
      "stateMutability": "nonpayable",
      "type": "function"
    },
    {
      "constant": false,
      "inputs": [
        {
          "internalType": "uint24",
          "name": "_proofId",
          "type": "uint24"
        },
        {
          "internalType": "address",
          "name": "_registryOwner",
          "type": "address"
        },
        {
          "internalType": "bytes",
          "name": "_proofData",
          "type": "bytes"
        },
        {
          "internalType": "address",
          "name": "_spender",
          "type": "address"
        },
        {
          "internalType": "bytes",
          "name": "_proofSignature",
          "type": "bytes"
        }
      ],
      "name": "confidentialTransferFrom",
      "outputs": [],
      "payable": false,
      "stateMutability": "nonpayable",
      "type": "function"
    },
    {
      "constant": false,
      "inputs": [
        {
          "internalType": "address",
          "name": "_registryOwner",
          "type": "address"
        },
        {
          "internalType": "address",
          "name": "_owner",
          "type": "address"
        },
        {
          "internalType": "bytes32",
          "name": "_proofHash",
          "type": "bytes32"
        },
        {
          "internalType": "bytes",
          "name": "_proofData",
          "type": "bytes"
        },
        {
          "internalType": "uint256",
          "name": "_value",
          "type": "uint256"
        }
      ],
      "name": "deposit",
      "outputs": [],
      "payable": false,
      "stateMutability": "nonpayable",
      "type": "function"
    },
    {
      "constant": false,
      "inputs": [
        {
          "internalType": "address",
          "name": "_registryOwner",
          "type": "address"
        },
        {
          "internalType": "bytes32",
          "name": "_proofHash",
          "type": "bytes32"
        },
        {
          "internalType": "uint256",
          "name": "_value",
          "type": "uint256"
        }
      ],
      "name": "publicApprove",
      "outputs": [],
      "payable": false,
      "stateMutability": "nonpayable",
      "type": "function"
    }
  ],
  "bytecode": "0x6301343aaa6036557f454950373132446f6d61696e280000000000000000000000000000000000000060a09081527f737472696e67206e616d652c000000000000000000000000000000000000000060ad527f737472696e672076657273696f6e2c000000000000000000000000000000000060b9527f6164647265737320766572696679696e67436f6e74726163740000000000000060c8527f290000000000000000000000000000000000000000000000000000000000000060e152604260808181529120601960e2527f415a5445435f43525950544f4752415048595f454e47494e4500000000000000610102526001610122527f3100000000000000000000000000000000000000000000000000000000000000610142526101829081527fc8066e2c715ce196630b273cd256d8959d5b9fefc55e9e6d999fb0f08bb7f75f6101a2527fc89efdaa54c0f20c7adf612882df0950f5a951637e0307cdcb4c672f298b8bc66101c252306101e252610162829052610202604052206035556129af8061018f6000396000f3fe608060405234801561001057600080fd5b506004361061014c5760003560e01c806383947ea0116100c3578063c52b2ff31161007c578063c52b2ff3146107d9578063df9246251461089f578063e06e0e22146108a7578063e0b28d2214610923578063e306f77914610949578063e308d6ff146109515761014c565b806383947ea0146104105780638500e1f81461057d5780638e526d9b14610585578063900cf0cf1461058d578063ad61ccd514610595578063bb2fa91b146106125761014c565b80633d6bb32c116101155780633d6bb32c14610308578063485cc9551461034a57806349518b281461037857806374e861d61461038057806380274db7146103885780638129fc1c146104085761014c565b80625bf7321461015157806308ae900a1461017157806309146c7c146101795780631220e2ff146101aa57806318cb65e6146101b4575b600080fd5b610159610983565b6040805162ffffff9092168252519081900360200190f35b61015961098a565b6101966004803603602081101561018f57600080fd5b5035610991565b604080519115158252519081900360200190f35b6101b26109a6565b005b6101b2600480360360a08110156101ca57600080fd5b62ffffff823516916001600160a01b0360208201351691810190606081016040820135600160201b8111156101fe57600080fd5b82018360208201111561021057600080fd5b803590602001918460018302840111600160201b8311171561023157600080fd5b91908080601f01602080910402602001604051908101604052809392919081815260200183838082843760009201919091525092956001600160a01b03853516959094909350604081019250602001359050600160201b81111561029457600080fd5b8201836020820111156102a657600080fd5b803590602001918460018302840111600160201b831117156102c757600080fd5b91908080601f0160208091040260200160405190810160405280939291908181526020018383808284376000920191909152509295506109c5945050505050565b61032e6004803603602081101561031e57600080fd5b50356001600160a01b0316610dba565b604080516001600160a01b039092168252519081900360200190f35b6101b26004803603604081101561036057600080fd5b506001600160a01b0381358116916020013516610dd5565b610159610e9d565b61032e610ea4565b6103f66004803603602081101561039e57600080fd5b810190602081018135600160201b8111156103b857600080fd5b8201836020820111156103ca57600080fd5b803590602001918460018302840111600160201b831117156103eb57600080fd5b509092509050610eb4565b60408051918252519081900360200190f35b6101b2610f55565b6104fe600480360361012081101561042757600080fd5b6001600160a01b038235811692602081013590911691810190606081016040820135600160201b81111561045a57600080fd5b82018360208201111561046c57600080fd5b803590602001918460018302840111600160201b8311171561048d57600080fd5b9193909282359260208101359260408201359260608301359260a081019060800135600160201b8111156104c057600080fd5b8201836020820111156104d257600080fd5b803590602001918460018302840111600160201b831117156104f357600080fd5b91935091503561100f565b6040518083815260200180602001828103825283818151815260200191508051906020019080838360005b83811015610541578181015183820152602001610529565b50505050905090810190601f16801561056e5780820380516001836020036101000a031916815260200191505b50935050505060405180910390f35b61015961128b565b610159611292565b6103f6611299565b61059d61129f565b6040805160208082528351818301528351919283929083019185019080838360005b838110156105d75781810151838201526020016105bf565b50505050905090810190601f1680156106045780820380516001836020036101000a031916815260200191505b509250505060405180910390f35b6101b2600480360360a081101561062857600080fd5b6001600160a01b038235811692602081013590911691810190606081016040820135600160201b81111561065b57600080fd5b82018360208201111561066d57600080fd5b803590602001918460018302840111600160201b8311171561068e57600080fd5b91908080601f0160208091040260200160405190810160405280939291908181526020018383808284376000920191909152509295949360208101935035915050600160201b8111156106e057600080fd5b8201836020820111156106f257600080fd5b803590602001918460018302840111600160201b8311171561071357600080fd5b91908080601f0160208091040260200160405190810160405280939291908181526020018383808284376000920191909152509295949360208101935035915050600160201b81111561076557600080fd5b82018360208201111561077757600080fd5b803590602001918460018302840111600160201b8311171561079857600080fd5b91908080601f0160208091040260200160405190810160405280939291908181526020018383808284376000920191909152509295506112be945050505050565b6101b2600480360360a08110156107ef57600080fd5b6001600160a01b03823581169260208101359091169160408201359190810190608081016060820135600160201b81111561082957600080fd5b82018360208201111561083b57600080fd5b803590602001918460018302840111600160201b8311171561085c57600080fd5b91908080601f016020809104026020016040519081016040528093929190818152602001838380828437600092019190915250929550509135925061164d915050565b610159611c1a565b6101b2600480360360808110156108bd57600080fd5b810190602081018135600160201b8111156108d757600080fd5b8201836020820111156108e957600080fd5b803590602001918460018302840111600160201b8311171561090a57600080fd5b9193509150803515159060208101359060400135611c21565b61059d6004803603602081101561093957600080fd5b50356001600160a01b0316611cc3565b6103f6611d5e565b6101b26004803603606081101561096757600080fd5b506001600160a01b038135169060208101359060400135611d64565b6201010181565b6201040381565b60396020526000908152604090205460ff1681565b6109c373d216153c06e857cd7f72665e0af1d7d82172f494611ddd565b565b603a5460405163a2866ea360e01b815262ffffff871660048201908152306024830181905260606044840181815288516064860152885191956001600160a01b03169463a2866ea3948c94938b93919260840190602085019080838360005b83811015610a3c578181015183820152602001610a24565b50505050905090810190601f168015610a695780820380516001836020036101000a031916815260200191505b50945050505050600060405180830381600087803b158015610a8a57600080fd5b505af1158015610a9e573d6000803e3d6000fd5b505050506040513d6000823e601f3d908101601f191682016040526020811015610ac757600080fd5b8101908080516040519392919084600160201b821115610ae657600080fd5b908301906020820185811115610afb57600080fd5b8251600160201b811182820188101715610b1457600080fd5b82525081516020918201929091019080838360005b83811015610b41578181015183820152602001610b29565b50505050905090810190601f168015610b6e5780820380516001836020036101000a031916815260200191505b5060405250505090508151600014610cd057604051630530182d60e11b815262ffffff8716600482019081526001600160a01b03858116604484015260016064840181905260a060248501908152855160a48601528551928a1694630a60305a948c9488948b9490938b9392608482019160c40190602089019080838360005b83811015610c06578181015183820152602001610bee565b50505050905090810190601f168015610c335780820380516001836020036101000a031916815260200191505b50838103825284518152845160209182019186019080838360005b83811015610c66578181015183820152602001610c4e565b50505050905090810190601f168015610c935780820380516001836020036101000a031916815260200191505b50975050505050505050600060405180830381600087803b158015610cb757600080fd5b505af1158015610ccb573d6000803e3d6000fd5b505050505b6001600160a01b03851663cdfea90e87610cf184600063ffffffff611edd16565b604080516001600160e01b031960e086901b16815262ffffff8416600482019081526024820192835283516044830152835190929160640190602085019080838360005b83811015610d4d578181015183820152602001610d35565b50505050905090810190601f168015610d7a5780820380516001836020036101000a031916815260200191505b509350505050600060405180830381600087803b158015610d9a57600080fd5b505af1158015610dae573d6000803e3d6000fd5b50505050505050505050565b6038602052600090815260409020546001600160a01b031681565b600054610100900460ff1680610dee5750610dee611f34565b80610dfc575060005460ff16155b610e375760405162461bcd60e51b815260040180806020018281038252602e815260200180612838602e913960400191505060405180910390fd5b600054610100900460ff16158015610e62576000805460ff1961ff0019909116610100171660011790555b603a80546001600160a01b0319166001600160a01b038516179055610e8682611f3a565b8015610e98576000805461ff00191690555b505050565b6201040281565b6033546001600160a01b03165b90565b6000610ebe610ea4565b6001600160a01b0316336001600160a01b031614610f0d5760405162461bcd60e51b81526004018080602001828103825260248152602001806128ed6024913960400191505060405180910390fd5b610f4c83838080601f01602080910402602001604051908101604052809392919081815260200183838082843760009201919091525061204592505050565b90505b92915050565b600054610100900460ff1680610f6e5750610f6e611f34565b80610f7c575060005460ff16155b610fb75760405162461bcd60e51b815260040180806020018281038252602e815260200180612838602e913960400191505060405180910390fd5b600054610100900460ff16158015610fe2576000805460ff1961ff0019909116610100171660011790555b6033546001600160a01b0316610ffa57610ffa6109a6565b801561100c576000805461ff00191690555b50565b60006060600060608686604081101561102757600080fd5b81359190810190604081016020820135600160201b81111561104857600080fd5b82018360208201111561105a57600080fd5b803590602001918460018302840111600160201b8311171561107b57600080fd5b91908080601f016020809104026020016040519081016040528093929190818152602001838380828437600081840152601f19601f8201169050808301925050505050505091929192905050509150915060608f8f8f8f8f8f8f8f6110de610ea4565b308c604051602001808c6001600160a01b03166001600160a01b031660601b81526014018b6001600160a01b03166001600160a01b031660601b81526014018a8a808284379190910198895250506020808801969096526040808801959095526060808801949094526bffffffffffffffffffffffff1992841b83166080880152921b16609485015260a8808501919091528151808503909101815260c8840190915260e88301828152895161010885015289519198508997509550859450610128909201925085019080838360005b838110156111c65781810151838201526020016111ae565b50505050905090810190601f1680156111f35780820380516001836020036101000a031916815260200191505b5060408051601f19818403018152919052603454855160208701209198506001600160a01b03169350611239925085915061122d9061204b565b9063ffffffff61209c16565b6001600160a01b0316141561127157824211156112685761125c60015b85612180565b9450945050505061127b565b61125c84612189565b61125c6000611256565b9b509b9950505050505050505050565b6201040181565b6201020181565b60365481565b6040805180820190915260058152640312e302e360dc1b602082015290565b6000816040516020018082805190602001908083835b602083106112f35780518252601f1990920191602091820191016112d4565b51815160209384036101000a60001901801990921691161790526040805192909401828103601f190183528452815191810191909120600081815260399092529290205491945050600160ff90911615151415915061139b9050576040805162461bcd60e51b815260206004820152601f60248201527f7369676e61747572652068617320616c7265616479206265656e207573656400604482015290519081900360640190fd5b6000818152603960209081526040808320805460ff1916600117905580516060810182526001600160a01b03808b168252928101889052918816908201526113ec906113e69061218e565b84612392565b845160208601209091506001600160a01b0388811691161461143f5760405162461bcd60e51b81526004018080602001828103825260218152602001806128cc6021913960400191505060405180910390fd5b806001600160a01b0316876001600160a01b0316146114a5576040805162461bcd60e51b815260206004820152601a60248201527f7369676e6572206d75737420626520746865206163636f756e74000000000000604482015290519081900360640190fd5b6001600160a01b038716600090815260376020908152604090912086516114ce928801906126b1565b506001600160a01b0387811660008181526038602090815260409182902080546001600160a01b0319168b861617905581519283529284169282019290925281517f95a39d922be29576604d782638b30fccbff80d85c69a650415d8b560270ec9a0929181900390910190a1866001600160a01b03167f6943ea2c7fa944e0014e912e815bb331b63af36341f53622fce2f97d26a928e28686604051808060200180602001838103835285818151815260200191508051906020019080838360005b838110156115a8578181015183820152602001611590565b50505050905090810190601f1680156115d55780820380516001836020036101000a031916815260200191505b50838103825284518152845160209182019186019080838360005b838110156116085781810151838201526020016115f0565b50505050905090810190601f1680156116355780820380516001836020036101000a031916815260200191505b5094505050505060405180910390a250505050505050565b603a5460405163a2866ea360e01b81526201010160048201818152306024840181905260606044850181815288516064870152885191966001600160a01b03169563a2866ea395948a9390929160840190602085019080838360005b838110156116c15781810151838201526020016116a9565b50505050905090810190601f1680156116ee5780820380516001836020036101000a031916815260200191505b50945050505050600060405180830381600087803b15801561170f57600080fd5b505af1158015611723573d6000803e3d6000fd5b505050506040513d6000823e601f3d908101601f19168201604052602081101561174c57600080fd5b8101908080516040519392919084600160201b82111561176b57600080fd5b90830190602082018581111561178057600080fd5b8251600160201b81118282018810171561179957600080fd5b82525081516020918201929091019080838360005b838110156117c65781810151838201526020016117ae565b50505050905090810190601f1680156117f35780820380516001836020036101000a031916815260200191505b5060405250505090506118046124da565b6001600160a01b0316856001600160a01b031614611931576118246124da565b6001600160a01b03868116600090815260386020526040902054811691161461187e5760405162461bcd60e51b815260040180806020018281038252603681526020018061274a6036913960400191505060405180910390fd5b606061189961189483600063ffffffff611edd16565b612505565b505091505060006118a98261252f565b905060005b8181101561192d5760006118d06118cb858463ffffffff611edd16565b612536565b50509050886001600160a01b0316816001600160a01b0316146119245760405162461bcd60e51b81526004018080602001828103825260488152602001806127806048913960600191505060405180910390fd5b506001016118ae565b5050505b603a5460408051633e5c75df60e21b81526001600160a01b0389811660048301529151600093929092169163f971d77c9160248082019261010092909190829003018186803b15801561198357600080fd5b505afa158015611997573d6000803e3d6000fd5b505050506040513d6101008110156119ae57600080fd5b5051604080516323b872dd60e01b81526001600160a01b0389811660048301523060248301526044820187905291519293508392918316916323b872dd916064808201926020929091908290030181600087803b158015611a0e57600080fd5b505af1158015611a22573d6000803e3d6000fd5b505050506040513d6020811015611a3857600080fd5b5050603a546040805163095ea7b360e01b81526001600160a01b0392831660048201526024810187905290519183169163095ea7b3916044808201926020929091908290030181600087803b158015611a9057600080fd5b505af1158015611aa4573d6000803e3d6000fd5b505050506040513d6020811015611aba57600080fd5b5050603a546040805163e308d6ff60e01b81526001600160a01b038b81166004830152602482018a9052604482018890529151919092169163e308d6ff91606480830192600092919082900301818387803b158015611b1857600080fd5b505af1158015611b2c573d6000803e3d6000fd5b5050506001600160a01b038916905063cdfea90e62010101611b4f866000611edd565b604080516001600160e01b031960e086901b16815262ffffff8416600482019081526024820192835283516044830152835190929160640190602085019080838360005b83811015611bab578181015183820152602001611b93565b50505050905090810190601f168015611bd85780820380516001836020036101000a031916815260200191505b509350505050600060405180830381600087803b158015611bf857600080fd5b505af1158015611c0c573d6000803e3d6000fd5b505050505050505050505050565b6201030181565b611c29610ea4565b6001600160a01b0316336001600160a01b031614611c785760405162461bcd60e51b81526004018080602001828103825260248152602001806128ed6024913960400191505060405180910390fd5b611cbc85858080601f016020809104026020016040519081016040528093929190818152602001838380828437600092019190915250879250869150859050612554565b5050505050565b60376020908152600091825260409182902080548351601f600260001961010060018616150201909316929092049182018490048402810184019094528084529091830182828015611d565780601f10611d2b57610100808354040283529160200191611d56565b820191906000526020600020905b815481529060010190602001808311611d3957829003601f168201915b505050505081565b60355481565b603a546040805163e308d6ff60e01b81526001600160a01b03868116600483015260248201869052604482018590529151919092169163e308d6ff91606480830192600092919082900301818387803b158015611dc057600080fd5b505af1158015611dd4573d6000803e3d6000fd5b50505050505050565b6033546001600160a01b03908116908216611e295760405162461bcd60e51b815260040180806020018281038252602e8152602001806127c8602e913960400191505060405180910390fd5b806001600160a01b0316826001600160a01b03161415611e7a5760405162461bcd60e51b815260040180806020018281038252602d815260200180612866602d913960400191505060405180910390fd5b816001600160a01b0316816001600160a01b03167fb9f84b8e65164b14439ae3620df0a4d8786d896996c0282b683f9d8c08f046e860405160405180910390a350603380546001600160a01b0319166001600160a01b0392909216919091179055565b602082810151908202830160400151830190821080611f2d5760405162461bcd60e51b81526004018080602001828103825260228152602001806129596022913960400191505060405180910390fd5b5092915050565b303b1590565b600054610100900460ff1680611f535750611f53611f34565b80611f61575060005460ff16155b611f9c5760405162461bcd60e51b815260040180806020018281038252602e815260200180612838602e913960400191505060405180910390fd5b600054610100900460ff16158015611fc7576000805460ff1961ff0019909116610100171660011790555b6001600160a01b03821661200c5760405162461bcd60e51b81526004018080602001828103825260398152602001806128936039913960400191505060405180910390fd5b603480546001600160a01b0319166001600160a01b03841617905561202f610f55565b8015612041576000805461ff00191690555b5050565b50600090565b604080517f19457468657265756d205369676e6564204d6573736167653a0a333200000000602080830191909152603c8083019490945282518083039094018452605c909101909152815191012090565b600081516041146120af57506000610f4f565b60208201516040830151606084015160001a6fa2a8918ca85bafe22016d0b997e4df60600160ff1b038211156120eb5760009350505050610f4f565b8060ff16601b1415801561210357508060ff16601c14155b156121145760009350505050610f4f565b6040805160008152602080820180845289905260ff8416828401526060820186905260808201859052915160019260a0808401939192601f1981019281900390910190855afa15801561216b573d6000803e3d6000fd5b5050604051601f190151979650505050505050565b600b9190910191565b600091565b6000806040518060800160405280604281526020016127f6604291396040516020018082805190602001908083835b602083106121dc5780518252601f1990920191602091820191016121bd565b51815160001960209485036101000a0190811690199190911617905260408051601f19959093018381039590950183528481528251928201929092206e4163636f756e74526567697374727960881b8552825194859003600f018520601960f91b8652835195869003600101862086840192909252858401526060850152306080808601919091528251808603909101815260a085018084528151919092012061012085019092526048808252919650869550935091612911915060c001396040516020018082805190602001908083835b602083106122cd5780518252601f1990920191602091820191016122ae565b51815160209384036101000a60001901801990921691161790526040805192909401828103601f190183528085528251928201929092208a518b8301518051908401209b860151848401929092526001600160a01b0390811684870152606084019b909b52999099166080808301919091528351808303909101815260a0820184528051908a012061190160f01b60c083015260c282019690965260e28082019690965282518082039096018652610102019091525050815191909401209392505050565b6000808251848452606084015160408501518160f81c9150604086015160608701526020860151604087015281602087015260208660808860015afa601c8314601b84141760418514166fa2a8918ca85bafe22016d0b997e4df60600160ff1b03831016169350855187146000811461240a5761240f565b865195505b505050835280801561242957506001600160a01b03821615155b611f2d576001600160a01b038216612488576040805162461bcd60e51b815260206004820152601a60248201527f7369676e657220616464726573732063616e6e6f742062652030000000000000604482015290519081900360640190fd5b80611f2d576040805162461bcd60e51b815260206004820152601960248201527f7369676e6174757265207265636f76657279206661696c656400000000000000604482015290519081900360640190fd5b6033546000906001600160a01b031633146124f6575033610eb1565b6124fe612664565b9050610eb1565b60208101516040820151606083015160808401519284019491909301926001600160a01b03169190565b6020015190565b604081015160608201516001600160a01b0390911692909160800190565b606084806020019051602081101561256b57600080fd5b8101908080516040519392919084600160201b82111561258a57600080fd5b90830190602082018581111561259f57600080fd5b8251600160201b8111828201881017156125b857600080fd5b82525081516020918201929091019080838360005b838110156125e55781810151838201526020016125cd565b50505050905090810190601f1680156126125780820380516001836020036101000a031916815260200191505b50604052505050905083151581805190602001207f2f708c980c8415108d54566eeeb78f5c2ddf6e1fab619607c30c001b127be075856040518082815260200191505060405180910390a35050505050565b600060606000368080601f0160208091040260200160405190810160405280939291908181526020018383808284376000920191909152505050503601516001600160a01b031692915050565b828054600181600116156101000203166002900490600052602060002090601f016020900481019282601f106126f257805160ff191683800117855561271f565b8280016001018555821561271f579182015b8281111561271f578251825591602001919060010190612704565b5061272b92915061272f565b5090565b610eb191905b8082111561272b576000815560010161273556fe53656e64657220686173206e6f207065726d697373696f6e20746f206465706f736974206f6e206f776e6572277320626568616c662e43616e6e6f74206465706f736974206e6f746520746f206f74686572206163636f756e742069662073656e646572206973206e6f74207468652073616d65206173206f776e65722e47534e526563697069656e743a206e65772052656c617948756220697320746865207a65726f2061646472657373454950373132446f6d61696e28737472696e67206e616d652c737472696e672076657273696f6e2c6164647265737320766572696679696e67436f6e747261637429436f6e747261637420696e7374616e63652068617320616c7265616479206265656e20696e697469616c697a656447534e526563697069656e743a206e65772052656c6179487562206973207468652063757272656e74206f6e6547534e526563697069656e745369676e61747572653a2074727573746564207369676e657220697320746865207a65726f20616464726573736164647265737320646f6573206e6f74206d61746368207075626c6963206b657947534e526563697069656e743a2063616c6c6572206973206e6f742052656c6179487562415a5445434163636f756e742861646472657373206163636f756e742c6279746573206c696e6b65645075626c69634b65792c6164647265737320415a5445436164647265737329415a54454320617272617920696e646578206973206f7574206f6620626f756e6473a265627a7a723158205bac8e67922404695e004d80c35046d407a286f6379c63c68782a37887dac99664736f6c63430005110032",
  "source": "pragma solidity >=0.5.0 <0.6.0;\n\nimport \"@openzeppelin/contracts-ethereum-package/contracts/GSN/Context.sol\";\nimport \"@openzeppelin/upgrades/contracts/Initializable.sol\";\nimport \"../../../interfaces/IZkAsset.sol\";\nimport \"../../../ACE/ACE.sol\" as ACEModule;\nimport \"../../../libs/NoteUtils.sol\";\nimport \"../../../libs/LibEIP712.sol\";\nimport \"../../../interfaces/IAZTEC.sol\";\nimport \"../../../interfaces/IERC20Mintable.sol\";\nimport \"../../GSNRecipientTimestampSignature.sol\";\n\n/**\n * @title Behaviour20200106 implementation\n * @author AZTEC\n * Note the behaviour contract version naming convention is based on the date on which the contract\n * was created, in the format: YYYYMMDD\n * \n * Copyright 2020 Spilsbury Holdings Ltd \n *\n * Licensed under the GNU Lesser General Public Licence, Version 3.0 (the \"License\");\n * you may not use this file except in compliance with the License.\n *\n * This program is distributed in the hope that it will be useful,\n * but WITHOUT ANY WARRANTY; without even the implied warranty of\n * MERCHANTABILITY or FITNESS FOR A PARTICULAR PURPOSE.  See the\n * GNU Lesser General Public License for more details.\n *\n * You should have received a copy of the GNU Lesser General Public License\n * along with this program.  If not, see <https://www.gnu.org/licenses/>.\n **/\ncontract Behaviour20200106 is GSNRecipientTimestampSignature, IAZTEC, LibEIP712 {\n    using NoteUtils for bytes;\n\n    /**\n    * @dev epoch number, used for version control in upgradeability. The naming convention is based on the\n    * date on which the contract was created, in the format: YYYYMMDD\n    */\n    uint256 public epoch = 20200106;\n\n    mapping(address => bytes) public accountMapping;\n    mapping(address => address) public userToAZTECAccountMapping;\n    mapping(bytes32 => bool) public signatureLog;\n\n    struct AZTECAccount {\n        address account;\n        bytes linkedPublicKey;\n        address AZTECaddress;\n    }\n\n    string private constant EIP712_DOMAIN  = \"EIP712Domain(string name,string version,address verifyingContract)\";\n    string private constant SIGNATURE_TYPE = \"AZTECAccount(address account,bytes linkedPublicKey,address AZTECaddress)\";\n\n    bytes32 private constant EIP712_DOMAIN_TYPEHASH = keccak256(abi.encodePacked(EIP712_DOMAIN));\n    bytes32 private constant SIGNATURE_TYPEHASH = keccak256(abi.encodePacked(SIGNATURE_TYPE));\n\n    event Addresses(address accountAddress, address signerAddress);\n\n    event RegisterExtension(\n        address indexed account,\n        bytes linkedPublicKey,\n        bytes spendingPublicKey\n    );\n\n    event GSNTransactionProcessed(bytes32 indexed signatureHash, bool indexed success, uint actualCharge);\n\n    ACEModule.ACE ace;\n\n\n    /**\n    * @dev Initialize the contract and set up it's state. An initialize function rather than a constructor\n    * is used to make this compatible with the upgradeability pattern\n    * @param _aceAddress - address of the AZTEC Cryptography Engine\n    * @param _trustedGSNSignerAddress - address which will produce signature to approve relayed GSN calls\n    */\n    function initialize(address _aceAddress, address _trustedGSNSignerAddress) initializer public {\n        ace = ACEModule.ACE(_aceAddress);\n        GSNRecipientTimestampSignature.initialize(_trustedGSNSignerAddress);\n    }\n\n    /**\n    * @dev Calculates the EIP712 encoding for a hash struct in this EIP712 Domain.\n    * @param _AZTECAccount - struct containing an Ethereum address and the linkedPublicKey\n    * @return EIP712 hash applied to this EIP712 Domain.\n    **/\n    function hashAZTECAccount(AZTECAccount memory _AZTECAccount) internal view returns (bytes32) {\n        bytes32 DOMAIN_SEPARATOR = keccak256(abi.encode(\n            EIP712_DOMAIN_TYPEHASH,\n            keccak256(\"AccountRegistry\"),\n            keccak256(\"2\"),\n            address(this)\n        ));\n\n        return keccak256(abi.encodePacked(\n            \"\\x19\\x01\",\n            DOMAIN_SEPARATOR,\n            keccak256(abi.encode(\n                SIGNATURE_TYPEHASH,\n                _AZTECAccount.account,\n                keccak256(bytes(_AZTECAccount.linkedPublicKey)),\n                _AZTECAccount.AZTECaddress\n        ))));\n    }\n\n    /**\n     * @dev Registers a linkedPublicKey to an Ethereum address, if a valid signature is provided or the\n     * sender is the ethereum address in question\n     * @param _account - address to which the linkedPublicKey is being registered\n     * @param _linkedPublicKey - an additional public key which the sender wishes to link to the _account\n     * @param _spendingPublicKey - the Ethereum public key associated with the Ethereum address\n     * @param _signature - an EIP712 compatible signature of the account & linkedPublicKey\n     */\n    function registerAZTECExtension(\n        address _account,\n        address _AZTECaddress,\n        bytes memory _linkedPublicKey,\n        bytes memory _spendingPublicKey,\n        bytes memory _signature\n    ) public {\n\n        // signature replay protection\n        bytes32 signatureHash = keccak256(abi.encodePacked(_signature));\n        require(signatureLog[signatureHash] != true, \"signature has already been used\");\n        signatureLog[signatureHash] = true;\n\n        address signer = recoverSignature(\n            hashAZTECAccount(AZTECAccount(_account, _linkedPublicKey, _AZTECaddress)),\n            _signature\n        );\n        require(_account == address(uint160(uint256(keccak256(_spendingPublicKey)))),\n            'address does not match public key');\n        require(_account == signer, 'signer must be the account');\n        accountMapping[_account] = _linkedPublicKey;\n        userToAZTECAccountMapping[_account] = _AZTECaddress;\n\n        emit Addresses(_account, signer);\n        emit RegisterExtension(_account, _linkedPublicKey, _spendingPublicKey);\n    }\n\n    /**\n    * @dev Perform a confidential transfer, mediated by a smart contracrt\n    * @param _proofId - uint24 proofId\n    * @param _registryOwner - address of the note registry owner\n    * @param _proofData - data generated from proof construction, which is used to validate the proof\n    * @param _spender - address that will be spending the notes\n    * @param _proofSignature - EIP712 signature used to approve/revoke permission for the proof\n    * to be spent\n    */\n    function confidentialTransferFrom(\n        uint24 _proofId,\n        address _registryOwner,\n        bytes memory _proofData,\n        address _spender,\n        bytes memory _proofSignature\n    ) public {\n        bytes memory proofOutputs = ace.validateProof(_proofId, address(this), _proofData);\n\n        if(_proofSignature.length != 0) {\n            IZkAsset(_registryOwner).approveProof(_proofId, proofOutputs, _spender, true, _proofSignature);\n        }\n        IZkAsset(_registryOwner).confidentialTransferFrom(_proofId, proofOutputs.get(0));\n    }\n\n    /**\n    * @dev Deposit ERC20 tokens into zero-knowledge notes in a transaction mediated via the GSN. Called by a user\n    * @param _registryOwner - owner of the zkAsset\n    * @param _owner - owner of the ERC20s being deposited\n    * @param _proofHash - hash of the zero-knowledge deposit proof\n    * @param _proofData - cryptographic data associated with the zero-knowledge proof\n    * @param _value - number of ERC20s being deposited\n     */\n    function deposit(\n        address _registryOwner,\n        address _owner,\n        bytes32 _proofHash,\n        bytes memory _proofData,\n        uint256 _value\n    ) public {\n        bytes memory proofOutputs = ace.validateProof(\n            JOIN_SPLIT_PROOF,\n            address(this),\n            _proofData\n        );\n\n        if (_owner != _msgSender()) {\n            require(\n                userToAZTECAccountMapping[_owner] == _msgSender(),\n                \"Sender has no permission to deposit on owner's behalf.\"\n            );\n\n            (,\n            bytes memory proofOutputNotes,\n            ,\n            ) = proofOutputs.get(0).extractProofOutput();\n            uint256 numberOfNotes = proofOutputNotes.getLength();\n            for (uint256 i = 0; i < numberOfNotes; i += 1) {\n                (address owner,,) = proofOutputNotes.get(i).extractNote();\n                require(owner == _owner, \"Cannot deposit note to other account if sender is not the same as owner.\");\n            }\n        }\n\n        (address linkedTokenAddress,,,,,,,) = ace.getRegistry(_registryOwner);\n        IERC20Mintable linkedToken = IERC20Mintable(linkedTokenAddress);\n\n        linkedToken.transferFrom(\n            _owner,\n            address(this),\n            _value\n        );\n\n        linkedToken.approve(address(ace), _value);\n\n        ace.publicApprove(_registryOwner, _proofHash, _value);\n\n        IZkAsset(_registryOwner).confidentialTransferFrom(\n            JOIN_SPLIT_PROOF,\n            proofOutputs.get(0)\n        );\n    }\n\n    /**\n    * @dev Approve a registry to spend up to a number of tokens, for a particular proof\n    * @param _registryOwner - address that is being approved to spend the tokens\n    * @param _proofHash - hash of the proof which is being approved to result in the spending of tokens\n    * @param _value - numer of tokens spending is approved up to\n    */\n    function publicApprove(address _registryOwner, bytes32 _proofHash, uint256 _value) public {\n        ace.publicApprove(_registryOwner, _proofHash, _value);\n    }\n\n    /**\n    * @dev Emits an event, annoucing that the relayed call has been successfully executed\n    * @param context - second argument in the tuple returned by acceptRelayedCall\n    * @param success - bool specifying whether the relayed call was successfully executed\n    * @param actualCharge - estimate of the transaction gas cost\n    * @param preRetVal - the return value of preRelayedCall\n    */\n    function _postRelayedCall(bytes memory context, bool success, uint256 actualCharge, bytes32 preRetVal) internal {\n        (bytes memory approveData) = abi.decode(context, (bytes));\n        emit GSNTransactionProcessed(keccak256(approveData), success, actualCharge);\n    }\n}\n",
  "sourcePath": "/Users/suleymankardas/Desktop/aztec/aztec-protocol/contracts/AccountRegistry/epochs/20200106/Behaviour20200106.sol",
  "compiler": {
    "name": "solc",
    "version": "0.5.17+commit.d19bba13.Emscripten.clang"
  },
  "schemaVersion": "3.4.1",
  "updatedAt": "2022-03-28T15:01:11.078Z",
  "networkType": "ethereum",
  "devdoc": {
    "author": "AZTEC Note the behaviour contract version naming convention is based on the date on which the contract was created, in the format: YYYYMMDD  * Copyright 2020 Spilsbury Holdings Ltd  * Licensed under the GNU Lesser General Public Licence, Version 3.0 (the \"License\"); you may not use this file except in compliance with the License. * This program is distributed in the hope that it will be useful, but WITHOUT ANY WARRANTY; without even the implied warranty of MERCHANTABILITY or FITNESS FOR A PARTICULAR PURPOSE.  See the GNU Lesser General Public License for more details. * You should have received a copy of the GNU Lesser General Public License along with this program.  If not, see <https://www.gnu.org/licenses/>.*",
    "methods": {
      "acceptRelayedCall(address,address,bytes,uint256,uint256,uint256,uint256,bytes,uint256)": {
        "details": "Ensures that only transactions with a trusted signature can be relayed through the GSN."
      },
      "confidentialTransferFrom(uint24,address,bytes,address,bytes)": {
        "details": "Perform a confidential transfer, mediated by a smart contracrt",
        "params": {
          "_proofData": "- data generated from proof construction, which is used to validate the proof",
          "_proofId": "- uint24 proofId",
          "_proofSignature": "- EIP712 signature used to approve/revoke permission for the proof to be spent",
          "_registryOwner": "- address of the note registry owner",
          "_spender": "- address that will be spending the notes"
        }
      },
      "deposit(address,address,bytes32,bytes,uint256)": {
        "details": "Deposit ERC20 tokens into zero-knowledge notes in a transaction mediated via the GSN. Called by a user",
        "params": {
          "_owner": "- owner of the ERC20s being deposited",
          "_proofData": "- cryptographic data associated with the zero-knowledge proof",
          "_proofHash": "- hash of the zero-knowledge deposit proof",
          "_registryOwner": "- owner of the zkAsset",
          "_value": "- number of ERC20s being deposited"
        }
      },
      "getHubAddr()": {
        "details": "Returns the address of the {IRelayHub} contract for this recipient."
      },
      "initialize(address,address)": {
        "details": "Initialize the contract and set up it's state. An initialize function rather than a constructor is used to make this compatible with the upgradeability pattern",
        "params": {
          "_aceAddress": "- address of the AZTEC Cryptography Engine",
          "_trustedGSNSignerAddress": "- address which will produce signature to approve relayed GSN calls"
        }
      },
      "postRelayedCall(bytes,bool,uint256,bytes32)": {
        "details": "See `IRelayRecipient.postRelayedCall`.     * This function should not be overriden directly, use `_postRelayedCall` instead.     * * Requirements:     * - the caller must be the `RelayHub` contract."
      },
      "preRelayedCall(bytes)": {
        "details": "See `IRelayRecipient.preRelayedCall`.     * This function should not be overriden directly, use `_preRelayedCall` instead.     * * Requirements:     * - the caller must be the `RelayHub` contract."
      },
      "publicApprove(address,bytes32,uint256)": {
        "details": "Approve a registry to spend up to a number of tokens, for a particular proof",
        "params": {
          "_proofHash": "- hash of the proof which is being approved to result in the spending of tokens",
          "_registryOwner": "- address that is being approved to spend the tokens",
          "_value": "- numer of tokens spending is approved up to"
        }
      },
      "registerAZTECExtension(address,address,bytes,bytes,bytes)": {
        "details": "Registers a linkedPublicKey to an Ethereum address, if a valid signature is provided or the sender is the ethereum address in question",
        "params": {
          "_account": "- address to which the linkedPublicKey is being registered",
          "_linkedPublicKey": "- an additional public key which the sender wishes to link to the _account",
          "_signature": "- an EIP712 compatible signature of the account & linkedPublicKey",
          "_spendingPublicKey": "- the Ethereum public key associated with the Ethereum address"
        }
      },
      "relayHubVersion()": {
        "details": "Returns the version string of the {IRelayHub} for which this recipient implementation was built. If {_upgradeRelayHub} is used, the new {IRelayHub} instance should be compatible with this version."
      }
    },
    "title": "Behaviour20200106 implementation"
  },
  "userdoc": {
    "methods": {}
  }
}