{
  "contractName": "BehaviourAdjustable201912",
  "abi": [
    {
      "inputs": [],
      "payable": false,
      "stateMutability": "nonpayable",
      "type": "constructor"
    },
    {
      "anonymous": false,
      "inputs": [
        {
          "indexed": true,
          "internalType": "address",
          "name": "previousOwner",
          "type": "address"
        },
        {
          "indexed": true,
          "internalType": "address",
          "name": "newOwner",
          "type": "address"
        }
      ],
      "name": "OwnershipTransferred",
      "type": "event"
    },
    {
      "constant": true,
      "inputs": [],
      "name": "BURN_PROOF",
      "outputs": [
        {
          "internalType": "uint24",
          "name": "",
          "type": "uint24"
        }
      ],
      "payable": false,
      "stateMutability": "view",
      "type": "function"
    },
    {
      "constant": true,
      "inputs": [],
      "name": "DIVIDEND_PROOF",
      "outputs": [
        {
          "internalType": "uint24",
          "name": "",
          "type": "uint24"
        }
      ],
      "payable": false,
      "stateMutability": "view",
      "type": "function"
    },
    {
      "constant": true,
      "inputs": [],
      "name": "JOIN_SPLIT_PROOF",
      "outputs": [
        {
          "internalType": "uint24",
          "name": "",
          "type": "uint24"
        }
      ],
      "payable": false,
      "stateMutability": "view",
      "type": "function"
    },
    {
      "constant": true,
      "inputs": [],
      "name": "MINT_PROOF",
      "outputs": [
        {
          "internalType": "uint24",
          "name": "",
          "type": "uint24"
        }
      ],
      "payable": false,
      "stateMutability": "view",
      "type": "function"
    },
    {
      "constant": true,
      "inputs": [],
      "name": "PRIVATE_RANGE_PROOF",
      "outputs": [
        {
          "internalType": "uint24",
          "name": "",
          "type": "uint24"
        }
      ],
      "payable": false,
      "stateMutability": "view",
      "type": "function"
    },
    {
      "constant": true,
      "inputs": [],
      "name": "PUBLIC_RANGE_PROOF",
      "outputs": [
        {
          "internalType": "uint24",
          "name": "",
          "type": "uint24"
        }
      ],
      "payable": false,
      "stateMutability": "view",
      "type": "function"
    },
    {
      "constant": true,
      "inputs": [],
      "name": "ZERO_VALUE_NOTE_HASH",
      "outputs": [
        {
          "internalType": "bytes32",
          "name": "",
          "type": "bytes32"
        }
      ],
      "payable": false,
      "stateMutability": "view",
      "type": "function"
    },
    {
      "constant": true,
      "inputs": [],
      "name": "dataLocation",
      "outputs": [
        {
          "internalType": "address",
          "name": "",
          "type": "address"
        }
      ],
      "payable": false,
      "stateMutability": "view",
      "type": "function"
    },
    {
      "constant": true,
      "inputs": [
        {
          "internalType": "bytes32",
          "name": "_noteHash",
          "type": "bytes32"
        }
      ],
      "name": "getNote",
      "outputs": [
        {
          "internalType": "uint8",
          "name": "status",
          "type": "uint8"
        },
        {
          "internalType": "uint40",
          "name": "createdOn",
          "type": "uint40"
        },
        {
          "internalType": "uint40",
          "name": "destroyedOn",
          "type": "uint40"
        },
        {
          "internalType": "address",
          "name": "noteOwner",
          "type": "address"
        }
      ],
      "payable": false,
      "stateMutability": "view",
      "type": "function"
    },
    {
      "constant": true,
      "inputs": [],
      "name": "getRegistry",
      "outputs": [
        {
          "internalType": "uint256",
          "name": "scalingFactor",
          "type": "uint256"
        },
        {
          "internalType": "bytes32",
          "name": "confidentialTotalMinted",
          "type": "bytes32"
        },
        {
          "internalType": "bytes32",
          "name": "confidentialTotalBurned",
          "type": "bytes32"
        },
        {
          "internalType": "bool",
          "name": "canConvert",
          "type": "bool"
        },
        {
          "internalType": "bool",
          "name": "canAdjustSupply",
          "type": "bool"
        }
      ],
      "payable": false,
      "stateMutability": "view",
      "type": "function"
    },
    {
      "constant": false,
      "inputs": [
        {
          "internalType": "address",
          "name": "_newOwner",
          "type": "address"
        },
        {
          "internalType": "uint256",
          "name": "_scalingFactor",
          "type": "uint256"
        },
        {
          "internalType": "bool",
          "name": "_canAdjustSupply",
          "type": "bool"
        },
        {
          "internalType": "bool",
          "name": "_canConvert",
          "type": "bool"
        }
      ],
      "name": "initialise",
      "outputs": [],
      "payable": false,
      "stateMutability": "nonpayable",
      "type": "function"
    },
    {
      "constant": true,
      "inputs": [],
      "name": "initialised",
      "outputs": [
        {
          "internalType": "bool",
          "name": "",
          "type": "bool"
        }
      ],
      "payable": false,
      "stateMutability": "view",
      "type": "function"
    },
    {
      "constant": true,
      "inputs": [],
      "name": "isActiveBehaviour",
      "outputs": [
        {
          "internalType": "bool",
          "name": "",
          "type": "bool"
        }
      ],
      "payable": false,
      "stateMutability": "view",
      "type": "function"
    },
    {
      "constant": true,
      "inputs": [],
      "name": "isAvailableDuringSlowRelease",
      "outputs": [
        {
          "internalType": "bool",
          "name": "",
          "type": "bool"
        }
      ],
      "payable": false,
      "stateMutability": "view",
      "type": "function"
    },
    {
      "constant": true,
      "inputs": [],
      "name": "isOwner",
      "outputs": [
        {
          "internalType": "bool",
          "name": "",
          "type": "bool"
        }
      ],
      "payable": false,
      "stateMutability": "view",
      "type": "function"
    },
    {
      "constant": false,
      "inputs": [],
      "name": "makeAvailable",
      "outputs": [],
      "payable": false,
      "stateMutability": "nonpayable",
      "type": "function"
    },
    {
      "constant": true,
      "inputs": [],
      "name": "owner",
      "outputs": [
        {
          "internalType": "address",
          "name": "",
          "type": "address"
        }
      ],
      "payable": false,
      "stateMutability": "view",
      "type": "function"
    },
    {
      "constant": true,
      "inputs": [],
      "name": "registry",
      "outputs": [
        {
          "internalType": "bool",
          "name": "active",
          "type": "bool"
        },
        {
          "internalType": "uint256",
          "name": "scalingFactor",
          "type": "uint256"
        },
        {
          "internalType": "bytes32",
          "name": "confidentialTotalMinted",
          "type": "bytes32"
        },
        {
          "internalType": "bytes32",
          "name": "confidentialTotalBurned",
          "type": "bytes32"
        },
        {
          "internalType": "bool",
          "name": "canConvert",
          "type": "bool"
        },
        {
          "internalType": "bool",
          "name": "canAdjustSupply",
          "type": "bool"
        }
      ],
      "payable": false,
      "stateMutability": "view",
      "type": "function"
    },
    {
      "constant": false,
      "inputs": [],
      "name": "renounceOwnership",
      "outputs": [],
      "payable": false,
      "stateMutability": "nonpayable",
      "type": "function"
    },
    {
      "constant": true,
      "inputs": [],
      "name": "slowReleaseEnd",
      "outputs": [
        {
          "internalType": "uint256",
          "name": "",
          "type": "uint256"
        }
      ],
      "payable": false,
      "stateMutability": "view",
      "type": "function"
    },
    {
      "constant": false,
      "inputs": [
        {
          "internalType": "address",
          "name": "newOwner",
          "type": "address"
        }
      ],
      "name": "transferOwnership",
      "outputs": [],
      "payable": false,
      "stateMutability": "nonpayable",
      "type": "function"
    },
    {
      "constant": false,
      "inputs": [
        {
          "internalType": "uint24",
          "name": "_proof",
          "type": "uint24"
        },
        {
          "internalType": "bytes",
          "name": "_proofOutput",
          "type": "bytes"
        }
      ],
      "name": "updateNoteRegistry",
      "outputs": [
        {
          "internalType": "address",
          "name": "publicOwner",
          "type": "address"
        },
        {
          "internalType": "uint256",
          "name": "transferValue",
          "type": "uint256"
        },
        {
          "internalType": "int256",
          "name": "publicValue",
          "type": "int256"
        }
      ],
      "payable": false,
      "stateMutability": "nonpayable",
      "type": "function"
    },
    {
      "constant": false,
      "inputs": [
        {
          "internalType": "bytes",
          "name": "_proofOutputs",
          "type": "bytes"
        }
      ],
      "name": "burn",
      "outputs": [],
      "payable": false,
      "stateMutability": "nonpayable",
      "type": "function"
    },
    {
      "constant": false,
      "inputs": [
        {
          "internalType": "bytes",
          "name": "_proofOutputs",
          "type": "bytes"
        }
      ],
      "name": "mint",
      "outputs": [],
      "payable": false,
      "stateMutability": "nonpayable",
      "type": "function"
    }
  ],
  "bytecode": "0x60806040526008805460ff1916905534801561001a57600080fd5b50600061002e6001600160e01b036100a116565b600080546001600160a01b0319166001600160a01b0383169081178255604051929350917f8be0079c531659141344cd1fd0a4f28419497f9722a3daafe3b4186f6b6457e0908290a3506000805460ff60a01b1916740100000000000000000000000000000000000000001790556100a5565b3390565b611673806100b46000396000f3fe608060405234801561001057600080fd5b50600436106101575760003560e01c80637ba0e2e7116100c357806398df3d001161007c57806398df3d00146104be578063ad32f92514610517578063ce8843431461051f578063d82d577e1461055b578063df92462514610563578063f2fde38b1461056b57610157565b80637ba0e2e7146103f05780638500e1f81461049657806385c418f31461049e5780638da5cb5b146104a65780638e526d9b146104ae5780638f32d59b146104b657610157565b80632a07b6c7116101155780632a07b6c7146101e6578063386612381461028e57806349518b28146103685780635ab1bd5314610370578063715018a6146103a75780637b103999146103af57610157565b80625bf7321461015c57806303e012e31461017c57806307003bb4146101a057806307616051146101bc57806308ae900a146101d65780631d14cca6146101de575b600080fd5b610164610591565b6040805162ffffff9092168252519081900360200190f35b610184610598565b604080516001600160a01b039092168252519081900360200190f35b6101a86105a7565b604080519115158252519081900360200190f35b6101c46105b7565b60408051918252519081900360200190f35b6101646105db565b6101a86105e2565b61028c600480360360208110156101fc57600080fd5b81019060208101813564010000000081111561021757600080fd5b82018360208201111561022957600080fd5b8035906020019184600183028401116401000000008311171561024b57600080fd5b91908080601f0160208091040260200160405190810160405280939291908181526020018383808284376000920191909152509295506105eb945050505050565b005b610340600480360360408110156102a457600080fd5b62ffffff82351691908101906040810160208201356401000000008111156102cb57600080fd5b8201836020820111156102dd57600080fd5b803590602001918460018302840111640100000000831117156102ff57600080fd5b91908080601f01602080910402602001604051908101604052809392919081815260200183838082843760009201919091525092955061063e945050505050565b604080516001600160a01b039094168452602084019290925282820152519081900360600190f35b6101646106a2565b6103786106a9565b604080519586526020860194909452848401929092521515606084015215156080830152519081900360a00190f35b61028c610738565b6103b76107c9565b604080519615158752602087019590955285850193909352606085019190915215156080840152151560a0830152519081900360c00190f35b61028c6004803603602081101561040657600080fd5b81019060208101813564010000000081111561042157600080fd5b82018360208201111561043357600080fd5b8035906020019184600183028401116401000000008311171561045557600080fd5b91908080601f0160208091040260200160405190810160405280939291908181526020018383808284376000920191909152509295506107eb945050505050565b61016461083b565b6101a8610842565b610184610852565b610164610861565b6101a8610868565b6104db600480360360208110156104d457600080fd5b503561088c565b6040805160ff909516855264ffffffffff938416602086015291909216838201526001600160a01b039091166060830152519081900360800190f35b61028c610930565b61028c6004803603608081101561053557600080fd5b506001600160a01b03813516906020810135906040810135151590606001351515610979565b6101c4610aa1565b610164610aa9565b61028c6004803603602081101561058157600080fd5b50356001600160a01b0316610ab0565b6201010181565b6001546001600160a01b031681565b600054600160a81b900460ff1681565b7f26d21f105b054b61e8d9680855c3af0633bd7c140b87de95f0ac218046fc71db81565b6201040381565b60085460ff1681565b6105f3610868565b610632576040805162461bcd60e51b815260206004820181905260248201526000805160206115fd833981519152604482015290519081900360640190fd5b61063b81610b00565b50565b600080600061064b610868565b61068a576040805162461bcd60e51b815260206004820181905260248201526000805160206115fd833981519152604482015290519081900360640190fd5b6106948585610b50565b919790965090945092505050565b6201040281565b600254600090819081908190819060ff161515600114610710576040805162461bcd60e51b815260206004820152601f60248201527f657870656374656420726567697374727920746f206265206372656174656400604482015290519081900360640190fd5b50506003546004546005546006549296919550935060ff808316935061010090920490911690565b610740610868565b61077f576040805162461bcd60e51b815260206004820181905260248201526000805160206115fd833981519152604482015290519081900360640190fd5b600080546040516001600160a01b03909116907f8be0079c531659141344cd1fd0a4f28419497f9722a3daafe3b4186f6b6457e0908390a3600080546001600160a01b0319169055565b60025460035460045460055460065460ff948516948181169161010090041686565b6107f3610868565b610832576040805162461bcd60e51b815260206004820181905260248201526000805160206115fd833981519152604482015290519081900360640190fd5b61063b81610ba6565b6201040181565b600054600160a01b900460ff1681565b6000546001600160a01b031690565b6201020181565b600080546001600160a01b031661087d610bf6565b6001600160a01b031614905090565b60008181526007602052604081205481908190819060ff166108ee576040805162461bcd60e51b8152602060048201526016602482015275195e1c1958dd1959081b9bdd19481d1bc8195e1a5cdd60521b604482015290519081900360640190fd5b5050506000918252506007602052604090205460ff811691600882901c64ffffffffff90811692603081901c9091169160589190911c6001600160a01b031690565b610938610868565b610977576040805162461bcd60e51b815260206004820181905260248201526000805160206115fd833981519152604482015290519081900360640190fd5b565b600054600160a81b900460ff161515600114156109dd576040805162461bcd60e51b815260206004820152601c60248201527f726567697374727920616c726561647920696e697469616c6973656400000000604482015290519081900360640190fd5b6109e684610bfa565b60018054336001600160a01b03199091161781556040805160c081018252828152602081018690527f26d21f105b054b61e8d9680855c3af0633bd7c140b87de95f0ac218046fc71db918101829052606081018290529215156080840181905293151560a09093018390526002805460ff19908116909317905560039490945560048490556005939093556006805490931690911761ff0019166101009091021790555060008054600160a81b60ff60a81b19909116179055565b635e83d97f81565b6201030181565b610ab8610868565b610af7576040805162461bcd60e51b815260206004820181905260248201526000805160206115fd833981519152604482015290519081900360640190fd5b61063b81610bfa565b610b08610868565b610b47576040805162461bcd60e51b815260206004820181905260248201526000805160206115fd833981519152604482015290519081900360640190fd5b61063b81610c9a565b6000806000610b5d610868565b610b9c576040805162461bcd60e51b815260206004820181905260248201526000805160206115fd833981519152604482015290519081900360640190fd5b6106948585610e1b565b610bae610868565b610bed576040805162461bcd60e51b815260206004820181905260248201526000805160206115fd833981519152604482015290519081900360640190fd5b61063b81610f69565b3390565b6001600160a01b038116610c3f5760405162461bcd60e51b81526004018080602001828103825260268152602001806114de6026913960400191505060405180910390fd5b600080546040516001600160a01b03808516939216917f8be0079c531659141344cd1fd0a4f28419497f9722a3daafe3b4186f6b6457e091a3600080546001600160a01b0319166001600160a01b0392909216919091179055565b610ca2610868565b610ce1576040805162461bcd60e51b815260206004820181905260248201526000805160206115fd833981519152604482015290519081900360640190fd5b60065460ff610100909104161515600114610d43576040805162461bcd60e51b815260206004820152601a60248201527f74686973206173736574206973206e6f74206275726e61626c65000000000000604482015290519081900360640190fd5b606080610d5f610d5a84600063ffffffff6110d716565b61112e565b50919350915060609050610d7d610d5a85600163ffffffff6110d716565b50509150506000610da0610d9b6000866110d790919063ffffffff16565b611158565b509150506002600301548114610de75760405162461bcd60e51b81526004018080602001828103825260298152602001806115046029913960400191505060405180910390fd5b6000610dfc610d9b858363ffffffff6110d716565b50915050610e0981611176565b50610e13836111c8565b505050505050565b6000806000610e28610868565b610e67576040805162461bcd60e51b815260206004820181905260248201526000805160206115fd833981519152604482015290519081900360640190fd5b60025460ff161515600114610ead5760405162461bcd60e51b81526004018080602001828103825260328152602001806115826032913960400191505060405180910390fd5b606080610eb98661112e565b90975094509092509050610ecc826111c8565b610ed581611214565b8215610f605760065460ff161515600114610f215760405162461bcd60e51b815260040180806020018281038252602c815260200180611556602c913960400191505060405180910390fd5b6000831215610f4957600354610f429060008590039063ffffffff6112a116565b9350610f60565b600354610f5d90849063ffffffff6112a116565b93505b50509250925092565b610f71610868565b610fb0576040805162461bcd60e51b815260206004820181905260248201526000805160206115fd833981519152604482015290519081900360640190fd5b60065460ff610100909104161515600114611012576040805162461bcd60e51b815260206004820152601a60248201527f74686973206173736574206973206e6f74206d696e7461626c65000000000000604482015290519081900360640190fd5b606080611029610d5a84600063ffffffff6110d716565b50919350915060609050611047610d5a85600163ffffffff6110d716565b50509150506000611065610d9b6000866110d790919063ffffffff16565b50915050600280015481146110ab5760405162461bcd60e51b815260040180806020018281038252602981526020018061152d6029913960400191505060405180910390fd5b60006110c0610d9b858363ffffffff6110d716565b509150506110cd81611303565b50610e1383611214565b6020828101519082028301604001518301908210806111275760405162461bcd60e51b815260040180806020018281038252602281526020018061161d6022913960400191505060405180910390fd5b5092915050565b60208101516040820151606083015160808401519284019491909301926001600160a01b03169190565b604081015160608201516001600160a01b0390911692909160800190565b6000611180610868565b6111bf576040805162461bcd60e51b815260206004820181905260248201526000805160206115fd833981519152604482015290519081900360640190fd5b50600581905590565b60006111d382611355565b905060005b8181101561120f576000806111f6610d9b868563ffffffff6110d716565b5091509150611205818361135c565b50506001016111d8565b505050565b600061121f82611355565b905060005b8181101561120f57600080611242610d9b868563ffffffff6110d716565b5090925090506001600160a01b03821661128d5760405162461bcd60e51b81526004018080602001828103825260288152602001806115d56028913960400191505060405180910390fd5b6112978183611462565b5050600101611224565b6000826112b0575060006112fd565b828202828482816112bd57fe5b04146112fa5760405162461bcd60e51b81526004018080602001828103825260218152602001806115b46021913960400191505060405180910390fd5b90505b92915050565b600061130d610868565b61134c576040805162461bcd60e51b815260206004820181905260248201526000805160206115fd833981519152604482015290519081900360640190fd5b50600481905590565b6020015190565b600082815260076020526040902080546affffffffff0000000000ff1981166affffffffff0000000000004260301b1617600290811783559160ff82169160581c6001600160a01b031690600183146113fc576040805162461bcd60e51b815260206004820181905260248201527f696e707574206e6f746520737461747573206973206e6f7420554e5350454e54604482015290519081900360640190fd5b846001600160a01b0316826001600160a01b031614610e13576040805162461bcd60e51b815260206004820152601f60248201527f696e707574206e6f7465206f776e657220646f6573206e6f74206d6174636800604482015290519081900360640190fd5b600082815260076020526040902080546001919060ff16156114c0576040805162461bcd60e51b81526020600482015260126024820152716f7574707574206e6f74652065786973747360701b604482015290519081900360640190fd5b8260581b64ffffffffff421660081b60ff8416171781555050505056fe4f776e61626c653a206e6577206f776e657220697320746865207a65726f206164647265737370726f766964656420746f74616c206275726e6564206e6f746520646f6573206e6f74206d6174636870726f766964656420746f74616c206d696e746564206e6f746520646f6573206e6f74206d6174636861737365742063616e6e6f7420626520636f6e76657274656420696e746f207075626c696320746f6b656e736e6f746520726567697374727920646f6573206e6f7420657869737420666f722074686520676976656e2061646472657373536166654d6174683a206d756c7469706c69636174696f6e206f766572666c6f776f7574707574206e6f7465206f776e65722063616e6e6f74206265206164647265737328307830294f776e61626c653a2063616c6c6572206973206e6f7420746865206f776e6572415a54454320617272617920696e646578206973206f7574206f6620626f756e6473a265627a7a72315820d7ef6a44d8bfda571d8a3544eff0d688c16b0dc6376e958c88d54ba1d5867f0c64736f6c63430005110032",
  "source": "pragma solidity >=0.5.0 <0.6.0;\n\nimport \"../../../../../interfaces/IAZTEC.sol\";\nimport \"../../../../../libs/NoteUtils.sol\";\nimport \"../Behaviour201912.sol\";\nimport \"../../201911/adjustable/BehaviourAdjustable201911.sol\";\n\n/**\n * @title BehaviourBase201912\n * @author AZTEC\n * @dev This contract extends Behaviour201912.\n        Methods are documented in interface.\n *\n * Copyright 2020 Spilsbury Holdings Ltd \n *\n * Licensed under the GNU Lesser General Public Licence, Version 3.0 (the \"License\");\n * you may not use this file except in compliance with the License.\n *\n * This program is distributed in the hope that it will be useful,\n * but WITHOUT ANY WARRANTY; without even the implied warranty of\n * MERCHANTABILITY or FITNESS FOR A PARTICULAR PURPOSE.  See the\n * GNU Lesser General Public License for more details.\n *\n * You should have received a copy of the GNU Lesser General Public License\n * along with this program.  If not, see <https://www.gnu.org/licenses/>.\n **/\ncontract BehaviourAdjustable201912 is Behaviour201912, BehaviourAdjustable201911 {\n    constructor () BehaviourAdjustable201911() public {}\n\n    function burn(bytes memory _proofOutputs) public onlyOwner {\n        super.burn(_proofOutputs);\n    }\n\n    function mint(bytes memory _proofOutputs) public onlyOwner {\n        super.mint(_proofOutputs);\n    }\n}\n",
  "sourcePath": "/Users/suleymankardas/Desktop/aztec/aztec-protocol/contracts/ACE/noteRegistry/epochs/201912/adjustable/BehaviourAdjustable201912.sol",
  "compiler": {
    "name": "solc",
    "version": "0.5.17+commit.d19bba13.Emscripten.clang"
  },
  "schemaVersion": "3.4.1",
  "updatedAt": "2022-03-28T14:36:05.444Z",
  "devdoc": {
    "author": "AZTEC",
    "details": "This contract extends Behaviour201912. Methods are documented in interface. * Copyright 2020 Spilsbury Holdings Ltd  * Licensed under the GNU Lesser General Public Licence, Version 3.0 (the \"License\"); you may not use this file except in compliance with the License. * This program is distributed in the hope that it will be useful, but WITHOUT ANY WARRANTY; without even the implied warranty of MERCHANTABILITY or FITNESS FOR A PARTICULAR PURPOSE.  See the GNU Lesser General Public License for more details. * You should have received a copy of the GNU Lesser General Public License along with this program.  If not, see <https://www.gnu.org/licenses/>.*",
    "methods": {
      "isOwner()": {
        "details": "Returns true if the caller is the current owner."
      },
      "owner()": {
        "details": "Returns the address of the current owner."
      },
      "renounceOwnership()": {
        "details": "Leaves the contract without owner. It will not be possible to call `onlyOwner` functions anymore. Can only be called by the current owner.     * NOTE: Renouncing ownership will leave the contract without an owner, thereby removing any functionality that is only available to the owner."
      },
      "transferOwnership(address)": {
        "details": "Transfers ownership of the contract to a new account (`newOwner`). Can only be called by the current owner."
      }
    },
    "title": "BehaviourBase201912"
  },
  "userdoc": {
    "methods": {}
  }
}