{
  "contractName": "BehaviourWithConflictTest",
  "abi": [
    {
      "anonymous": false,
      "inputs": [],
      "name": "ReachedBehaviour",
      "type": "event"
    },
    {
      "constant": false,
      "inputs": [],
      "name": "admin",
      "outputs": [
        {
          "internalType": "address",
          "name": "",
          "type": "address"
        }
      ],
      "payable": false,
      "stateMutability": "nonpayable",
      "type": "function"
    }
  ],
  "bytecode": "0x6080604052348015600f57600080fd5b5060b58061001e6000396000f3fe6080604052348015600f57600080fd5b506004361060285760003560e01c8063f851a44014602d575b600080fd5b6033604f565b604080516001600160a01b039092168252519081900360200190f35b6040516000907f826dabbe8796e7e0e75b79a6af10bbc628f17ca232b8f84285784684151079c8908290a15060009056fea265627a7a723158200976b889558ba9830f4741814035fe279a82b93d7b7b83a04d74420ac74c6a9764736f6c63430005110032",
  "source": "pragma solidity ^0.5.0;\n\n/**\n * @title BehaviourWithConflictTest\n * @author AZTEC\n * Copyright 2020 Spilsbury Holdings Ltd \n *\n * Licensed under the GNU Lesser General Public Licence, Version 3.0 (the \"License\");\n * you may not use this file except in compliance with the License.\n *\n * This program is distributed in the hope that it will be useful,\n * but WITHOUT ANY WARRANTY; without even the implied warranty of\n * MERCHANTABILITY or FITNESS FOR A PARTICULAR PURPOSE.  See the\n * GNU Lesser General Public License for more details.\n *\n * You should have received a copy of the GNU Lesser General Public License\n * along with this program.  If not, see <https://www.gnu.org/licenses/>.\n**/\ncontract BehaviourWithConflictTest {\n    event ReachedBehaviour();\n\n    /**\n        * @return The address of the proxy admin.\n    */\n    function admin() external returns (address) {\n        emit ReachedBehaviour();\n        return address(0x0);\n    }\n}\n",
  "sourcePath": "/Users/suleymankardas/Desktop/aztec/aztec-protocol/contracts/test/ACE/BehaviourWithConflictTest.sol",
  "compiler": {
    "name": "solc",
    "version": "0.5.17+commit.d19bba13.Emscripten.clang"
  },
  "schemaVersion": "3.4.1",
  "updatedAt": "2022-03-28T14:36:05.546Z",
  "devdoc": {
    "author": "AZTEC Copyright 2020 Spilsbury Holdings Ltd  * Licensed under the GNU Lesser General Public Licence, Version 3.0 (the \"License\"); you may not use this file except in compliance with the License. * This program is distributed in the hope that it will be useful, but WITHOUT ANY WARRANTY; without even the implied warranty of MERCHANTABILITY or FITNESS FOR A PARTICULAR PURPOSE.  See the GNU Lesser General Public License for more details. * You should have received a copy of the GNU Lesser General Public License along with this program.  If not, see <https://www.gnu.org/licenses/>.*",
    "methods": {
      "admin()": {
        "return": "The address of the proxy admin."
      }
    },
    "title": "BehaviourWithConflictTest"
  },
  "userdoc": {
    "methods": {}
  }
}