{
  "contractName": "ERC20BrokenTransferFromTest",
  "abi": [
    {
      "anonymous": false,
      "inputs": [
        {
          "indexed": true,
          "internalType": "address",
          "name": "owner",
          "type": "address"
        },
        {
          "indexed": true,
          "internalType": "address",
          "name": "spender",
          "type": "address"
        },
        {
          "indexed": false,
          "internalType": "uint256",
          "name": "value",
          "type": "uint256"
        }
      ],
      "name": "Approval",
      "type": "event"
    },
    {
      "anonymous": false,
      "inputs": [
        {
          "indexed": true,
          "internalType": "address",
          "name": "from",
          "type": "address"
        },
        {
          "indexed": true,
          "internalType": "address",
          "name": "to",
          "type": "address"
        },
        {
          "indexed": false,
          "internalType": "uint256",
          "name": "value",
          "type": "uint256"
        }
      ],
      "name": "Transfer",
      "type": "event"
    },
    {
      "constant": true,
      "inputs": [
        {
          "internalType": "address",
          "name": "owner",
          "type": "address"
        },
        {
          "internalType": "address",
          "name": "spender",
          "type": "address"
        }
      ],
      "name": "allowance",
      "outputs": [
        {
          "internalType": "uint256",
          "name": "",
          "type": "uint256"
        }
      ],
      "payable": false,
      "stateMutability": "view",
      "type": "function"
    },
    {
      "constant": false,
      "inputs": [
        {
          "internalType": "address",
          "name": "spender",
          "type": "address"
        },
        {
          "internalType": "uint256",
          "name": "amount",
          "type": "uint256"
        }
      ],
      "name": "approve",
      "outputs": [
        {
          "internalType": "bool",
          "name": "",
          "type": "bool"
        }
      ],
      "payable": false,
      "stateMutability": "nonpayable",
      "type": "function"
    },
    {
      "constant": true,
      "inputs": [
        {
          "internalType": "address",
          "name": "account",
          "type": "address"
        }
      ],
      "name": "balanceOf",
      "outputs": [
        {
          "internalType": "uint256",
          "name": "",
          "type": "uint256"
        }
      ],
      "payable": false,
      "stateMutability": "view",
      "type": "function"
    },
    {
      "constant": false,
      "inputs": [
        {
          "internalType": "address",
          "name": "spender",
          "type": "address"
        },
        {
          "internalType": "uint256",
          "name": "subtractedValue",
          "type": "uint256"
        }
      ],
      "name": "decreaseAllowance",
      "outputs": [
        {
          "internalType": "bool",
          "name": "",
          "type": "bool"
        }
      ],
      "payable": false,
      "stateMutability": "nonpayable",
      "type": "function"
    },
    {
      "constant": false,
      "inputs": [
        {
          "internalType": "address",
          "name": "spender",
          "type": "address"
        },
        {
          "internalType": "uint256",
          "name": "addedValue",
          "type": "uint256"
        }
      ],
      "name": "increaseAllowance",
      "outputs": [
        {
          "internalType": "bool",
          "name": "",
          "type": "bool"
        }
      ],
      "payable": false,
      "stateMutability": "nonpayable",
      "type": "function"
    },
    {
      "constant": false,
      "inputs": [
        {
          "internalType": "address",
          "name": "_to",
          "type": "address"
        },
        {
          "internalType": "uint256",
          "name": "_value",
          "type": "uint256"
        }
      ],
      "name": "mint",
      "outputs": [
        {
          "internalType": "bool",
          "name": "",
          "type": "bool"
        }
      ],
      "payable": false,
      "stateMutability": "nonpayable",
      "type": "function"
    },
    {
      "constant": true,
      "inputs": [],
      "name": "totalSupply",
      "outputs": [
        {
          "internalType": "uint256",
          "name": "",
          "type": "uint256"
        }
      ],
      "payable": false,
      "stateMutability": "view",
      "type": "function"
    },
    {
      "constant": false,
      "inputs": [
        {
          "internalType": "address",
          "name": "recipient",
          "type": "address"
        },
        {
          "internalType": "uint256",
          "name": "amount",
          "type": "uint256"
        }
      ],
      "name": "transfer",
      "outputs": [
        {
          "internalType": "bool",
          "name": "",
          "type": "bool"
        }
      ],
      "payable": false,
      "stateMutability": "nonpayable",
      "type": "function"
    },
    {
      "constant": false,
      "inputs": [
        {
          "internalType": "address",
          "name": "_from",
          "type": "address"
        },
        {
          "internalType": "address",
          "name": "_to",
          "type": "address"
        },
        {
          "internalType": "uint256",
          "name": "_value",
          "type": "uint256"
        }
      ],
      "name": "transferFrom",
      "outputs": [
        {
          "internalType": "bool",
          "name": "",
          "type": "bool"
        }
      ],
      "payable": false,
      "stateMutability": "nonpayable",
      "type": "function"
    }
  ],
  "bytecode": "0x6080604052610902806100136000396000f3fe608060405234801561001057600080fd5b50600436106100935760003560e01c806340c10f191161006657806340c10f191461015457806370a0823114610180578063a457c2d7146101a6578063a9059cbb146101d2578063dd62ed3e146101fe57610093565b8063095ea7b31461009857806318160ddd146100d857806323b872dd146100f25780633950935114610128575b600080fd5b6100c4600480360360408110156100ae57600080fd5b506001600160a01b03813516906020013561022c565b604080519115158252519081900360200190f35b6100e0610249565b60408051918252519081900360200190f35b6100c46004803603606081101561010857600080fd5b506001600160a01b0381358116916020810135909116906040013561024f565b6100c46004803603604081101561013e57600080fd5b506001600160a01b038135169060200135610293565b6100c46004803603604081101561016a57600080fd5b506001600160a01b0381351690602001356102ec565b6100e06004803603602081101561019657600080fd5b50356001600160a01b03166102f8565b6100c4600480360360408110156101bc57600080fd5b506001600160a01b038135169060200135610313565b6100c4600480360360408110156101e857600080fd5b506001600160a01b038135169060200135610381565b6100e06004803603604081101561021457600080fd5b506001600160a01b0381358116916020013516610395565b60006102406102396103c0565b84846103c4565b50600192915050565b60025490565b60006040805162461bcd60e51b8152602060048201526012602482015271796f75207368616c6c206e6f74207061737360701b604482015290519081900360640190fd5b60006102406102a06103c0565b846102e785600160006102b16103c0565b6001600160a01b03908116825260208083019390935260409182016000908120918c16815292529020549063ffffffff6104b016565b6103c4565b60006102408383610511565b6001600160a01b031660009081526020819052604090205490565b60006102406103206103c0565b846102e7856040518060600160405280602581526020016108a9602591396001600061034a6103c0565b6001600160a01b03908116825260208083019390935260409182016000908120918d1681529252902054919063ffffffff61060116565b600061024061038e6103c0565b8484610698565b6001600160a01b03918216600090815260016020908152604080832093909416825291909152205490565b3390565b6001600160a01b0383166104095760405162461bcd60e51b81526004018080602001828103825260248152602001806108856024913960400191505060405180910390fd5b6001600160a01b03821661044e5760405162461bcd60e51b81526004018080602001828103825260228152602001806108186022913960400191505060405180910390fd5b6001600160a01b03808416600081815260016020908152604080832094871680845294825291829020859055815185815291517f8c5be1e5ebec7d5bd14f71427d1e84f3dd0314c0f7b2291e5b200ac8c7c3b9259281900390910190a3505050565b60008282018381101561050a576040805162461bcd60e51b815260206004820152601b60248201527f536166654d6174683a206164646974696f6e206f766572666c6f770000000000604482015290519081900360640190fd5b9392505050565b6001600160a01b03821661056c576040805162461bcd60e51b815260206004820152601f60248201527f45524332303a206d696e7420746f20746865207a65726f206164647265737300604482015290519081900360640190fd5b60025461057f908263ffffffff6104b016565b6002556001600160a01b0382166000908152602081905260409020546105ab908263ffffffff6104b016565b6001600160a01b0383166000818152602081815260408083209490945583518581529351929391927fddf252ad1be2c89b69c2b068fc378daa952ba7f163c4a11628f55a4df523b3ef9281900390910190a35050565b600081848411156106905760405162461bcd60e51b81526004018080602001828103825283818151815260200191508051906020019080838360005b8381101561065557818101518382015260200161063d565b50505050905090810190601f1680156106825780820380516001836020036101000a031916815260200191505b509250505060405180910390fd5b505050900390565b6001600160a01b0383166106dd5760405162461bcd60e51b81526004018080602001828103825260258152602001806108606025913960400191505060405180910390fd5b6001600160a01b0382166107225760405162461bcd60e51b81526004018080602001828103825260238152602001806107f56023913960400191505060405180910390fd5b6107658160405180606001604052806026815260200161083a602691396001600160a01b038616600090815260208190526040902054919063ffffffff61060116565b6001600160a01b03808516600090815260208190526040808220939093559084168152205461079a908263ffffffff6104b016565b6001600160a01b038084166000818152602081815260409182902094909455805185815290519193928716927fddf252ad1be2c89b69c2b068fc378daa952ba7f163c4a11628f55a4df523b3ef92918290030190a350505056fe45524332303a207472616e7366657220746f20746865207a65726f206164647265737345524332303a20617070726f766520746f20746865207a65726f206164647265737345524332303a207472616e7366657220616d6f756e7420657863656564732062616c616e636545524332303a207472616e736665722066726f6d20746865207a65726f206164647265737345524332303a20617070726f76652066726f6d20746865207a65726f206164647265737345524332303a2064656372656173656420616c6c6f77616e63652062656c6f77207a65726fa265627a7a723158203362b874a1f7368f7eec22b1459a2fc5c05f83dc23c93c0bcd708b4b63d2950e64736f6c63430005110032",
  "source": "pragma solidity >=0.5.0 <0.6.0;\n\nimport \"../../ERC20/ERC20Mintable.sol\";\n\n/**\n * @title ERC20BrokenTransferFromTest\n * @dev Extending ERC20 by adding some functions that always revert when called.\n */\ncontract ERC20BrokenTransferFromTest is ERC20Mintable {\n\n    function transferFrom(address _from, address _to, uint256 _value) public returns (bool) {\n        require(true == false, \"you shall not pass\");\n        super.transferFrom(_from, _to, _value);\n        return true;\n    }\n}\n",
  "sourcePath": "/Users/suleymankardas/Desktop/aztec/aztec-protocol/contracts/test/ERC20/ERC20BrokenTransferFromTest.sol",
  "compiler": {
    "name": "solc",
    "version": "0.5.17+commit.d19bba13.Emscripten.clang"
  },
  "schemaVersion": "3.4.1",
  "updatedAt": "2022-03-28T14:36:05.568Z",
  "devdoc": {
    "details": "Extending ERC20 by adding some functions that always revert when called.",
    "methods": {
      "allowance(address,address)": {
        "details": "See {IERC20-allowance}."
      },
      "approve(address,uint256)": {
        "details": "See {IERC20-approve}.     * Requirements:     * - `spender` cannot be the zero address."
      },
      "balanceOf(address)": {
        "details": "See {IERC20-balanceOf}."
      },
      "decreaseAllowance(address,uint256)": {
        "details": "Atomically decreases the allowance granted to `spender` by the caller.     * This is an alternative to {approve} that can be used as a mitigation for problems described in {IERC20-approve}.     * Emits an {Approval} event indicating the updated allowance.     * Requirements:     * - `spender` cannot be the zero address. - `spender` must have allowance for the caller of at least `subtractedValue`."
      },
      "increaseAllowance(address,uint256)": {
        "details": "Atomically increases the allowance granted to `spender` by the caller.     * This is an alternative to {approve} that can be used as a mitigation for problems described in {IERC20-approve}.     * Emits an {Approval} event indicating the updated allowance.     * Requirements:     * - `spender` cannot be the zero address."
      },
      "mint(address,uint256)": {
        "details": "Function to mint tokens",
        "params": {
          "_to": "The address that will receive the minted tokens.",
          "_value": "The amount of tokens to mint."
        },
        "return": "A boolean that indicates if the operation was successful."
      },
      "totalSupply()": {
        "details": "See {IERC20-totalSupply}."
      },
      "transfer(address,uint256)": {
        "details": "See {IERC20-transfer}.     * Requirements:     * - `recipient` cannot be the zero address. - the caller must have a balance of at least `amount`."
      }
    },
    "title": "ERC20BrokenTransferFromTest"
  },
  "userdoc": {
    "methods": {}
  }
}