{
  "contractName": "FactoryBase201911",
  "abi": [
    {
      "inputs": [
        {
          "internalType": "address",
          "name": "_aceAddress",
          "type": "address"
        }
      ],
      "payable": false,
      "stateMutability": "nonpayable",
      "type": "constructor"
    },
    {
      "anonymous": false,
      "inputs": [
        {
          "indexed": false,
          "internalType": "address",
          "name": "behaviourContract",
          "type": "address"
        }
      ],
      "name": "NoteRegistryDeployed",
      "type": "event"
    },
    {
      "anonymous": false,
      "inputs": [
        {
          "indexed": true,
          "internalType": "address",
          "name": "previousOwner",
          "type": "address"
        },
        {
          "indexed": true,
          "internalType": "address",
          "name": "newOwner",
          "type": "address"
        }
      ],
      "name": "OwnershipTransferred",
      "type": "event"
    },
    {
      "constant": true,
      "inputs": [],
      "name": "BURN_PROOF",
      "outputs": [
        {
          "internalType": "uint24",
          "name": "",
          "type": "uint24"
        }
      ],
      "payable": false,
      "stateMutability": "view",
      "type": "function"
    },
    {
      "constant": true,
      "inputs": [],
      "name": "DIVIDEND_PROOF",
      "outputs": [
        {
          "internalType": "uint24",
          "name": "",
          "type": "uint24"
        }
      ],
      "payable": false,
      "stateMutability": "view",
      "type": "function"
    },
    {
      "constant": true,
      "inputs": [],
      "name": "JOIN_SPLIT_PROOF",
      "outputs": [
        {
          "internalType": "uint24",
          "name": "",
          "type": "uint24"
        }
      ],
      "payable": false,
      "stateMutability": "view",
      "type": "function"
    },
    {
      "constant": true,
      "inputs": [],
      "name": "MINT_PROOF",
      "outputs": [
        {
          "internalType": "uint24",
          "name": "",
          "type": "uint24"
        }
      ],
      "payable": false,
      "stateMutability": "view",
      "type": "function"
    },
    {
      "constant": true,
      "inputs": [],
      "name": "PRIVATE_RANGE_PROOF",
      "outputs": [
        {
          "internalType": "uint24",
          "name": "",
          "type": "uint24"
        }
      ],
      "payable": false,
      "stateMutability": "view",
      "type": "function"
    },
    {
      "constant": true,
      "inputs": [],
      "name": "PUBLIC_RANGE_PROOF",
      "outputs": [
        {
          "internalType": "uint24",
          "name": "",
          "type": "uint24"
        }
      ],
      "payable": false,
      "stateMutability": "view",
      "type": "function"
    },
    {
      "constant": false,
      "inputs": [
        {
          "internalType": "address",
          "name": "_proxy",
          "type": "address"
        },
        {
          "internalType": "address",
          "name": "_newImplementation",
          "type": "address"
        },
        {
          "internalType": "address",
          "name": "_newProxyAdmin",
          "type": "address"
        }
      ],
      "name": "handoverBehaviour",
      "outputs": [],
      "payable": false,
      "stateMutability": "nonpayable",
      "type": "function"
    },
    {
      "constant": true,
      "inputs": [],
      "name": "isOwner",
      "outputs": [
        {
          "internalType": "bool",
          "name": "",
          "type": "bool"
        }
      ],
      "payable": false,
      "stateMutability": "view",
      "type": "function"
    },
    {
      "constant": true,
      "inputs": [],
      "name": "owner",
      "outputs": [
        {
          "internalType": "address",
          "name": "",
          "type": "address"
        }
      ],
      "payable": false,
      "stateMutability": "view",
      "type": "function"
    },
    {
      "constant": false,
      "inputs": [],
      "name": "renounceOwnership",
      "outputs": [],
      "payable": false,
      "stateMutability": "nonpayable",
      "type": "function"
    },
    {
      "constant": false,
      "inputs": [
        {
          "internalType": "address",
          "name": "newOwner",
          "type": "address"
        }
      ],
      "name": "transferOwnership",
      "outputs": [],
      "payable": false,
      "stateMutability": "nonpayable",
      "type": "function"
    },
    {
      "constant": false,
      "inputs": [],
      "name": "deployNewBehaviourInstance",
      "outputs": [
        {
          "internalType": "address",
          "name": "",
          "type": "address"
        }
      ],
      "payable": false,
      "stateMutability": "nonpayable",
      "type": "function"
    }
  ],
  "bytecode": "0x608060405234801561001057600080fd5b50604051611d32380380611d328339818101604052602081101561003357600080fd5b50518060006100496001600160e01b0361009a16565b600080546001600160a01b0319166001600160a01b038316908117825560405192935091600080516020611d12833981519152908290a350610093816001600160e01b0361009e16565b5050610204565b3390565b6100af6001600160e01b0361012f16565b61011a57604080517f08c379a000000000000000000000000000000000000000000000000000000000815260206004820181905260248201527f4f776e61626c653a2063616c6c6572206973206e6f7420746865206f776e6572604482015290519081900360640190fd5b61012c816001600160e01b0361015c16565b50565b600080546001600160a01b031661014d6001600160e01b0361009a16565b6001600160a01b031614905090565b6001600160a01b0381166101bb576040517f08c379a0000000000000000000000000000000000000000000000000000000008152600401808060200182810382526026815260200180611cec6026913960400191505060405180910390fd5b600080546040516001600160a01b0380851693921691600080516020611d1283398151915291a3600080546001600160a01b0319166001600160a01b0392909216919091179055565b611ad9806102136000396000f3fe608060405234801561001057600080fd5b50600436106100b35760003560e01c80638da5cb5b116100715780638da5cb5b1461011e5780638e526d9b146101265780638f32d59b1461012e578063b5ee31f01461014a578063df92462514610182578063f2fde38b1461018a576100b3565b80625bf732146100b857806308ae900a146100d85780630f5d1a39146100e057806349518b2814610104578063715018a61461010c5780638500e1f814610116575b600080fd5b6100c06101b0565b6040805162ffffff9092168252519081900360200190f35b6100c06101b7565b6100e86101be565b604080516001600160a01b039092168252519081900360200190f35b6100c0610277565b61011461027e565b005b6100c061030f565b6100e8610316565b6100c0610325565b61013661032c565b604080519115158252519081900360200190f35b6101146004803603606081101561016057600080fd5b506001600160a01b038135811691602081013582169160409091013516610350565b6100c0610532565b610114600480360360208110156101a057600080fd5b50356001600160a01b0316610539565b6201010181565b6201040381565b60006101c861032c565b610207576040805162461bcd60e51b81526020600482018190526024820152600080516020611a63833981519152604482015290519081900360640190fd5b600060405161021590610630565b604051809103906000f080158015610231573d6000803e3d6000fd5b50604080516001600160a01b038316815290519192507ff0b9411f46edcf614ae2f9fe981a238b88f643e02271a06f46cae1674dfad295919081900360200190a1905090565b6201040281565b61028661032c565b6102c5576040805162461bcd60e51b81526020600482018190526024820152600080516020611a63833981519152604482015290519081900360640190fd5b600080546040516001600160a01b03909116907f8be0079c531659141344cd1fd0a4f28419497f9722a3daafe3b4186f6b6457e0908390a3600080546001600160a01b0319169055565b6201040181565b6000546001600160a01b031690565b6201020181565b600080546001600160a01b031661034161058c565b6001600160a01b031614905090565b61035861032c565b610397576040805162461bcd60e51b81526020600482018190526024820152600080516020611a63833981519152604482015290519081900360640190fd5b306001600160a01b0316836001600160a01b031663f851a4406040518163ffffffff1660e01b8152600401602060405180830381600087803b1580156103dc57600080fd5b505af11580156103f0573d6000803e3d6000fd5b505050506040513d602081101561040657600080fd5b50516001600160a01b03161461044d5760405162461bcd60e51b8152600401808060200182810382526022815260200180611a836022913960400191505060405180910390fd5b826001600160a01b0316633659cfe6836040518263ffffffff1660e01b815260040180826001600160a01b03166001600160a01b03168152602001915050600060405180830381600087803b1580156104a557600080fd5b505af11580156104b9573d6000803e3d6000fd5b50505050826001600160a01b0316638f283970826040518263ffffffff1660e01b815260040180826001600160a01b03166001600160a01b03168152602001915050600060405180830381600087803b15801561051557600080fd5b505af1158015610529573d6000803e3d6000fd5b50505050505050565b6201030181565b61054161032c565b610580576040805162461bcd60e51b81526020600482018190526024820152600080516020611a63833981519152604482015290519081900360640190fd5b61058981610590565b50565b3390565b6001600160a01b0381166105d55760405162461bcd60e51b8152600401808060200182810382526026815260200180611a3d6026913960400191505060405180910390fd5b600080546040516001600160a01b03808516939216917f8be0079c531659141344cd1fd0a4f28419497f9722a3daafe3b4186f6b6457e091a3600080546001600160a01b0319166001600160a01b0392909216919091179055565b6113ff8061063e8339019056fe60806040526008805460ff1916905534801561001a57600080fd5b50600061002e6001600160e01b036100a116565b600080546001600160a01b0319166001600160a01b0383169081178255604051929350917f8be0079c531659141344cd1fd0a4f28419497f9722a3daafe3b4186f6b6457e0908290a3506000805460ff60a01b1916740100000000000000000000000000000000000000001790556100a5565b3390565b61134b806100b46000396000f3fe608060405234801561001057600080fd5b50600436106101575760003560e01c80637ba0e2e7116100c357806398df3d001161007c57806398df3d00146104be578063ad32f92514610517578063ce8843431461051f578063d82d577e1461055b578063df92462514610563578063f2fde38b1461056b57610157565b80637ba0e2e7146103f05780638500e1f81461049657806385c418f31461049e5780638da5cb5b146104a65780638e526d9b146104ae5780638f32d59b146104b657610157565b80632a07b6c7116101155780632a07b6c7146101e6578063386612381461028e57806349518b28146103685780635ab1bd5314610370578063715018a6146103a75780637b103999146103af57610157565b80625bf7321461015c57806303e012e31461017c57806307003bb4146101a057806307616051146101bc57806308ae900a146101d65780631d14cca6146101de575b600080fd5b610164610591565b6040805162ffffff9092168252519081900360200190f35b610184610598565b604080516001600160a01b039092168252519081900360200190f35b6101a86105a7565b604080519115158252519081900360200190f35b6101c46105b7565b60408051918252519081900360200190f35b6101646105db565b6101a86105e2565b61028c600480360360208110156101fc57600080fd5b81019060208101813564010000000081111561021757600080fd5b82018360208201111561022957600080fd5b8035906020019184600183028401116401000000008311171561024b57600080fd5b91908080601f0160208091040260200160405190810160405280939291908181526020018383808284376000920191909152509295506105eb945050505050565b005b610340600480360360408110156102a457600080fd5b62ffffff82351691908101906040810160208201356401000000008111156102cb57600080fd5b8201836020820111156102dd57600080fd5b803590602001918460018302840111640100000000831117156102ff57600080fd5b91908080601f016020809104026020016040519081016040528093929190818152602001838380828437600092019190915250929550610697945050505050565b604080516001600160a01b039094168452602084019290925282820152519081900360600190f35b61016461074f565b610378610756565b604080519586526020860194909452848401929092521515606084015215156080830152519081900360a00190f35b61028c6107e5565b6103b7610876565b604080519615158752602087019590955285850193909352606085019190915215156080840152151560a0830152519081900360c00190f35b61028c6004803603602081101561040657600080fd5b81019060208101813564010000000081111561042157600080fd5b82018360208201111561043357600080fd5b8035906020019184600183028401116401000000008311171561045557600080fd5b91908080601f016020809104026020016040519081016040528093929190818152602001838380828437600092019190915250929550610898945050505050565b610164610941565b6101a8610948565b610184610958565b610164610967565b6101a861096e565b6104db600480360360208110156104d457600080fd5b5035610992565b6040805160ff909516855264ffffffffff938416602086015291909216838201526001600160a01b039091166060830152519081900360800190f35b61028c610a36565b61028c6004803603608081101561053557600080fd5b506001600160a01b03813516906020810135906040810135151590606001351515610ae4565b6101c4610c0c565b610164610c14565b61028c6004803603602081101561058157600080fd5b50356001600160a01b0316610c1b565b6201010181565b6001546001600160a01b031681565b600054600160a81b900460ff1681565b7f26d21f105b054b61e8d9680855c3af0633bd7c140b87de95f0ac218046fc71db81565b6201040381565b60085460ff1681565b6105f361096e565b610632576040805162461bcd60e51b815260206004820181905260248201526000805160206112d5833981519152604482015290519081900360640190fd5b60065460ff610100909104161515600114610694576040805162461bcd60e51b815260206004820152601a60248201527f74686973206173736574206973206e6f74206275726e61626c65000000000000604482015290519081900360640190fd5b50565b60008060006106a461096e565b6106e3576040805162461bcd60e51b815260206004820181905260248201526000805160206112d5833981519152604482015290519081900360640190fd5b60085460ff161515600114806106fc575042635e83d97f105b6107375760405162461bcd60e51b815260040180806020018281038252603b815260200180611251603b913960400191505060405180910390fd5b6107418585610c6b565b919790965090945092505050565b6201040281565b600254600090819081908190819060ff1615156001146107bd576040805162461bcd60e51b815260206004820152601f60248201527f657870656374656420726567697374727920746f206265206372656174656400604482015290519081900360640190fd5b50506003546004546005546006549296919550935060ff808316935061010090920490911690565b6107ed61096e565b61082c576040805162461bcd60e51b815260206004820181905260248201526000805160206112d5833981519152604482015290519081900360640190fd5b600080546040516001600160a01b03909116907f8be0079c531659141344cd1fd0a4f28419497f9722a3daafe3b4186f6b6457e0908390a3600080546001600160a01b0319169055565b60025460035460045460055460065460ff948516948181169161010090041686565b6108a061096e565b6108df576040805162461bcd60e51b815260206004820181905260248201526000805160206112d5833981519152604482015290519081900360640190fd5b60065460ff610100909104161515600114610694576040805162461bcd60e51b815260206004820152601a60248201527f74686973206173736574206973206e6f74206d696e7461626c65000000000000604482015290519081900360640190fd5b6201040181565b600054600160a01b900460ff1681565b6000546001600160a01b031690565b6201020181565b600080546001600160a01b0316610983610db9565b6001600160a01b031614905090565b60008181526007602052604081205481908190819060ff166109f4576040805162461bcd60e51b8152602060048201526016602482015275195e1c1958dd1959081b9bdd19481d1bc8195e1a5cdd60521b604482015290519081900360640190fd5b5050506000918252506007602052604090205460ff811691600882901c64ffffffffff90811692603081901c9091169160589190911c6001600160a01b031690565b610a3e61096e565b610a7d576040805162461bcd60e51b815260206004820181905260248201526000805160206112d5833981519152604482015290519081900360640190fd5b60085460ff1615610ad5576040805162461bcd60e51b815260206004820152601a60248201527f617373657420697320616c726561647920617661696c61626c65000000000000604482015290519081900360640190fd5b6008805460ff19166001179055565b600054600160a81b900460ff16151560011415610b48576040805162461bcd60e51b815260206004820152601c60248201527f726567697374727920616c726561647920696e697469616c6973656400000000604482015290519081900360640190fd5b610b5184610dbd565b60018054336001600160a01b03199091161781556040805160c081018252828152602081018690527f26d21f105b054b61e8d9680855c3af0633bd7c140b87de95f0ac218046fc71db918101829052606081018290529215156080840181905293151560a09093018390526002805460ff19908116909317905560039490945560048490556005939093556006805490931690911761ff0019166101009091021790555060008054600160a81b60ff60a81b19909116179055565b635e83d97f81565b6201030181565b610c2361096e565b610c62576040805162461bcd60e51b815260206004820181905260248201526000805160206112d5833981519152604482015290519081900360640190fd5b61069481610dbd565b6000806000610c7861096e565b610cb7576040805162461bcd60e51b815260206004820181905260248201526000805160206112d5833981519152604482015290519081900360640190fd5b60025460ff161515600114610cfd5760405162461bcd60e51b815260040180806020018281038252603281526020018061121f6032913960400191505060405180910390fd5b606080610d0986610e5d565b90975094509092509050610d1c82610e87565b610d2581610ed8565b8215610db05760065460ff161515600114610d715760405162461bcd60e51b815260040180806020018281038252602c8152602001806111f3602c913960400191505060405180910390fd5b6000831215610d9957600354610d929060008590039063ffffffff610f6516565b9350610db0565b600354610dad90849063ffffffff610f6516565b93505b50509250925092565b3390565b6001600160a01b038116610e025760405162461bcd60e51b81526004018080602001828103825260268152602001806111cd6026913960400191505060405180910390fd5b600080546040516001600160a01b03808516939216917f8be0079c531659141344cd1fd0a4f28419497f9722a3daafe3b4186f6b6457e091a3600080546001600160a01b0319166001600160a01b0392909216919091179055565b60208101516040820151606083015160808401519284019491909301926001600160a01b03169190565b6000610e9282610fc7565b905060005b81811015610ed357600080610eba610eb5868563ffffffff610fce16565b611025565b5091509150610ec98183611043565b5050600101610e97565b505050565b6000610ee382610fc7565b905060005b81811015610ed357600080610f06610eb5868563ffffffff610fce16565b5090925090506001600160a01b038216610f515760405162461bcd60e51b81526004018080602001828103825260288152602001806112ad6028913960400191505060405180910390fd5b610f5b8183611151565b5050600101610ee8565b600082610f7457506000610fc1565b82820282848281610f8157fe5b0414610fbe5760405162461bcd60e51b815260040180806020018281038252602181526020018061128c6021913960400191505060405180910390fd5b90505b92915050565b6020015190565b60208281015190820283016040015183019082108061101e5760405162461bcd60e51b81526004018080602001828103825260228152602001806112f56022913960400191505060405180910390fd5b5092915050565b604081015160608201516001600160a01b0390911692909160800190565b600082815260076020526040902080546affffffffff0000000000ff1981166affffffffff0000000000004260301b1617600290811783559160ff82169160581c6001600160a01b031690600183146110e3576040805162461bcd60e51b815260206004820181905260248201527f696e707574206e6f746520737461747573206973206e6f7420554e5350454e54604482015290519081900360640190fd5b846001600160a01b0316826001600160a01b031614611149576040805162461bcd60e51b815260206004820152601f60248201527f696e707574206e6f7465206f776e657220646f6573206e6f74206d6174636800604482015290519081900360640190fd5b505050505050565b600082815260076020526040902080546001919060ff16156111af576040805162461bcd60e51b81526020600482015260126024820152716f7574707574206e6f74652065786973747360701b604482015290519081900360640190fd5b8260581b64ffffffffff421660081b60ff8416171781555050505056fe4f776e61626c653a206e6577206f776e657220697320746865207a65726f206164647265737361737365742063616e6e6f7420626520636f6e76657274656420696e746f207075626c696320746f6b656e736e6f746520726567697374727920646f6573206e6f7420657869737420666f722074686520676976656e2061646472657373415a54454320697320696e206275726e2d696e20706572696f642c20616e642074686973206173736574206973206e6f7420617661696c61626c65536166654d6174683a206d756c7469706c69636174696f6e206f766572666c6f776f7574707574206e6f7465206f776e65722063616e6e6f74206265206164647265737328307830294f776e61626c653a2063616c6c6572206973206e6f7420746865206f776e6572415a54454320617272617920696e646578206973206f7574206f6620626f756e6473a265627a7a7231582072a5ed5563e8e28ee27e906a1f901eda9cc8d0e9db3611c4512d52749f37af2764736f6c634300051100324f776e61626c653a206e6577206f776e657220697320746865207a65726f20616464726573734f776e61626c653a2063616c6c6572206973206e6f7420746865206f776e657274686973206973206e6f74207468652061646d696e206f66207468652070726f7879a265627a7a72315820685b2424f96836df07a8a6fc787c4ef8bf7758454d6e9e5249bfb01442b725ac64736f6c634300051100324f776e61626c653a206e6577206f776e657220697320746865207a65726f20616464726573738be0079c531659141344cd1fd0a4f28419497f9722a3daafe3b4186f6b6457e0",
  "source": "pragma solidity >=0.5.0 <0.6.0;\n\nimport \"../../../interfaces/NoteRegistryFactory.sol\";\nimport \"./BehaviourBase201911.sol\";\n\n/**\n * @title FactoryBase201911\n * @author AZTEC\n * @dev Deploys a BehaviourBase201911\n * Copyright 2020 Spilsbury Holdings Ltd \n *\n * Licensed under the GNU Lesser General Public Licence, Version 3.0 (the \"License\");\n * you may not use this file except in compliance with the License.\n *\n * This program is distributed in the hope that it will be useful,\n * but WITHOUT ANY WARRANTY; without even the implied warranty of\n * MERCHANTABILITY or FITNESS FOR A PARTICULAR PURPOSE.  See the\n * GNU Lesser General Public License for more details.\n *\n * You should have received a copy of the GNU Lesser General Public License\n * along with this program.  If not, see <https://www.gnu.org/licenses/>.\n**/\ncontract FactoryBase201911 is NoteRegistryFactory {\n    constructor(address _aceAddress) public NoteRegistryFactory(_aceAddress) {}\n\n    function deployNewBehaviourInstance()\n        public\n        onlyOwner\n        returns (address)\n    {\n        BehaviourBase201911 behaviourContract = new BehaviourBase201911();\n        emit NoteRegistryDeployed(address(behaviourContract));\n        return address(behaviourContract);\n    }\n}\n",
  "sourcePath": "/Users/suleymankardas/Desktop/aztec/aztec-protocol/contracts/ACE/noteRegistry/epochs/201911/base/FactoryBase201911.sol",
  "compiler": {
    "name": "solc",
    "version": "0.5.17+commit.d19bba13.Emscripten.clang"
  },
  "schemaVersion": "3.4.1",
  "updatedAt": "2022-03-28T14:36:05.442Z",
  "devdoc": {
    "author": "AZTEC",
    "details": "Deploys a BehaviourBase201911 Copyright 2020 Spilsbury Holdings Ltd  * Licensed under the GNU Lesser General Public Licence, Version 3.0 (the \"License\"); you may not use this file except in compliance with the License. * This program is distributed in the hope that it will be useful, but WITHOUT ANY WARRANTY; without even the implied warranty of MERCHANTABILITY or FITNESS FOR A PARTICULAR PURPOSE.  See the GNU Lesser General Public License for more details. * You should have received a copy of the GNU Lesser General Public License along with this program.  If not, see <https://www.gnu.org/licenses/>.*",
    "methods": {
      "isOwner()": {
        "details": "Returns true if the caller is the current owner."
      },
      "owner()": {
        "details": "Returns the address of the current owner."
      },
      "renounceOwnership()": {
        "details": "Leaves the contract without owner. It will not be possible to call `onlyOwner` functions anymore. Can only be called by the current owner.     * NOTE: Renouncing ownership will leave the contract without an owner, thereby removing any functionality that is only available to the owner."
      },
      "transferOwnership(address)": {
        "details": "Transfers ownership of the contract to a new account (`newOwner`). Can only be called by the current owner."
      }
    },
    "title": "FactoryBase201911"
  },
  "userdoc": {
    "methods": {}
  }
}