{
  "contractName": "IAZTEC",
  "abi": [
    {
      "constant": true,
      "inputs": [],
      "name": "BURN_PROOF",
      "outputs": [
        {
          "internalType": "uint24",
          "name": "",
          "type": "uint24"
        }
      ],
      "payable": false,
      "stateMutability": "view",
      "type": "function"
    },
    {
      "constant": true,
      "inputs": [],
      "name": "DIVIDEND_PROOF",
      "outputs": [
        {
          "internalType": "uint24",
          "name": "",
          "type": "uint24"
        }
      ],
      "payable": false,
      "stateMutability": "view",
      "type": "function"
    },
    {
      "constant": true,
      "inputs": [],
      "name": "JOIN_SPLIT_PROOF",
      "outputs": [
        {
          "internalType": "uint24",
          "name": "",
          "type": "uint24"
        }
      ],
      "payable": false,
      "stateMutability": "view",
      "type": "function"
    },
    {
      "constant": true,
      "inputs": [],
      "name": "MINT_PROOF",
      "outputs": [
        {
          "internalType": "uint24",
          "name": "",
          "type": "uint24"
        }
      ],
      "payable": false,
      "stateMutability": "view",
      "type": "function"
    },
    {
      "constant": true,
      "inputs": [],
      "name": "PRIVATE_RANGE_PROOF",
      "outputs": [
        {
          "internalType": "uint24",
          "name": "",
          "type": "uint24"
        }
      ],
      "payable": false,
      "stateMutability": "view",
      "type": "function"
    },
    {
      "constant": true,
      "inputs": [],
      "name": "PUBLIC_RANGE_PROOF",
      "outputs": [
        {
          "internalType": "uint24",
          "name": "",
          "type": "uint24"
        }
      ],
      "payable": false,
      "stateMutability": "view",
      "type": "function"
    }
  ],
  "bytecode": "0x608060405234801561001057600080fd5b5060f98061001f6000396000f3fe6080604052348015600f57600080fd5b506004361060595760003560e01c80625bf73214605e57806308ae900a14607c57806349518b281460825780638500e1f81460885780638e526d9b14608e578063df924625146094575b600080fd5b6064609a565b6040805162ffffff9092168252519081900360200190f35b606460a1565b606460a8565b606460af565b606460b6565b606460bd565b6201010181565b6201040381565b6201040281565b6201040181565b6201020181565b620103018156fea265627a7a72315820b2f29f3f0b782a0e04a664497c8352c7bd7e291191215ff1bbb369713300281764736f6c63430005110032",
  "source": "pragma solidity >=0.5.0 <0.6.0;\n\n/**\n * @title IAZTEC\n * @author AZTEC\n *\n * Copyright 2020 Spilsbury Holdings Ltd \n *\n * Licensed under the GNU Lesser General Public Licence, Version 3.0 (the \"License\");\n * you may not use this file except in compliance with the License.\n *\n * This program is distributed in the hope that it will be useful,\n * but WITHOUT ANY WARRANTY; without even the implied warranty of\n * MERCHANTABILITY or FITNESS FOR A PARTICULAR PURPOSE.  See the\n * GNU Lesser General Public License for more details.\n *\n * You should have received a copy of the GNU Lesser General Public License\n * along with this program.  If not, see <https://www.gnu.org/licenses/>.\n**/\ncontract IAZTEC {\n    enum ProofCategory {\n        NULL,\n        BALANCED,\n        MINT,\n        BURN,\n        UTILITY\n    }\n\n    enum NoteStatus {\n        DOES_NOT_EXIST,\n        UNSPENT,\n        SPENT\n    }\n    // proofEpoch = 1 | proofCategory = 1 | proofId = 1\n    // 1 * 256**(2) + 1 * 256**(1) ++ 1 * 256**(0)\n    uint24 public constant JOIN_SPLIT_PROOF = 65793;\n\n    // proofEpoch = 1 | proofCategory = 2 | proofId = 1\n    // (1 * 256**(2)) + (2 * 256**(1)) + (1 * 256**(0))\n    uint24 public constant MINT_PROOF = 66049;\n\n    // proofEpoch = 1 | proofCategory = 3 | proofId = 1\n    // (1 * 256**(2)) + (3 * 256**(1)) + (1 * 256**(0))\n    uint24 public constant BURN_PROOF = 66305;\n\n    // proofEpoch = 1 | proofCategory = 4 | proofId = 2\n    // (1 * 256**(2)) + (4 * 256**(1)) + (2 * 256**(0))\n    uint24 public constant PRIVATE_RANGE_PROOF = 66562;\n\n        // proofEpoch = 1 | proofCategory = 4 | proofId = 3\n    // (1 * 256**(2)) + (4 * 256**(1)) + (2 * 256**(0))\n    uint24 public constant PUBLIC_RANGE_PROOF = 66563;\n\n    // proofEpoch = 1 | proofCategory = 4 | proofId = 1\n    // (1 * 256**(2)) + (4 * 256**(1)) + (2 * 256**(0))\n    uint24 public constant DIVIDEND_PROOF = 66561;\n}\n",
  "sourcePath": "/Users/suleymankardas/Desktop/aztec/aztec-protocol/contracts/interfaces/IAZTEC.sol",
  "compiler": {
    "name": "solc",
    "version": "0.5.17+commit.d19bba13.Emscripten.clang"
  },
  "schemaVersion": "3.4.1",
  "updatedAt": "2022-03-28T14:36:05.525Z",
  "devdoc": {
    "author": "AZTEC * Copyright 2020 Spilsbury Holdings Ltd  * Licensed under the GNU Lesser General Public Licence, Version 3.0 (the \"License\"); you may not use this file except in compliance with the License. * This program is distributed in the hope that it will be useful, but WITHOUT ANY WARRANTY; without even the implied warranty of MERCHANTABILITY or FITNESS FOR A PARTICULAR PURPOSE.  See the GNU Lesser General Public License for more details. * You should have received a copy of the GNU Lesser General Public License along with this program.  If not, see <https://www.gnu.org/licenses/>.*",
    "methods": {},
    "title": "IAZTEC"
  },
  "userdoc": {
    "methods": {}
  }
}