{
  "contractName": "JoinSplitABIEncoderTest",
  "abi": [
    {
      "constant": true,
      "inputs": [
        {
          "internalType": "bytes",
          "name": "",
          "type": "bytes"
        },
        {
          "internalType": "address",
          "name": "",
          "type": "address"
        },
        {
          "internalType": "uint256[6]",
          "name": "",
          "type": "uint256[6]"
        }
      ],
      "name": "validateJoinSplit",
      "outputs": [
        {
          "internalType": "bytes",
          "name": "",
          "type": "bytes"
        }
      ],
      "payable": false,
      "stateMutability": "pure",
      "type": "function"
    }
  ],
  "bytecode": "0x608060405234801561001057600080fd5b506103f1806100206000396000f3fe608060405234801561001057600080fd5b506004361061002b5760003560e01c80637a26becd14610030575b600080fd5b6100af600480360361010081101561004757600080fd5b81019060208101813564010000000081111561006257600080fd5b82018360208201111561007457600080fd5b8035906020019184600183028401116401000000008311171561009657600080fd5b91935091506001600160a01b0381351690602001610124565b6040805160208082528351818301528351919283929083019185019080838360005b838110156100e95781810151838201526020016100d1565b50505050905090810190601f1680156101165780820380516001836020036101000a031916815260200191505b509250505060405180910390f35b606061012e610136565b949350505050565b61018435610104018035610124356101a435610124016101c435610124016101e4356101440160016101a05260606101c05260c061020052610164356102405260a060c0873502870103357f183227397098d014dc2822db40c0ac2e9419f4243cdcb848a1f0fac9f80000008111600181146101b75780156101e3576101e9565b7f30644e72e131a029b85045b68181585d2833e84879b9709143e1f593f00000018203610260526101e9565b81610260525b5061014435610280526102c08590526102a06102e0602087020160005b878110156102ab5760c0810260208b0101600160005260806040820160203760a060002060c05260c08352600160208401526201010160a05260208202880135604084015260c051606084015260406080840152600160ff1b60016060830135160260408201351760a0840152600160ff1b600160a0830135160260808201351760c08401528383036020830260408601015260e08301925050600181019050610206565b50601f1982820390810190925260c0909101610220528587036020828101829052028101604001865b8881101561038d5760c0810260208b01016020898303028601358060408803013560016000526080604084016020378060c00185526001602086015260208b850302890135604086015260a06000206060860152806040016080860152600160ff1b600160405116026020511760a0860152600160ff1b600160805116026060511760c08601528060208903830160e087013785850360208c8603026040880101526020855101850194505050506001810190506102d4565b5060208282030382526102a081038060a0016101e0528061010001610180526020610160528061014001610160f3fea265627a7a72315820f4e3a1629ad51313670cf469f640ec5d44bec2b2b4e2c741b205d48e0fa0d53d64736f6c63430005110032",
  "source": "pragma solidity >=0.5.0 <0.6.0;\n\nimport \"../../../../ACE/validators/joinSplit/JoinSplitABIEncoder.sol\";\nimport \"../../../../libs/LibEIP712.sol\";\n\n/**\n * @title JoinSplitABIEncoderTest\n * @author AZTEC\n * @dev JoinSplit ABI Encoder Test\n * Don't include this as an internal library. This contract uses a static memory table to cache\n * elliptic curve primitives and hashes.\n * Calling this internally from another function will lead to memory mutation and undefined behaviour.\n * The intended use case is to call this externally via `staticcall`.\n * External calls to OptimizedAZTEC can be treated as pure functions as this contract contains no\n * storage and makes no external calls (other than to precompiles)\n *\n * Copyright 2020 Spilsbury Holdings Ltd \n *\n * Licensed under the GNU Lesser General Public Licence, Version 3.0 (the \"License\");\n * you may not use this file except in compliance with the License.\n *\n * This program is distributed in the hope that it will be useful,\n * but WITHOUT ANY WARRANTY; without even the implied warranty of\n * MERCHANTABILITY or FITNESS FOR A PARTICULAR PURPOSE.  See the\n * GNU Lesser General Public License for more details.\n *\n * You should have received a copy of the GNU Lesser General Public License\n * along with this program.  If not, see <https://www.gnu.org/licenses/>.\n **/\ncontract JoinSplitABIEncoderTest {\n    function validateJoinSplit(\n        bytes calldata,\n        address,\n        uint[6] calldata\n    )\n        external pure\n        returns (bytes memory)\n    {\n        JoinSplitABIEncoder.encodeAndExit();\n    }\n}\n",
  "sourcePath": "/Users/suleymankardas/Desktop/aztec/aztec-protocol/contracts/test/ACE/validators/joinSplit/JoinSplitABIEncoderTest.sol",
  "compiler": {
    "name": "solc",
    "version": "0.5.17+commit.d19bba13.Emscripten.clang"
  },
  "schemaVersion": "3.4.1",
  "updatedAt": "2022-03-28T14:36:05.548Z",
  "devdoc": {
    "author": "AZTEC",
    "details": "JoinSplit ABI Encoder Test Don't include this as an internal library. This contract uses a static memory table to cache elliptic curve primitives and hashes. Calling this internally from another function will lead to memory mutation and undefined behaviour. The intended use case is to call this externally via `staticcall`. External calls to OptimizedAZTEC can be treated as pure functions as this contract contains no storage and makes no external calls (other than to precompiles) * Copyright 2020 Spilsbury Holdings Ltd  * Licensed under the GNU Lesser General Public Licence, Version 3.0 (the \"License\"); you may not use this file except in compliance with the License. * This program is distributed in the hope that it will be useful, but WITHOUT ANY WARRANTY; without even the implied warranty of MERCHANTABILITY or FITNESS FOR A PARTICULAR PURPOSE.  See the GNU Lesser General Public License for more details. * You should have received a copy of the GNU Lesser General Public License along with this program.  If not, see <https://www.gnu.org/licenses/>.*",
    "methods": {},
    "title": "JoinSplitABIEncoderTest"
  },
  "userdoc": {
    "methods": {}
  }
}