{
  "contractName": "JoinSplit",
  "abi": [
    {
      "constant": true,
      "inputs": [
        {
          "internalType": "bytes",
          "name": "",
          "type": "bytes"
        },
        {
          "internalType": "address",
          "name": "",
          "type": "address"
        },
        {
          "internalType": "uint256[6]",
          "name": "",
          "type": "uint256[6]"
        }
      ],
      "name": "validateJoinSplit",
      "outputs": [
        {
          "internalType": "bytes",
          "name": "",
          "type": "bytes"
        }
      ],
      "payable": false,
      "stateMutability": "pure",
      "type": "function"
    }
  ],
  "bytecode": "0x608060405234801561001057600080fd5b50610801806100206000396000f3fe608060405234801561001057600080fd5b50610019610023565b606060405261053c565b60443560805260643560a05261018435610104016101243581357f30644e72e131a029b85045b68181585d2833e84879b9709143e1f593f0000001806101443506828411156100785761019460005260206000fd5b60a060c0863502860103356024356102a052806102c052846102e052610164356103005282828285030990506100ae8487610505565b6080840261032001600160005b868110156102605760c0810260208a010180356020820135878a6001860114600181146100e757610101565b8893508b8d14600181146100fa576100ff565b938b03935b505b5061010d828486610468565b89600051870995508b60018601116001811461012e57801561014d57610154565b8a848c038a0898508a87850993508a87840992508a878b099150610154565b8a848a0898505b5060406080850160e0376040808501602037808a0361012052826060528160c05260406101a0606060e060075afa60406101206060602060075afa1660406101606060608060075afa166040610160608061012060065afa16604088608061016060065afa16858d141561020257602051610260526040516102805260e0516101e052610100517f30644e72e131a029b85045b68181585d97816a916871ca8d3c208c16d87cfd4703610200525b8c86111561023b578160605260406102206060602060075afa6040610260608061022060065afa60406101e060806101a060065afa1616165b8061024c5761019060005260206000fd5b5050506040949094019350506001016100bb565b508587101561027357610273608461029c565b846102a083036102a020068481146102915761019460005260206000fd5b505050505050505050565b7f30644e72e131a029b85045b68181585d97816a916871ca8d3c208c16d87cfd4781356020830135604084013560608501357f090689d0585ff075ec9e99ad690c3395bc4b313370b38ef355acdadcd122975b81147f12c85ea5db8c6deb4aab71808dcb408fe3d1e7690c43d37b4ce6cc0166fa7daa83147f198e9393920d483a7260bfb731fb5d25f1aa493335a9e71297e485b7aef312c285147f1800deef121f1e76426a00665e5c4479674322d4f75edadd46debd5cd992f6ed87148415861588158a15171717171717171561037a5761019060005260206000fd5b6101e051602052610200516040527f1800deef121f1e76426a00665e5c4479674322d4f75edadd46debd5cd992f6ed6080527f198e9393920d483a7260bfb731fb5d25f1aa493335a9e71297e485b7aef312c26060527f12c85ea5db8c6deb4aab71808dcb408fe3d1e7690c43d37b4ce6cc0166fa7daa60c0527f090689d0585ff075ec9e99ad690c3395bc4b313370b38ef355acdadcd122975b60a0526102605160e05261028051610100528361014052826101205281610180528061016052602080610180602060085afa602051158115171561045f5761019060005260206000fd5b50505050505050565b7f30644e72e131a029b85045b68181585d2833e84879b9709143e1f593f00000017f30644e72e131a029b85045b68181585d97816a916871ca8d3c208c16d87cfd4760408301356060840135608085013560a086013584838409856003878789898a090908148582830986600388868a888909090814166001891189888b06141660018b118b898d06141616166102915761019060005260206000fd5b60005b8281101561052e57606060c0820283010160808160808402610320013750600101610508565b505060800261032020600052565b610544610546565b005b61018435610104018035610124356101a435610124016101c435610124016101e4356101440160016101a05260606101c05260c061020052610164356102405260a060c0873502870103357f183227397098d014dc2822db40c0ac2e9419f4243cdcb848a1f0fac9f80000008111600181146105c75780156105f3576105f9565b7f30644e72e131a029b85045b68181585d2833e84879b9709143e1f593f00000018203610260526105f9565b81610260525b5061014435610280526102c08590526102a06102e0602087020160005b878110156106bb5760c0810260208b0101600160005260806040820160203760a060002060c05260c08352600160208401526201010160a05260208202880135604084015260c051606084015260406080840152600160ff1b60016060830135160260408201351760a0840152600160ff1b600160a0830135160260808201351760c08401528383036020830260408601015260e08301925050600181019050610616565b50601f1982820390810190925260c0909101610220528587036020828101829052028101604001865b8881101561079d5760c0810260208b01016020898303028601358060408803013560016000526080604084016020378060c00185526001602086015260208b850302890135604086015260a06000206060860152806040016080860152600160ff1b600160405116026020511760a0860152600160ff1b600160805116026060511760c08601528060208903830160e087013785850360208c8603026040880101526020855101850194505050506001810190506106e4565b5060208282030382526102a081038060a0016101e0528061010001610180526020610160528061014001610160f3fea265627a7a7231582018a7c97c125e376fb1d031ef96df9301d61470675bd3bb43305bc571045563cb64736f6c63430005110032",
  "source": "pragma solidity >=0.5.0 <0.6.0;\n\nimport \"./JoinSplitABIEncoder.sol\";\nimport \"../../../interfaces/JoinSplitInterface.sol\";\n\n/**\n * @title \n * @author Zachary Williamson, AZTEC\n * @dev Library to validate AZTEC JoinSplit proofs\n * Don't include this as an internal library. This contract uses a static memory table to cache\n * elliptic curve primitives and hashes.\n * Calling this internally from another function will lead to memory mutation and undefined behaviour.\n * The intended use case is to call this externally via `staticcall`.\n * External calls to OptimizedAZTEC can be treated as pure functions as this contract contains no\n * storage and makes no external calls (other than to precompiles)\n *\n * Copyright 2020 Spilsbury Holdings Ltd \n *\n * Licensed under the GNU Lesser General Public Licence, Version 3.0 (the \"License\");\n * you may not use this file except in compliance with the License.\n *\n * This program is distributed in the hope that it will be useful,\n * but WITHOUT ANY WARRANTY; without even the implied warranty of\n * MERCHANTABILITY or FITNESS FOR A PARTICULAR PURPOSE.  See the\n * GNU Lesser General Public License for more details.\n *\n * You should have received a copy of the GNU Lesser General Public License\n * along with this program.  If not, see <https://www.gnu.org/licenses/>.\n **/\ncontract JoinSplit {\n    /**\n     * @dev AZTEC will take any transaction sent to it and attempt to validate a zero knowledge proof.\n     * If the proof is not valid, the transaction throws.\n     * @notice See AZTECInterface for how method calls should be constructed.\n     * 'Cost' of raw elliptic curve primitives for a transaction:\n     * 260,700 gas + (124,500 * number of input notes) + (167,600 * number of output notes).\n     * For a basic 'joinSplit' with 2 inputs and 2 outputs = 844,900 gas.\n     * AZTEC is written in YUL to enable manual memory management and for other efficiency savings.\n     **/\n\n    // solhint-disable payable-fallback\n    function() external {\n        assembly {\n            // We don't check for function signatures,\n            // there's only one function that ever gets called: validateJoinSplit()\n            // We still assume calldata is offset by 4 bytes so that we can represent this contract\n            // through a compatible ABI\n\n            validateJoinSplit()\n            // if we get to here, the proof is valid. We now 'fall through' the assembly block\n            // and into JoinSplitABI.validateJoinSplit()\n            // reset the free memory pointer because we're touching Solidity code again\n            mstore(0x40, 0x60)\n\n            /**\n             * New calldata map\n             * 0x04:0x24      = calldata location of proofData byte array\n             * 0x24:0x44      = message sender\n             * 0x44:0x64      = h_x\n             * 0x64:0x84      = h_y\n             * 0x84:0xa4      = t2_x0\n             * 0xa4:0xc4      = t2_x1\n             * 0xc4:0xe4      = t2_y0\n             * 0xe4:0x104     = t2_y1\n             * 0x104:0x124    = length of proofData byte array\n             * 0x124:0x144    = m\n             * 0x144:0x164    = challenge\n             * 0x164:0x184    = publicOwner\n             * 0x184:0x1a4    = offset in byte array to notes\n             * 0x1a4:0x1c4    = offset in byte array to inputOwners\n             * 0x1c4:0x1e4    = offset in byte array to outputOwners\n             * 0x1e4:0x204    = offset in byte array to metadata\n             */\n            function validateJoinSplit() {\n                mstore(0x80, calldataload(0x44))\n                mstore(0xa0, calldataload(0x64))\n                let notes := add(0x104, calldataload(0x184))\n                let m := calldataload(0x124)\n                let n := calldataload(notes)\n                let gen_order := 0x30644e72e131a029b85045b68181585d2833e84879b9709143e1f593f0000001\n                let challenge := mod(calldataload(0x144), gen_order)\n\n                // validate m <= n\n                if gt(m, n) { mstore(0x00, 404) revert(0x00, 0x20) }\n\n                // recover k_{public} and calculate k_{public}\n                let kn := calldataload(sub(add(notes, mul(calldataload(notes), 0xc0)), 0xa0))\n\n                // add kn and m to final hash table\n                mstore(0x2a0, calldataload(0x24))\n                mstore(0x2c0, kn)\n                mstore(0x2e0, m)\n                mstore(0x300, calldataload(0x164))\n                kn := mulmod(sub(gen_order, kn), challenge, gen_order) // we actually want c*k_{public}\n                hashCommitments(notes, n)\n                let b := add(0x320, mul(n, 0x80))\n\n\n                let x := 1\n                // Iterate over every note and calculate the blinding factor B_i = \\gamma_i^{kBar}h^{aBar}\\sigma_i^{-c}.\n                // We use the AZTEC protocol pairing optimization to reduce the number of pairing comparisons to 1,\n                //  which adds some minor alterations\n                for { let i := 0 } lt(i, n) { i := add(i, 0x01) } {\n\n                    // Get the calldata index of this note\n                    let noteIndex := add(add(notes, 0x20), mul(i, 0xc0))\n\n                    // Define variables k, a and c.\n                    // If i <= m then\n                    //   k = kBar_i\n                    //   a = aBar_i\n                    //   c = challenge\n                    // If i > m then we add a modification for the pairing optimization\n                    //   k = kBar_i * x_i\n                    //   a = aBar_i * x_i\n                    //   c = challenge * x_i\n                    // Set j = i - (m + 1).\n                    // x_0 = 1\n                    // x_1 = keccak256(input string)\n                    // all other x_{j} = keccak256(x_{j-1})\n                    // The reason for doing this is that the point  \\sigma_i^{-cx_j} can be re-used in the pairing check\n                    // Instead of validating e(\\gamma_i, t_2) == e(\\sigma_i, g_2) for all i = [m+1,\\ldots,n]\n                    // We validate e(\\Pi_{i=m+1}^{n}\\gamma_i^{-cx_j}, t_2) == e(\\Pi_{i=m+1}^{n}\\sigma_i^{cx_j}, g_2).\n                    // x_j is a pseudorandom variable whose entropy source is the input string, allowing for\n                    // a sum of commitment points to be evaluated in one pairing comparison\n                    let k := calldataload(noteIndex)\n                    let a := calldataload(add(noteIndex, 0x20))\n                    let c := challenge\n\n                    // We don't transmit kBar_{n-1} in the proof to save space, instead we derive it from the\n                    // homomorphic sum condition: \\sum_{i=0}^{m-1}\\bar{k}_i = \\sum_{i=m}^{n-1}\\bar{k}_i + k_{public}c,\n                    // We can recover \\bar{k}_{n-1}.\n                    // If m=n then \\bar{k}_{n-1} = \\sum_{i=0}^{n-1}\\bar{k}_i + k_{public}\n                    // else \\bar{k}_{n-1} = \\sum_{i=0}^{m-1}\\bar{k}_i - \\sum_{i=m}^{n-1}\\bar{k}_i - k_{public}\n\n                    switch eq(add(i, 0x01), n)\n                    case 1 {\n                        k := kn\n\n                        // if all notes are input notes, invert k\n                        switch eq(m, n)\n                        case 1 {\n                            k := sub(gen_order, k)\n                        }\n                    }\n\n                    // Check this commitment is well formed...\n                    validateCommitment(noteIndex, k, a)\n\n                    x := mulmod(x, mload(0x00), gen_order)\n                    // If i > m then this is an output note.\n                    // Set k = kx_j, a = ax_j, c = cx_j, where j = i - (m+1)\n                    switch gt(add(i, 0x01), m)\n                    case 1 {\n\n                        // before we update k, update kn = \\sum_{i=0}^{m-1}k_i - \\sum_{i=m}^{n-1}k_i\n                        kn := addmod(kn, sub(gen_order, k), gen_order)\n\n                        k := mulmod(k, x, gen_order)\n                        a := mulmod(a, x, gen_order)\n                        c := mulmod(challenge, x, gen_order)\n                    }\n                    case 0 {\n\n                        // nothing to do here except update kn = \\sum_{i=0}^{m-1}k_i - \\sum_{i=m}^{n-1}k_i\n                        kn := addmod(kn, k, gen_order)\n                    }\n\n                    // Calculate the G1 element \\gamma_i^{k}h^{a}\\sigma_i^{-c} = B_i\n                    // Memory map:\n                    // 0x20: \\gamma_iX\n                    // 0x40: \\gamma_iY\n                    // 0x60: k_i\n                    // 0x80: hX\n                    // 0xa0: hY\n                    // 0xc0: a_i\n                    // 0xe0: \\sigma_iX\n                    // 0x100: \\sigma_iY\n                    // 0x120: -c\n                    calldatacopy(0xe0, add(noteIndex, 0x80), 0x40)\n                    calldatacopy(0x20, add(noteIndex, 0x40), 0x40)\n                    mstore(0x120, sub(gen_order, c)) \n                    mstore(0x60, k)\n                    mstore(0xc0, a)\n\n                    // Call bn128 scalar multiplication precompiles\n                    // Represent point + multiplication scalar in 3 consecutive blocks of memory\n                    // Store \\sigma_i^{-c} at 0x1a0:0x200\n                    // Store \\gamma_i^{k} at 0x120:0x160\n                    // Store h^{a} at 0x160:0x1a0\n                    let result := staticcall(gas, 7, 0xe0, 0x60, 0x1a0, 0x40)\n                    result := and(result, staticcall(gas, 7, 0x20, 0x60, 0x120, 0x40))\n                    result := and(result, staticcall(gas, 7, 0x80, 0x60, 0x160, 0x40))\n\n                    // Call bn128 group addition precompiles\n                    // \\gamma_i^{k} and h^{a} in memory block 0x120:0x1a0\n                    // Store result of addition at 0x160:0x1a0\n                    result := and(result, staticcall(gas, 6, 0x120, 0x80, 0x160, 0x40))\n\n                    // \\gamma_i^{k}h^{a} and \\sigma^{-c} in memory block 0x160:0x1e0\n                    // Store resulting point B at memory index b\n                    result := and(result, staticcall(gas, 6, 0x160, 0x80, b, 0x40))\n\n                    // We have \\sigma^{-c} at 0x1a0:0x200\n                    // And \\sigma_{acc} at 0x1e0:0x200\n                    // If i = m + 1 (i.e. first output note)\n                    // then we set \\gamma_{acc} and \\sigma_{acc} to \\gamma_i, -\\sigma_i\n                    if eq(i, m) {\n                        mstore(0x260, mload(0x20))\n                        mstore(0x280, mload(0x40))\n                        mstore(0x1e0, mload(0xe0))\n                        mstore(\n                            0x200,\n                            sub(0x30644e72e131a029b85045b68181585d97816a916871ca8d3c208c16d87cfd47, mload(0x100))\n                        )\n                    }\n\n                    // If i > m + 1 (i.e. subsequent output notes)\n                    // then we add \\sigma^{-c} and \\sigma_{acc} and store result at \\sigma_{acc} (0x1e0:0x200)\n                    // we then calculate \\gamma^{cx} and add into \\gamma_{acc}\n                    if gt(i, m) {\n                        mstore(0x60, c)\n\n                        result := and(\n                            result,\n                            and(\n                                and(\n                                    staticcall(gas, 6, 0x1a0, 0x80, 0x1e0, 0x40),\n                                    staticcall(gas, 6, 0x220, 0x80, 0x260, 0x40)\n                                ),\n                                staticcall(gas, 7, 0x20, 0x60, 0x220, 0x40)\n                            )\n                        )\n                        /* result := and(result, staticcall(gas, 7, 0x20, 0x60, 0x220, 0x40))\n\n                        // \\gamma_i^{cx} now at 0x220:0x260, \\gamma_{acc} is at 0x260:0x2a0\n                        result := and(result, staticcall(gas, 6, 0x220, 0x80, 0x260, 0x40))\n\n                        // add \\sigma_i^{-cx} and \\sigma_{acc} into \\sigma_{acc} at 0x1e0\n                        result := and(result, staticcall(gas, 6, 0x1a0, 0x80, 0x1e0, 0x40)) */\n                    }\n\n                    // throw transaction if any calls to precompiled contracts failed\n                    if iszero(result) { mstore(0x00, 400) revert(0x00, 0x20)}\n                    b := add(b, 0x40) // increase B pointer by 2 words\n                }\n\n                // If the AZTEC protocol is implemented correctly then any input notes were previously outputs of\n                // a JoinSplit transaction. We can inductively assume that all input notes\n                // are well-formed AZTEC commitments and do not need to validate the implicit range proof\n                // This is not the case for any output commitments, so if (m < n) call validatePairing()\n                if lt(m, n) {\n                    validatePairing(0x84)\n                }\n\n                // We now have the note commitments and the calculated blinding factors in a block of memory\n                // starting at 0x2a0, of size (b - 0x2a0).\n                // Hash this block to reconstruct the initial challenge and validate that they match\n                let expected := mod(keccak256(0x2a0, sub(b, 0x2a0)), gen_order)\n                if iszero(eq(expected, challenge)) {\n\n                    // No! Bad! No soup for you!\n                    mstore(0x00, 404)\n                    revert(0x00, 0x20)\n                }\n\n                // Great! All done. This is a valid proof, so fall through out of the assembly block\n                // so that we can call `ABIEncoder.encodeAndExit`\n            }\n\n            /**        \n             * @dev evaluate if e(P1, t2) . e(P2, g2) == 0.\n             * @notice we don't hard-code t2 so that contracts that call this library can use\n             * different trusted setups.\n             **/\n            function validatePairing(t2) {\n                let field_order := 0x30644e72e131a029b85045b68181585d97816a916871ca8d3c208c16d87cfd47\n                let t2_x_1 := calldataload(t2)\n                let t2_x_2 := calldataload(add(t2, 0x20))\n                let t2_y_1 := calldataload(add(t2, 0x40))\n                let t2_y_2 := calldataload(add(t2, 0x60))\n\n                // check provided setup pubkey is not zero or g2\n                if or(or(or(or(or(or(or(\n                    iszero(t2_x_1),\n                    iszero(t2_x_2)),\n                    iszero(t2_y_1)),\n                    iszero(t2_y_2)),\n                    eq(t2_x_1, 0x1800deef121f1e76426a00665e5c4479674322d4f75edadd46debd5cd992f6ed)),\n                    eq(t2_x_2, 0x198e9393920d483a7260bfb731fb5d25f1aa493335a9e71297e485b7aef312c2)),\n                    eq(t2_y_1, 0x12c85ea5db8c6deb4aab71808dcb408fe3d1e7690c43d37b4ce6cc0166fa7daa)),\n                    eq(t2_y_2, 0x90689d0585ff075ec9e99ad690c3395bc4b313370b38ef355acdadcd122975b))\n                {\n                    mstore(0x00, 400)\n                    revert(0x00, 0x20)\n                }\n\n                // store coords in memory\n                // indices are a bit off, scipr lab's libff limb ordering (c0, c1) is opposite\n                // to what precompile expects\n                // We can overwrite the memory we used previously as this function is called at the\n                // end of the validation routine.\n                mstore(0x20, mload(0x1e0)) // sigma accumulator x\n                mstore(0x40, mload(0x200)) // sigma accumulator y\n                mstore(0x80, 0x1800deef121f1e76426a00665e5c4479674322d4f75edadd46debd5cd992f6ed)\n                mstore(0x60, 0x198e9393920d483a7260bfb731fb5d25f1aa493335a9e71297e485b7aef312c2)\n                mstore(0xc0, 0x12c85ea5db8c6deb4aab71808dcb408fe3d1e7690c43d37b4ce6cc0166fa7daa)\n                mstore(0xa0, 0x90689d0585ff075ec9e99ad690c3395bc4b313370b38ef355acdadcd122975b)\n                mstore(0xe0, mload(0x260)) // gamma accumulator x\n                mstore(0x100, mload(0x280)) // gamma accumulator y\n                mstore(0x140, t2_x_1)\n                mstore(0x120, t2_x_2)\n                mstore(0x180, t2_y_1)\n                mstore(0x160, t2_y_2)\n\n                let success := staticcall(gas, 8, 0x20, 0x180, 0x20, 0x20)\n\n                if or(iszero(success), iszero(mload(0x20))) {\n                    mstore(0x00, 400)\n                    revert(0x00, 0x20)\n                }\n            }\n\n            /**\n             * @dev check that this note's points are on the altbn128 curve(y^2 = x^3 + 3)\n             * and that signatures 'k' and 'a' are modulo the order of the curve.\n             * Transaction throws if this is not the case.\n             * @param note the calldata loation of the note\n             **/\n            function validateCommitment(note, k, a) {\n                let gen_order := 0x30644e72e131a029b85045b68181585d2833e84879b9709143e1f593f0000001\n                let field_order := 0x30644e72e131a029b85045b68181585d97816a916871ca8d3c208c16d87cfd47\n                let gammaX := calldataload(add(note, 0x40))\n                let gammaY := calldataload(add(note, 0x60))\n                let sigmaX := calldataload(add(note, 0x80))\n                let sigmaY := calldataload(add(note, 0xa0))\n                if iszero(\n                    and(\n                        and(\n                        and(\n                            eq(mod(a, gen_order), a), // a is modulo generator order?\n                            gt(a, 1)                  // can't be 0 or 1 either!\n                        ),\n                        and(\n                            eq(mod(k, gen_order), k), // k is modulo generator order?\n                            gt(k, 1)                  // and not 0 or 1\n                        )\n                        ),\n                        and(\n                        eq( // y^2 ?= x^3 + 3\n                            addmod(\n                                mulmod(mulmod(sigmaX, sigmaX, field_order), sigmaX, field_order),\n                                3,\n                                field_order\n                            ),\n                            mulmod(sigmaY, sigmaY, field_order)\n                        ),\n                        eq( // y^2 ?= x^3 + 3\n                            addmod(\n                                mulmod(mulmod(gammaX, gammaX, field_order), gammaX, field_order),\n                                3,\n                                field_order\n                            ),\n                            mulmod(gammaY, gammaY, field_order)\n                        )\n                        )\n                    )\n                ) {\n                    mstore(0x00, 400)\n                    revert(0x00, 0x20)\n                }\n            }\n\n            /**\n             * @dev Calculate the keccak256 hash of the commitments for both input notes and output notes.\n             * This is used both as an input to validate the challenge `c` and also to\n             * generate pseudorandom relationships\n             * between commitments for different outputNotes, so that we can combine them\n             * into a single multi-exponentiation for the purposes of validating the bilinear pairing relationships.\n             * @param notes calldata location notes\n             * @param n number of notes\n             **/\n            function hashCommitments(notes, n) {\n                for { let i := 0 } lt(i, n) { i := add(i, 0x01) } {\n                    let index := add(add(notes, mul(i, 0xc0)), 0x60)\n                    calldatacopy(add(0x320, mul(i, 0x80)), index, 0x80)\n                }\n                mstore(0x00, keccak256(0x320, mul(n, 0x80)))\n            }\n\n        }\n        // if we've reached here, we've validated the join-split transaction and haven't thrown an error.\n        // Encode the output according to the ACE standard and exit.\n        JoinSplitABIEncoder.encodeAndExit();\n    }\n}\n",
  "sourcePath": "/Users/suleymankardas/Desktop/aztec/aztec-protocol/contracts/ACE/validators/joinSplit/JoinSplit.sol",
  "compiler": {
    "name": "solc",
    "version": "0.5.17+commit.d19bba13.Emscripten.clang"
  },
  "schemaVersion": "3.4.1",
  "updatedAt": "2022-03-28T14:53:21.961Z",
  "networkType": "ethereum",
  "devdoc": {
    "author": "Zachary Williamson, AZTEC",
    "details": "Library to validate AZTEC JoinSplit proofs Don't include this as an internal library. This contract uses a static memory table to cache elliptic curve primitives and hashes. Calling this internally from another function will lead to memory mutation and undefined behaviour. The intended use case is to call this externally via `staticcall`. External calls to OptimizedAZTEC can be treated as pure functions as this contract contains no storage and makes no external calls (other than to precompiles) * Copyright 2020 Spilsbury Holdings Ltd  * Licensed under the GNU Lesser General Public Licence, Version 3.0 (the \"License\"); you may not use this file except in compliance with the License. * This program is distributed in the hope that it will be useful, but WITHOUT ANY WARRANTY; without even the implied warranty of MERCHANTABILITY or FITNESS FOR A PARTICULAR PURPOSE.  See the GNU Lesser General Public License for more details. * You should have received a copy of the GNU Lesser General Public License along with this program.  If not, see <https://www.gnu.org/licenses/>.*",
    "methods": {}
  },
  "userdoc": {
    "methods": {}
  }
}