{
  "contractName": "JoinSplitFluidInterface",
  "abi": [
    {
      "inputs": [],
      "payable": false,
      "stateMutability": "nonpayable",
      "type": "constructor"
    },
    {
      "constant": true,
      "inputs": [],
      "name": "EIP712_DOMAIN_HASH",
      "outputs": [
        {
          "internalType": "bytes32",
          "name": "",
          "type": "bytes32"
        }
      ],
      "payable": false,
      "stateMutability": "view",
      "type": "function"
    },
    {
      "constant": true,
      "inputs": [
        {
          "internalType": "bytes",
          "name": "",
          "type": "bytes"
        },
        {
          "internalType": "address",
          "name": "",
          "type": "address"
        },
        {
          "internalType": "uint256[6]",
          "name": "",
          "type": "uint256[6]"
        }
      ],
      "name": "validateJoinSplitFluid",
      "outputs": [
        {
          "internalType": "bytes",
          "name": "",
          "type": "bytes"
        }
      ],
      "payable": false,
      "stateMutability": "pure",
      "type": "function"
    }
  ],
  "bytecode": "0x608060405234801561001057600080fd5b50604080517f454950373132446f6d61696e28000000000000000000000000000000000000006020808301919091527f737472696e67206e616d652c0000000000000000000000000000000000000000602d8301527f737472696e672076657273696f6e2c000000000000000000000000000000000060398301527f6164647265737320766572696679696e67436f6e74726163740000000000000060488301527f29000000000000000000000000000000000000000000000000000000000000006061830152825160428184030181526062830180855281519183019190912060a28401855260199091527f415a5445435f43525950544f4752415048595f454e47494e450000000000000060829093019290925282518084018452600181527f3100000000000000000000000000000000000000000000000000000000000000908201528251808201929092527fc8066e2c715ce196630b273cd256d8959d5b9fefc55e9e6d999fb0f08bb7f75f828401527fc89efdaa54c0f20c7adf612882df0950f5a951637e0307cdcb4c672f298b8bc66060830152306080808401919091528351808403909101815260a0909201909252805191012060005561018e806101dd6000396000f3fe608060405234801561001057600080fd5b50600436106100365760003560e01c8063482b03a61461003b578063e306f7791461012f575b600080fd5b6100ba600480360361010081101561005257600080fd5b81019060208101813564010000000081111561006d57600080fd5b82018360208201111561007f57600080fd5b803590602001918460018302840111640100000000831117156100a157600080fd5b91935091506001600160a01b0381351690602001610149565b6040805160208082528351818301528351919283929083019185019080838360005b838110156100f45781810151838201526020016100dc565b50505050905090810190601f1680156101215780820380516001836020036101000a031916815260200191505b509250505060405180910390f35b610137610153565b60408051918252519081900360200190f35b6060949350505050565b6000548156fea265627a7a723158201d62429f067160c3dffb21d7120bd646bbeeba67e6266f5f4bc390b74e0d2f0664736f6c63430005110032",
  "source": "pragma solidity >=0.5.0 <0.6.0;\n\nimport \"../libs/LibEIP712.sol\";\n\n/**\n * @title JoinSplitFluidInterface\n * @author AZTEC\n * @dev Interface for the JoinSplitFluid validator contract\n * \n * Copyright 2020 Spilsbury Holdings Ltd \n *\n * Licensed under the GNU Lesser General Public Licence, Version 3.0 (the \"License\");\n * you may not use this file except in compliance with the License.\n *\n * This program is distributed in the hope that it will be useful,\n * but WITHOUT ANY WARRANTY; without even the implied warranty of\n * MERCHANTABILITY or FITNESS FOR A PARTICULAR PURPOSE.  See the\n * GNU Lesser General Public License for more details.\n *\n * You should have received a copy of the GNU Lesser General Public License\n * along with this program.  If not, see <https://www.gnu.org/licenses/>.\n**/\ncontract JoinSplitFluidInterface is LibEIP712 {\n    /* solhint-disable-next-line var-name-mixedcase */\n\n    constructor() public {}\n\n    function validateJoinSplitFluid(\n        bytes calldata, // proof data\n        address, // sender address\n        uint[6] calldata // common reference string\n    )\n        external\n        pure\n        returns (bytes memory) // returns a series of transfer instructions\n    {}\n}\n",
  "sourcePath": "/Users/suleymankardas/Desktop/aztec/aztec-protocol/contracts/interfaces/JoinSplitFluidInterface.sol",
  "compiler": {
    "name": "solc",
    "version": "0.5.17+commit.d19bba13.Emscripten.clang"
  },
  "schemaVersion": "3.4.1",
  "updatedAt": "2022-03-28T14:54:11.336Z",
  "networkType": "ethereum",
  "devdoc": {
    "author": "AZTEC",
    "details": "Interface for the JoinSplitFluid validator contract  * Copyright 2020 Spilsbury Holdings Ltd  * Licensed under the GNU Lesser General Public Licence, Version 3.0 (the \"License\"); you may not use this file except in compliance with the License. * This program is distributed in the hope that it will be useful, but WITHOUT ANY WARRANTY; without even the implied warranty of MERCHANTABILITY or FITNESS FOR A PARTICULAR PURPOSE.  See the GNU Lesser General Public License for more details. * You should have received a copy of the GNU Lesser General Public License along with this program.  If not, see <https://www.gnu.org/licenses/>.*",
    "methods": {},
    "title": "JoinSplitFluidInterface"
  },
  "userdoc": {
    "methods": {}
  }
}