{
  "contractName": "LibEIP712Test",
  "abi": [
    {
      "constant": true,
      "inputs": [],
      "name": "EIP712_DOMAIN_HASH",
      "outputs": [
        {
          "internalType": "bytes32",
          "name": "",
          "type": "bytes32"
        }
      ],
      "payable": false,
      "stateMutability": "view",
      "type": "function"
    },
    {
      "constant": true,
      "inputs": [
        {
          "internalType": "bytes32",
          "name": "_hashStruct",
          "type": "bytes32"
        }
      ],
      "name": "_hashEIP712Message",
      "outputs": [
        {
          "internalType": "bytes32",
          "name": "_result",
          "type": "bytes32"
        }
      ],
      "payable": false,
      "stateMutability": "view",
      "type": "function"
    },
    {
      "constant": true,
      "inputs": [
        {
          "internalType": "bytes32",
          "name": "_message",
          "type": "bytes32"
        },
        {
          "internalType": "bytes",
          "name": "_signature",
          "type": "bytes"
        }
      ],
      "name": "_recoverSignature",
      "outputs": [
        {
          "internalType": "address",
          "name": "_signer",
          "type": "address"
        }
      ],
      "payable": false,
      "stateMutability": "view",
      "type": "function"
    }
  ],
  "bytecode": "0x7f454950373132446f6d61696e280000000000000000000000000000000000000060a09081527f737472696e67206e616d652c000000000000000000000000000000000000000060ad527f737472696e672076657273696f6e2c000000000000000000000000000000000060b9527f6164647265737320766572696679696e67436f6e74726163740000000000000060c8527f290000000000000000000000000000000000000000000000000000000000000060e152604260808181529120601960e2527f415a5445435f43525950544f4752415048595f454e47494e4500000000000000610102526001610122527f3100000000000000000000000000000000000000000000000000000000000000610142526101829081527fc8066e2c715ce196630b273cd256d8959d5b9fefc55e9e6d999fb0f08bb7f75f6101a2527fc89efdaa54c0f20c7adf612882df0950f5a951637e0307cdcb4c672f298b8bc66101c252306101e2526101628290526102026040522060005561031f806101876000396000f3fe608060405234801561001057600080fd5b50600436106100415760003560e01c8063312d839b14610046578063e306f77914610075578063f7cc53f91461007d575b600080fd5b6100636004803603602081101561005c57600080fd5b5035610146565b60408051918252519081900360200190f35b610063610157565b61012a6004803603604081101561009357600080fd5b813591908101906040810160208201356401000000008111156100b557600080fd5b8201836020820111156100c757600080fd5b803590602001918460018302840111640100000000831117156100e957600080fd5b91908080601f01602080910402602001604051908101604052809392919081815260200183838082843760009201919091525092955061015d945050505050565b604080516001600160a01b039092168252519081900360200190f35b600061015182610170565b92915050565b60005481565b60006101698383610191565b9392505050565b60008054604080516119019093526020919091529182526042601e20915290565b6000808251848452606084015160408501518160f81c9150604086015160608701526020860151604087015281602087015260208660808860015afa601c8314601b84141760418514167f7fffffffffffffffffffffffffffffff5d576e7357a4501ddfe92f46681b20a0831016169350855187146000811461021357610218565b865195505b505050835280801561023257506001600160a01b03821615155b6102e3576001600160a01b038216610291576040805162461bcd60e51b815260206004820152601a60248201527f7369676e657220616464726573732063616e6e6f742062652030000000000000604482015290519081900360640190fd5b806102e3576040805162461bcd60e51b815260206004820152601960248201527f7369676e6174757265207265636f76657279206661696c656400000000000000604482015290519081900360640190fd5b509291505056fea265627a7a7231582094ad033a1bb0997d5d8d992917cea7be710f12f477d20666c1cbb61b13fc8a3b64736f6c63430005110032",
  "source": "pragma solidity >=0.5.0 <0.6.0;\n\nimport \"../../libs/LibEIP712.sol\";\n\n/**\n * @title LibEIP712Test\n * @author AZTEC\n * @dev Library of EIP712 utility constants and functions\n *\n * Copyright 2020 Spilsbury Holdings Ltd \n *\n * Licensed under the GNU Lesser General Public Licence, Version 3.0 (the \"License\");\n * you may not use this file except in compliance with the License.\n *\n * This program is distributed in the hope that it will be useful,\n * but WITHOUT ANY WARRANTY; without even the implied warranty of\n * MERCHANTABILITY or FITNESS FOR A PARTICULAR PURPOSE.  See the\n * GNU Lesser General Public License for more details.\n *\n * You should have received a copy of the GNU Lesser General Public License\n * along with this program.  If not, see <https://www.gnu.org/licenses/>.\n**/\ncontract LibEIP712Test is LibEIP712 {\n\n    /// @dev Calculates EIP712 encoding for a hash struct in this EIP712 Domain.\n    /// @param _hashStruct The EIP712 hash struct.\n    /// @return EIP712 hash applied to this EIP712 Domain.\n    function _hashEIP712Message(bytes32 _hashStruct)\n        public\n        view\n        returns (bytes32 _result)\n    {\n        _result = super.hashEIP712Message(_hashStruct);\n    }\n\n    /// @dev Extracts the address of the signer with ECDSA.\n    /// @param _message The EIP712 message.\n    /// @param _signature The ECDSA values, v, r and s.\n    /// @return The address of the message signer.\n    function _recoverSignature(\n        bytes32 _message,\n        bytes memory _signature\n    ) public view returns (address _signer) {\n        _signer = super.recoverSignature(_message, _signature);\n    }\n}\n",
  "sourcePath": "/Users/suleymankardas/Desktop/aztec/aztec-protocol/contracts/test/libs/LibEIP712Test.sol",
  "compiler": {
    "name": "solc",
    "version": "0.5.17+commit.d19bba13.Emscripten.clang"
  },
  "schemaVersion": "3.4.1",
  "updatedAt": "2022-03-28T14:36:05.571Z",
  "devdoc": {
    "author": "AZTEC",
    "details": "Library of EIP712 utility constants and functions * Copyright 2020 Spilsbury Holdings Ltd  * Licensed under the GNU Lesser General Public Licence, Version 3.0 (the \"License\"); you may not use this file except in compliance with the License. * This program is distributed in the hope that it will be useful, but WITHOUT ANY WARRANTY; without even the implied warranty of MERCHANTABILITY or FITNESS FOR A PARTICULAR PURPOSE.  See the GNU Lesser General Public License for more details. * You should have received a copy of the GNU Lesser General Public License along with this program.  If not, see <https://www.gnu.org/licenses/>.*",
    "methods": {
      "_hashEIP712Message(bytes32)": {
        "details": "Calculates EIP712 encoding for a hash struct in this EIP712 Domain.",
        "params": {
          "_hashStruct": "The EIP712 hash struct."
        },
        "return": "EIP712 hash applied to this EIP712 Domain."
      },
      "_recoverSignature(bytes32,bytes)": {
        "details": "Extracts the address of the signer with ECDSA.",
        "params": {
          "_message": "The EIP712 message.",
          "_signature": "The ECDSA values, v, r and s."
        },
        "return": "The address of the message signer."
      }
    },
    "title": "LibEIP712Test"
  },
  "userdoc": {
    "methods": {}
  }
}