{
  "contractName": "MetaDataUtilsTest",
  "abi": [
    {
      "constant": true,
      "inputs": [
        {
          "internalType": "bytes",
          "name": "metaData",
          "type": "bytes"
        },
        {
          "internalType": "uint256",
          "name": "addressPos",
          "type": "uint256"
        }
      ],
      "name": "extractAddress",
      "outputs": [
        {
          "internalType": "address",
          "name": "desiredAddress",
          "type": "address"
        }
      ],
      "payable": false,
      "stateMutability": "pure",
      "type": "function"
    }
  ],
  "bytecode": "0x608060405234801561001057600080fd5b506101f6806100206000396000f3fe608060405234801561001057600080fd5b506004361061002b5760003560e01c80635855da3d14610030575b600080fd5b6100d86004803603604081101561004657600080fd5b81019060208101813564010000000081111561006157600080fd5b82018360208201111561007357600080fd5b8035906020019184600183028401116401000000008311171561009557600080fd5b91908080601f01602080910402602001604051908101604052809392919081815260200183838082843760009201919091525092955050913592506100f4915050565b604080516001600160a01b039092168252519081900360200190f35b6000610106838363ffffffff61010d16565b9392505050565b602082810151908202830161010101519080831061015c5760405162461bcd60e51b815260040180806020018281038252605e815260200180610164605e913960600191505060405180910390fd5b509291505056fe61646472657373506f73206f7574206f6620626f756e6473202d2061646472657373506f73206d757374206265206c657373207468616e20746865206e756d626572206f662061646472657373657320746f20626520617070726f766564a265627a7a7231582037d663b96105837c0f1bc2d4d1a1d44ce9d406ad344e0fb959597cd8944d086364736f6c63430005110032",
  "source": "pragma solidity >= 0.5.0 <0.6.0;\n\nimport \"../../libs/MetaDataUtils.sol\";\n\n/**\n * @title MetaDataUtilsTest\n * @author AZTEC\n * @dev Library of MetaData manipulation operations\n * \n * Copyright 2020 Spilsbury Holdings Ltd \n *\n * Licensed under the GNU Lesser General Public Licence, Version 3.0 (the \"License\");\n * you may not use this file except in compliance with the License.\n *\n * This program is distributed in the hope that it will be useful,\n * but WITHOUT ANY WARRANTY; without even the implied warranty of\n * MERCHANTABILITY or FITNESS FOR A PARTICULAR PURPOSE.  See the\n * GNU Lesser General Public License for more details.\n *\n * You should have received a copy of the GNU Lesser General Public License\n * along with this program.  If not, see <https://www.gnu.org/licenses/>.\n**/\n\ncontract MetaDataUtilsTest {\n    using MetaDataUtils for bytes;\n\n    /**\n    * @dev Extract a single approved address from the metaData\n    * @param metaData - metaData containing addresses according to the schema defined in x\n    * @param addressPos - indexer for the desired address, the one to be extracted\n    * @return desiredAddress - extracted address specified by the inputs to this function\n    */\n    function extractAddress(bytes memory metaData, uint256 addressPos) public pure returns (address desiredAddress) {\n        return metaData.extractAddress(addressPos);\n    }\n}\n",
  "sourcePath": "/Users/suleymankardas/Desktop/aztec/aztec-protocol/contracts/test/libs/MetaDataUtilsTest.sol",
  "compiler": {
    "name": "solc",
    "version": "0.5.17+commit.d19bba13.Emscripten.clang"
  },
  "schemaVersion": "3.4.1",
  "updatedAt": "2022-03-28T14:36:05.572Z",
  "devdoc": {
    "author": "AZTEC",
    "details": "Library of MetaData manipulation operations  * Copyright 2020 Spilsbury Holdings Ltd  * Licensed under the GNU Lesser General Public Licence, Version 3.0 (the \"License\"); you may not use this file except in compliance with the License. * This program is distributed in the hope that it will be useful, but WITHOUT ANY WARRANTY; without even the implied warranty of MERCHANTABILITY or FITNESS FOR A PARTICULAR PURPOSE.  See the GNU Lesser General Public License for more details. * You should have received a copy of the GNU Lesser General Public License along with this program.  If not, see <https://www.gnu.org/licenses/>.*",
    "methods": {
      "extractAddress(bytes,uint256)": {
        "details": "Extract a single approved address from the metaData",
        "params": {
          "addressPos": "- indexer for the desired address, the one to be extracted",
          "metaData": "- metaData containing addresses according to the schema defined in x"
        },
        "return": "desiredAddress - extracted address specified by the inputs to this function"
      }
    },
    "title": "MetaDataUtilsTest"
  },
  "userdoc": {
    "methods": {}
  }
}