{
  "contractName": "ModifiersTest",
  "abi": [
    {
      "constant": true,
      "inputs": [
        {
          "internalType": "address",
          "name": "testAddress",
          "type": "address"
        }
      ],
      "name": "testCheckZeroAddress",
      "outputs": [
        {
          "internalType": "bool",
          "name": "",
          "type": "bool"
        }
      ],
      "payable": false,
      "stateMutability": "pure",
      "type": "function"
    }
  ],
  "bytecode": "0x608060405234801561001057600080fd5b5060f88061001f6000396000f3fe6080604052348015600f57600080fd5b506004361060285760003560e01c8063238b8e6a14602d575b600080fd5b605060048036036020811015604157600080fd5b50356001600160a01b03166064565b604080519115158252519081900360200190f35b6000816001600160a01b03811660ba576040805162461bcd60e51b81526020600482015260166024820152750616464726573732063616e206e6f74206265203078360541b604482015290519081900360640190fd5b5060019291505056fea265627a7a72315820072b258fa443d112bd9935e0b0bf702f7f86b1fb32b00cb26e59b4387edba93164736f6c63430005110032",
  "source": "pragma solidity >= 0.5.0 <0.6.0;\n\nimport \"../../libs/Modifiers.sol\";\n\n/**\n* @title Test contract used to test the modifiers inherited from the Modifiers contract\n * Copyright 2020 Spilsbury Holdings Ltd \n *\n * Licensed under the GNU Lesser General Public Licence, Version 3.0 (the \"License\");\n * you may not use this file except in compliance with the License.\n *\n * This program is distributed in the hope that it will be useful,\n * but WITHOUT ANY WARRANTY; without even the implied warranty of\n * MERCHANTABILITY or FITNESS FOR A PARTICULAR PURPOSE.  See the\n * GNU Lesser General Public License for more details.\n *\n * You should have received a copy of the GNU Lesser General Public License\n * along with this program.  If not, see <https://www.gnu.org/licenses/>.\n*/\ncontract ModifiersTest is Modifiers {\n\n    /**\n    * @dev Test the checkZeroAddress() modifier\n    * @param testAddress - address being checked if is it the 0x0 address\n    */\n    function testCheckZeroAddress(address testAddress) checkZeroAddress(testAddress) public pure returns (bool) {\n        return true;\n    }\n}\n",
  "sourcePath": "/Users/suleymankardas/Desktop/aztec/aztec-protocol/contracts/test/libs/ModifiersTest.sol",
  "compiler": {
    "name": "solc",
    "version": "0.5.17+commit.d19bba13.Emscripten.clang"
  },
  "schemaVersion": "3.4.1",
  "updatedAt": "2022-03-28T14:36:05.572Z",
  "devdoc": {
    "methods": {
      "testCheckZeroAddress(address)": {
        "details": "Test the checkZeroAddress() modifier",
        "params": {
          "testAddress": "- address being checked if is it the 0x0 address"
        }
      }
    },
    "title": "Test contract used to test the modifiers inherited from the Modifiers contract Copyright 2020 Spilsbury Holdings Ltd  * Licensed under the GNU Lesser General Public Licence, Version 3.0 (the \"License\"); you may not use this file except in compliance with the License. * This program is distributed in the hope that it will be useful, but WITHOUT ANY WARRANTY; without even the implied warranty of MERCHANTABILITY or FITNESS FOR A PARTICULAR PURPOSE.  See the GNU Lesser General Public License for more details. * You should have received a copy of the GNU Lesser General Public License along with this program.  If not, see <https://www.gnu.org/licenses/>."
  },
  "userdoc": {
    "methods": {}
  }
}