{
  "contractName": "ProofUtilsTest",
  "abi": [
    {
      "constant": true,
      "inputs": [
        {
          "internalType": "uint24",
          "name": "proof",
          "type": "uint24"
        }
      ],
      "name": "getProofComponents",
      "outputs": [
        {
          "internalType": "uint8",
          "name": "epoch",
          "type": "uint8"
        },
        {
          "internalType": "uint8",
          "name": "category",
          "type": "uint8"
        },
        {
          "internalType": "uint8",
          "name": "id",
          "type": "uint8"
        }
      ],
      "payable": false,
      "stateMutability": "pure",
      "type": "function"
    }
  ],
  "bytecode": "0x608060405234801561001057600080fd5b5060de8061001f6000396000f3fe6080604052348015600f57600080fd5b506004361060285760003560e01c806330722fd114602d575b600080fd5b604c60048036036020811015604157600080fd5b503562ffffff166071565b6040805160ff9485168152928416602084015292168183015290519081900360600190f35b600080600060828462ffffff16608f565b9250925092509193909250565b60ff6201000082048116926101008304821692919091169056fea265627a7a7231582006fbfe5eb44507b07b95130d23fefbdf0044d3d7eaef78152d8273b7bac3da5064736f6c63430005110032",
  "source": "pragma solidity >= 0.5.0 <0.6.0;\n\nimport \"../../libs/ProofUtils.sol\";\n\n/**\n * @title ProofUtilsTest\n * @author AZTEC\n * @dev Library of proof utility functions\n *\n * Copyright 2020 Spilsbury Holdings Ltd \n *\n * Licensed under the GNU Lesser General Public Licence, Version 3.0 (the \"License\");\n * you may not use this file except in compliance with the License.\n *\n * This program is distributed in the hope that it will be useful,\n * but WITHOUT ANY WARRANTY; without even the implied warranty of\n * MERCHANTABILITY or FITNESS FOR A PARTICULAR PURPOSE.  See the\n * GNU Lesser General Public License for more details.\n *\n * You should have received a copy of the GNU Lesser General Public License\n * along with this program.  If not, see <https://www.gnu.org/licenses/>.\n**/\ncontract ProofUtilsTest {\n    using ProofUtils for uint24;\n\n    /**\n     * @dev We compress three uint8 numbers into only one uint24 to save gas.\n     * Reverts if the category is not one of [1, 2, 3, 4].\n     * @param proof The compressed uint24 number.\n     * @return A tuple (uint8, uint8, uint8) representing the epoch, category and proofId.\n     */\n    function getProofComponents(uint24 proof) public pure returns (uint8 epoch, uint8 category, uint8 id) {\n        return proof.getProofComponents();\n    }\n}\n",
  "sourcePath": "/Users/suleymankardas/Desktop/aztec/aztec-protocol/contracts/test/libs/ProofUtilsTest.sol",
  "compiler": {
    "name": "solc",
    "version": "0.5.17+commit.d19bba13.Emscripten.clang"
  },
  "schemaVersion": "3.4.1",
  "updatedAt": "2022-03-28T14:36:05.574Z",
  "devdoc": {
    "author": "AZTEC",
    "details": "Library of proof utility functions * Copyright 2020 Spilsbury Holdings Ltd  * Licensed under the GNU Lesser General Public Licence, Version 3.0 (the \"License\"); you may not use this file except in compliance with the License. * This program is distributed in the hope that it will be useful, but WITHOUT ANY WARRANTY; without even the implied warranty of MERCHANTABILITY or FITNESS FOR A PARTICULAR PURPOSE.  See the GNU Lesser General Public License for more details. * You should have received a copy of the GNU Lesser General Public License along with this program.  If not, see <https://www.gnu.org/licenses/>.*",
    "methods": {
      "getProofComponents(uint24)": {
        "details": "We compress three uint8 numbers into only one uint24 to save gas. Reverts if the category is not one of [1, 2, 3, 4].",
        "params": {
          "proof": "The compressed uint24 number."
        },
        "return": "A tuple (uint8, uint8, uint8) representing the epoch, category and proofId."
      }
    },
    "title": "ProofUtilsTest"
  },
  "userdoc": {
    "methods": {}
  }
}