{
  "contractName": "PublicRange",
  "abi": [
    {
      "constant": true,
      "inputs": [
        {
          "internalType": "bytes",
          "name": "",
          "type": "bytes"
        },
        {
          "internalType": "address",
          "name": "",
          "type": "address"
        },
        {
          "internalType": "uint256[6]",
          "name": "",
          "type": "uint256[6]"
        }
      ],
      "name": "validatePublicRange",
      "outputs": [
        {
          "internalType": "bytes",
          "name": "",
          "type": "bytes"
        }
      ],
      "payable": false,
      "stateMutability": "pure",
      "type": "function"
    }
  ],
  "bytecode": "0x608060405234801561001057600080fd5b506106df806100206000396000f3fe608060405234801561001057600080fd5b50610019610023565b606060405261049e565b60443560805260643560a0526101643561010401600260017f30644e72e131a029b85045b68181585d2833e84879b9709143e1f593f00000018061012435068161014435066024356102e052806103005260006103205260006103405261008a8587610467565b6080850261036001600160005b878110156101ca5760c0810260208a0101600060208201358760008511600181146100c75780156100db576100e0565b8a8b8a848e030960c08703350893506100e0565b843593505b506100ec8284866101fe565b8960005187099550841561010d5789868409925089868309915089868a0990505b60406080850160e0376040808501602037808a0361012052826060528160c05260406101a0606060e060075afa60406101206060602060075afa1660406101606060608060075afa166040610160608061012060065afa16604088608061016060065afa811690508160605260406102206060602060075afa166040610260608061022060065afa1660406101e060806101a060065afa16806101b65761019060005260206000fd5b505050604094909401935050600101610097565b506101d5608461029b565b846102e083036102e020068481146101f35761019460005260206000fd5b505050505050505050565b7f30644e72e131a029b85045b68181585d2833e84879b9709143e1f593f00000017f30644e72e131a029b85045b68181585d97816a916871ca8d3c208c16d87cfd4760408301356060840135608085013560a086013584838409856003878789898a090908148582830986600388868a888909090814166001891189888b06141660018b118b898d06141616166101f35761019060005260206000fd5b7f30644e72e131a029b85045b68181585d97816a916871ca8d3c208c16d87cfd4781356020830135604084013560608501357f090689d0585ff075ec9e99ad690c3395bc4b313370b38ef355acdadcd122975b81147f12c85ea5db8c6deb4aab71808dcb408fe3d1e7690c43d37b4ce6cc0166fa7daa83147f198e9393920d483a7260bfb731fb5d25f1aa493335a9e71297e485b7aef312c285147f1800deef121f1e76426a00665e5c4479674322d4f75edadd46debd5cd992f6ed87148415861588158a1517171717171717156103795761019060005260206000fd5b6101e051602052610200516040527f1800deef121f1e76426a00665e5c4479674322d4f75edadd46debd5cd992f6ed6080527f198e9393920d483a7260bfb731fb5d25f1aa493335a9e71297e485b7aef312c26060527f12c85ea5db8c6deb4aab71808dcb408fe3d1e7690c43d37b4ce6cc0166fa7daa60c0527f090689d0585ff075ec9e99ad690c3395bc4b313370b38ef355acdadcd122975b60a0526102605160e05261028051610100528361014052826101205281610180528061016052602080610180602060085afa602051158115171561045e5761019060005260206000fd5b50505050505050565b60005b8281101561049057606060c082028301016080816080840261036001375060010161046a565b505060800261036020600052565b6104a66104a8565b005b61016435610104016002600161018435610124016101a435610124016101c4356101440160016101a05260606101c05260c06102005260006102405260006102605261012435610280526102a0846020820152602085026102e00160005b868110156105995760c0810260208a0101600160005260806040820160203760c08352600160208401528635604084015260a0600020606084015260406080840152600160ff1b60016060830135160260408201351760a0840152600160ff1b600160a0830135160260808201351760c08401528383036020830260408601015260e08301925050600181019050610506565b50601f1982820390810190925260c0909101610220528486036020828101829052028101604001855b8781101561067b5760c0810260208a01016020888303028501358060408703013560016000526080604084016020378060c00185526001602086015260208a850302880135604086015260a06000206060860152806040016080860152600160ff1b600160405116026020511760a0860152600160ff1b600160805116026060511760c08601528060208803830160e087013785850360208b8603026040880101526020855101850194505050506001810190506105c2565b5060208282030382526102a081038060a0016101e0528061010001610180526020610160528061014001610160f3fea265627a7a72315820a2d5ccb16dbf3ae61672558b54c802ee7dffae8a6c1259f6fc88155ee02b08ed64736f6c63430005110032",
  "source": "pragma solidity >=0.5.0 <0.6.0;\n\nimport \"./PublicRangeABIEncoder.sol\";\nimport \"../../../interfaces/PublicRangeInterface.sol\";\n\n/**\n * @title PublicRange\n * @author AZTEC\n * @dev Library to validate AZTEC public range zero-knowledge proofs\n * Don't include this as an internal library. This contract uses \n * a static memory table to cache elliptic curve primitives and hashes.\n * Calling this internally from another function will lead to memory \n * mutation and undefined behaviour.\n * The intended use case is to call this externally via `staticcall`. External \n * calls to OptimizedAZTEC can be treated as pure functions as this contract \n * contains no storage and makes no external calls (other than to precompiles)\n *\n * Copyright 2020 Spilsbury Holdings Ltd \n *\n * Licensed under the GNU Lesser General Public Licence, Version 3.0 (the \"License\");\n * you may not use this file except in compliance with the License.\n *\n * This program is distributed in the hope that it will be useful,\n * but WITHOUT ANY WARRANTY; without even the implied warranty of\n * MERCHANTABILITY or FITNESS FOR A PARTICULAR PURPOSE.  See the\n * GNU Lesser General Public License for more details.\n *\n * You should have received a copy of the GNU Lesser General Public License\n * along with this program.  If not, see <https://www.gnu.org/licenses/>.\n**/\ncontract PublicRange {\n\n    /**\n     * @dev PublicRange.sol will take any transaction sent to it and attempt to validate a zero knowledge proof.\n     * If the proof is not valid, the transaction throws.\n     * @notice See PublicRangeInterface for how method calls should be constructed.\n     * PublicRange.sol is written in YUL to enable manual memory management and for other efficiency savings.\n     **/\n    // solhint-disable payable-fallback\n    function() external {\n        assembly {\n\n            // We don't check for function signatures, there's only one function that \n            // ever gets called: validatePublicRange()\n            // We still assume calldata is offset by 4 bytes so that we can represent \n            // this contract through a compatible ABI\n            validatePublicRange()\n\n            // if we get to here, the proof is valid. We now 'fall through' the assembly block\n            // and into PublicRange.validatePublicRange()\n            // reset the free memory pointer because we're touching Solidity code again\n            mstore(0x40, 0x60)\n            /**\n             * New calldata map\n             * 0x04:0x24      = calldata location of proofData byte array \n             * 0x24:0x44      = message sender // sender\n             * 0x44:0x64      = h_x     // crs\n             * 0x64:0x84      = h_y     // crs\n             * 0x84:0xa4      = t2_x0   // crs\n             * 0xa4:0xc4      = t2_x1   // crs\n             * 0xa4:0xc4      = t2_x1   // crs\n             * 0xc4:0xe4      = t2_y0   // crs\n             * 0xe4:0x104     = t2_y1   // crs\n             * 0x104:0x124    = length of proofData byte array \n             * 0x124:0x144    = challenge\n             * 0x144:0x164    = publicComparison\n             * 0x164:0x184    = offset in byte array to notes\n             * 0x184:0x1a4    = offset in byte array to inputOwners\n             * 0x1a4:0x1c4    = offset in byte array to outputOwners\n             * 0x1c4:0x1e4    = offset in byte array to metadata\n             *\n             *\n             * Note data map (uint[6]) is\n             * 0x00:0x20       = Z_p element \\bar{k}_i\n             * 0x20:0x40       = Z_p element \\bar{a}_i\n             * 0x40:0x80       = G1 element \\gamma_i\n             * 0x80:0xc0       = G1 element \\sigma_i\n             *\n             * We use a hard-coded memory map to reduce gas costs - if this is not called as an \n             * external contract then terrible things will happen!\n             *\n             * 0x00:0x20       = scratch data to store result of keccak256 calls\n             * 0x20:0x80       = scratch data to store \\gamma_i and a multiplication scalar\n             * 0x80:0xc0       = x-coordinate of generator h\n             * 0xc0:0xe0       = y-coordinate of generator h\n             * 0xe0:0x100      = scratch data to store a scalar we plan to multiply h by\n             * 0x100:0x160     = scratch data to store \\sigma_i and a multiplication scalar\n             * 0x160:0x1a0     = stratch data to store result of G1 point additions\n             * 0x1a0:0x1c0     = scratch data to store result of \\sigma_i^{-cx_{i-m-1}}\n             * 0x220:0x260     = scratch data to store \\gamma_i^{cx_{i-m-1}}\n             * 0x2e0:0x300     = msg.sender (contract should be called via delegatecall/staticcall)\n             * 0x300:???       = block of memory that contains (\\gamma_i, \\sigma_i)_{i=0}^{n-1} \n             *                   concatenated with (B_i)_{i=0}^{n-1}\n             **/\n            function validatePublicRange() {\n                /*\n                ///////////////////////////////////////////  SETUP  //////////////////////////////////////////////\n                */\n\n                mstore(0x80, calldataload(0x44)) // h_x\n                mstore(0xa0, calldataload(0x64)) // h_y\n                let notes := add(0x104, calldataload(0x164)) // start position of notes\n                let n := 2\n                let m := 1\n                let gen_order := 0x30644e72e131a029b85045b68181585d2833e84879b9709143e1f593f0000001\n                let challenge := mod(calldataload(0x124), gen_order)\n                let publicComparison := mod(calldataload(0x144), gen_order)\n\n                mstore(0x2e0, calldataload(0x24)) // store the msg.sender, to be hashed later\n                mstore(0x300, publicComparison) \n                mstore(0x320, 0) // add kPublic = 0 to the hash\n                mstore(0x340, 0) // add publicOwner to the hash\n                hashCommitments(notes, n)\n                let b := add(0x360, mul(n, 0x80))\n\n                /*\n                ///////////////////////////  CALCULATE BLINDING FACTORS  /////////////////////////////////////\n                */\n\n                let x := 1\n\n                // Iterate over every note and calculate the blinding factor B_i = \\gamma_i^{kBar}h^{aBar}\\sigma_i^{-c}.\n                for { let i := 0 } lt(i, n) { i := add(i, 0x01) } {\n                    // Get the calldata index of this note and associated parameters\n                    let noteIndex := add(add(notes, 0x20), mul(i, 0xc0))\n                    let k\n                    let a := calldataload(add(noteIndex, 0x20))\n                    let c := challenge\n\n                    switch gt(i, 0)\n                    case 1 {\n                        /*\n                        Enforce the condition k_2 = k_1 - c*publicComparison\n                        */\n                        k := addmod(\n                            calldataload(sub(noteIndex, 0xc0)), // k_1\n                            mulmod(sub(gen_order, c), publicComparison, gen_order), \n                            gen_order\n                        )\n                    } \n                        \n                    case 0 {\n                        k := calldataload(noteIndex)\n\n                    }\n\n                    // Check this commitment is well formed\n                    validateCommitment(noteIndex, k, a)\n\n                    x := mulmod(x, mload(0x00), gen_order) // x is the kecca hash of the input commitments\n\n                    if gt(i, 0) {\n                        // Set k = kx_j, a = ax_j, c = cx_j, where j = i - (m+1)\n                        k := mulmod(k, x, gen_order) // kx\n                        a := mulmod(a, x, gen_order) // ax\n                        c := mulmod(challenge, x, gen_order) // cx\n                    }\n\n                    // Calculate the G1 element \\gamma_i^{k}h^{a}\\sigma_i^{-c} = B_i\n                    // Memory map:\n                    // 0x20: \\gamma_iX\n                    // 0x40: \\gamma_iY\n                    // 0x60: k_i\n                    // 0x80: hX\n                    // 0xa0: hY\n                    // 0xc0: a_i\n                    // 0xe0: \\sigma_iX\n                    // 0x100: \\sigma_iY\n                    // 0x120: -c\n\n\n                    // * Note data map (uint[6]) is\n                    // * 0x00:0x20       = Z_p element \\bar{k}_i\n                    // * 0x20:0x40       = Z_p element \\bar{a}_i\n                    // * 0x40:0x80       = G1 element \\gamma_i\n                    // * 0x80:0xc0       = G1 element \\sigma_i\n\n                    // loading into memory\n                    calldatacopy(0xe0, add(noteIndex, 0x80), 0x40)\n                    calldatacopy(0x20, add(noteIndex, 0x40), 0x40)\n                    mstore(0x120, sub(gen_order, c)) \n                    mstore(0x60, k)\n                    mstore(0xc0, a)\n\n                    // Call bn128 scalar multiplication precompiles\n                    // Represent point + multiplication scalar in 3 consecutive blocks of memory\n                    // Store \\sigma_i^{-c} at 0x1a0:0x200\n                    // Store \\gamma_i^{k} at 0x120:0x160\n                    // Store h^{a} at 0x160:0x1a0\n                    let result := staticcall(gas, 7, 0xe0, 0x60, 0x1a0, 0x40) // sigmai^-c\n                    result := and(result, staticcall(gas, 7, 0x20, 0x60, 0x120, 0x40))\n                    result := and(result, staticcall(gas, 7, 0x80, 0x60, 0x160, 0x40))\n\n                    // Call bn128 group addition precompiles\n                    // \\gamma_i^{k} and h^{a} in memory block 0x120:0x1a0\n                    // Store result of addition at 0x160:0x1a0\n                    result := and(result, staticcall(gas, 6, 0x120, 0x80, 0x160, 0x40))\n\n                    // \\gamma_i^{k}h^{a} and \\sigma^{-c} in memory block 0x160:0x1e0\n                    // Store resulting point B at memory index b\n                    result := and(result, staticcall(gas, 6, 0x160, 0x80, b, 0x40))\n\n                    // Perform the pairing check for all notes - we do this by rolling all note coordinates into the\n                    // accumulator, upon which the pairing check is performed. \n                    // We do this adding \\sigma^{-c} and \\sigma_{acc} and storing the result at \n                    // \\sigma_{acc} (0x1e0:0x200). We then calculate \\gamma^{cx} and add into \\gamma_{acc}\n                    mstore(0x60, c)\n                    result := and(result, staticcall(gas, 7, 0x20, 0x60, 0x220, 0x40))\n\n                    // \\gamma_i^{cx} now at 0x220:0x260, \\gamma_{acc} is at 0x260:0x2a0\n                    result := and(result, staticcall(gas, 6, 0x220, 0x80, 0x260, 0x40))\n\n                    // add \\sigma_i^{-cx} and \\sigma_{acc} into \\sigma_{acc} at 0x1e0\n                    result := and(result, staticcall(gas, 6, 0x1a0, 0x80, 0x1e0, 0x40))\n\n                    // throw transaction if any calls to precompiled contracts failed\n                    if iszero(result) { mstore(0x00, 400) revert(0x00, 0x20) }\n                    b := add(b, 0x40) // increase B pointer by 2 words\n                }\n\n                    // Can assume by induction that k_1 is the output of a previous AZTEC transaction, and therefore \n                    // it already satisfies a range proof. Only need to perform an explicit range check on k2\n                    validatePairing(0x84)\n            \n                /*\n                ////////////////////  RECONSTRUCT INITIAL CHALLENGE AND VERIFY A MATCH  ////////////////////////////////\n                */\n\n                // We now have the note commitments and the calculated blinding factors in a block of memory\n                // starting at 0x2e0, of size (b - 0x2e0).\n                // Hash this block to reconstruct the initial challenge and validate that they match\n                let expected := mod(keccak256(0x2e0, sub(b, 0x2e0)), gen_order)\n\n                if iszero(eq(expected, challenge)) {\n\n                    // No! Bad! No soup for you!\n                    mstore(0x00, 404)\n                    revert(0x00, 0x20)\n                }\n            }\n\n            /**\n             * @dev check that this note's points are on the altbn128 curve(y^2 = x^3 + 3)\n             * and that signatures 'k' and 'a' are modulo the order of the curve. Transaction\n             * throws if this is not the case.\n             * @param note the calldata loation of the note\n             **/\n            function validateCommitment(note, k, a) {\n                let gen_order := 0x30644e72e131a029b85045b68181585d2833e84879b9709143e1f593f0000001\n                let field_order := 0x30644e72e131a029b85045b68181585d97816a916871ca8d3c208c16d87cfd47\n                let gammaX := calldataload(add(note, 0x40))\n                let gammaY := calldataload(add(note, 0x60))\n                let sigmaX := calldataload(add(note, 0x80))\n                let sigmaY := calldataload(add(note, 0xa0))\n                if iszero(\n                    and(\n                        and(\n                            and(\n                                eq(mod(a, gen_order), a), // a is modulo generator order?\n                                gt(a, 1)                  // can't be 0 or 1 either!\n                            ),\n                            and(\n                                eq(mod(k, gen_order), k), // k is modulo generator order?\n                                gt(k, 1)                  // and not 0 or 1\n                            )\n                        ),\n                        and(\n                            eq( // y^2 ?= x^3 + 3\n                                addmod(mulmod(\n                                    mulmod(sigmaX, sigmaX, field_order), sigmaX, field_order), \n                                    3, \n                                    field_order),\n                                mulmod(sigmaY, sigmaY, field_order)\n                            ),\n                            eq( // y^2 ?= x^3 + 3\n                                addmod(mulmod(\n                                    mulmod(gammaX, gammaX, field_order), \n                                    gammaX, \n                                    field_order), \n                                    3, field_order),\n                                mulmod(gammaY, gammaY, field_order)\n                            )\n                        )\n                    )\n                ) {\n                    mstore(0x00, 400)\n                    revert(0x00, 0x20)\n                }\n            }\n\n            /**        \n             * @dev evaluate if e(P1, t2) . e(P2, g2) == 0.\n             * @notice we don't hard-code t2 so that contracts that call this library can use different trusted setups.\n             **/\n            function validatePairing(t2) {\n                let field_order := 0x30644e72e131a029b85045b68181585d97816a916871ca8d3c208c16d87cfd47\n                let t2_x_1 := calldataload(t2)\n                let t2_x_2 := calldataload(add(t2, 0x20))\n                let t2_y_1 := calldataload(add(t2, 0x40))\n                let t2_y_2 := calldataload(add(t2, 0x60))\n\n                // check provided setup pubkey is not zero or g2\n                if or(or(or(or(or(or(or(\n                    iszero(t2_x_1),\n                    iszero(t2_x_2)),\n                    iszero(t2_y_1)),\n                    iszero(t2_y_2)),\n                    eq(t2_x_1, 0x1800deef121f1e76426a00665e5c4479674322d4f75edadd46debd5cd992f6ed)),\n                    eq(t2_x_2, 0x198e9393920d483a7260bfb731fb5d25f1aa493335a9e71297e485b7aef312c2)),\n                    eq(t2_y_1, 0x12c85ea5db8c6deb4aab71808dcb408fe3d1e7690c43d37b4ce6cc0166fa7daa)),\n                    eq(t2_y_2, 0x90689d0585ff075ec9e99ad690c3395bc4b313370b38ef355acdadcd122975b))\n                {\n                    mstore(0x00, 400)\n                    revert(0x00, 0x20)\n                }\n\n                // store coords in memory\n                // indices are a bit off, scipr lab's libff limb ordering (c0, c1) is opposite\n                // to what precompile expects. We can overwrite the memory we used previously as this function\n                // is called at the end of the validation routine.\n                mstore(0x20, mload(0x1e0)) // sigma accumulator x\n                mstore(0x40, mload(0x200)) // sigma accumulator y\n                mstore(0x80, 0x1800deef121f1e76426a00665e5c4479674322d4f75edadd46debd5cd992f6ed)\n                mstore(0x60, 0x198e9393920d483a7260bfb731fb5d25f1aa493335a9e71297e485b7aef312c2)\n                mstore(0xc0, 0x12c85ea5db8c6deb4aab71808dcb408fe3d1e7690c43d37b4ce6cc0166fa7daa)\n                mstore(0xa0, 0x90689d0585ff075ec9e99ad690c3395bc4b313370b38ef355acdadcd122975b)\n                mstore(0xe0, mload(0x260)) // gamma accumulator x\n                mstore(0x100, mload(0x280)) // gamma accumulator y\n                mstore(0x140, t2_x_1)\n                mstore(0x120, t2_x_2)\n                mstore(0x180, t2_y_1)\n                mstore(0x160, t2_y_2)\n\n                let success := staticcall(gas, 8, 0x20, 0x180, 0x20, 0x20)\n\n                if or(iszero(success), iszero(mload(0x20))) {\n                    mstore(0x00, 400)\n                    revert(0x00, 0x20)\n                }\n            }\n\n            /**\n             * @dev Calculate the keccak256 hash of the commitments for both \n             * input notes and output notes. This is used both as an input to \n             * validate the challenge `c` and also to generate pseudorandom relationships\n             * between commitments for different outputNotes, so that we can combine \n             * them into a single multi-exponentiation for the purposes of validating \n             * the bilinear pairing relationships.\n             * @param notes calldata location notes\n             * @param n number of notes\n             **/\n            function hashCommitments(notes, n) {\n                for { let i := 0 } lt(i, n) { i := add(i, 0x01) } {\n                let index := add(add(notes, mul(i, 0xc0)), 0x60)\n                calldatacopy(add(0x360, mul(i, 0x80)), index, 0x80)\n                }\n                // storing at position 0x00 in memory, the kecca hash of everything from \n                // start of the commitments to the end\n                mstore(0x00, keccak256(0x360, mul(n, 0x80)))\n            }\n        }\n        // if we've reached here, we've validated the public range proof and haven't thrown an error.\n        // Encode the output according to the ACE standard and exit.\n        PublicRangeABIEncoder.encodeAndExit();\n    }\n}\n",
  "sourcePath": "/Users/suleymankardas/Desktop/aztec/aztec-protocol/contracts/ACE/validators/publicRange/PublicRange.sol",
  "compiler": {
    "name": "solc",
    "version": "0.5.17+commit.d19bba13.Emscripten.clang"
  },
  "schemaVersion": "3.4.1",
  "updatedAt": "2022-03-28T14:56:51.446Z",
  "networkType": "ethereum",
  "devdoc": {
    "author": "AZTEC",
    "details": "Library to validate AZTEC public range zero-knowledge proofs Don't include this as an internal library. This contract uses  a static memory table to cache elliptic curve primitives and hashes. Calling this internally from another function will lead to memory  mutation and undefined behaviour. The intended use case is to call this externally via `staticcall`. External  calls to OptimizedAZTEC can be treated as pure functions as this contract  contains no storage and makes no external calls (other than to precompiles) * Copyright 2020 Spilsbury Holdings Ltd  * Licensed under the GNU Lesser General Public Licence, Version 3.0 (the \"License\"); you may not use this file except in compliance with the License. * This program is distributed in the hope that it will be useful, but WITHOUT ANY WARRANTY; without even the implied warranty of MERCHANTABILITY or FITNESS FOR A PARTICULAR PURPOSE.  See the GNU Lesser General Public License for more details. * You should have received a copy of the GNU Lesser General Public License along with this program.  If not, see <https://www.gnu.org/licenses/>.*",
    "methods": {},
    "title": "PublicRange"
  },
  "userdoc": {
    "methods": {}
  }
}