{
  "contractName": "SafeMath8Test",
  "abi": [
    {
      "constant": true,
      "inputs": [
        {
          "internalType": "uint8",
          "name": "a",
          "type": "uint8"
        },
        {
          "internalType": "uint8",
          "name": "b",
          "type": "uint8"
        }
      ],
      "name": "_mul",
      "outputs": [
        {
          "internalType": "uint8",
          "name": "",
          "type": "uint8"
        }
      ],
      "payable": false,
      "stateMutability": "pure",
      "type": "function"
    },
    {
      "constant": true,
      "inputs": [
        {
          "internalType": "uint8",
          "name": "a",
          "type": "uint8"
        },
        {
          "internalType": "uint8",
          "name": "b",
          "type": "uint8"
        }
      ],
      "name": "_add",
      "outputs": [
        {
          "internalType": "uint8",
          "name": "",
          "type": "uint8"
        }
      ],
      "payable": false,
      "stateMutability": "pure",
      "type": "function"
    },
    {
      "constant": true,
      "inputs": [
        {
          "internalType": "uint8",
          "name": "a",
          "type": "uint8"
        },
        {
          "internalType": "uint8",
          "name": "b",
          "type": "uint8"
        }
      ],
      "name": "_sub",
      "outputs": [
        {
          "internalType": "uint8",
          "name": "",
          "type": "uint8"
        }
      ],
      "payable": false,
      "stateMutability": "pure",
      "type": "function"
    }
  ],
  "bytecode": "0x608060405234801561001057600080fd5b5061029e806100206000396000f3fe608060405234801561001057600080fd5b50600436106100415760003560e01c80633e2f03ad1461004657806373df4c23146100845780638246d678146100ac575b600080fd5b61006e6004803603604081101561005c57600080fd5b5060ff813581169160200135166100d4565b6040805160ff9092168252519081900360200190f35b61006e6004803603604081101561009a57600080fd5b5060ff813581169160200135166100f0565b61006e600480360360408110156100c257600080fd5b5060ff81358116916020013516610105565b60006100e960ff84168363ffffffff61011a16565b9392505050565b60006100e960ff84168363ffffffff61016516565b60006100e960ff84168363ffffffff6101af16565b600060ff8381169083160261010081106100e95760405162461bcd60e51b81526004018080602001828103825260248152602001806102216024913960400191505060405180910390fd5b600082820160ff80851690821610156100e95760405162461bcd60e51b81526004018080602001828103825260248152602001806101fd6024913960400191505060405180910390fd5b60008260ff168260ff1611156101f65760405162461bcd60e51b81526004018080602001828103825260258152602001806102456025913960400191505060405180910390fd5b5090039056fe75696e7438206164642074726967676572656420696e7465676572206f766572666c6f7775696e7438206d756c2074726967676572656420696e7465676572206f766572666c6f7775696e7438207375622074726967676572656420696e746567657220756e646572666c6f77a265627a7a72315820fc4d51641e73700cc6fa78b35fec634a60692b87aafb28ad8500b0f702f8c35064736f6c63430005110032",
  "source": "pragma solidity >=0.5.0 <0.6.0;\n\nimport \"../../libs/SafeMath8.sol\";\n\n/**\n * @title SafeMath8Test\n * @author AZTEC\n *\n * Copyright 2020 Spilsbury Holdings Ltd \n *\n * Licensed under the GNU Lesser General Public Licence, Version 3.0 (the \"License\");\n * you may not use this file except in compliance with the License.\n *\n * This program is distributed in the hope that it will be useful,\n * but WITHOUT ANY WARRANTY; without even the implied warranty of\n * MERCHANTABILITY or FITNESS FOR A PARTICULAR PURPOSE.  See the\n * GNU Lesser General Public License for more details.\n *\n * You should have received a copy of the GNU Lesser General Public License\n * along with this program.  If not, see <https://www.gnu.org/licenses/>.\n**/\ncontract SafeMath8Test {\n    using SafeMath8 for uint8;\n\n    function _mul(uint8 a, uint8 b) public pure returns (uint8) {\n        return(a.mul(b));\n    }\n\n    function _add(uint8 a, uint8 b) public pure returns (uint8) {\n        return(a.add(b));\n    }\n\n    function _sub(uint8 a, uint8 b) public pure returns (uint8) {\n        return(a.sub(b));\n    }\n}\n",
  "sourcePath": "/Users/suleymankardas/Desktop/aztec/aztec-protocol/contracts/test/libs/SafeMath8Test.sol",
  "compiler": {
    "name": "solc",
    "version": "0.5.17+commit.d19bba13.Emscripten.clang"
  },
  "schemaVersion": "3.4.1",
  "updatedAt": "2022-03-28T14:36:05.574Z",
  "devdoc": {
    "author": "AZTEC * Copyright 2020 Spilsbury Holdings Ltd  * Licensed under the GNU Lesser General Public Licence, Version 3.0 (the \"License\"); you may not use this file except in compliance with the License. * This program is distributed in the hope that it will be useful, but WITHOUT ANY WARRANTY; without even the implied warranty of MERCHANTABILITY or FITNESS FOR A PARTICULAR PURPOSE.  See the GNU Lesser General Public License for more details. * You should have received a copy of the GNU Lesser General Public License along with this program.  If not, see <https://www.gnu.org/licenses/>.*",
    "methods": {},
    "title": "SafeMath8Test"
  },
  "userdoc": {
    "methods": {}
  }
}