{
  "contractName": "TestAccountMapping",
  "abi": [
    {
      "inputs": [
        {
          "internalType": "address",
          "name": "_aceAddress",
          "type": "address"
        },
        {
          "internalType": "address",
          "name": "_trustedGSNSignerAddress",
          "type": "address"
        }
      ],
      "payable": false,
      "stateMutability": "nonpayable",
      "type": "constructor"
    },
    {
      "anonymous": false,
      "inputs": [
        {
          "indexed": false,
          "internalType": "address",
          "name": "accountAddress",
          "type": "address"
        },
        {
          "indexed": false,
          "internalType": "address",
          "name": "signerAddress",
          "type": "address"
        }
      ],
      "name": "Addresses",
      "type": "event"
    },
    {
      "anonymous": false,
      "inputs": [
        {
          "indexed": true,
          "internalType": "bytes32",
          "name": "signatureHash",
          "type": "bytes32"
        },
        {
          "indexed": true,
          "internalType": "bool",
          "name": "success",
          "type": "bool"
        },
        {
          "indexed": false,
          "internalType": "uint256",
          "name": "actualCharge",
          "type": "uint256"
        }
      ],
      "name": "GSNTransactionProcessed",
      "type": "event"
    },
    {
      "anonymous": false,
      "inputs": [
        {
          "indexed": true,
          "internalType": "address",
          "name": "account",
          "type": "address"
        },
        {
          "indexed": false,
          "internalType": "bytes",
          "name": "linkedPublicKey",
          "type": "bytes"
        },
        {
          "indexed": false,
          "internalType": "bytes",
          "name": "spendingPublicKey",
          "type": "bytes"
        }
      ],
      "name": "RegisterExtension",
      "type": "event"
    },
    {
      "anonymous": false,
      "inputs": [
        {
          "indexed": true,
          "internalType": "address",
          "name": "oldRelayHub",
          "type": "address"
        },
        {
          "indexed": true,
          "internalType": "address",
          "name": "newRelayHub",
          "type": "address"
        }
      ],
      "name": "RelayHubChanged",
      "type": "event"
    },
    {
      "constant": true,
      "inputs": [],
      "name": "BURN_PROOF",
      "outputs": [
        {
          "internalType": "uint24",
          "name": "",
          "type": "uint24"
        }
      ],
      "payable": false,
      "stateMutability": "view",
      "type": "function"
    },
    {
      "constant": true,
      "inputs": [],
      "name": "DIVIDEND_PROOF",
      "outputs": [
        {
          "internalType": "uint24",
          "name": "",
          "type": "uint24"
        }
      ],
      "payable": false,
      "stateMutability": "view",
      "type": "function"
    },
    {
      "constant": true,
      "inputs": [],
      "name": "EIP712_DOMAIN_HASH",
      "outputs": [
        {
          "internalType": "bytes32",
          "name": "",
          "type": "bytes32"
        }
      ],
      "payable": false,
      "stateMutability": "view",
      "type": "function"
    },
    {
      "constant": true,
      "inputs": [],
      "name": "JOIN_SPLIT_PROOF",
      "outputs": [
        {
          "internalType": "uint24",
          "name": "",
          "type": "uint24"
        }
      ],
      "payable": false,
      "stateMutability": "view",
      "type": "function"
    },
    {
      "constant": true,
      "inputs": [],
      "name": "MINT_PROOF",
      "outputs": [
        {
          "internalType": "uint24",
          "name": "",
          "type": "uint24"
        }
      ],
      "payable": false,
      "stateMutability": "view",
      "type": "function"
    },
    {
      "constant": true,
      "inputs": [],
      "name": "PRIVATE_RANGE_PROOF",
      "outputs": [
        {
          "internalType": "uint24",
          "name": "",
          "type": "uint24"
        }
      ],
      "payable": false,
      "stateMutability": "view",
      "type": "function"
    },
    {
      "constant": true,
      "inputs": [],
      "name": "PUBLIC_RANGE_PROOF",
      "outputs": [
        {
          "internalType": "uint24",
          "name": "",
          "type": "uint24"
        }
      ],
      "payable": false,
      "stateMutability": "view",
      "type": "function"
    },
    {
      "constant": true,
      "inputs": [
        {
          "internalType": "address",
          "name": "relay",
          "type": "address"
        },
        {
          "internalType": "address",
          "name": "from",
          "type": "address"
        },
        {
          "internalType": "bytes",
          "name": "encodedFunction",
          "type": "bytes"
        },
        {
          "internalType": "uint256",
          "name": "transactionFee",
          "type": "uint256"
        },
        {
          "internalType": "uint256",
          "name": "gasPrice",
          "type": "uint256"
        },
        {
          "internalType": "uint256",
          "name": "gasLimit",
          "type": "uint256"
        },
        {
          "internalType": "uint256",
          "name": "nonce",
          "type": "uint256"
        },
        {
          "internalType": "bytes",
          "name": "approvalData",
          "type": "bytes"
        },
        {
          "internalType": "uint256",
          "name": "",
          "type": "uint256"
        }
      ],
      "name": "acceptRelayedCall",
      "outputs": [
        {
          "internalType": "uint256",
          "name": "",
          "type": "uint256"
        },
        {
          "internalType": "bytes",
          "name": "context",
          "type": "bytes"
        }
      ],
      "payable": false,
      "stateMutability": "view",
      "type": "function"
    },
    {
      "constant": true,
      "inputs": [
        {
          "internalType": "address",
          "name": "",
          "type": "address"
        }
      ],
      "name": "accountMapping",
      "outputs": [
        {
          "internalType": "bytes",
          "name": "",
          "type": "bytes"
        }
      ],
      "payable": false,
      "stateMutability": "view",
      "type": "function"
    },
    {
      "constant": false,
      "inputs": [
        {
          "internalType": "uint24",
          "name": "_proofId",
          "type": "uint24"
        },
        {
          "internalType": "address",
          "name": "_registryOwner",
          "type": "address"
        },
        {
          "internalType": "bytes",
          "name": "_proofData",
          "type": "bytes"
        },
        {
          "internalType": "address",
          "name": "_spender",
          "type": "address"
        },
        {
          "internalType": "bytes",
          "name": "_proofSignature",
          "type": "bytes"
        }
      ],
      "name": "confidentialTransferFrom",
      "outputs": [],
      "payable": false,
      "stateMutability": "nonpayable",
      "type": "function"
    },
    {
      "constant": false,
      "inputs": [
        {
          "internalType": "address",
          "name": "_registryOwner",
          "type": "address"
        },
        {
          "internalType": "address",
          "name": "_owner",
          "type": "address"
        },
        {
          "internalType": "bytes32",
          "name": "_proofHash",
          "type": "bytes32"
        },
        {
          "internalType": "bytes",
          "name": "_proofData",
          "type": "bytes"
        },
        {
          "internalType": "uint256",
          "name": "_value",
          "type": "uint256"
        }
      ],
      "name": "deposit",
      "outputs": [],
      "payable": false,
      "stateMutability": "nonpayable",
      "type": "function"
    },
    {
      "constant": true,
      "inputs": [],
      "name": "epoch",
      "outputs": [
        {
          "internalType": "uint256",
          "name": "",
          "type": "uint256"
        }
      ],
      "payable": false,
      "stateMutability": "view",
      "type": "function"
    },
    {
      "constant": true,
      "inputs": [],
      "name": "getHubAddr",
      "outputs": [
        {
          "internalType": "address",
          "name": "",
          "type": "address"
        }
      ],
      "payable": false,
      "stateMutability": "view",
      "type": "function"
    },
    {
      "constant": false,
      "inputs": [
        {
          "internalType": "address",
          "name": "_aceAddress",
          "type": "address"
        },
        {
          "internalType": "address",
          "name": "_trustedGSNSignerAddress",
          "type": "address"
        }
      ],
      "name": "initialize",
      "outputs": [],
      "payable": false,
      "stateMutability": "nonpayable",
      "type": "function"
    },
    {
      "constant": false,
      "inputs": [],
      "name": "initialize",
      "outputs": [],
      "payable": false,
      "stateMutability": "nonpayable",
      "type": "function"
    },
    {
      "constant": false,
      "inputs": [
        {
          "internalType": "bytes",
          "name": "context",
          "type": "bytes"
        },
        {
          "internalType": "bool",
          "name": "success",
          "type": "bool"
        },
        {
          "internalType": "uint256",
          "name": "actualCharge",
          "type": "uint256"
        },
        {
          "internalType": "bytes32",
          "name": "preRetVal",
          "type": "bytes32"
        }
      ],
      "name": "postRelayedCall",
      "outputs": [],
      "payable": false,
      "stateMutability": "nonpayable",
      "type": "function"
    },
    {
      "constant": false,
      "inputs": [
        {
          "internalType": "bytes",
          "name": "context",
          "type": "bytes"
        }
      ],
      "name": "preRelayedCall",
      "outputs": [
        {
          "internalType": "bytes32",
          "name": "",
          "type": "bytes32"
        }
      ],
      "payable": false,
      "stateMutability": "nonpayable",
      "type": "function"
    },
    {
      "constant": false,
      "inputs": [
        {
          "internalType": "address",
          "name": "_registryOwner",
          "type": "address"
        },
        {
          "internalType": "bytes32",
          "name": "_proofHash",
          "type": "bytes32"
        },
        {
          "internalType": "uint256",
          "name": "_value",
          "type": "uint256"
        }
      ],
      "name": "publicApprove",
      "outputs": [],
      "payable": false,
      "stateMutability": "nonpayable",
      "type": "function"
    },
    {
      "constant": false,
      "inputs": [
        {
          "internalType": "address",
          "name": "_account",
          "type": "address"
        },
        {
          "internalType": "address",
          "name": "_AZTECaddress",
          "type": "address"
        },
        {
          "internalType": "bytes",
          "name": "_linkedPublicKey",
          "type": "bytes"
        },
        {
          "internalType": "bytes",
          "name": "_spendingPublicKey",
          "type": "bytes"
        },
        {
          "internalType": "bytes",
          "name": "_signature",
          "type": "bytes"
        }
      ],
      "name": "registerAZTECExtension",
      "outputs": [],
      "payable": false,
      "stateMutability": "nonpayable",
      "type": "function"
    },
    {
      "constant": true,
      "inputs": [],
      "name": "relayHubVersion",
      "outputs": [
        {
          "internalType": "string",
          "name": "",
          "type": "string"
        }
      ],
      "payable": false,
      "stateMutability": "view",
      "type": "function"
    },
    {
      "constant": false,
      "inputs": [],
      "name": "setDefaultRelayHub",
      "outputs": [],
      "payable": false,
      "stateMutability": "nonpayable",
      "type": "function"
    },
    {
      "constant": true,
      "inputs": [
        {
          "internalType": "bytes32",
          "name": "",
          "type": "bytes32"
        }
      ],
      "name": "signatureLog",
      "outputs": [
        {
          "internalType": "bool",
          "name": "",
          "type": "bool"
        }
      ],
      "payable": false,
      "stateMutability": "view",
      "type": "function"
    },
    {
      "constant": true,
      "inputs": [
        {
          "internalType": "address",
          "name": "",
          "type": "address"
        }
      ],
      "name": "userToAZTECAccountMapping",
      "outputs": [
        {
          "internalType": "address",
          "name": "",
          "type": "address"
        }
      ],
      "payable": false,
      "stateMutability": "view",
      "type": "function"
    },
    {
      "constant": false,
      "inputs": [
        {
          "internalType": "address",
          "name": "_address",
          "type": "address"
        },
        {
          "internalType": "bytes",
          "name": "_linkedPublicKey",
          "type": "bytes"
        }
      ],
      "name": "setAccountMapping",
      "outputs": [],
      "payable": false,
      "stateMutability": "nonpayable",
      "type": "function"
    },
    {
      "constant": false,
      "inputs": [
        {
          "internalType": "address",
          "name": "_address",
          "type": "address"
        },
        {
          "internalType": "address",
          "name": "_aliasAddress",
          "type": "address"
        }
      ],
      "name": "setAccountAliasMapping",
      "outputs": [],
      "payable": false,
      "stateMutability": "nonpayable",
      "type": "function"
    }
  ],
  "bytecode": "0x60806040526301343aaa6036553480156200001957600080fd5b50604051620032bd380380620032bd833981810160405260408110156200003f57600080fd5b508051602091820151604080517f454950373132446f6d61696e2800000000000000000000000000000000000000818601527f737472696e67206e616d652c0000000000000000000000000000000000000000602d8201527f737472696e672076657273696f6e2c000000000000000000000000000000000060398201527f6164647265737320766572696679696e67436f6e74726163740000000000000060488201527f29000000000000000000000000000000000000000000000000000000000000006061820152815160428183030181526062820180845281519187019190912060a28301845260199091527f415a5445435f43525950544f4752415048595f454e47494e450000000000000060829092019190915281518083018352600181527f3100000000000000000000000000000000000000000000000000000000000000908601528151808601919091527fc8066e2c715ce196630b273cd256d8959d5b9fefc55e9e6d999fb0f08bb7f75f818301527fc89efdaa54c0f20c7adf612882df0950f5a951637e0307cdcb4c672f298b8bc66060820152306080808301919091528251808303909101815260a090910190915280519084012060355590916200021b908390839062000edd62000223821b17901c565b5050620006dd565b600054610100900460ff1680620002485750620002486001600160e01b036200032416565b8062000257575060005460ff16155b620002ae576040517f08c379a000000000000000000000000000000000000000000000000000000000815260040180806020018281038252602e81526020018062003229602e913960400191505060405180910390fd5b600054610100900460ff16158015620002da576000805460ff1961ff0019909116610100171660011790555b603a80546001600160a01b0319166001600160a01b0385161790556200030c826200032a602090811b6200209917901c565b80156200031f576000805461ff00191690555b505050565b303b1590565b600054610100900460ff16806200034f57506200034f6001600160e01b036200032416565b806200035e575060005460ff16155b620003b5576040517f08c379a000000000000000000000000000000000000000000000000000000000815260040180806020018281038252602e81526020018062003229602e913960400191505060405180910390fd5b600054610100900460ff16158015620003e1576000805460ff1961ff0019909116610100171660011790555b6001600160a01b03821662000442576040517f08c379a0000000000000000000000000000000000000000000000000000000008152600401808060200182810382526039815260200180620032846039913960400191505060405180910390fd5b603480546001600160a01b0319166001600160a01b038416179055620004736200048a602090811b6200105d17901c565b801562000486576000805461ff00191690555b5050565b600054610100900460ff1680620004af5750620004af6001600160e01b036200032416565b80620004be575060005460ff16155b62000515576040517f08c379a000000000000000000000000000000000000000000000000000000000815260040180806020018281038252602e81526020018062003229602e913960400191505060405180910390fd5b600054610100900460ff1615801562000541576000805460ff1961ff0019909116610100171660011790555b6033546001600160a01b03166200056557620005656001600160e01b036200057b16565b801562000578576000805461ff00191690555b50565b620005a373d216153c06e857cd7f72665e0af1d7d82172f4946001600160e01b03620005a516565b565b6033546001600160a01b039081169082166200060d576040517f08c379a000000000000000000000000000000000000000000000000000000000815260040180806020018281038252602e815260200180620031fb602e913960400191505060405180910390fd5b806001600160a01b0316826001600160a01b031614156200067a576040517f08c379a000000000000000000000000000000000000000000000000000000000815260040180806020018281038252602d81526020018062003257602d913960400191505060405180910390fd5b816001600160a01b0316816001600160a01b03167fb9f84b8e65164b14439ae3620df0a4d8786d896996c0282b683f9d8c08f046e860405160405180910390a350603380546001600160a01b0319166001600160a01b0392909216919091179055565b612b0e80620006ed6000396000f3fe608060405234801561001057600080fd5b50600436106101725760003560e01c80638500e1f8116100de578063deb5826211610097578063e0b28d2211610071578063e0b28d22146109fd578063e14a103014610a23578063e306f77914610a51578063e308d6ff14610a5957610172565b8063deb58262146108c5578063df92462514610979578063e06e0e221461098157610172565b80638500e1f8146105a35780638e526d9b146105ab578063900cf0cf146105b3578063ad61ccd5146105bb578063bb2fa91b14610638578063c52b2ff3146107ff57610172565b8063485cc95511610130578063485cc9551461037057806349518b281461039e57806374e861d6146103a657806380274db7146103ae5780638129fc1c1461042e57806383947ea01461043657610172565b80625bf7321461017757806308ae900a1461019757806309146c7c1461019f5780631220e2ff146101d057806318cb65e6146101da5780633d6bb32c1461032e575b600080fd5b61017f610a8b565b6040805162ffffff9092168252519081900360200190f35b61017f610a92565b6101bc600480360360208110156101b557600080fd5b5035610a99565b604080519115158252519081900360200190f35b6101d8610aae565b005b6101d8600480360360a08110156101f057600080fd5b62ffffff823516916001600160a01b0360208201351691810190606081016040820135600160201b81111561022457600080fd5b82018360208201111561023657600080fd5b803590602001918460018302840111600160201b8311171561025757600080fd5b91908080601f01602080910402602001604051908101604052809392919081815260200183838082843760009201919091525092956001600160a01b03853516959094909350604081019250602001359050600160201b8111156102ba57600080fd5b8201836020820111156102cc57600080fd5b803590602001918460018302840111600160201b831117156102ed57600080fd5b91908080601f016020809104026020016040519081016040528093929190818152602001838380828437600092019190915250929550610acd945050505050565b6103546004803603602081101561034457600080fd5b50356001600160a01b0316610ec2565b604080516001600160a01b039092168252519081900360200190f35b6101d86004803603604081101561038657600080fd5b506001600160a01b0381358116916020013516610edd565b61017f610fa5565b610354610fac565b61041c600480360360208110156103c457600080fd5b810190602081018135600160201b8111156103de57600080fd5b8201836020820111156103f057600080fd5b803590602001918460018302840111600160201b8311171561041157600080fd5b509092509050610fbc565b60408051918252519081900360200190f35b6101d861105d565b610524600480360361012081101561044d57600080fd5b6001600160a01b038235811692602081013590911691810190606081016040820135600160201b81111561048057600080fd5b82018360208201111561049257600080fd5b803590602001918460018302840111600160201b831117156104b357600080fd5b9193909282359260208101359260408201359260608301359260a081019060800135600160201b8111156104e657600080fd5b8201836020820111156104f857600080fd5b803590602001918460018302840111600160201b8311171561051957600080fd5b919350915035611117565b6040518083815260200180602001828103825283818151815260200191508051906020019080838360005b8381101561056757818101518382015260200161054f565b50505050905090810190601f1680156105945780820380516001836020036101000a031916815260200191505b50935050505060405180910390f35b61017f611393565b61017f61139a565b61041c6113a1565b6105c36113a7565b6040805160208082528351818301528351919283929083019185019080838360005b838110156105fd5781810151838201526020016105e5565b50505050905090810190601f16801561062a5780820380516001836020036101000a031916815260200191505b509250505060405180910390f35b6101d8600480360360a081101561064e57600080fd5b6001600160a01b038235811692602081013590911691810190606081016040820135600160201b81111561068157600080fd5b82018360208201111561069357600080fd5b803590602001918460018302840111600160201b831117156106b457600080fd5b91908080601f0160208091040260200160405190810160405280939291908181526020018383808284376000920191909152509295949360208101935035915050600160201b81111561070657600080fd5b82018360208201111561071857600080fd5b803590602001918460018302840111600160201b8311171561073957600080fd5b91908080601f0160208091040260200160405190810160405280939291908181526020018383808284376000920191909152509295949360208101935035915050600160201b81111561078b57600080fd5b82018360208201111561079d57600080fd5b803590602001918460018302840111600160201b831117156107be57600080fd5b91908080601f0160208091040260200160405190810160405280939291908181526020018383808284376000920191909152509295506113c6945050505050565b6101d8600480360360a081101561081557600080fd5b6001600160a01b03823581169260208101359091169160408201359190810190608081016060820135600160201b81111561084f57600080fd5b82018360208201111561086157600080fd5b803590602001918460018302840111600160201b8311171561088257600080fd5b91908080601f0160208091040260200160405190810160405280939291908181526020018383808284376000920191909152509295505091359250611755915050565b6101d8600480360360408110156108db57600080fd5b6001600160a01b038235169190810190604081016020820135600160201b81111561090557600080fd5b82018360208201111561091757600080fd5b803590602001918460018302840111600160201b8311171561093857600080fd5b91908080601f016020809104026020016040519081016040528093929190818152602001838380828437600092019190915250929550611d22945050505050565b61017f611d4b565b6101d86004803603608081101561099757600080fd5b810190602081018135600160201b8111156109b157600080fd5b8201836020820111156109c357600080fd5b803590602001918460018302840111600160201b831117156109e457600080fd5b9193509150803515159060208101359060400135611d52565b6105c360048036036020811015610a1357600080fd5b50356001600160a01b0316611df4565b6101d860048036036040811015610a3957600080fd5b506001600160a01b0381358116916020013516611e8f565b61041c611ebd565b6101d860048036036060811015610a6f57600080fd5b506001600160a01b038135169060208101359060400135611ec3565b6201010181565b6201040381565b60396020526000908152604090205460ff1681565b610acb73d216153c06e857cd7f72665e0af1d7d82172f494611f3c565b565b603a5460405163a2866ea360e01b815262ffffff871660048201908152306024830181905260606044840181815288516064860152885191956001600160a01b03169463a2866ea3948c94938b93919260840190602085019080838360005b83811015610b44578181015183820152602001610b2c565b50505050905090810190601f168015610b715780820380516001836020036101000a031916815260200191505b50945050505050600060405180830381600087803b158015610b9257600080fd5b505af1158015610ba6573d6000803e3d6000fd5b505050506040513d6000823e601f3d908101601f191682016040526020811015610bcf57600080fd5b8101908080516040519392919084600160201b821115610bee57600080fd5b908301906020820185811115610c0357600080fd5b8251600160201b811182820188101715610c1c57600080fd5b82525081516020918201929091019080838360005b83811015610c49578181015183820152602001610c31565b50505050905090810190601f168015610c765780820380516001836020036101000a031916815260200191505b5060405250505090508151600014610dd857604051630530182d60e11b815262ffffff8716600482019081526001600160a01b03858116604484015260016064840181905260a060248501908152855160a48601528551928a1694630a60305a948c9488948b9490938b9392608482019160c40190602089019080838360005b83811015610d0e578181015183820152602001610cf6565b50505050905090810190601f168015610d3b5780820380516001836020036101000a031916815260200191505b50838103825284518152845160209182019186019080838360005b83811015610d6e578181015183820152602001610d56565b50505050905090810190601f168015610d9b5780820380516001836020036101000a031916815260200191505b50975050505050505050600060405180830381600087803b158015610dbf57600080fd5b505af1158015610dd3573d6000803e3d6000fd5b505050505b6001600160a01b03851663cdfea90e87610df984600063ffffffff61203c16565b604080516001600160e01b031960e086901b16815262ffffff8416600482019081526024820192835283516044830152835190929160640190602085019080838360005b83811015610e55578181015183820152602001610e3d565b50505050905090810190601f168015610e825780820380516001836020036101000a031916815260200191505b509350505050600060405180830381600087803b158015610ea257600080fd5b505af1158015610eb6573d6000803e3d6000fd5b50505050505050505050565b6038602052600090815260409020546001600160a01b031681565b600054610100900460ff1680610ef65750610ef6612093565b80610f04575060005460ff16155b610f3f5760405162461bcd60e51b815260040180806020018281038252602e815260200180612997602e913960400191505060405180910390fd5b600054610100900460ff16158015610f6a576000805460ff1961ff0019909116610100171660011790555b603a80546001600160a01b0319166001600160a01b038516179055610f8e82612099565b8015610fa0576000805461ff00191690555b505050565b6201040281565b6033546001600160a01b03165b90565b6000610fc6610fac565b6001600160a01b0316336001600160a01b0316146110155760405162461bcd60e51b8152600401808060200182810382526024815260200180612a4c6024913960400191505060405180910390fd5b61105483838080601f0160208091040260200160405190810160405280939291908181526020018383808284376000920191909152506121a492505050565b90505b92915050565b600054610100900460ff16806110765750611076612093565b80611084575060005460ff16155b6110bf5760405162461bcd60e51b815260040180806020018281038252602e815260200180612997602e913960400191505060405180910390fd5b600054610100900460ff161580156110ea576000805460ff1961ff0019909116610100171660011790555b6033546001600160a01b031661110257611102610aae565b8015611114576000805461ff00191690555b50565b60006060600060608686604081101561112f57600080fd5b81359190810190604081016020820135600160201b81111561115057600080fd5b82018360208201111561116257600080fd5b803590602001918460018302840111600160201b8311171561118357600080fd5b91908080601f016020809104026020016040519081016040528093929190818152602001838380828437600081840152601f19601f8201169050808301925050505050505091929192905050509150915060608f8f8f8f8f8f8f8f6111e6610fac565b308c604051602001808c6001600160a01b03166001600160a01b031660601b81526014018b6001600160a01b03166001600160a01b031660601b81526014018a8a808284379190910198895250506020808801969096526040808801959095526060808801949094526bffffffffffffffffffffffff1992841b83166080880152921b16609485015260a8808501919091528151808503909101815260c8840190915260e88301828152895161010885015289519198508997509550859450610128909201925085019080838360005b838110156112ce5781810151838201526020016112b6565b50505050905090810190601f1680156112fb5780820380516001836020036101000a031916815260200191505b5060408051601f19818403018152919052603454855160208701209198506001600160a01b031693506113419250859150611335906121aa565b9063ffffffff6121fb16565b6001600160a01b0316141561137957824211156113705761136460015b856122df565b94509450505050611383565b611364846122e8565b611364600061135e565b9b509b9950505050505050505050565b6201040181565b6201020181565b60365481565b6040805180820190915260058152640312e302e360dc1b602082015290565b6000816040516020018082805190602001908083835b602083106113fb5780518252601f1990920191602091820191016113dc565b51815160209384036101000a60001901801990921691161790526040805192909401828103601f190183528452815191810191909120600081815260399092529290205491945050600160ff9091161515141591506114a39050576040805162461bcd60e51b815260206004820152601f60248201527f7369676e61747572652068617320616c7265616479206265656e207573656400604482015290519081900360640190fd5b6000818152603960209081526040808320805460ff1916600117905580516060810182526001600160a01b03808b168252928101889052918816908201526114f4906114ee906122ed565b846124f1565b845160208601209091506001600160a01b038881169116146115475760405162461bcd60e51b8152600401808060200182810382526021815260200180612a2b6021913960400191505060405180910390fd5b806001600160a01b0316876001600160a01b0316146115ad576040805162461bcd60e51b815260206004820152601a60248201527f7369676e6572206d75737420626520746865206163636f756e74000000000000604482015290519081900360640190fd5b6001600160a01b038716600090815260376020908152604090912086516115d692880190612810565b506001600160a01b0387811660008181526038602090815260409182902080546001600160a01b0319168b861617905581519283529284169282019290925281517f95a39d922be29576604d782638b30fccbff80d85c69a650415d8b560270ec9a0929181900390910190a1866001600160a01b03167f6943ea2c7fa944e0014e912e815bb331b63af36341f53622fce2f97d26a928e28686604051808060200180602001838103835285818151815260200191508051906020019080838360005b838110156116b0578181015183820152602001611698565b50505050905090810190601f1680156116dd5780820380516001836020036101000a031916815260200191505b50838103825284518152845160209182019186019080838360005b838110156117105781810151838201526020016116f8565b50505050905090810190601f16801561173d5780820380516001836020036101000a031916815260200191505b5094505050505060405180910390a250505050505050565b603a5460405163a2866ea360e01b81526201010160048201818152306024840181905260606044850181815288516064870152885191966001600160a01b03169563a2866ea395948a9390929160840190602085019080838360005b838110156117c95781810151838201526020016117b1565b50505050905090810190601f1680156117f65780820380516001836020036101000a031916815260200191505b50945050505050600060405180830381600087803b15801561181757600080fd5b505af115801561182b573d6000803e3d6000fd5b505050506040513d6000823e601f3d908101601f19168201604052602081101561185457600080fd5b8101908080516040519392919084600160201b82111561187357600080fd5b90830190602082018581111561188857600080fd5b8251600160201b8111828201881017156118a157600080fd5b82525081516020918201929091019080838360005b838110156118ce5781810151838201526020016118b6565b50505050905090810190601f1680156118fb5780820380516001836020036101000a031916815260200191505b50604052505050905061190c612639565b6001600160a01b0316856001600160a01b031614611a395761192c612639565b6001600160a01b0386811660009081526038602052604090205481169116146119865760405162461bcd60e51b81526004018080602001828103825260368152602001806128a96036913960400191505060405180910390fd5b60606119a161199c83600063ffffffff61203c16565b612664565b505091505060006119b18261268e565b905060005b81811015611a355760006119d86119d3858463ffffffff61203c16565b612695565b50509050886001600160a01b0316816001600160a01b031614611a2c5760405162461bcd60e51b81526004018080602001828103825260488152602001806128df6048913960600191505060405180910390fd5b506001016119b6565b5050505b603a5460408051633e5c75df60e21b81526001600160a01b0389811660048301529151600093929092169163f971d77c9160248082019261010092909190829003018186803b158015611a8b57600080fd5b505afa158015611a9f573d6000803e3d6000fd5b505050506040513d610100811015611ab657600080fd5b5051604080516323b872dd60e01b81526001600160a01b0389811660048301523060248301526044820187905291519293508392918316916323b872dd916064808201926020929091908290030181600087803b158015611b1657600080fd5b505af1158015611b2a573d6000803e3d6000fd5b505050506040513d6020811015611b4057600080fd5b5050603a546040805163095ea7b360e01b81526001600160a01b0392831660048201526024810187905290519183169163095ea7b3916044808201926020929091908290030181600087803b158015611b9857600080fd5b505af1158015611bac573d6000803e3d6000fd5b505050506040513d6020811015611bc257600080fd5b5050603a546040805163e308d6ff60e01b81526001600160a01b038b81166004830152602482018a9052604482018890529151919092169163e308d6ff91606480830192600092919082900301818387803b158015611c2057600080fd5b505af1158015611c34573d6000803e3d6000fd5b5050506001600160a01b038916905063cdfea90e62010101611c5786600061203c565b604080516001600160e01b031960e086901b16815262ffffff8416600482019081526024820192835283516044830152835190929160640190602085019080838360005b83811015611cb3578181015183820152602001611c9b565b50505050905090810190601f168015611ce05780820380516001836020036101000a031916815260200191505b509350505050600060405180830381600087803b158015611d0057600080fd5b505af1158015611d14573d6000803e3d6000fd5b505050505050505050505050565b6001600160a01b03821660009081526037602090815260409091208251610fa092840190612810565b6201030181565b611d5a610fac565b6001600160a01b0316336001600160a01b031614611da95760405162461bcd60e51b8152600401808060200182810382526024815260200180612a4c6024913960400191505060405180910390fd5b611ded85858080601f0160208091040260200160405190810160405280939291908181526020018383808284376000920191909152508792508691508590506126b3565b5050505050565b60376020908152600091825260409182902080548351601f600260001961010060018616150201909316929092049182018490048402810184019094528084529091830182828015611e875780601f10611e5c57610100808354040283529160200191611e87565b820191906000526020600020905b815481529060010190602001808311611e6a57829003601f168201915b505050505081565b6001600160a01b03918216600090815260386020526040902080546001600160a01b03191691909216179055565b60355481565b603a546040805163e308d6ff60e01b81526001600160a01b03868116600483015260248201869052604482018590529151919092169163e308d6ff91606480830192600092919082900301818387803b158015611f1f57600080fd5b505af1158015611f33573d6000803e3d6000fd5b50505050505050565b6033546001600160a01b03908116908216611f885760405162461bcd60e51b815260040180806020018281038252602e815260200180612927602e913960400191505060405180910390fd5b806001600160a01b0316826001600160a01b03161415611fd95760405162461bcd60e51b815260040180806020018281038252602d8152602001806129c5602d913960400191505060405180910390fd5b816001600160a01b0316816001600160a01b03167fb9f84b8e65164b14439ae3620df0a4d8786d896996c0282b683f9d8c08f046e860405160405180910390a350603380546001600160a01b0319166001600160a01b0392909216919091179055565b60208281015190820283016040015183019082108061208c5760405162461bcd60e51b8152600401808060200182810382526022815260200180612ab86022913960400191505060405180910390fd5b5092915050565b303b1590565b600054610100900460ff16806120b257506120b2612093565b806120c0575060005460ff16155b6120fb5760405162461bcd60e51b815260040180806020018281038252602e815260200180612997602e913960400191505060405180910390fd5b600054610100900460ff16158015612126576000805460ff1961ff0019909116610100171660011790555b6001600160a01b03821661216b5760405162461bcd60e51b81526004018080602001828103825260398152602001806129f26039913960400191505060405180910390fd5b603480546001600160a01b0319166001600160a01b03841617905561218e61105d565b80156121a0576000805461ff00191690555b5050565b50600090565b604080517f19457468657265756d205369676e6564204d6573736167653a0a333200000000602080830191909152603c8083019490945282518083039094018452605c909101909152815191012090565b6000815160411461220e57506000611057565b60208201516040830151606084015160001a6fa2a8918ca85bafe22016d0b997e4df60600160ff1b0382111561224a5760009350505050611057565b8060ff16601b1415801561226257508060ff16601c14155b156122735760009350505050611057565b6040805160008152602080820180845289905260ff8416828401526060820186905260808201859052915160019260a0808401939192601f1981019281900390910190855afa1580156122ca573d6000803e3d6000fd5b5050604051601f190151979650505050505050565b600b9190910191565b600091565b600080604051806080016040528060428152602001612955604291396040516020018082805190602001908083835b6020831061233b5780518252601f19909201916020918201910161231c565b51815160001960209485036101000a0190811690199190911617905260408051601f19959093018381039590950183528481528251928201929092206e4163636f756e74526567697374727960881b8552825194859003600f018520601960f91b8652835195869003600101862086840192909252858401526060850152306080808601919091528251808603909101815260a085018084528151919092012061012085019092526048808252919650869550935091612a70915060c001396040516020018082805190602001908083835b6020831061242c5780518252601f19909201916020918201910161240d565b51815160209384036101000a60001901801990921691161790526040805192909401828103601f190183528085528251928201929092208a518b8301518051908401209b860151848401929092526001600160a01b0390811684870152606084019b909b52999099166080808301919091528351808303909101815260a0820184528051908a012061190160f01b60c083015260c282019690965260e28082019690965282518082039096018652610102019091525050815191909401209392505050565b6000808251848452606084015160408501518160f81c9150604086015160608701526020860151604087015281602087015260208660808860015afa601c8314601b84141760418514166fa2a8918ca85bafe22016d0b997e4df60600160ff1b0383101616935085518714600081146125695761256e565b865195505b505050835280801561258857506001600160a01b03821615155b61208c576001600160a01b0382166125e7576040805162461bcd60e51b815260206004820152601a60248201527f7369676e657220616464726573732063616e6e6f742062652030000000000000604482015290519081900360640190fd5b8061208c576040805162461bcd60e51b815260206004820152601960248201527f7369676e6174757265207265636f76657279206661696c656400000000000000604482015290519081900360640190fd5b6033546000906001600160a01b03163314612655575033610fb9565b61265d6127c3565b9050610fb9565b60208101516040820151606083015160808401519284019491909301926001600160a01b03169190565b6020015190565b604081015160608201516001600160a01b0390911692909160800190565b60608480602001905160208110156126ca57600080fd5b8101908080516040519392919084600160201b8211156126e957600080fd5b9083019060208201858111156126fe57600080fd5b8251600160201b81118282018810171561271757600080fd5b82525081516020918201929091019080838360005b8381101561274457818101518382015260200161272c565b50505050905090810190601f1680156127715780820380516001836020036101000a031916815260200191505b50604052505050905083151581805190602001207f2f708c980c8415108d54566eeeb78f5c2ddf6e1fab619607c30c001b127be075856040518082815260200191505060405180910390a35050505050565b600060606000368080601f0160208091040260200160405190810160405280939291908181526020018383808284376000920191909152505050503601516001600160a01b031692915050565b828054600181600116156101000203166002900490600052602060002090601f016020900481019282601f1061285157805160ff191683800117855561287e565b8280016001018555821561287e579182015b8281111561287e578251825591602001919060010190612863565b5061288a92915061288e565b5090565b610fb991905b8082111561288a576000815560010161289456fe53656e64657220686173206e6f207065726d697373696f6e20746f206465706f736974206f6e206f776e6572277320626568616c662e43616e6e6f74206465706f736974206e6f746520746f206f74686572206163636f756e742069662073656e646572206973206e6f74207468652073616d65206173206f776e65722e47534e526563697069656e743a206e65772052656c617948756220697320746865207a65726f2061646472657373454950373132446f6d61696e28737472696e67206e616d652c737472696e672076657273696f6e2c6164647265737320766572696679696e67436f6e747261637429436f6e747261637420696e7374616e63652068617320616c7265616479206265656e20696e697469616c697a656447534e526563697069656e743a206e65772052656c6179487562206973207468652063757272656e74206f6e6547534e526563697069656e745369676e61747572653a2074727573746564207369676e657220697320746865207a65726f20616464726573736164647265737320646f6573206e6f74206d61746368207075626c6963206b657947534e526563697069656e743a2063616c6c6572206973206e6f742052656c6179487562415a5445434163636f756e742861646472657373206163636f756e742c6279746573206c696e6b65645075626c69634b65792c6164647265737320415a5445436164647265737329415a54454320617272617920696e646578206973206f7574206f6620626f756e6473a265627a7a72315820fa388b1668a8024d15efc45a48a5231a2cfba98e1a471c5f5df1204f85d041e964736f6c6343000511003247534e526563697069656e743a206e65772052656c617948756220697320746865207a65726f2061646472657373436f6e747261637420696e7374616e63652068617320616c7265616479206265656e20696e697469616c697a656447534e526563697069656e743a206e65772052656c6179487562206973207468652063757272656e74206f6e6547534e526563697069656e745369676e61747572653a2074727573746564207369676e657220697320746865207a65726f2061646472657373",
  "source": "pragma solidity >=0.5.0 <0.6.0;\nimport \"../../../../AccountRegistry/epochs/20200106/Behaviour20200106.sol\";\n\n/**\n * Copyright 2020 Spilsbury Holdings Ltd \n *\n * Licensed under the GNU Lesser General Public Licence, Version 3.0 (the \"License\");\n * you may not use this file except in compliance with the License.\n *\n * This program is distributed in the hope that it will be useful,\n * but WITHOUT ANY WARRANTY; without even the implied warranty of\n * MERCHANTABILITY or FITNESS FOR A PARTICULAR PURPOSE.  See the\n * GNU Lesser General Public License for more details.\n *\n * You should have received a copy of the GNU Lesser General Public License\n * along with this program.  If not, see <https://www.gnu.org/licenses/>.\n **/\ncontract TestAccountMapping is Behaviour20200106 {\n    constructor(address _aceAddress, address _trustedGSNSignerAddress) public {\n        Behaviour20200106.initialize(_aceAddress, _trustedGSNSignerAddress);\n    }\n    function setAccountMapping(address _address, bytes memory _linkedPublicKey) public {\n        accountMapping[_address] = _linkedPublicKey;\n    }\n\n    function setAccountAliasMapping(address _address, address _aliasAddress) public {\n        userToAZTECAccountMapping[_address] = _aliasAddress;\n    }\n}\n",
  "sourcePath": "/Users/suleymankardas/Desktop/aztec/aztec-protocol/contracts/test/AccountRegistry/epochs/20200106/TestAccountMapping.sol",
  "compiler": {
    "name": "solc",
    "version": "0.5.17+commit.d19bba13.Emscripten.clang"
  },
  "schemaVersion": "3.4.1",
  "updatedAt": "2022-03-28T14:36:05.550Z",
  "devdoc": {
    "methods": {
      "acceptRelayedCall(address,address,bytes,uint256,uint256,uint256,uint256,bytes,uint256)": {
        "details": "Ensures that only transactions with a trusted signature can be relayed through the GSN."
      },
      "confidentialTransferFrom(uint24,address,bytes,address,bytes)": {
        "details": "Perform a confidential transfer, mediated by a smart contracrt",
        "params": {
          "_proofData": "- data generated from proof construction, which is used to validate the proof",
          "_proofId": "- uint24 proofId",
          "_proofSignature": "- EIP712 signature used to approve/revoke permission for the proof to be spent",
          "_registryOwner": "- address of the note registry owner",
          "_spender": "- address that will be spending the notes"
        }
      },
      "deposit(address,address,bytes32,bytes,uint256)": {
        "details": "Deposit ERC20 tokens into zero-knowledge notes in a transaction mediated via the GSN. Called by a user",
        "params": {
          "_owner": "- owner of the ERC20s being deposited",
          "_proofData": "- cryptographic data associated with the zero-knowledge proof",
          "_proofHash": "- hash of the zero-knowledge deposit proof",
          "_registryOwner": "- owner of the zkAsset",
          "_value": "- number of ERC20s being deposited"
        }
      },
      "getHubAddr()": {
        "details": "Returns the address of the {IRelayHub} contract for this recipient."
      },
      "initialize(address,address)": {
        "details": "Initialize the contract and set up it's state. An initialize function rather than a constructor is used to make this compatible with the upgradeability pattern",
        "params": {
          "_aceAddress": "- address of the AZTEC Cryptography Engine",
          "_trustedGSNSignerAddress": "- address which will produce signature to approve relayed GSN calls"
        }
      },
      "postRelayedCall(bytes,bool,uint256,bytes32)": {
        "details": "See `IRelayRecipient.postRelayedCall`.     * This function should not be overriden directly, use `_postRelayedCall` instead.     * * Requirements:     * - the caller must be the `RelayHub` contract."
      },
      "preRelayedCall(bytes)": {
        "details": "See `IRelayRecipient.preRelayedCall`.     * This function should not be overriden directly, use `_preRelayedCall` instead.     * * Requirements:     * - the caller must be the `RelayHub` contract."
      },
      "publicApprove(address,bytes32,uint256)": {
        "details": "Approve a registry to spend up to a number of tokens, for a particular proof",
        "params": {
          "_proofHash": "- hash of the proof which is being approved to result in the spending of tokens",
          "_registryOwner": "- address that is being approved to spend the tokens",
          "_value": "- numer of tokens spending is approved up to"
        }
      },
      "registerAZTECExtension(address,address,bytes,bytes,bytes)": {
        "details": "Registers a linkedPublicKey to an Ethereum address, if a valid signature is provided or the sender is the ethereum address in question",
        "params": {
          "_account": "- address to which the linkedPublicKey is being registered",
          "_linkedPublicKey": "- an additional public key which the sender wishes to link to the _account",
          "_signature": "- an EIP712 compatible signature of the account & linkedPublicKey",
          "_spendingPublicKey": "- the Ethereum public key associated with the Ethereum address"
        }
      },
      "relayHubVersion()": {
        "details": "Returns the version string of the {IRelayHub} for which this recipient implementation was built. If {_upgradeRelayHub} is used, the new {IRelayHub} instance should be compatible with this version."
      }
    }
  },
  "userdoc": {
    "methods": {},
    "notice": "Copyright 2020 Spilsbury Holdings Ltd  * Licensed under the GNU Lesser General Public Licence, Version 3.0 (the \"License\"); you may not use this file except in compliance with the License. * This program is distributed in the hope that it will be useful, but WITHOUT ANY WARRANTY; without even the implied warranty of MERCHANTABILITY or FITNESS FOR A PARTICULAR PURPOSE.  See the GNU Lesser General Public License for more details. * You should have received a copy of the GNU Lesser General Public License along with this program.  If not, see <https://www.gnu.org/licenses/>.*"
  }
}