{
  "contractName": "TestBehaviourEpoch",
  "abi": [
    {
      "anonymous": false,
      "inputs": [
        {
          "indexed": false,
          "internalType": "address",
          "name": "accountAddress",
          "type": "address"
        },
        {
          "indexed": false,
          "internalType": "address",
          "name": "signerAddress",
          "type": "address"
        }
      ],
      "name": "Addresses",
      "type": "event"
    },
    {
      "anonymous": false,
      "inputs": [
        {
          "indexed": true,
          "internalType": "bytes32",
          "name": "signatureHash",
          "type": "bytes32"
        },
        {
          "indexed": true,
          "internalType": "bool",
          "name": "success",
          "type": "bool"
        },
        {
          "indexed": false,
          "internalType": "uint256",
          "name": "actualCharge",
          "type": "uint256"
        }
      ],
      "name": "GSNTransactionProcessed",
      "type": "event"
    },
    {
      "anonymous": false,
      "inputs": [
        {
          "indexed": true,
          "internalType": "address",
          "name": "account",
          "type": "address"
        },
        {
          "indexed": false,
          "internalType": "bytes",
          "name": "linkedPublicKey",
          "type": "bytes"
        },
        {
          "indexed": false,
          "internalType": "bytes",
          "name": "spendingPublicKey",
          "type": "bytes"
        }
      ],
      "name": "RegisterExtension",
      "type": "event"
    },
    {
      "anonymous": false,
      "inputs": [
        {
          "indexed": true,
          "internalType": "address",
          "name": "oldRelayHub",
          "type": "address"
        },
        {
          "indexed": true,
          "internalType": "address",
          "name": "newRelayHub",
          "type": "address"
        }
      ],
      "name": "RelayHubChanged",
      "type": "event"
    },
    {
      "constant": true,
      "inputs": [],
      "name": "BURN_PROOF",
      "outputs": [
        {
          "internalType": "uint24",
          "name": "",
          "type": "uint24"
        }
      ],
      "payable": false,
      "stateMutability": "view",
      "type": "function"
    },
    {
      "constant": true,
      "inputs": [],
      "name": "DIVIDEND_PROOF",
      "outputs": [
        {
          "internalType": "uint24",
          "name": "",
          "type": "uint24"
        }
      ],
      "payable": false,
      "stateMutability": "view",
      "type": "function"
    },
    {
      "constant": true,
      "inputs": [],
      "name": "EIP712_DOMAIN_HASH",
      "outputs": [
        {
          "internalType": "bytes32",
          "name": "",
          "type": "bytes32"
        }
      ],
      "payable": false,
      "stateMutability": "view",
      "type": "function"
    },
    {
      "constant": true,
      "inputs": [],
      "name": "JOIN_SPLIT_PROOF",
      "outputs": [
        {
          "internalType": "uint24",
          "name": "",
          "type": "uint24"
        }
      ],
      "payable": false,
      "stateMutability": "view",
      "type": "function"
    },
    {
      "constant": true,
      "inputs": [],
      "name": "MINT_PROOF",
      "outputs": [
        {
          "internalType": "uint24",
          "name": "",
          "type": "uint24"
        }
      ],
      "payable": false,
      "stateMutability": "view",
      "type": "function"
    },
    {
      "constant": true,
      "inputs": [],
      "name": "PRIVATE_RANGE_PROOF",
      "outputs": [
        {
          "internalType": "uint24",
          "name": "",
          "type": "uint24"
        }
      ],
      "payable": false,
      "stateMutability": "view",
      "type": "function"
    },
    {
      "constant": true,
      "inputs": [],
      "name": "PUBLIC_RANGE_PROOF",
      "outputs": [
        {
          "internalType": "uint24",
          "name": "",
          "type": "uint24"
        }
      ],
      "payable": false,
      "stateMutability": "view",
      "type": "function"
    },
    {
      "constant": true,
      "inputs": [
        {
          "internalType": "address",
          "name": "relay",
          "type": "address"
        },
        {
          "internalType": "address",
          "name": "from",
          "type": "address"
        },
        {
          "internalType": "bytes",
          "name": "encodedFunction",
          "type": "bytes"
        },
        {
          "internalType": "uint256",
          "name": "transactionFee",
          "type": "uint256"
        },
        {
          "internalType": "uint256",
          "name": "gasPrice",
          "type": "uint256"
        },
        {
          "internalType": "uint256",
          "name": "gasLimit",
          "type": "uint256"
        },
        {
          "internalType": "uint256",
          "name": "nonce",
          "type": "uint256"
        },
        {
          "internalType": "bytes",
          "name": "approvalData",
          "type": "bytes"
        },
        {
          "internalType": "uint256",
          "name": "",
          "type": "uint256"
        }
      ],
      "name": "acceptRelayedCall",
      "outputs": [
        {
          "internalType": "uint256",
          "name": "",
          "type": "uint256"
        },
        {
          "internalType": "bytes",
          "name": "context",
          "type": "bytes"
        }
      ],
      "payable": false,
      "stateMutability": "view",
      "type": "function"
    },
    {
      "constant": true,
      "inputs": [
        {
          "internalType": "address",
          "name": "",
          "type": "address"
        }
      ],
      "name": "accountMapping",
      "outputs": [
        {
          "internalType": "bytes",
          "name": "",
          "type": "bytes"
        }
      ],
      "payable": false,
      "stateMutability": "view",
      "type": "function"
    },
    {
      "constant": false,
      "inputs": [
        {
          "internalType": "uint24",
          "name": "_proofId",
          "type": "uint24"
        },
        {
          "internalType": "address",
          "name": "_registryOwner",
          "type": "address"
        },
        {
          "internalType": "bytes",
          "name": "_proofData",
          "type": "bytes"
        },
        {
          "internalType": "address",
          "name": "_spender",
          "type": "address"
        },
        {
          "internalType": "bytes",
          "name": "_proofSignature",
          "type": "bytes"
        }
      ],
      "name": "confidentialTransferFrom",
      "outputs": [],
      "payable": false,
      "stateMutability": "nonpayable",
      "type": "function"
    },
    {
      "constant": false,
      "inputs": [
        {
          "internalType": "address",
          "name": "_registryOwner",
          "type": "address"
        },
        {
          "internalType": "address",
          "name": "_owner",
          "type": "address"
        },
        {
          "internalType": "bytes32",
          "name": "_proofHash",
          "type": "bytes32"
        },
        {
          "internalType": "bytes",
          "name": "_proofData",
          "type": "bytes"
        },
        {
          "internalType": "uint256",
          "name": "_value",
          "type": "uint256"
        }
      ],
      "name": "deposit",
      "outputs": [],
      "payable": false,
      "stateMutability": "nonpayable",
      "type": "function"
    },
    {
      "constant": true,
      "inputs": [],
      "name": "epoch",
      "outputs": [
        {
          "internalType": "uint256",
          "name": "",
          "type": "uint256"
        }
      ],
      "payable": false,
      "stateMutability": "view",
      "type": "function"
    },
    {
      "constant": true,
      "inputs": [],
      "name": "getHubAddr",
      "outputs": [
        {
          "internalType": "address",
          "name": "",
          "type": "address"
        }
      ],
      "payable": false,
      "stateMutability": "view",
      "type": "function"
    },
    {
      "constant": false,
      "inputs": [
        {
          "internalType": "address",
          "name": "_aceAddress",
          "type": "address"
        },
        {
          "internalType": "address",
          "name": "_trustedGSNSignerAddress",
          "type": "address"
        }
      ],
      "name": "initialize",
      "outputs": [],
      "payable": false,
      "stateMutability": "nonpayable",
      "type": "function"
    },
    {
      "constant": false,
      "inputs": [],
      "name": "initialize",
      "outputs": [],
      "payable": false,
      "stateMutability": "nonpayable",
      "type": "function"
    },
    {
      "constant": false,
      "inputs": [
        {
          "internalType": "bytes",
          "name": "context",
          "type": "bytes"
        },
        {
          "internalType": "bool",
          "name": "success",
          "type": "bool"
        },
        {
          "internalType": "uint256",
          "name": "actualCharge",
          "type": "uint256"
        },
        {
          "internalType": "bytes32",
          "name": "preRetVal",
          "type": "bytes32"
        }
      ],
      "name": "postRelayedCall",
      "outputs": [],
      "payable": false,
      "stateMutability": "nonpayable",
      "type": "function"
    },
    {
      "constant": false,
      "inputs": [
        {
          "internalType": "bytes",
          "name": "context",
          "type": "bytes"
        }
      ],
      "name": "preRelayedCall",
      "outputs": [
        {
          "internalType": "bytes32",
          "name": "",
          "type": "bytes32"
        }
      ],
      "payable": false,
      "stateMutability": "nonpayable",
      "type": "function"
    },
    {
      "constant": false,
      "inputs": [
        {
          "internalType": "address",
          "name": "_registryOwner",
          "type": "address"
        },
        {
          "internalType": "bytes32",
          "name": "_proofHash",
          "type": "bytes32"
        },
        {
          "internalType": "uint256",
          "name": "_value",
          "type": "uint256"
        }
      ],
      "name": "publicApprove",
      "outputs": [],
      "payable": false,
      "stateMutability": "nonpayable",
      "type": "function"
    },
    {
      "constant": false,
      "inputs": [
        {
          "internalType": "address",
          "name": "_account",
          "type": "address"
        },
        {
          "internalType": "address",
          "name": "_AZTECaddress",
          "type": "address"
        },
        {
          "internalType": "bytes",
          "name": "_linkedPublicKey",
          "type": "bytes"
        },
        {
          "internalType": "bytes",
          "name": "_spendingPublicKey",
          "type": "bytes"
        },
        {
          "internalType": "bytes",
          "name": "_signature",
          "type": "bytes"
        }
      ],
      "name": "registerAZTECExtension",
      "outputs": [],
      "payable": false,
      "stateMutability": "nonpayable",
      "type": "function"
    },
    {
      "constant": true,
      "inputs": [],
      "name": "relayHubVersion",
      "outputs": [
        {
          "internalType": "string",
          "name": "",
          "type": "string"
        }
      ],
      "payable": false,
      "stateMutability": "view",
      "type": "function"
    },
    {
      "constant": false,
      "inputs": [],
      "name": "setDefaultRelayHub",
      "outputs": [],
      "payable": false,
      "stateMutability": "nonpayable",
      "type": "function"
    },
    {
      "constant": true,
      "inputs": [
        {
          "internalType": "bytes32",
          "name": "",
          "type": "bytes32"
        }
      ],
      "name": "signatureLog",
      "outputs": [
        {
          "internalType": "bool",
          "name": "",
          "type": "bool"
        }
      ],
      "payable": false,
      "stateMutability": "view",
      "type": "function"
    },
    {
      "constant": true,
      "inputs": [
        {
          "internalType": "address",
          "name": "",
          "type": "address"
        }
      ],
      "name": "userToAZTECAccountMapping",
      "outputs": [
        {
          "internalType": "address",
          "name": "",
          "type": "address"
        }
      ],
      "payable": false,
      "stateMutability": "view",
      "type": "function"
    },
    {
      "constant": true,
      "inputs": [],
      "name": "newFeature",
      "outputs": [
        {
          "internalType": "string",
          "name": "result",
          "type": "string"
        }
      ],
      "payable": false,
      "stateMutability": "pure",
      "type": "function"
    }
  ],
  "bytecode": "0x6301343aaa6036556000603b557f454950373132446f6d61696e280000000000000000000000000000000000000060a09081527f737472696e67206e616d652c000000000000000000000000000000000000000060ad527f737472696e672076657273696f6e2c000000000000000000000000000000000060b9527f6164647265737320766572696679696e67436f6e74726163740000000000000060c8527f290000000000000000000000000000000000000000000000000000000000000060e152604260808181529120601960e2527f415a5445435f43525950544f4752415048595f454e47494e4500000000000000610102526001610122527f3100000000000000000000000000000000000000000000000000000000000000610142526101829081527fc8066e2c715ce196630b273cd256d8959d5b9fefc55e9e6d999fb0f08bb7f75f6101a2527fc89efdaa54c0f20c7adf612882df0950f5a951637e0307cdcb4c672f298b8bc66101c252306101e252610162829052610202604052206035556129e6806101946000396000f3fe608060405234801561001057600080fd5b50600436106101575760003560e01c806383947ea0116100c3578063c52b2ff31161007c578063c52b2ff3146107ec578063df924625146108b2578063e06e0e22146108ba578063e0b28d2214610936578063e306f7791461095c578063e308d6ff1461096457610157565b806383947ea0146104985780638500e1f8146106055780638e526d9b1461060d578063900cf0cf14610615578063ad61ccd51461061d578063bb2fa91b1461062557610157565b80633d6bb32c116101155780633d6bb32c14610390578063485cc955146103d257806349518b281461040057806374e861d61461040857806380274db7146104105780638129fc1c1461049057610157565b80625bf7321461015c57806308ae900a1461017c57806309146c7c146101845780631220e2ff146101b557806318cb65e6146101bf578063274f020714610313575b600080fd5b610164610996565b6040805162ffffff9092168252519081900360200190f35b61016461099d565b6101a16004803603602081101561019a57600080fd5b50356109a4565b604080519115158252519081900360200190f35b6101bd6109b9565b005b6101bd600480360360a08110156101d557600080fd5b62ffffff823516916001600160a01b0360208201351691810190606081016040820135600160201b81111561020957600080fd5b82018360208201111561021b57600080fd5b803590602001918460018302840111600160201b8311171561023c57600080fd5b91908080601f01602080910402602001604051908101604052809392919081815260200183838082843760009201919091525092956001600160a01b03853516959094909350604081019250602001359050600160201b81111561029f57600080fd5b8201836020820111156102b157600080fd5b803590602001918460018302840111600160201b831117156102d257600080fd5b91908080601f0160208091040260200160405190810160405280939291908181526020018383808284376000920191909152509295506109d8945050505050565b61031b610dcd565b6040805160208082528351818301528351919283929083019185019080838360005b8381101561035557818101518382015260200161033d565b50505050905090810190601f1680156103825780820380516001836020036101000a031916815260200191505b509250505060405180910390f35b6103b6600480360360208110156103a657600080fd5b50356001600160a01b0316610df2565b604080516001600160a01b039092168252519081900360200190f35b6101bd600480360360408110156103e857600080fd5b506001600160a01b0381358116916020013516610e0d565b610164610ed5565b6103b6610edc565b61047e6004803603602081101561042657600080fd5b810190602081018135600160201b81111561044057600080fd5b82018360208201111561045257600080fd5b803590602001918460018302840111600160201b8311171561047357600080fd5b509092509050610eeb565b60408051918252519081900360200190f35b6101bd610f8c565b61058660048036036101208110156104af57600080fd5b6001600160a01b038235811692602081013590911691810190606081016040820135600160201b8111156104e257600080fd5b8201836020820111156104f457600080fd5b803590602001918460018302840111600160201b8311171561051557600080fd5b9193909282359260208101359260408201359260608301359260a081019060800135600160201b81111561054857600080fd5b82018360208201111561055a57600080fd5b803590602001918460018302840111600160201b8311171561057b57600080fd5b919350915035611046565b6040518083815260200180602001828103825283818151815260200191508051906020019080838360005b838110156105c95781810151838201526020016105b1565b50505050905090810190601f1680156105f65780820380516001836020036101000a031916815260200191505b50935050505060405180910390f35b6101646112c2565b6101646112c9565b61047e6112d0565b61031b6112d6565b6101bd600480360360a081101561063b57600080fd5b6001600160a01b038235811692602081013590911691810190606081016040820135600160201b81111561066e57600080fd5b82018360208201111561068057600080fd5b803590602001918460018302840111600160201b831117156106a157600080fd5b91908080601f0160208091040260200160405190810160405280939291908181526020018383808284376000920191909152509295949360208101935035915050600160201b8111156106f357600080fd5b82018360208201111561070557600080fd5b803590602001918460018302840111600160201b8311171561072657600080fd5b91908080601f0160208091040260200160405190810160405280939291908181526020018383808284376000920191909152509295949360208101935035915050600160201b81111561077857600080fd5b82018360208201111561078a57600080fd5b803590602001918460018302840111600160201b831117156107ab57600080fd5b91908080601f0160208091040260200160405190810160405280939291908181526020018383808284376000920191909152509295506112f5945050505050565b6101bd600480360360a081101561080257600080fd5b6001600160a01b03823581169260208101359091169160408201359190810190608081016060820135600160201b81111561083c57600080fd5b82018360208201111561084e57600080fd5b803590602001918460018302840111600160201b8311171561086f57600080fd5b91908080601f0160208091040260200160405190810160405280939291908181526020018383808284376000920191909152509295505091359250611684915050565b610164611c51565b6101bd600480360360808110156108d057600080fd5b810190602081018135600160201b8111156108ea57600080fd5b8201836020820111156108fc57600080fd5b803590602001918460018302840111600160201b8311171561091d57600080fd5b9193509150803515159060208101359060400135611c58565b61031b6004803603602081101561094c57600080fd5b50356001600160a01b0316611cfa565b61047e611d95565b6101bd6004803603606081101561097a57600080fd5b506001600160a01b038135169060208101359060400135611d9b565b6201010181565b6201040381565b60396020526000908152604090205460ff1681565b6109d673d216153c06e857cd7f72665e0af1d7d82172f494611e14565b565b603a5460405163a2866ea360e01b815262ffffff871660048201908152306024830181905260606044840181815288516064860152885191956001600160a01b03169463a2866ea3948c94938b93919260840190602085019080838360005b83811015610a4f578181015183820152602001610a37565b50505050905090810190601f168015610a7c5780820380516001836020036101000a031916815260200191505b50945050505050600060405180830381600087803b158015610a9d57600080fd5b505af1158015610ab1573d6000803e3d6000fd5b505050506040513d6000823e601f3d908101601f191682016040526020811015610ada57600080fd5b8101908080516040519392919084600160201b821115610af957600080fd5b908301906020820185811115610b0e57600080fd5b8251600160201b811182820188101715610b2757600080fd5b82525081516020918201929091019080838360005b83811015610b54578181015183820152602001610b3c565b50505050905090810190601f168015610b815780820380516001836020036101000a031916815260200191505b5060405250505090508151600014610ce357604051630530182d60e11b815262ffffff8716600482019081526001600160a01b03858116604484015260016064840181905260a060248501908152855160a48601528551928a1694630a60305a948c9488948b9490938b9392608482019160c40190602089019080838360005b83811015610c19578181015183820152602001610c01565b50505050905090810190601f168015610c465780820380516001836020036101000a031916815260200191505b50838103825284518152845160209182019186019080838360005b83811015610c79578181015183820152602001610c61565b50505050905090810190601f168015610ca65780820380516001836020036101000a031916815260200191505b50975050505050505050600060405180830381600087803b158015610cca57600080fd5b505af1158015610cde573d6000803e3d6000fd5b505050505b6001600160a01b03851663cdfea90e87610d0484600063ffffffff611f1416565b604080516001600160e01b031960e086901b16815262ffffff8416600482019081526024820192835283516044830152835190929160640190602085019080838360005b83811015610d60578181015183820152602001610d48565b50505050905090810190601f168015610d8d5780820380516001836020036101000a031916815260200191505b509350505050600060405180830381600087803b158015610dad57600080fd5b505af1158015610dc1573d6000803e3d6000fd5b50505050505050505050565b60408051808201909152600a8152696e65774665617475726560b01b60208201525b90565b6038602052600090815260409020546001600160a01b031681565b600054610100900460ff1680610e265750610e26611f6b565b80610e34575060005460ff16155b610e6f5760405162461bcd60e51b815260040180806020018281038252602e81526020018061286f602e913960400191505060405180910390fd5b600054610100900460ff16158015610e9a576000805460ff1961ff0019909116610100171660011790555b603a80546001600160a01b0319166001600160a01b038516179055610ebe82611f71565b8015610ed0576000805461ff00191690555b505050565b6201040281565b6033546001600160a01b031690565b6000610ef5610edc565b6001600160a01b0316336001600160a01b031614610f445760405162461bcd60e51b81526004018080602001828103825260248152602001806129246024913960400191505060405180910390fd5b610f8383838080601f01602080910402602001604051908101604052809392919081815260200183838082843760009201919091525061207c92505050565b90505b92915050565b600054610100900460ff1680610fa55750610fa5611f6b565b80610fb3575060005460ff16155b610fee5760405162461bcd60e51b815260040180806020018281038252602e81526020018061286f602e913960400191505060405180910390fd5b600054610100900460ff16158015611019576000805460ff1961ff0019909116610100171660011790555b6033546001600160a01b0316611031576110316109b9565b8015611043576000805461ff00191690555b50565b60006060600060608686604081101561105e57600080fd5b81359190810190604081016020820135600160201b81111561107f57600080fd5b82018360208201111561109157600080fd5b803590602001918460018302840111600160201b831117156110b257600080fd5b91908080601f016020809104026020016040519081016040528093929190818152602001838380828437600081840152601f19601f8201169050808301925050505050505091929192905050509150915060608f8f8f8f8f8f8f8f611115610edc565b308c604051602001808c6001600160a01b03166001600160a01b031660601b81526014018b6001600160a01b03166001600160a01b031660601b81526014018a8a808284379190910198895250506020808801969096526040808801959095526060808801949094526bffffffffffffffffffffffff1992841b83166080880152921b16609485015260a8808501919091528151808503909101815260c8840190915260e88301828152895161010885015289519198508997509550859450610128909201925085019080838360005b838110156111fd5781810151838201526020016111e5565b50505050905090810190601f16801561122a5780820380516001836020036101000a031916815260200191505b5060408051601f19818403018152919052603454855160208701209198506001600160a01b03169350611270925085915061126490612082565b9063ffffffff6120d316565b6001600160a01b031614156112a8578242111561129f5761129360015b856121b7565b945094505050506112b2565b611293846121c0565b611293600061128d565b9b509b9950505050505050505050565b6201040181565b6201020181565b603b5481565b6040805180820190915260058152640312e302e360dc1b602082015290565b6000816040516020018082805190602001908083835b6020831061132a5780518252601f19909201916020918201910161130b565b51815160209384036101000a60001901801990921691161790526040805192909401828103601f190183528452815191810191909120600081815260399092529290205491945050600160ff9091161515141591506113d29050576040805162461bcd60e51b815260206004820152601f60248201527f7369676e61747572652068617320616c7265616479206265656e207573656400604482015290519081900360640190fd5b6000818152603960209081526040808320805460ff1916600117905580516060810182526001600160a01b03808b168252928101889052918816908201526114239061141d906121c5565b846123c9565b845160208601209091506001600160a01b038881169116146114765760405162461bcd60e51b81526004018080602001828103825260218152602001806129036021913960400191505060405180910390fd5b806001600160a01b0316876001600160a01b0316146114dc576040805162461bcd60e51b815260206004820152601a60248201527f7369676e6572206d75737420626520746865206163636f756e74000000000000604482015290519081900360640190fd5b6001600160a01b03871660009081526037602090815260409091208651611505928801906126e8565b506001600160a01b0387811660008181526038602090815260409182902080546001600160a01b0319168b861617905581519283529284169282019290925281517f95a39d922be29576604d782638b30fccbff80d85c69a650415d8b560270ec9a0929181900390910190a1866001600160a01b03167f6943ea2c7fa944e0014e912e815bb331b63af36341f53622fce2f97d26a928e28686604051808060200180602001838103835285818151815260200191508051906020019080838360005b838110156115df5781810151838201526020016115c7565b50505050905090810190601f16801561160c5780820380516001836020036101000a031916815260200191505b50838103825284518152845160209182019186019080838360005b8381101561163f578181015183820152602001611627565b50505050905090810190601f16801561166c5780820380516001836020036101000a031916815260200191505b5094505050505060405180910390a250505050505050565b603a5460405163a2866ea360e01b81526201010160048201818152306024840181905260606044850181815288516064870152885191966001600160a01b03169563a2866ea395948a9390929160840190602085019080838360005b838110156116f85781810151838201526020016116e0565b50505050905090810190601f1680156117255780820380516001836020036101000a031916815260200191505b50945050505050600060405180830381600087803b15801561174657600080fd5b505af115801561175a573d6000803e3d6000fd5b505050506040513d6000823e601f3d908101601f19168201604052602081101561178357600080fd5b8101908080516040519392919084600160201b8211156117a257600080fd5b9083019060208201858111156117b757600080fd5b8251600160201b8111828201881017156117d057600080fd5b82525081516020918201929091019080838360005b838110156117fd5781810151838201526020016117e5565b50505050905090810190601f16801561182a5780820380516001836020036101000a031916815260200191505b50604052505050905061183b612511565b6001600160a01b0316856001600160a01b0316146119685761185b612511565b6001600160a01b0386811660009081526038602052604090205481169116146118b55760405162461bcd60e51b81526004018080602001828103825260368152602001806127816036913960400191505060405180910390fd5b60606118d06118cb83600063ffffffff611f1416565b61253c565b505091505060006118e082612566565b905060005b81811015611964576000611907611902858463ffffffff611f1416565b61256d565b50509050886001600160a01b0316816001600160a01b03161461195b5760405162461bcd60e51b81526004018080602001828103825260488152602001806127b76048913960600191505060405180910390fd5b506001016118e5565b5050505b603a5460408051633e5c75df60e21b81526001600160a01b0389811660048301529151600093929092169163f971d77c9160248082019261010092909190829003018186803b1580156119ba57600080fd5b505afa1580156119ce573d6000803e3d6000fd5b505050506040513d6101008110156119e557600080fd5b5051604080516323b872dd60e01b81526001600160a01b0389811660048301523060248301526044820187905291519293508392918316916323b872dd916064808201926020929091908290030181600087803b158015611a4557600080fd5b505af1158015611a59573d6000803e3d6000fd5b505050506040513d6020811015611a6f57600080fd5b5050603a546040805163095ea7b360e01b81526001600160a01b0392831660048201526024810187905290519183169163095ea7b3916044808201926020929091908290030181600087803b158015611ac757600080fd5b505af1158015611adb573d6000803e3d6000fd5b505050506040513d6020811015611af157600080fd5b5050603a546040805163e308d6ff60e01b81526001600160a01b038b81166004830152602482018a9052604482018890529151919092169163e308d6ff91606480830192600092919082900301818387803b158015611b4f57600080fd5b505af1158015611b63573d6000803e3d6000fd5b5050506001600160a01b038916905063cdfea90e62010101611b86866000611f14565b604080516001600160e01b031960e086901b16815262ffffff8416600482019081526024820192835283516044830152835190929160640190602085019080838360005b83811015611be2578181015183820152602001611bca565b50505050905090810190601f168015611c0f5780820380516001836020036101000a031916815260200191505b509350505050600060405180830381600087803b158015611c2f57600080fd5b505af1158015611c43573d6000803e3d6000fd5b505050505050505050505050565b6201030181565b611c60610edc565b6001600160a01b0316336001600160a01b031614611caf5760405162461bcd60e51b81526004018080602001828103825260248152602001806129246024913960400191505060405180910390fd5b611cf385858080601f01602080910402602001604051908101604052809392919081815260200183838082843760009201919091525087925086915085905061258b565b5050505050565b60376020908152600091825260409182902080548351601f600260001961010060018616150201909316929092049182018490048402810184019094528084529091830182828015611d8d5780601f10611d6257610100808354040283529160200191611d8d565b820191906000526020600020905b815481529060010190602001808311611d7057829003601f168201915b505050505081565b60355481565b603a546040805163e308d6ff60e01b81526001600160a01b03868116600483015260248201869052604482018590529151919092169163e308d6ff91606480830192600092919082900301818387803b158015611df757600080fd5b505af1158015611e0b573d6000803e3d6000fd5b50505050505050565b6033546001600160a01b03908116908216611e605760405162461bcd60e51b815260040180806020018281038252602e8152602001806127ff602e913960400191505060405180910390fd5b806001600160a01b0316826001600160a01b03161415611eb15760405162461bcd60e51b815260040180806020018281038252602d81526020018061289d602d913960400191505060405180910390fd5b816001600160a01b0316816001600160a01b03167fb9f84b8e65164b14439ae3620df0a4d8786d896996c0282b683f9d8c08f046e860405160405180910390a350603380546001600160a01b0319166001600160a01b0392909216919091179055565b602082810151908202830160400151830190821080611f645760405162461bcd60e51b81526004018080602001828103825260228152602001806129906022913960400191505060405180910390fd5b5092915050565b303b1590565b600054610100900460ff1680611f8a5750611f8a611f6b565b80611f98575060005460ff16155b611fd35760405162461bcd60e51b815260040180806020018281038252602e81526020018061286f602e913960400191505060405180910390fd5b600054610100900460ff16158015611ffe576000805460ff1961ff0019909116610100171660011790555b6001600160a01b0382166120435760405162461bcd60e51b81526004018080602001828103825260398152602001806128ca6039913960400191505060405180910390fd5b603480546001600160a01b0319166001600160a01b038416179055612066610f8c565b8015612078576000805461ff00191690555b5050565b50600090565b604080517f19457468657265756d205369676e6564204d6573736167653a0a333200000000602080830191909152603c8083019490945282518083039094018452605c909101909152815191012090565b600081516041146120e657506000610f86565b60208201516040830151606084015160001a6fa2a8918ca85bafe22016d0b997e4df60600160ff1b038211156121225760009350505050610f86565b8060ff16601b1415801561213a57508060ff16601c14155b1561214b5760009350505050610f86565b6040805160008152602080820180845289905260ff8416828401526060820186905260808201859052915160019260a0808401939192601f1981019281900390910190855afa1580156121a2573d6000803e3d6000fd5b5050604051601f190151979650505050505050565b600b9190910191565b600091565b60008060405180608001604052806042815260200161282d604291396040516020018082805190602001908083835b602083106122135780518252601f1990920191602091820191016121f4565b51815160001960209485036101000a0190811690199190911617905260408051601f19959093018381039590950183528481528251928201929092206e4163636f756e74526567697374727960881b8552825194859003600f018520601960f91b8652835195869003600101862086840192909252858401526060850152306080808601919091528251808603909101815260a085018084528151919092012061012085019092526048808252919650869550935091612948915060c001396040516020018082805190602001908083835b602083106123045780518252601f1990920191602091820191016122e5565b51815160209384036101000a60001901801990921691161790526040805192909401828103601f190183528085528251928201929092208a518b8301518051908401209b860151848401929092526001600160a01b0390811684870152606084019b909b52999099166080808301919091528351808303909101815260a0820184528051908a012061190160f01b60c083015260c282019690965260e28082019690965282518082039096018652610102019091525050815191909401209392505050565b6000808251848452606084015160408501518160f81c9150604086015160608701526020860151604087015281602087015260208660808860015afa601c8314601b84141760418514166fa2a8918ca85bafe22016d0b997e4df60600160ff1b03831016169350855187146000811461244157612446565b865195505b505050835280801561246057506001600160a01b03821615155b611f64576001600160a01b0382166124bf576040805162461bcd60e51b815260206004820152601a60248201527f7369676e657220616464726573732063616e6e6f742062652030000000000000604482015290519081900360640190fd5b80611f64576040805162461bcd60e51b815260206004820152601960248201527f7369676e6174757265207265636f76657279206661696c656400000000000000604482015290519081900360640190fd5b6033546000906001600160a01b0316331461252d575033610def565b61253561269b565b9050610def565b60208101516040820151606083015160808401519284019491909301926001600160a01b03169190565b6020015190565b604081015160608201516001600160a01b0390911692909160800190565b60608480602001905160208110156125a257600080fd5b8101908080516040519392919084600160201b8211156125c157600080fd5b9083019060208201858111156125d657600080fd5b8251600160201b8111828201881017156125ef57600080fd5b82525081516020918201929091019080838360005b8381101561261c578181015183820152602001612604565b50505050905090810190601f1680156126495780820380516001836020036101000a031916815260200191505b50604052505050905083151581805190602001207f2f708c980c8415108d54566eeeb78f5c2ddf6e1fab619607c30c001b127be075856040518082815260200191505060405180910390a35050505050565b600060606000368080601f0160208091040260200160405190810160405280939291908181526020018383808284376000920191909152505050503601516001600160a01b031692915050565b828054600181600116156101000203166002900490600052602060002090601f016020900481019282601f1061272957805160ff1916838001178555612756565b82800160010185558215612756579182015b8281111561275657825182559160200191906001019061273b565b50612762929150612766565b5090565b610def91905b80821115612762576000815560010161276c56fe53656e64657220686173206e6f207065726d697373696f6e20746f206465706f736974206f6e206f776e6572277320626568616c662e43616e6e6f74206465706f736974206e6f746520746f206f74686572206163636f756e742069662073656e646572206973206e6f74207468652073616d65206173206f776e65722e47534e526563697069656e743a206e65772052656c617948756220697320746865207a65726f2061646472657373454950373132446f6d61696e28737472696e67206e616d652c737472696e672076657273696f6e2c6164647265737320766572696679696e67436f6e747261637429436f6e747261637420696e7374616e63652068617320616c7265616479206265656e20696e697469616c697a656447534e526563697069656e743a206e65772052656c6179487562206973207468652063757272656e74206f6e6547534e526563697069656e745369676e61747572653a2074727573746564207369676e657220697320746865207a65726f20616464726573736164647265737320646f6573206e6f74206d61746368207075626c6963206b657947534e526563697069656e743a2063616c6c6572206973206e6f742052656c6179487562415a5445434163636f756e742861646472657373206163636f756e742c6279746573206c696e6b65645075626c69634b65792c6164647265737320415a5445436164647265737329415a54454320617272617920696e646578206973206f7574206f6620626f756e6473a265627a7a72315820dab7ef2387f711b7513f7aa07e1a829a4fcef24ebd4d5c233e3ff6c49b1ffabe64736f6c63430005110032",
  "source": "pragma solidity >=0.5.0 <0.6.0;\n\nimport \"../../../../AccountRegistry/epochs/20200106/Behaviour20200106.sol\";\n\n/**\n  * @title TestBehaviourEpoch\n  * @author AZTEC\n  * @dev Deploys a TestBehaviourEpoch. This deliberately has an incorrect epoch number - 1, rather than the \n  * correct value of 2. This is done to assist testing of the account registry versioning system.\n  *\n * Copyright 2020 Spilsbury Holdings Ltd \n *\n * Licensed under the GNU Lesser General Public Licence, Version 3.0 (the \"License\");\n * you may not use this file except in compliance with the License.\n *\n * This program is distributed in the hope that it will be useful,\n * but WITHOUT ANY WARRANTY; without even the implied warranty of\n * MERCHANTABILITY or FITNESS FOR A PARTICULAR PURPOSE.  See the\n * GNU Lesser General Public License for more details.\n *\n * You should have received a copy of the GNU Lesser General Public License\n * along with this program.  If not, see <https://www.gnu.org/licenses/>.\n**/\ncontract TestBehaviourEpoch is Behaviour20200106 {\n    uint256 public epoch = 0;\n\n    function newFeature() pure public returns (string memory result) {\n        result = 'newFeature';\n        return result;\n    }\n}\n",
  "sourcePath": "/Users/suleymankardas/Desktop/aztec/aztec-protocol/contracts/test/AccountRegistry/epochs/20200106/TestBehaviourEpoch.sol",
  "compiler": {
    "name": "solc",
    "version": "0.5.17+commit.d19bba13.Emscripten.clang"
  },
  "schemaVersion": "3.4.1",
  "updatedAt": "2022-03-28T14:36:05.553Z",
  "devdoc": {
    "author": "AZTEC",
    "details": "Deploys a TestBehaviourEpoch. This deliberately has an incorrect epoch number - 1, rather than the  correct value of 2. This is done to assist testing of the account registry versioning system. * Copyright 2020 Spilsbury Holdings Ltd  * Licensed under the GNU Lesser General Public Licence, Version 3.0 (the \"License\"); you may not use this file except in compliance with the License. * This program is distributed in the hope that it will be useful, but WITHOUT ANY WARRANTY; without even the implied warranty of MERCHANTABILITY or FITNESS FOR A PARTICULAR PURPOSE.  See the GNU Lesser General Public License for more details. * You should have received a copy of the GNU Lesser General Public License along with this program.  If not, see <https://www.gnu.org/licenses/>.*",
    "methods": {
      "acceptRelayedCall(address,address,bytes,uint256,uint256,uint256,uint256,bytes,uint256)": {
        "details": "Ensures that only transactions with a trusted signature can be relayed through the GSN."
      },
      "confidentialTransferFrom(uint24,address,bytes,address,bytes)": {
        "details": "Perform a confidential transfer, mediated by a smart contracrt",
        "params": {
          "_proofData": "- data generated from proof construction, which is used to validate the proof",
          "_proofId": "- uint24 proofId",
          "_proofSignature": "- EIP712 signature used to approve/revoke permission for the proof to be spent",
          "_registryOwner": "- address of the note registry owner",
          "_spender": "- address that will be spending the notes"
        }
      },
      "deposit(address,address,bytes32,bytes,uint256)": {
        "details": "Deposit ERC20 tokens into zero-knowledge notes in a transaction mediated via the GSN. Called by a user",
        "params": {
          "_owner": "- owner of the ERC20s being deposited",
          "_proofData": "- cryptographic data associated with the zero-knowledge proof",
          "_proofHash": "- hash of the zero-knowledge deposit proof",
          "_registryOwner": "- owner of the zkAsset",
          "_value": "- number of ERC20s being deposited"
        }
      },
      "getHubAddr()": {
        "details": "Returns the address of the {IRelayHub} contract for this recipient."
      },
      "initialize(address,address)": {
        "details": "Initialize the contract and set up it's state. An initialize function rather than a constructor is used to make this compatible with the upgradeability pattern",
        "params": {
          "_aceAddress": "- address of the AZTEC Cryptography Engine",
          "_trustedGSNSignerAddress": "- address which will produce signature to approve relayed GSN calls"
        }
      },
      "postRelayedCall(bytes,bool,uint256,bytes32)": {
        "details": "See `IRelayRecipient.postRelayedCall`.     * This function should not be overriden directly, use `_postRelayedCall` instead.     * * Requirements:     * - the caller must be the `RelayHub` contract."
      },
      "preRelayedCall(bytes)": {
        "details": "See `IRelayRecipient.preRelayedCall`.     * This function should not be overriden directly, use `_preRelayedCall` instead.     * * Requirements:     * - the caller must be the `RelayHub` contract."
      },
      "publicApprove(address,bytes32,uint256)": {
        "details": "Approve a registry to spend up to a number of tokens, for a particular proof",
        "params": {
          "_proofHash": "- hash of the proof which is being approved to result in the spending of tokens",
          "_registryOwner": "- address that is being approved to spend the tokens",
          "_value": "- numer of tokens spending is approved up to"
        }
      },
      "registerAZTECExtension(address,address,bytes,bytes,bytes)": {
        "details": "Registers a linkedPublicKey to an Ethereum address, if a valid signature is provided or the sender is the ethereum address in question",
        "params": {
          "_account": "- address to which the linkedPublicKey is being registered",
          "_linkedPublicKey": "- an additional public key which the sender wishes to link to the _account",
          "_signature": "- an EIP712 compatible signature of the account & linkedPublicKey",
          "_spendingPublicKey": "- the Ethereum public key associated with the Ethereum address"
        }
      },
      "relayHubVersion()": {
        "details": "Returns the version string of the {IRelayHub} for which this recipient implementation was built. If {_upgradeRelayHub} is used, the new {IRelayHub} instance should be compatible with this version."
      }
    },
    "title": "TestBehaviourEpoch"
  },
  "userdoc": {
    "methods": {}
  }
}