{
  "contractName": "ZkAssetOwnableTest",
  "abi": [
    {
      "constant": true,
      "inputs": [],
      "name": "zkAssetOwnable",
      "outputs": [
        {
          "internalType": "contract ZkAssetOwnable",
          "name": "",
          "type": "address"
        }
      ],
      "payable": false,
      "stateMutability": "view",
      "type": "function"
    },
    {
      "constant": false,
      "inputs": [
        {
          "internalType": "address",
          "name": "_zkAssetOwnableAddress",
          "type": "address"
        }
      ],
      "name": "setZkAssetOwnableAddress",
      "outputs": [],
      "payable": false,
      "stateMutability": "nonpayable",
      "type": "function"
    },
    {
      "constant": false,
      "inputs": [
        {
          "internalType": "uint24",
          "name": "_proof",
          "type": "uint24"
        },
        {
          "internalType": "bytes",
          "name": "_proofData",
          "type": "bytes"
        }
      ],
      "name": "callValidateProof",
      "outputs": [],
      "payable": false,
      "stateMutability": "nonpayable",
      "type": "function"
    },
    {
      "constant": false,
      "inputs": [
        {
          "internalType": "uint24",
          "name": "_proof",
          "type": "uint24"
        },
        {
          "internalType": "bytes",
          "name": "_proofOutput",
          "type": "bytes"
        }
      ],
      "name": "callConfidentialTransferFrom",
      "outputs": [],
      "payable": false,
      "stateMutability": "nonpayable",
      "type": "function"
    },
    {
      "constant": false,
      "inputs": [
        {
          "internalType": "uint24",
          "name": "_proof",
          "type": "uint24"
        },
        {
          "internalType": "bytes",
          "name": "_proofData",
          "type": "bytes"
        }
      ],
      "name": "callApproveAndTransferFrom",
      "outputs": [],
      "payable": false,
      "stateMutability": "nonpayable",
      "type": "function"
    },
    {
      "constant": false,
      "inputs": [
        {
          "internalType": "uint24",
          "name": "_proofId",
          "type": "uint24"
        },
        {
          "internalType": "bytes",
          "name": "_proofOutputs",
          "type": "bytes"
        },
        {
          "internalType": "address",
          "name": "_spender",
          "type": "address"
        },
        {
          "internalType": "bool",
          "name": "_approval",
          "type": "bool"
        },
        {
          "internalType": "bytes",
          "name": "_proofSignature",
          "type": "bytes"
        }
      ],
      "name": "callApproveProof",
      "outputs": [],
      "payable": false,
      "stateMutability": "nonpayable",
      "type": "function"
    }
  ],
  "bytecode": "0x608060405234801561001057600080fd5b50610cd3806100206000396000f3fe608060405234801561001057600080fd5b50600436106100625760003560e01c80630e3c6291146100675780634ae9711e146101195780634cd6460c1461013f5780635237c221146101ef57806362531fb91461029f578063f2e905d9146103eb575b600080fd5b6101176004803603604081101561007d57600080fd5b62ffffff8235169190810190604081016020820135600160201b8111156100a357600080fd5b8201836020820111156100b557600080fd5b803590602001918460018302840111600160201b831117156100d657600080fd5b91908080601f01602080910402602001604051908101604052809392919081815260200183838082843760009201919091525092955061040f945050505050565b005b6101176004803603602081101561012f57600080fd5b50356001600160a01b031661063b565b6101176004803603604081101561015557600080fd5b62ffffff8235169190810190604081016020820135600160201b81111561017b57600080fd5b82018360208201111561018d57600080fd5b803590602001918460018302840111600160201b831117156101ae57600080fd5b91908080601f01602080910402602001604051908101604052809392919081815260200183838082843760009201919091525092955061065d945050505050565b6101176004803603604081101561020557600080fd5b62ffffff8235169190810190604081016020820135600160201b81111561022b57600080fd5b82018360208201111561023d57600080fd5b803590602001918460018302840111600160201b8311171561025e57600080fd5b91908080601f016020809104026020016040519081016040528093929190818152602001838380828437600092019190915250929550610737945050505050565b610117600480360360a08110156102b557600080fd5b62ffffff8235169190810190604081016020820135600160201b8111156102db57600080fd5b8201836020820111156102ed57600080fd5b803590602001918460018302840111600160201b8311171561030e57600080fd5b91908080601f01602080910402602001604051908101604052809392919081815260200183838082843760009201919091525092956001600160a01b03853516956020860135151595919450925060608101915060400135600160201b81111561037757600080fd5b82018360208201111561038957600080fd5b803590602001918460018302840111600160201b831117156103aa57600080fd5b91908080601f016020809104026020016040519081016040528093929190818152602001838380828437600092019190915250929550610a68945050505050565b6103f3610bc7565b604080516001600160a01b039092168252519081900360200190f35b6000809054906101000a90046001600160a01b03166001600160a01b031663a5c8fa846040518163ffffffff1660e01b815260040160206040518083038186803b15801561045c57600080fd5b505afa158015610470573d6000803e3d6000fd5b505050506040513d602081101561048657600080fd5b505160405163a2866ea360e01b815262ffffff84166004820190815233602483018190526060604484019081528551606485015285516001600160a01b039095169463a2866ea394889488939092909160840190602085019080838360005b838110156104fd5781810151838201526020016104e5565b50505050905090810190601f16801561052a5780820380516001836020036101000a031916815260200191505b50945050505050600060405180830381600087803b15801561054b57600080fd5b505af115801561055f573d6000803e3d6000fd5b505050506040513d6000823e601f3d908101601f19168201604052602081101561058857600080fd5b8101908080516040519392919084600160201b8211156105a757600080fd5b9083019060208201858111156105bc57600080fd5b8251600160201b8111828201881017156105d557600080fd5b82525081516020918201929091019080838360005b838110156106025781810151838201526020016105ea565b50505050905090810190601f16801561062f5780820380516001836020036101000a031916815260200191505b50604052505050505050565b600080546001600160a01b0319166001600160a01b0392909216919091179055565b60008054604080516366ff548760e11b815262ffffff861660048201908152602482019283528551604483015285516001600160a01b039094169463cdfea90e9488948894909260649091019160208601918190849084905b838110156106ce5781810151838201526020016106b6565b50505050905090810190601f1680156106fb5780820380516001836020036101000a031916815260200191505b509350505050600060405180830381600087803b15801561071b57600080fd5b505af115801561072f573d6000803e3d6000fd5b505050505050565b600054604080516329723ea160e21b815290516060926001600160a01b03169163a5c8fa84916004808301926020929190829003018186803b15801561077c57600080fd5b505afa158015610790573d6000803e3d6000fd5b505050506040513d60208110156107a657600080fd5b505160405163a2866ea360e01b815262ffffff85166004820190815233602483018190526060604484019081528651606485015286516001600160a01b039095169463a2866ea394899489939092909160840190602085019080838360005b8381101561081d578181015183820152602001610805565b50505050905090810190601f16801561084a5780820380516001836020036101000a031916815260200191505b50945050505050600060405180830381600087803b15801561086b57600080fd5b505af115801561087f573d6000803e3d6000fd5b505050506040513d6000823e601f3d908101601f1916820160405260208110156108a857600080fd5b8101908080516040519392919084600160201b8211156108c757600080fd5b9083019060208201858111156108dc57600080fd5b8251600160201b8111828201881017156108f557600080fd5b82525081516020918201929091019080838360005b8381101561092257818101518382015260200161090a565b50505050905090810190601f16801561094f5780820380516001836020036101000a031916815260200191505b506040525091925060009150505b61096682610bd6565b811015610a6257606061097f838363ffffffff610bdd16565b9050606061098c82610c34565b5091925060009150505b61099f82610bd6565b811015610a4d5760006109c06109bb848463ffffffff610bdd16565b610c5e565b506000805460408051630f9560b560e11b81526004810185905230602482015260016044820152608060648201526084810184905290519395506001600160a01b039091169350631f2ac16a9260c4808301939282900301818387803b158015610a2957600080fd5b505af1158015610a3d573d6000803e3d6000fd5b5050505050600181019050610996565b50610a58868361065d565b505060010161095d565b50505050565b60008054604051630530182d60e11b815262ffffff8816600482019081526001600160a01b038781166044840152861515606484015260a060248401908152895160a485015289519190941694630a60305a948b948b948b948b948b949293608481019260c49091019160208a0191908190849084905b83811015610af7578181015183820152602001610adf565b50505050905090810190601f168015610b245780820380516001836020036101000a031916815260200191505b50838103825284518152845160209182019186019080838360005b83811015610b57578181015183820152602001610b3f565b50505050905090810190601f168015610b845780820380516001836020036101000a031916815260200191505b50975050505050505050600060405180830381600087803b158015610ba857600080fd5b505af1158015610bbc573d6000803e3d6000fd5b505050505050505050565b6000546001600160a01b031681565b6020015190565b602082810151908202830160400151830190821080610c2d5760405162461bcd60e51b8152600401808060200182810382526022815260200180610c7d6022913960400191505060405180910390fd5b5092915050565b60208101516040820151606083015160808401519284019491909301926001600160a01b03169190565b604081015160608201516001600160a01b039091169290916080019056fe415a54454320617272617920696e646578206973206f7574206f6620626f756e6473a265627a7a7231582043a0996d65ce7343d682b1b10754cc17456d62f12a8c3b069fe2492a6898571864736f6c63430005110032",
  "source": "pragma solidity >=0.5.0 <0.6.0;\n\nimport \"../../ERC1724/ZkAssetOwnable.sol\";\nimport \"../../libs/NoteUtils.sol\";\n\n/**\n * @title ZkAssetOwnableTest\n * @author AZTEC\n * @dev Used for testing purposes\n *\n * Copyright 2020 Spilsbury Holdings Ltd\n *\n * Licensed under the GNU Lesser General Public Licence, Version 3.0 (the \"License\");\n * you may not use this file except in compliance with the License.\n *\n * This program is distributed in the hope that it will be useful,\n * but WITHOUT ANY WARRANTY; without even the implied warranty of\n * MERCHANTABILITY or FITNESS FOR A PARTICULAR PURPOSE.  See the\n * GNU Lesser General Public License for more details.\n *\n * You should have received a copy of the GNU Lesser General Public License\n * along with this program.  If not, see <https://www.gnu.org/licenses/>.\n**/\ncontract ZkAssetOwnableTest {\n    using NoteUtils for bytes;\n\n    ZkAssetOwnable public zkAssetOwnable;\n\n    function setZkAssetOwnableAddress(address _zkAssetOwnableAddress) public {\n        zkAssetOwnable = ZkAssetOwnable(_zkAssetOwnableAddress);\n    }\n\n    function callValidateProof(uint24 _proof, bytes memory _proofData) public {\n        zkAssetOwnable.ace().validateProof(_proof, msg.sender, _proofData);\n    }\n\n    function callConfidentialTransferFrom(uint24 _proof, bytes memory _proofOutput) public {\n        // throws if no approval has been given\n        zkAssetOwnable.confidentialTransferFrom(_proof, _proofOutput);\n    }\n\n    function callApproveAndTransferFrom(uint24 _proof, bytes memory _proofData) public {\n        bytes memory proofOutputs = zkAssetOwnable.ace().validateProof(_proof, msg.sender, _proofData);\n\n        for (uint i = 0; i < proofOutputs.getLength(); i += 1) {\n            bytes memory proofOutput = proofOutputs.get(i);\n\n            (bytes memory inputNotes,,,) = proofOutput.extractProofOutput();\n            for (uint256 j = 0; j < inputNotes.getLength(); j += 1) {\n                (, bytes32 noteHash, ) = inputNotes.get(j).extractNote();\n                zkAssetOwnable.confidentialApprove(noteHash, address(this), true, '');\n            }\n            callConfidentialTransferFrom(_proof, proofOutput);\n        }\n    }\n\n    function callApproveProof(\n        uint24 _proofId,\n        bytes memory _proofOutputs,\n        address _spender,\n        bool _approval,\n        bytes memory _proofSignature\n    ) public {\n        zkAssetOwnable.approveProof(_proofId, _proofOutputs, _spender, _approval, _proofSignature);\n    }\n}\n",
  "sourcePath": "/Users/suleymankardas/Desktop/aztec/aztec-protocol/contracts/test/ERC1724/ZkAssetOwnableTest.sol",
  "compiler": {
    "name": "solc",
    "version": "0.5.17+commit.d19bba13.Emscripten.clang"
  },
  "schemaVersion": "3.4.1",
  "updatedAt": "2022-03-28T14:36:05.559Z",
  "devdoc": {
    "author": "AZTEC",
    "details": "Used for testing purposes * Copyright 2020 Spilsbury Holdings Ltd * Licensed under the GNU Lesser General Public Licence, Version 3.0 (the \"License\"); you may not use this file except in compliance with the License. * This program is distributed in the hope that it will be useful, but WITHOUT ANY WARRANTY; without even the implied warranty of MERCHANTABILITY or FITNESS FOR A PARTICULAR PURPOSE.  See the GNU Lesser General Public License for more details. * You should have received a copy of the GNU Lesser General Public License along with this program.  If not, see <https://www.gnu.org/licenses/>.*",
    "methods": {},
    "title": "ZkAssetOwnableTest"
  },
  "userdoc": {
    "methods": {}
  }
}