{
  "contractName": "ZkAssetEventsEmitterTest",
  "abi": [
    {
      "anonymous": false,
      "inputs": [
        {
          "indexed": true,
          "internalType": "address",
          "name": "addressApproved",
          "type": "address"
        },
        {
          "indexed": true,
          "internalType": "bytes32",
          "name": "noteHash",
          "type": "bytes32"
        }
      ],
      "name": "ApprovedAddress",
      "type": "event"
    },
    {
      "anonymous": false,
      "inputs": [
        {
          "indexed": true,
          "internalType": "address",
          "name": "owner",
          "type": "address"
        },
        {
          "indexed": true,
          "internalType": "bytes32",
          "name": "noteHash",
          "type": "bytes32"
        },
        {
          "indexed": false,
          "internalType": "bytes",
          "name": "metadata",
          "type": "bytes"
        }
      ],
      "name": "CreateNote",
      "type": "event"
    },
    {
      "anonymous": false,
      "inputs": [
        {
          "indexed": true,
          "internalType": "address",
          "name": "owner",
          "type": "address"
        },
        {
          "indexed": true,
          "internalType": "bytes32",
          "name": "noteHash",
          "type": "bytes32"
        },
        {
          "indexed": false,
          "internalType": "bytes",
          "name": "metadata",
          "type": "bytes"
        }
      ],
      "name": "DestroyNote",
      "type": "event"
    },
    {
      "anonymous": false,
      "inputs": [
        {
          "indexed": true,
          "internalType": "address",
          "name": "owner",
          "type": "address"
        },
        {
          "indexed": true,
          "internalType": "bytes32",
          "name": "noteHash",
          "type": "bytes32"
        },
        {
          "indexed": false,
          "internalType": "bytes",
          "name": "metadata",
          "type": "bytes"
        }
      ],
      "name": "UpdateNoteMetaData",
      "type": "event"
    },
    {
      "constant": true,
      "inputs": [],
      "name": "createdNotes",
      "outputs": [
        {
          "internalType": "uint256",
          "name": "",
          "type": "uint256"
        }
      ],
      "payable": false,
      "stateMutability": "view",
      "type": "function"
    },
    {
      "constant": false,
      "inputs": [
        {
          "internalType": "address",
          "name": "owner",
          "type": "address"
        },
        {
          "internalType": "bytes",
          "name": "metadata",
          "type": "bytes"
        },
        {
          "internalType": "uint256",
          "name": "count",
          "type": "uint256"
        }
      ],
      "name": "emitCreateNote",
      "outputs": [],
      "payable": false,
      "stateMutability": "nonpayable",
      "type": "function"
    },
    {
      "constant": false,
      "inputs": [
        {
          "internalType": "address",
          "name": "owner",
          "type": "address"
        },
        {
          "internalType": "bytes",
          "name": "metadata",
          "type": "bytes"
        },
        {
          "internalType": "uint256",
          "name": "noteIndex",
          "type": "uint256"
        }
      ],
      "name": "emitDestroyNote",
      "outputs": [],
      "payable": false,
      "stateMutability": "nonpayable",
      "type": "function"
    },
    {
      "constant": false,
      "inputs": [
        {
          "internalType": "address",
          "name": "owner",
          "type": "address"
        },
        {
          "internalType": "bytes",
          "name": "metadata",
          "type": "bytes"
        },
        {
          "internalType": "uint256",
          "name": "noteIndex",
          "type": "uint256"
        }
      ],
      "name": "emitUpdateNoteMetaData",
      "outputs": [],
      "payable": false,
      "stateMutability": "nonpayable",
      "type": "function"
    }
  ],
  "bytecode": "0x60806040526000805534801561001457600080fd5b5061055e806100246000396000f3fe608060405234801561001057600080fd5b506004361061004c5760003560e01c80635ad51d3d146100515780637e2838731461010b578063db92616c146101c3578063dc6e370b1461027b575b600080fd5b6101096004803603606081101561006757600080fd5b6001600160a01b03823516919081019060408101602082013564010000000081111561009257600080fd5b8201836020820111156100a457600080fd5b803590602001918460018302840111640100000000831117156100c657600080fd5b91908080601f0160208091040260200160405190810160405280939291908181526020018383808284376000920191909152509295505091359250610295915050565b005b6101096004803603606081101561012157600080fd5b6001600160a01b03823516919081019060408101602082013564010000000081111561014c57600080fd5b82018360208201111561015e57600080fd5b8035906020019184600183028401116401000000008311171561018057600080fd5b91908080601f0160208091040260200160405190810160405280939291908181526020018383808284376000920191909152509295505091359250610382915050565b610109600480360360608110156101d957600080fd5b6001600160a01b03823516919081019060408101602082013564010000000081111561020457600080fd5b82018360208201111561021657600080fd5b8035906020019184600183028401116401000000008311171561023857600080fd5b91908080601f016020809104026020016040519081016040528093929190818152602001838380828437600092019190915250929550509135925061044b915050565b6102836104f4565b60408051918252519081900360200190f35b6000548111156102d65760405162461bcd60e51b815260040180806020018281038252602f8152602001806104fb602f913960400191505060405180910390fd5b8060001b836001600160a01b03167febd4bb7b61198df63305dd538f077db9df9b14339d8a6221e301487770d79227846040518080602001828103825283818151815260200191508051906020019080838360005b8381101561034357818101518382015260200161032b565b50505050905090810190601f1680156103705780820380516001836020036101000a031916815260200191505b509250505060405180910390a3505050565b60005b818110156104455760008054600101808255604080516020808252875181830152875193946001600160a01b038a16947f5ffb3072e4515cf3bfae8b16be9dff6313cf7c313a0c26faafe6971d8c7585f1948a9493849391840192908601918190849084905b838110156104035781810151838201526020016103eb565b50505050905090810190601f1680156104305780820380516001836020036101000a031916815260200191505b509250505060405180910390a3600101610385565b50505050565b60005481111561048c5760405162461bcd60e51b815260040180806020018281038252602f8152602001806104fb602f913960400191505060405180910390fd5b604080516020808252845181830152845184936001600160a01b038816937fda392cb8aa0843e7e474e7bacfae355313fc4202094b3e81d2a488b5c05207bf93889391928392908301918501908083836000831561034357818101518382015260200161032b565b6000548156fe6e6f7465496e646578206d757374206265206c657373206f7220657175616c20746f20637265617465644e6f746573a265627a7a72315820b1e81fb0e8c13343bf3af723f8323f283b2c4dfc0e9b98b816fab64a6407f4d964736f6c63430005110032",
  "source": "pragma solidity >=0.5.0 <0.6.0;\n\n\n/**\n * @title ZkAssetEventsEmitterTest\n * @author AZTEC\n * @dev Used for testing purposes\n *\n * Copyright 2020 Spilsbury Holdings Ltd \n *\n * Licensed under the GNU Lesser General Public Licence, Version 3.0 (the \"License\");\n * you may not use this file except in compliance with the License.\n *\n * This program is distributed in the hope that it will be useful,\n * but WITHOUT ANY WARRANTY; without even the implied warranty of\n * MERCHANTABILITY or FITNESS FOR A PARTICULAR PURPOSE.  See the\n * GNU Lesser General Public License for more details.\n *\n * You should have received a copy of the GNU Lesser General Public License\n * along with this program.  If not, see <https://www.gnu.org/licenses/>.\n**/\ncontract ZkAssetEventsEmitterTest {\n\n    event ApprovedAddress(address indexed addressApproved, bytes32 indexed noteHash);\n    event CreateNote(address indexed owner, bytes32 indexed noteHash, bytes metadata);\n    event DestroyNote(address indexed owner, bytes32 indexed noteHash, bytes metadata);\n    event UpdateNoteMetaData(address indexed owner, bytes32 indexed noteHash, bytes metadata);\n\n\n    uint256 public createdNotes = 0;\n\n    function emitCreateNote(address owner, bytes memory metadata, uint256 count) public {\n        for (uint i = 0; i<count; i++) {\n            createdNotes++;\n            emit CreateNote(owner, bytes32(createdNotes), metadata);\n        }\n    }\n\n    function emitDestroyNote(address owner, bytes memory metadata, uint256 noteIndex) public {\n        require(noteIndex <= createdNotes, 'noteIndex must be less or equal to createdNotes');\n\n        emit DestroyNote(owner, bytes32(noteIndex), metadata);\n    }\n\n    function emitUpdateNoteMetaData(address owner, bytes memory metadata, uint256 noteIndex) public {\n        require(noteIndex <= createdNotes, 'noteIndex must be less or equal to createdNotes');\n\n        emit UpdateNoteMetaData(owner, bytes32(noteIndex), metadata);\n    }\n\n}\n",
  "sourcePath": "/Users/suleymankardas/Desktop/aztec/aztec-protocol/contracts/test/ERC1724/ZkAssetEventsEmitterTest.sol",
  "compiler": {
    "name": "solc",
    "version": "0.5.17+commit.d19bba13.Emscripten.clang"
  },
  "schemaVersion": "3.4.1",
  "updatedAt": "2022-03-28T14:36:05.555Z",
  "devdoc": {
    "author": "AZTEC",
    "details": "Used for testing purposes * Copyright 2020 Spilsbury Holdings Ltd  * Licensed under the GNU Lesser General Public Licence, Version 3.0 (the \"License\"); you may not use this file except in compliance with the License. * This program is distributed in the hope that it will be useful, but WITHOUT ANY WARRANTY; without even the implied warranty of MERCHANTABILITY or FITNESS FOR A PARTICULAR PURPOSE.  See the GNU Lesser General Public License for more details. * You should have received a copy of the GNU Lesser General Public License along with this program.  If not, see <https://www.gnu.org/licenses/>.*",
    "methods": {},
    "title": "ZkAssetEventsEmitterTest"
  },
  "userdoc": {
    "methods": {}
  }
}