{
  "contractName": "ZkAssetAdjustable",
  "abi": [
    {
      "inputs": [
        {
          "internalType": "address",
          "name": "_aceAddress",
          "type": "address"
        },
        {
          "internalType": "address",
          "name": "_linkedTokenAddress",
          "type": "address"
        },
        {
          "internalType": "uint256",
          "name": "_scalingFactor",
          "type": "uint256"
        },
        {
          "internalType": "uint24",
          "name": "_optionalMintProofId",
          "type": "uint24"
        },
        {
          "internalType": "bytes",
          "name": "_optionalInitialisationMint",
          "type": "bytes"
        }
      ],
      "payable": false,
      "stateMutability": "nonpayable",
      "type": "constructor"
    },
    {
      "anonymous": false,
      "inputs": [
        {
          "indexed": true,
          "internalType": "address",
          "name": "owner",
          "type": "address"
        },
        {
          "indexed": false,
          "internalType": "uint256",
          "name": "value",
          "type": "uint256"
        }
      ],
      "name": "ConvertTokens",
      "type": "event"
    },
    {
      "anonymous": false,
      "inputs": [
        {
          "indexed": true,
          "internalType": "address",
          "name": "owner",
          "type": "address"
        },
        {
          "indexed": true,
          "internalType": "bytes32",
          "name": "noteHash",
          "type": "bytes32"
        },
        {
          "indexed": false,
          "internalType": "bytes",
          "name": "metadata",
          "type": "bytes"
        }
      ],
      "name": "CreateNote",
      "type": "event"
    },
    {
      "anonymous": false,
      "inputs": [
        {
          "indexed": false,
          "internalType": "uint256",
          "name": "noteRegistryId",
          "type": "uint256"
        }
      ],
      "name": "CreateNoteRegistry",
      "type": "event"
    },
    {
      "anonymous": false,
      "inputs": [
        {
          "indexed": true,
          "internalType": "address",
          "name": "aceAddress",
          "type": "address"
        },
        {
          "indexed": true,
          "internalType": "address",
          "name": "linkedTokenAddress",
          "type": "address"
        },
        {
          "indexed": false,
          "internalType": "uint256",
          "name": "scalingFactor",
          "type": "uint256"
        },
        {
          "indexed": true,
          "internalType": "bool",
          "name": "_canAdjustSupply",
          "type": "bool"
        },
        {
          "indexed": false,
          "internalType": "bool",
          "name": "_canConvert",
          "type": "bool"
        }
      ],
      "name": "CreateZkAsset",
      "type": "event"
    },
    {
      "anonymous": false,
      "inputs": [
        {
          "indexed": true,
          "internalType": "address",
          "name": "owner",
          "type": "address"
        },
        {
          "indexed": true,
          "internalType": "bytes32",
          "name": "noteHash",
          "type": "bytes32"
        }
      ],
      "name": "DestroyNote",
      "type": "event"
    },
    {
      "anonymous": false,
      "inputs": [
        {
          "indexed": true,
          "internalType": "address",
          "name": "previousOwner",
          "type": "address"
        },
        {
          "indexed": true,
          "internalType": "address",
          "name": "newOwner",
          "type": "address"
        }
      ],
      "name": "OwnershipTransferred",
      "type": "event"
    },
    {
      "anonymous": false,
      "inputs": [
        {
          "indexed": true,
          "internalType": "address",
          "name": "owner",
          "type": "address"
        },
        {
          "indexed": false,
          "internalType": "uint256",
          "name": "value",
          "type": "uint256"
        }
      ],
      "name": "RedeemTokens",
      "type": "event"
    },
    {
      "anonymous": false,
      "inputs": [
        {
          "indexed": true,
          "internalType": "address",
          "name": "owner",
          "type": "address"
        },
        {
          "indexed": true,
          "internalType": "bytes32",
          "name": "noteHash",
          "type": "bytes32"
        },
        {
          "indexed": false,
          "internalType": "bytes",
          "name": "metadata",
          "type": "bytes"
        }
      ],
      "name": "UpdateNoteMetaData",
      "type": "event"
    },
    {
      "anonymous": false,
      "inputs": [
        {
          "indexed": false,
          "internalType": "bytes32",
          "name": "noteHash",
          "type": "bytes32"
        },
        {
          "indexed": false,
          "internalType": "bytes",
          "name": "noteData",
          "type": "bytes"
        }
      ],
      "name": "UpdateTotalBurned",
      "type": "event"
    },
    {
      "anonymous": false,
      "inputs": [
        {
          "indexed": false,
          "internalType": "bytes32",
          "name": "noteHash",
          "type": "bytes32"
        },
        {
          "indexed": false,
          "internalType": "bytes",
          "name": "metaData",
          "type": "bytes"
        }
      ],
      "name": "UpdateTotalMinted",
      "type": "event"
    },
    {
      "constant": true,
      "inputs": [],
      "name": "BURN_PROOF",
      "outputs": [
        {
          "internalType": "uint24",
          "name": "",
          "type": "uint24"
        }
      ],
      "payable": false,
      "stateMutability": "view",
      "type": "function"
    },
    {
      "constant": true,
      "inputs": [],
      "name": "DIVIDEND_PROOF",
      "outputs": [
        {
          "internalType": "uint24",
          "name": "",
          "type": "uint24"
        }
      ],
      "payable": false,
      "stateMutability": "view",
      "type": "function"
    },
    {
      "constant": true,
      "inputs": [],
      "name": "EIP712_DOMAIN_HASH",
      "outputs": [
        {
          "internalType": "bytes32",
          "name": "",
          "type": "bytes32"
        }
      ],
      "payable": false,
      "stateMutability": "view",
      "type": "function"
    },
    {
      "constant": true,
      "inputs": [],
      "name": "JOIN_SPLIT_PROOF",
      "outputs": [
        {
          "internalType": "uint24",
          "name": "",
          "type": "uint24"
        }
      ],
      "payable": false,
      "stateMutability": "view",
      "type": "function"
    },
    {
      "constant": true,
      "inputs": [],
      "name": "MINT_PROOF",
      "outputs": [
        {
          "internalType": "uint24",
          "name": "",
          "type": "uint24"
        }
      ],
      "payable": false,
      "stateMutability": "view",
      "type": "function"
    },
    {
      "constant": true,
      "inputs": [],
      "name": "PRIVATE_RANGE_PROOF",
      "outputs": [
        {
          "internalType": "uint24",
          "name": "",
          "type": "uint24"
        }
      ],
      "payable": false,
      "stateMutability": "view",
      "type": "function"
    },
    {
      "constant": true,
      "inputs": [],
      "name": "PUBLIC_RANGE_PROOF",
      "outputs": [
        {
          "internalType": "uint24",
          "name": "",
          "type": "uint24"
        }
      ],
      "payable": false,
      "stateMutability": "view",
      "type": "function"
    },
    {
      "constant": true,
      "inputs": [],
      "name": "ace",
      "outputs": [
        {
          "internalType": "contract IACE",
          "name": "",
          "type": "address"
        }
      ],
      "payable": false,
      "stateMutability": "view",
      "type": "function"
    },
    {
      "constant": false,
      "inputs": [
        {
          "internalType": "uint24",
          "name": "_proofId",
          "type": "uint24"
        },
        {
          "internalType": "bytes",
          "name": "_proofOutputs",
          "type": "bytes"
        },
        {
          "internalType": "address",
          "name": "_spender",
          "type": "address"
        },
        {
          "internalType": "bool",
          "name": "_approval",
          "type": "bool"
        },
        {
          "internalType": "bytes",
          "name": "_proofSignature",
          "type": "bytes"
        }
      ],
      "name": "approveProof",
      "outputs": [],
      "payable": false,
      "stateMutability": "nonpayable",
      "type": "function"
    },
    {
      "constant": false,
      "inputs": [
        {
          "internalType": "bytes32",
          "name": "_noteHash",
          "type": "bytes32"
        },
        {
          "internalType": "address",
          "name": "_spender",
          "type": "address"
        },
        {
          "internalType": "bool",
          "name": "_spenderApproval",
          "type": "bool"
        },
        {
          "internalType": "bytes",
          "name": "_signature",
          "type": "bytes"
        }
      ],
      "name": "confidentialApprove",
      "outputs": [],
      "payable": false,
      "stateMutability": "nonpayable",
      "type": "function"
    },
    {
      "constant": true,
      "inputs": [
        {
          "internalType": "bytes32",
          "name": "",
          "type": "bytes32"
        },
        {
          "internalType": "address",
          "name": "",
          "type": "address"
        }
      ],
      "name": "confidentialApproved",
      "outputs": [
        {
          "internalType": "bool",
          "name": "",
          "type": "bool"
        }
      ],
      "payable": false,
      "stateMutability": "view",
      "type": "function"
    },
    {
      "constant": false,
      "inputs": [
        {
          "internalType": "uint24",
          "name": "_proof",
          "type": "uint24"
        },
        {
          "internalType": "bytes",
          "name": "_proofData",
          "type": "bytes"
        }
      ],
      "name": "confidentialBurn",
      "outputs": [],
      "payable": false,
      "stateMutability": "nonpayable",
      "type": "function"
    },
    {
      "constant": false,
      "inputs": [
        {
          "internalType": "uint24",
          "name": "_proof",
          "type": "uint24"
        },
        {
          "internalType": "bytes",
          "name": "_proofData",
          "type": "bytes"
        }
      ],
      "name": "confidentialMint",
      "outputs": [],
      "payable": false,
      "stateMutability": "nonpayable",
      "type": "function"
    },
    {
      "constant": false,
      "inputs": [
        {
          "internalType": "uint24",
          "name": "_proofId",
          "type": "uint24"
        },
        {
          "internalType": "bytes",
          "name": "_proofData",
          "type": "bytes"
        },
        {
          "internalType": "bytes",
          "name": "_signatures",
          "type": "bytes"
        }
      ],
      "name": "confidentialTransfer",
      "outputs": [],
      "payable": false,
      "stateMutability": "nonpayable",
      "type": "function"
    },
    {
      "constant": false,
      "inputs": [
        {
          "internalType": "bytes",
          "name": "_proofData",
          "type": "bytes"
        },
        {
          "internalType": "bytes",
          "name": "_signatures",
          "type": "bytes"
        }
      ],
      "name": "confidentialTransfer",
      "outputs": [],
      "payable": false,
      "stateMutability": "nonpayable",
      "type": "function"
    },
    {
      "constant": false,
      "inputs": [
        {
          "internalType": "uint24",
          "name": "_proofId",
          "type": "uint24"
        },
        {
          "internalType": "bytes",
          "name": "_proofOutput",
          "type": "bytes"
        }
      ],
      "name": "confidentialTransferFrom",
      "outputs": [],
      "payable": false,
      "stateMutability": "nonpayable",
      "type": "function"
    },
    {
      "constant": true,
      "inputs": [],
      "name": "isOwner",
      "outputs": [
        {
          "internalType": "bool",
          "name": "",
          "type": "bool"
        }
      ],
      "payable": false,
      "stateMutability": "view",
      "type": "function"
    },
    {
      "constant": true,
      "inputs": [],
      "name": "linkedToken",
      "outputs": [
        {
          "internalType": "contract IERC20Mintable",
          "name": "",
          "type": "address"
        }
      ],
      "payable": false,
      "stateMutability": "view",
      "type": "function"
    },
    {
      "constant": true,
      "inputs": [
        {
          "internalType": "bytes32",
          "name": "",
          "type": "bytes32"
        }
      ],
      "name": "metaDataTimeLog",
      "outputs": [
        {
          "internalType": "uint256",
          "name": "",
          "type": "uint256"
        }
      ],
      "payable": false,
      "stateMutability": "view",
      "type": "function"
    },
    {
      "constant": true,
      "inputs": [
        {
          "internalType": "bytes32",
          "name": "",
          "type": "bytes32"
        }
      ],
      "name": "noteAccess",
      "outputs": [
        {
          "internalType": "uint256",
          "name": "",
          "type": "uint256"
        }
      ],
      "payable": false,
      "stateMutability": "view",
      "type": "function"
    },
    {
      "constant": true,
      "inputs": [],
      "name": "owner",
      "outputs": [
        {
          "internalType": "address",
          "name": "",
          "type": "address"
        }
      ],
      "payable": false,
      "stateMutability": "view",
      "type": "function"
    },
    {
      "constant": true,
      "inputs": [
        {
          "internalType": "uint8",
          "name": "",
          "type": "uint8"
        }
      ],
      "name": "proofs",
      "outputs": [
        {
          "internalType": "uint256",
          "name": "",
          "type": "uint256"
        }
      ],
      "payable": false,
      "stateMutability": "view",
      "type": "function"
    },
    {
      "constant": false,
      "inputs": [],
      "name": "renounceOwnership",
      "outputs": [],
      "payable": false,
      "stateMutability": "nonpayable",
      "type": "function"
    },
    {
      "constant": false,
      "inputs": [
        {
          "internalType": "uint8",
          "name": "_epoch",
          "type": "uint8"
        },
        {
          "internalType": "uint256",
          "name": "_proofs",
          "type": "uint256"
        }
      ],
      "name": "setProofs",
      "outputs": [],
      "payable": false,
      "stateMutability": "nonpayable",
      "type": "function"
    },
    {
      "constant": true,
      "inputs": [
        {
          "internalType": "bytes32",
          "name": "",
          "type": "bytes32"
        }
      ],
      "name": "signatureLog",
      "outputs": [
        {
          "internalType": "bool",
          "name": "",
          "type": "bool"
        }
      ],
      "payable": false,
      "stateMutability": "view",
      "type": "function"
    },
    {
      "constant": true,
      "inputs": [
        {
          "internalType": "uint24",
          "name": "_proof",
          "type": "uint24"
        }
      ],
      "name": "supportsProof",
      "outputs": [
        {
          "internalType": "bool",
          "name": "",
          "type": "bool"
        }
      ],
      "payable": false,
      "stateMutability": "view",
      "type": "function"
    },
    {
      "constant": false,
      "inputs": [
        {
          "internalType": "address",
          "name": "newOwner",
          "type": "address"
        }
      ],
      "name": "transferOwnership",
      "outputs": [],
      "payable": false,
      "stateMutability": "nonpayable",
      "type": "function"
    },
    {
      "constant": false,
      "inputs": [
        {
          "internalType": "bytes32",
          "name": "noteHash",
          "type": "bytes32"
        },
        {
          "internalType": "bytes",
          "name": "metaData",
          "type": "bytes"
        }
      ],
      "name": "updateNoteMetaData",
      "outputs": [],
      "payable": false,
      "stateMutability": "nonpayable",
      "type": "function"
    },
    {
      "constant": false,
      "inputs": [
        {
          "internalType": "uint24",
          "name": "_factoryId",
          "type": "uint24"
        }
      ],
      "name": "upgradeRegistryVersion",
      "outputs": [],
      "payable": false,
      "stateMutability": "nonpayable",
      "type": "function"
    }
  ],
  "bytecode": "0x60806040523480156200001157600080fd5b506040516200436338038062004363833981810160405260a08110156200003757600080fd5b81516020830151604080850151606086015160808701805193519597949692959194919392820192846401000000008211156200007357600080fd5b9083019060208201858111156200008957600080fd5b8251640100000000811182820188101715620000a457600080fd5b82525081516020918201929091019080838360005b83811015620000d3578181015183820152602001620000b9565b50505050905090810190601f168015620001015780820380516001836020036101000a031916815260200191505b5060408181527f454950373132446f6d61696e28000000000000000000000000000000000000006020808401919091527f737472696e67206e616d652c0000000000000000000000000000000000000000602d8401527f737472696e672076657273696f6e2c000000000000000000000000000000000060398401527f6164647265737320766572696679696e67436f6e74726163740000000000000060488401527f29000000000000000000000000000000000000000000000000000000000000006061840152815160428185030181526062840180845281519183019190912060a28501845260199091527f415a5445435f43525950544f4752415048595f454e47494e45000000000000006082909401939093528151808301835260018082527f3100000000000000000000000000000000000000000000000000000000000000918301919091528251808301949094527fc8066e2c715ce196630b273cd256d8959d5b9fefc55e9e6d999fb0f08bb7f75f84840152600080516020620042c38339815191526060850152306080808601919091528351808603909101815260a09094019092528251920191909120600090815589945088935087925084908490849084906001600160a01b03841615620002e1576001620002e4565b60005b604080517f454950373132446f6d61696e28000000000000000000000000000000000000006020808301919091527f737472696e67206e616d652c0000000000000000000000000000000000000000602d8301527f737472696e672076657273696f6e2c000000000000000000000000000000000060398301527f6164647265737320766572696679696e67436f6e74726163740000000000000060488301527f29000000000000000000000000000000000000000000000000000000000000006061830152825160428184030181526062830180855281519183019190912060a28401855260089091527f5a4b5f41535345540000000000000000000000000000000000000000000000006082909301929092528251808401845260018082527f3100000000000000000000000000000000000000000000000000000000000000918301919091528351808301939093527f34a1782c7b6da6ed013d1c63b38e9a7204574db51f6df9ff13aa1786590013fd83850152600080516020620042c38339815191526060840152306080808501919091528451808503909101815260a0840180865281519190930120600090815581546001600160a01b038c81166001600160a01b03199283161793849055600280548d83169316831790557fa5468ca20000000000000000000000000000000000000000000000000000000090945260a485015260c4840189905287151560e48501528515156101048501529351949550169263a5468ca2926101248084019391929182900301818387803b1580156200053057600080fd5b505af115801562000545573d6000803e3d6000fd5b5050604080518681528415156020820152815186151594506001600160a01b03808a1694508a16927fca576e79bcb5c4a0045d9d596a80c733c3997559f688f69e5c03bd737d885b86928290030190a450505050506000620005ac620006d060201b60201c565b600780546001600160a01b0319166001600160a01b038316908117909155604051919250906000907f8be0079c531659141344cd1fd0a4f28419497f9722a3daafe3b4186f6b6457e0908290a350601160086000600160009054906101000a90046001600160a01b03166001600160a01b0316639cb118bf6040518163ffffffff1660e01b815260040160206040518083038186803b1580156200064f57600080fd5b505afa15801562000664573d6000803e3d6000fd5b505050506040513d60208110156200067b57600080fd5b505160ff1681526020810191909152604001600020555050505062ffffff821615801590620006aa5750805115155b15620006c557620006c582826001600160e01b03620006d416565b505050505062000e3c565b3390565b620006e76001600160e01b0362000afb16565b6200075357604080517f08c379a000000000000000000000000000000000000000000000000000000000815260206004820181905260248201527f4f776e61626c653a2063616c6c6572206973206e6f7420746865206f776e6572604482015290519081900360640190fd5b8051620007c157604080517f08c379a000000000000000000000000000000000000000000000000000000000815260206004820152600d60248201527f70726f6f6620696e76616c696400000000000000000000000000000000000000604482015290519081900360640190fd5b6001546060906001600160a01b03166380037eeb8484620007ea6001600160e01b0362000b2c16565b6040518463ffffffff1660e01b8152600401808462ffffff1662ffffff16815260200180602001836001600160a01b03166001600160a01b03168152602001828103825284818151815260200191508051906020019080838360005b838110156200086057818101518382015260200162000846565b50505050905090810190601f1680156200088e5780820380516001836020036101000a031916815260200191505b50945050505050600060405180830381600087803b158015620008b057600080fd5b505af1158015620008c5573d6000803e3d6000fd5b505050506040513d6000823e601f3d908101601f191682016040526020811015620008ef57600080fd5b81019080805160405193929190846401000000008211156200091057600080fd5b9083019060208201858111156200092657600080fd5b82516401000000008111828201881017156200094157600080fd5b82525081516020918201929091019080838360005b838110156200097057818101518382015260200162000956565b50505050905090810190601f1680156200099e5780820380516001836020036101000a031916815260200191505b5060405250505090506060620009d9620009c860008462000b3b60201b620024641790919060201c565b62000bae60201b620024bb1760201c565b50509150506060620009ff620009c860018562000b3b60201b620024641790919060201c565b50509150506000606062000a3862000a2760008662000b3b60201b620024641790919060201c565b62000bd860201b62002bed1760201c565b925092505062000a4e8362000bf660201b60201c565b7f6bc2dccbfc40ed5201f2896c7bc80fa4529202979a6c4195e7c95548b7bdedcb82826040518083815260200180602001828103825283818151815260200191508051906020019080838360005b8381101562000ab657818101518382015260200162000a9c565b50505050905090810190601f16801562000ae45780820380516001836020036101000a031916815260200191505b50935050505060405180910390a150505050505050565b6007546000906001600160a01b031662000b1d6001600160e01b03620006d016565b6001600160a01b031614905090565b6007546001600160a01b031690565b60208281015190820283016040015183019082108062000ba7576040517f08c379a0000000000000000000000000000000000000000000000000000000008152600401808060200182810382526022815260200180620043416022913960400191505060405180910390fd5b5092915050565b60208101516040820151606083015160808401519284019491909301926001600160a01b03169190565b604081015160608201516001600160a01b0390911692909160800190565b60005b62000c0f8262000d2160201b62002be61760201c565b81101562000d1d57600080606062000c3a62000a27858762000b3b60201b620024641790919060201c565b9194509250905062000c55826001600160e01b0362000d2816565b62000c6a81836001600160e01b0362000d3b16565b81836001600160a01b03167f5ffb3072e4515cf3bfae8b16be9dff6313cf7c313a0c26faafe6971d8c7585f1836040518080602001828103825283818151815260200191508051906020019080838360005b8381101562000cd657818101518382015260200162000cbc565b50505050905090810190601f16801562000d045780820380516001836020036101000a031916815260200191505b509250505060405180910390a350505060010162000bf9565b5050565b6020015190565b6000908152600460205260409020429055565b815160e1830151606182111562000dcb5760005b8181101562000dc957600062000d71868362000dd160201b620031131760201c565b6040805160609290921b6001600160601b031916602080840191909152603480840189905282518085039091018152605490930182528251928101929092206000908152600590925290204290555060010162000d4f565b505b50505050565b602082810151908202830161010101519080831062000ba7576040517f08c379a000000000000000000000000000000000000000000000000000000000815260040180806020018281038252605e815260200180620042e3605e913960600191505060405180910390fd5b6134778062000e4c6000396000f3fe608060405234801561001057600080fd5b50600436106101ce5760003560e01c806376ae6bee1161010457806396988498116100a2578063df92462511610071578063df92462514610a0a578063e306f77914610a12578063ea12489f14610a1a578063f2fde38b14610a22576101ce565b8063969884981461080c578063985cd3b714610935578063a5c8fa8414610952578063cdfea90e1461095a576101ce565b80638500e1f8116100de5780638500e1f8146107d05780638da5cb5b146107d85780638e526d9b146107fc5780638f32d59b14610804576101ce565b806376ae6bee1461076b5780637f08dede1461079157806384a26fc8146107b3576101ce565b80631b50a074116101715780632e3b9a3b1161014b5780632e3b9a3b1461067e57806349518b2814610729578063715018a6146107315780637644811814610739576101ce565b80631b50a074146104ea5780631f2ac16a1461059a5780632140e0c51461065c576101ce565b806309146c7c116101ad57806309146c7c146103325780630a60305a146103635780630c1bcabc146104445780630f4a80fe146104be576101ce565b80625bf732146101d357806302d1fdc9146101f357806308ae900a1461032a575b600080fd5b6101db610a48565b6040805162ffffff9092168252519081900360200190f35b6103286004803603606081101561020957600080fd5b62ffffff8235169190810190604081016020820135600160201b81111561022f57600080fd5b82018360208201111561024157600080fd5b803590602001918460018302840111600160201b8311171561026257600080fd5b91908080601f0160208091040260200160405190810160405280939291908181526020018383808284376000920191909152509295949360208101935035915050600160201b8111156102b457600080fd5b8201836020820111156102c657600080fd5b803590602001918460018302840111600160201b831117156102e757600080fd5b91908080601f016020809104026020016040519081016040528093929190818152602001838380828437600092019190915250929550610a4f945050505050565b005b6101db610d65565b61034f6004803603602081101561034857600080fd5b5035610d6c565b604080519115158252519081900360200190f35b610328600480360360a081101561037957600080fd5b62ffffff8235169190810190604081016020820135600160201b81111561039f57600080fd5b8201836020820111156103b157600080fd5b803590602001918460018302840111600160201b831117156103d257600080fd5b919390926001600160a01b038335169260208101351515929190606081019060400135600160201b81111561040657600080fd5b82018360208201111561041857600080fd5b803590602001918460018302840111600160201b8311171561043957600080fd5b509092509050610d81565b6103286004803603604081101561045a57600080fd5b62ffffff8235169190810190604081016020820135600160201b81111561048057600080fd5b82018360208201111561049257600080fd5b803590602001918460018302840111600160201b831117156104b357600080fd5b5090925090506112c5565b61034f600480360360408110156104d457600080fd5b50803590602001356001600160a01b03166115f2565b6103286004803603604081101561050057600080fd5b62ffffff8235169190810190604081016020820135600160201b81111561052657600080fd5b82018360208201111561053857600080fd5b803590602001918460018302840111600160201b8311171561055957600080fd5b91908080601f016020809104026020016040519081016040528093929190818152602001838380828437600092019190915250929550611612945050505050565b610328600480360360808110156105b057600080fd5b8135916001600160a01b0360208201351691604082013515159190810190608081016060820135600160201b8111156105e857600080fd5b8201836020820111156105fa57600080fd5b803590602001918460018302840111600160201b8311171561061b57600080fd5b91908080601f016020809104026020016040519081016040528093929190818152602001838380828437600092019190915250929550611978945050505050565b6103286004803603602081101561067257600080fd5b503562ffffff16611c4a565b6103286004803603604081101561069457600080fd5b81359190810190604081016020820135600160201b8111156106b557600080fd5b8201836020820111156106c757600080fd5b803590602001918460018302840111600160201b831117156106e857600080fd5b91908080601f016020809104026020016040519081016040528093929190818152602001838380828437600092019190915250929550611cfd945050505050565b6101db611ef8565b610328611eff565b6107596004803603602081101561074f57600080fd5b503560ff16611f90565b60408051918252519081900360200190f35b6103286004803603604081101561078157600080fd5b5060ff8135169060200135611fa2565b61034f600480360360208110156107a757600080fd5b503562ffffff16611fff565b610759600480360360208110156107c957600080fd5b503561209b565b6101db6120ad565b6107e06120b4565b604080516001600160a01b039092168252519081900360200190f35b6101db6120c3565b61034f6120ca565b6103286004803603604081101561082257600080fd5b810190602081018135600160201b81111561083c57600080fd5b82018360208201111561084e57600080fd5b803590602001918460018302840111600160201b8311171561086f57600080fd5b91908080601f0160208091040260200160405190810160405280939291908181526020018383808284376000920191909152509295949360208101935035915050600160201b8111156108c157600080fd5b8201836020820111156108d357600080fd5b803590602001918460018302840111600160201b831117156108f457600080fd5b91908080601f0160208091040260200160405190810160405280939291908181526020018383808284376000920191909152509295506120f0945050505050565b6107596004803603602081101561094b57600080fd5b5035612102565b6107e0612114565b6103286004803603604081101561097057600080fd5b62ffffff8235169190810190604081016020820135600160201b81111561099657600080fd5b8201836020820111156109a857600080fd5b803590602001918460018302840111600160201b831117156109c957600080fd5b91908080601f016020809104026020016040519081016040528093929190818152602001838380828437600092019190915250929550612123945050505050565b6101db6123db565b6107596123e2565b6107e06123e8565b61032860048036036020811015610a3857600080fd5b50356001600160a01b03166123f7565b6201010181565b6000610a5a84611fff565b9050600181151514610ab3576040805162461bcd60e51b815260206004820152601e60248201527f65787065637465642070726f6f6620746f20626520737570706f727465640000604482015290519081900360640190fd5b6000610ac38562ffffff1661244a565b5091505060ff8116600114610b1f576040805162461bcd60e51b815260206004820152601c60248201527f74686973206973206e6f7420612062616c616e6365642070726f6f6600000000604482015290519081900360640190fd5b60015460405163a2866ea360e01b8152620101016004820181815233602484018190526060604485018181528a5160648701528a5191966001600160a01b03169563a2866ea395948c9390929160840190602085019080838360005b83811015610b93578181015183820152602001610b7b565b50505050905090810190601f168015610bc05780820380516001836020036101000a031916815260200191505b50945050505050600060405180830381600087803b158015610be157600080fd5b505af1158015610bf5573d6000803e3d6000fd5b505050506040513d6000823e601f3d908101601f191682016040526020811015610c1e57600080fd5b8101908080516040519392919084600160201b821115610c3d57600080fd5b908301906020820185811115610c5257600080fd5b8251600160201b811182820188101715610c6b57600080fd5b82525081516020918201929091019080838360005b83811015610c98578181015183820152602001610c80565b50505050905090810190601f168015610cc55780820380516001836020036101000a031916815260200191505b506040525050509050805160001415610d15576040805162461bcd60e51b815260206004820152600d60248201526c1c1c9bdbd9881a5b9d985b1a59609a1b604482015290519081900360640190fd5b6060610d2882600063ffffffff61246416565b90506000610d35826124bb565b93505050506000811315610d4c57610d4c816124e5565b610d5b6201010184888a612736565b5050505050505050565b6201040381565b60066020526000908152604090205460ff1681565b600082826040518083838082843760408051939091018390039092206000818152600660205292909220549195505060ff161515600114159250610e0f915050576040805162461bcd60e51b815260206004820152601f60248201527f7369676e61747572652068617320616c7265616479206265656e207573656400604482015290519081900360640190fd5b6000818152600660209081526040808320805460ff19166001179055805160808101909152604280825290916132d9908301396040516020018082805190602001908083835b60208310610e745780518252601f199092019160209182019101610e55565b51815160001960209485036101000a0190811690199190911617905260408051601f1995909301838103959095018352848152825192820192909220671692d7d054d4d15560c21b85528251948590036008018520603160f81b8652835195869003600101862086840192909252858401526060850152306080808601919091528251808603909101815260a0850183528051908201206e0a0e4dedecca6d2cedcc2e8eae4ca5608b1b60c086015271189e5d195ccccc881c1c9bdbd992185cda0b60721b60cf8601526f1859191c995cdcc81cdc195b99195c8b60821b60e18601526c189bdbdb08185c1c1c9bdd985b609a1b60f1860152602960f81b60fe860152825160df81870301815260ff9095019283905284519490910193909320929550600094508593508c91508b908083838082843760408051939091018390038320602080850198909852838201526001600160a01b038f1660608401528d15156080808501919091528151808503909101815260a08401825280519088012061190160f01b60c085015260c284019890985260e280840198909852805180840390980188526101028301808252885198880198909820610122601f8e01899004909802840188019091528b88529750600096611073968996509094508c93508b9283925001838280828437600092019190915250612a9492505050565b905060005b6110b78b8b8080601f016020809104026020016040519081016040528093929190818152602001838380828437600092019190915250612be692505050565b8110156112b7576060611109828d8d8080601f016020809104026020016040519081016040528093929190818152602001838380828437600092019190915250929392505063ffffffff612464169050565b90506060611116826124bb565b5091925060009150505b61112982612be6565b81101561127b57600061114a611145848463ffffffff61246416565b612bed565b5060015460408051637f6f713360e11b81523060048201526024810184905290519294506000935083926001600160a01b039092169163fedee26691604480820192608092909190829003018186803b1580156111a657600080fd5b505afa1580156111ba573d6000803e3d6000fd5b505050506040513d60808110156111d057600080fd5b5080516060909101519092509050600160ff8316146112205760405162461bcd60e51b81526004018080602001828103825260228152602001806132226022913960400191505060405180910390fd5b876001600160a01b0316816001600160a01b0316146112705760405162461bcd60e51b81526004018080602001828103825260268152602001806132926026913960400191505060405180910390fd5b505050600101611120565b5050805160209182012060009081526003825260408082206001600160a01b038d16835290925220805460ff1916891515179055600101611078565b505050505050505050505050565b6112cd6120ca565b61130c576040805162461bcd60e51b8152602060048201819052602482015260008051602061331b833981519152604482015290519081900360640190fd5b8061134e576040805162461bcd60e51b815260206004820152600d60248201526c1c1c9bdbd9881a5b9d985b1a59609a1b604482015290519081900360640190fd5b6001546060906001600160a01b031663d19287a685858561136d6120b4565b6040516001600160e01b031960e087901b16815262ffffff8516600482019081526001600160a01b0383166044830152606060248301908152606483018590529091608401858580828437600081840152601f19601f82011690508083019250505095505050505050600060405180830381600087803b1580156113f057600080fd5b505af1158015611404573d6000803e3d6000fd5b505050506040513d6000823e601f3d908101601f19168201604052602081101561142d57600080fd5b8101908080516040519392919084600160201b82111561144c57600080fd5b90830190602082018581111561146157600080fd5b8251600160201b81118282018810171561147a57600080fd5b82525081516020918201929091019080838360005b838110156114a757818101518382015260200161148f565b50505050905090810190601f1680156114d45780820380516001836020036101000a031916815260200191505b50604052505050905060606114fb6114f660008461246490919063ffffffff16565b6124bb565b505091505060606115196114f660018561246490919063ffffffff16565b50509150506000606061153961114560008661246490919063ffffffff16565b925092505061154783612c0b565b7fe7f58324ed760f269f5239f2065a9c0bd4e11261d24ba3cab2454d68efa7ac1982826040518083815260200180602001828103825283818151815260200191508051906020019080838360005b838110156115ad578181015183820152602001611595565b50505050905090810190601f1680156115da5780820380516001836020036101000a031916815260200191505b50935050505060405180910390a15050505050505050565b600360209081526000928352604080842090915290825290205460ff1681565b61161a6120ca565b611659576040805162461bcd60e51b8152602060048201819052602482015260008051602061331b833981519152604482015290519081900360640190fd5b805161169c576040805162461bcd60e51b815260206004820152600d60248201526c1c1c9bdbd9881a5b9d985b1a59609a1b604482015290519081900360640190fd5b6001546060906001600160a01b03166380037eeb84846116ba6120b4565b6040518463ffffffff1660e01b8152600401808462ffffff1662ffffff16815260200180602001836001600160a01b03166001600160a01b03168152602001828103825284818151815260200191508051906020019080838360005b8381101561172e578181015183820152602001611716565b50505050905090810190601f16801561175b5780820380516001836020036101000a031916815260200191505b50945050505050600060405180830381600087803b15801561177c57600080fd5b505af1158015611790573d6000803e3d6000fd5b505050506040513d6000823e601f3d908101601f1916820160405260208110156117b957600080fd5b8101908080516040519392919084600160201b8211156117d857600080fd5b9083019060208201858111156117ed57600080fd5b8251600160201b81118282018810171561180657600080fd5b82525081516020918201929091019080838360005b8381101561183357818101518382015260200161181b565b50505050905090810190601f1680156118605780820380516001836020036101000a031916815260200191505b50604052505050905060606118826114f660008461246490919063ffffffff16565b505091505060606118a06114f660018561246490919063ffffffff16565b5050915050600060606118c061114560008661246490919063ffffffff16565b92509250506118ce83612c7a565b7f6bc2dccbfc40ed5201f2896c7bc80fa4529202979a6c4195e7c95548b7bdedcb82826040518083815260200180602001828103825283818151815260200191508051906020019080838360005b8381101561193457818101518382015260200161191c565b50505050905090810190601f1680156119615780820380516001836020036101000a031916815260200191505b50935050505060405180910390a150505050505050565b60015460408051637f6f713360e11b81523060048201526024810187905290516000926001600160a01b03169163fedee266916044808301926080929190829003018186803b1580156119ca57600080fd5b505afa1580156119de573d6000803e3d6000fd5b505050506040513d60808110156119f457600080fd5b50519050600160ff821614611a3a5760405162461bcd60e51b81526004018080602001828103825260228152602001806132226022913960400191505060405180910390fd5b6000826040516020018082805190602001908083835b60208310611a6f5780518252601f199092019160209182019101611a50565b51815160209384036101000a60001901801990921691161790526040805192909401828103601f190183528452815191810191909120600081815260069092529290205491945050600160ff909116151514159150611b179050576040805162461bcd60e51b815260206004820152601f60248201527f7369676e61747572652068617320616c7265616479206265656e207573656400604482015290519081900360640190fd5b825115611b38576000818152600660205260409020805460ff191660011790555b604080516d09cdee8caa6d2cedcc2e8eae4ca560931b60208083019190915270189e5d195ccccc881b9bdd1952185cda0b607a1b602e8301526f1859191c995cdcc81cdc195b99195c8b60821b603f83015273189bdbdb081cdc195b99195c905c1c1c9bdd985b60621b604f830152602960f81b606383015282516044818403018152606483018452805190820120608483015260a482018990526001600160a01b03881660c483015286151560e480840191909152835180840390910181526101049092019092528051910120611c11818886612d6d565b5050506000938452506003602090815260408085206001600160a01b039490941685529290529120805460ff1916911515919091179055565b611c526120ca565b611c91576040805162461bcd60e51b8152602060048201819052602482015260008051602061331b833981519152604482015290519081900360640190fd5b6001546040805163216da75f60e21b815262ffffff8416600482015290516001600160a01b03909216916385b69d7c9160248082019260009290919082900301818387803b158015611ce257600080fd5b505af1158015611cf6573d6000803e3d6000fd5b5050505050565b60015460408051637f6f713360e11b815230600482015260248101859052905160009283926001600160a01b039091169163fedee26691604480820192608092909190829003018186803b158015611d5457600080fd5b505afa158015611d68573d6000803e3d6000fd5b505050506040513d6080811015611d7e57600080fd5b508051606091820151604080513390941b60208581019190915260348086018a90528251808703909101815260549095018252845194810194909420600089815260048652828120548282526005909652919091205492955090935091111580611df057506001600160a01b03821633145b8015611dff57508260ff166001145b611e3a5760405162461bcd60e51b815260040180806020018281038252603281526020018061333b6032913960400191505060405180910390fd5b611e448486612e6d565b611e4d85612ef6565b84826001600160a01b03167fda392cb8aa0843e7e474e7bacfae355313fc4202094b3e81d2a488b5c05207bf866040518080602001828103825283818151815260200191508051906020019080838360005b83811015611eb7578181015183820152602001611e9f565b50505050905090810190601f168015611ee45780820380516001836020036101000a031916815260200191505b509250505060405180910390a35050505050565b6201040281565b611f076120ca565b611f46576040805162461bcd60e51b8152602060048201819052602482015260008051602061331b833981519152604482015290519081900360640190fd5b6007546040516000916001600160a01b0316907f8be0079c531659141344cd1fd0a4f28419497f9722a3daafe3b4186f6b6457e0908390a3600780546001600160a01b0319169055565b60086020526000908152604090205481565b611faa6120ca565b611fe9576040805162461bcd60e51b8152602060048201819052602482015260008051602061331b833981519152604482015290519081900360640190fd5b60ff909116600090815260086020526040902055565b6000806000806120138562ffffff1661244a565b9194509250905060ff821660011461205c5760405162461bcd60e51b81526004018080602001828103825260288152602001806131fa6028913960400191505060405180910390fd5b600061207260ff8316600163ffffffff612f0916565b60ff94851660009081526008602052604090205494169390931c60019081161495945050505050565b60056020526000908152604090205481565b6201040181565b6007546001600160a01b031690565b6201020181565b6007546000906001600160a01b03166120e1612f5b565b6001600160a01b031614905090565b6120fe620101018383610a4f565b5050565b60046020526000908152604090205481565b6001546001600160a01b031681565b600061212e83611fff565b9050600181151514612187576040805162461bcd60e51b815260206004820152601e60248201527f65787065637465642070726f6f6620746f20626520737570706f727465640000604482015290519081900360640190fd5b606080600080612196866124bb565b935093509350935060006121a985612be6565b905060005b818110156122375760006121cb611145888463ffffffff61246416565b50600081815260036020908152604080832033845290915290205490925060ff161515600114905061222e5760405162461bcd60e51b81526004018080602001828103825260318152602001806133cb6031913960400191505060405180910390fd5b506001016121ae565b50600082131561224a5761224a826124e5565b600154604051634bbbcb6960e11b815262ffffff8a166004820190815233604483018190526060602484019081528b5160648501528b516001600160a01b039095169463977796d2948e948e94939092909160840190602086019080838360005b838110156122c35781810151838201526020016122ab565b50505050905090810190601f1680156122f05780820380516001836020036101000a031916815260200191505b50945050505050600060405180830381600087803b15801561231157600080fd5b505af1158015612325573d6000803e3d6000fd5b5050505061233285612c0b565b61233b84612c7a565b600082121561238957826001600160a01b03167ffed3b27b73d78d9d1f344bbbf25f7af35e0ac4d6cf8193604ce18082168e461a836000036040518082815260200191505060405180910390a25b6000821315610d5b576040805183815290516001600160a01b038516917f60213c45c34d8b94e495fd5871fdea7a7511f659e884ea25a0c8843b7f98bfad919081900360200190a25050505050505050565b6201030181565b60005481565b6002546001600160a01b031681565b6123ff6120ca565b61243e576040805162461bcd60e51b8152602060048201819052602482015260008051602061331b833981519152604482015290519081900360640190fd5b61244781612f5f565b50565b60ff62010000820481169261010083048216929190911690565b6020828101519082028301604001518301908210806124b45760405162461bcd60e51b81526004018080602001828103825260228152602001806134216022913960400191505060405180910390fd5b5092915050565b60208101516040820151606083015160808401519284019491909301926001600160a01b03169190565b60015460408051633e5c75df60e21b8152306004820152905160009283926001600160a01b039091169163f971d77c9160248082019261010092909190829003018186803b15801561253657600080fd5b505afa15801561254a573d6000803e3d6000fd5b505050506040513d61010081101561256157600080fd5b50602081015160809091015190925090508281101561273157600061258c848363ffffffff61300016565b6002549091506001600160a01b03166340c10f19306125b1848763ffffffff61304916565b6040518363ffffffff1660e01b815260040180836001600160a01b03166001600160a01b0316815260200182815260200192505050602060405180830381600087803b15801561260057600080fd5b505af1158015612614573d6000803e3d6000fd5b505050506040513d602081101561262a57600080fd5b50506002546001546001600160a01b039182169163095ea7b39116612655848763ffffffff61304916565b6040518363ffffffff1660e01b815260040180836001600160a01b03166001600160a01b0316815260200182815260200192505050602060405180830381600087803b1580156126a457600080fd5b505af11580156126b8573d6000803e3d6000fd5b505050506040513d60208110156126ce57600080fd5b505060015460408051630876a84160e31b81526004810184905290516001600160a01b03909216916343b542089160248082019260009290919082900301818387803b15801561271d57600080fd5b505af1158015610d5b573d6000803e3d6000fd5b505050565b604081015160005b61274785612be6565b811015612a8c576060612760868363ffffffff61246416565b600154604051634bbbcb6960e11b815262ffffff8a166004820190815230604483018190526060602484019081528551606485015285519596506001600160a01b039094169463977796d2948d94889492608490910190602086019080838360005b838110156127da5781810151838201526020016127c2565b50505050905090810190601f1680156128075780820380516001836020036101000a031916815260200191505b50945050505050600060405180830381600087803b15801561282857600080fd5b505af115801561283c573d6000803e3d6000fd5b5050505060608060008061284f856124bb565b9350935093509350600061286285612be6565b11156129d35760005b61287485612be6565b8110156129d15760606128878b836130a2565b9050600061289e611145888563ffffffff61246416565b509150506000604051602001808072094ded2dca6e0d8d2e8a6d2cedcc2e8eae4ca5606b1b815250601301806c1d5a5b9d0c8d081c1c9bdbd98b609a1b815250600d018070189e5d195ccccc881b9bdd1952185cda0b607a1b81525060110180711d5a5b9d0c8d4d8818da185b1b195b99d94b60721b815250601201806d30b2323932b9b99039b2b73232b960911b815250600e0180602960f81b8152506001019050604051602081830303815290604052805190602001208f838d33604051602001808681526020018562ffffff1662ffffff168152602001848152602001838152602001826001600160a01b03166001600160a01b03168152602001955050505050506040516020818303038152906040528051906020012090506129c6818385612d6d565b50505060010161286b565b505b6129dc84612c0b565b6129e583612c7a565b6000811215612a3357816001600160a01b03167ffed3b27b73d78d9d1f344bbbf25f7af35e0ac4d6cf8193604ce18082168e461a826000036040518082815260200191505060405180910390a25b6000811315612a7c576040805182815290516001600160a01b038416917f60213c45c34d8b94e495fd5871fdea7a7511f659e884ea25a0c8843b7f98bfad919081900360200190a25b505050505060018101905061273e565b505050505050565b6000808251848452606084015160408501518160f81c9150604086015160608701526020860151604087015281602087015260208660808860015afa601c8314601b84141760418514167f7fffffffffffffffffffffffffffffff5d576e7357a4501ddfe92f46681b20a08310161693508551871460008114612b1657612b1b565b865195505b5050508352808015612b3557506001600160a01b03821615155b6124b4576001600160a01b038216612b94576040805162461bcd60e51b815260206004820152601a60248201527f7369676e657220616464726573732063616e6e6f742062652030000000000000604482015290519081900360640190fd5b806124b4576040805162461bcd60e51b815260206004820152601960248201527f7369676e6174757265207265636f76657279206661696c656400000000000000604482015290519081900360640190fd5b6020015190565b604081015160608201516001600160a01b0390911692909160800190565b60005b612c1782612be6565b8110156120fe57600080612c34611145858563ffffffff61246416565b509150915080826001600160a01b03167f979308e20fbd28822c4526e85d528175e04e3ca0cf91c46301db34401a26a8c660405160405180910390a35050600101612c0e565b60005b612c8682612be6565b8110156120fe576000806060612ca5611145868663ffffffff61246416565b925092509250612cb482612ef6565b612cbe8183612e6d565b81836001600160a01b03167f5ffb3072e4515cf3bfae8b16be9dff6313cf7c313a0c26faafe6971d8c7585f1836040518080602001828103825283818151815260200191508051906020019080838360005b83811015612d28578181015183820152602001612d10565b50505050905090810190601f168015612d555780820380516001836020036101000a031916815260200191505b509250505060405180910390a3505050600101612c7d565b60015460408051637f6f713360e11b81523060048201526024810185905290516000926001600160a01b03169163fedee266916044808301926080929190829003018186803b158015612dbf57600080fd5b505afa158015612dd3573d6000803e3d6000fd5b505050506040513d6080811015612de957600080fd5b5060600151825190915060009015612e1a576000612e06866130f2565b9050612e128185612a94565b915050612e1d565b50335b816001600160a01b0316816001600160a01b031614611cf65760405162461bcd60e51b815260040180806020018281038252602881526020018061326a6028913960400191505060405180910390fd5b815160e18301516061821115612ef05760005b81811015611cf6576000612e948683613113565b6040805160609290921b6bffffffffffffffffffffffff19166020808401919091526034808401899052825180850390910181526054909301825282519281019290922060009081526005909252902042905550600101612e80565b50505050565b6000908152600460205260409020429055565b60008260ff168260ff161115612f505760405162461bcd60e51b81526004018080602001828103825260258152602001806133fc6025913960400191505060405180910390fd5b508082035b92915050565b3390565b6001600160a01b038116612fa45760405162461bcd60e51b81526004018080602001828103825260268152602001806132446026913960400191505060405180910390fd5b6007546040516001600160a01b038084169216907f8be0079c531659141344cd1fd0a4f28419497f9722a3daafe3b4186f6b6457e090600090a3600780546001600160a01b0319166001600160a01b0392909216919091179055565b600061304283836040518060400160405280601e81526020017f536166654d6174683a207375627472616374696f6e206f766572666c6f770000815250613162565b9392505050565b60008261305857506000612f55565b8282028284828161306557fe5b04146130425760405162461bcd60e51b81526004018080602001828103825260218152602001806132b86021913960400191505060405180910390fd5b60419081029190910160208181015160408084015193850151815193840192909252828101939093526001600160f81b031960f89190911b16606082015281518082039093018352606101905290565b60008054604080516119019093526020919091529182526042601e20915290565b60208281015190820283016101010151908083106124b45760405162461bcd60e51b815260040180806020018281038252605e81526020018061336d605e913960600191505060405180910390fd5b600081848411156131f15760405162461bcd60e51b81526004018080602001828103825283818151815260200191508051906020019080838360005b838110156131b657818101518382015260200161319e565b50505050905090810190601f1680156131e35780820380516001836020036101000a031916815260200191505b509250505060405180910390fd5b50505090039056fe74686973206173736574206f6e6c7920737570706f7274732062616c616e6365642070726f6f66736f6e6c7920756e7370656e74206e6f7465732063616e20626520617070726f7665644f776e61626c653a206e6577206f776e657220697320746865207a65726f2061646472657373746865206e6f7465206f776e657220646964206e6f74207369676e2074686973206d657373616765746865206e6f7465206f776e657220646964206e6f74207369676e20746869732070726f6f66536166654d6174683a206d756c7469706c69636174696f6e206f766572666c6f77454950373132446f6d61696e28737472696e67206e616d652c737472696e672076657273696f6e2c6164647265737320766572696679696e67436f6e7472616374294f776e61626c653a2063616c6c6572206973206e6f7420746865206f776e657263616c6c657220646f6573206e6f742068617665207065726d697373696f6e20746f20757064617465206d6574614461746161646472657373506f73206f7574206f6620626f756e6473202d2061646472657373506f73206d757374206265206c657373207468616e20746865206e756d626572206f662061646472657373657320746f20626520617070726f76656473656e64657220646f6573206e6f74206861766520617070726f76616c20746f207370656e6420696e707574206e6f746575696e7438207375622074726967676572656420696e746567657220756e646572666c6f77415a54454320617272617920696e646578206973206f7574206f6620626f756e6473a265627a7a7231582064189af2750a76748d0f889755e9ee7e9d173be7b04efc997a4fbacd84c96e6364736f6c63430005110032c89efdaa54c0f20c7adf612882df0950f5a951637e0307cdcb4c672f298b8bc661646472657373506f73206f7574206f6620626f756e6473202d2061646472657373506f73206d757374206265206c657373207468616e20746865206e756d626572206f662061646472657373657320746f20626520617070726f766564415a54454320617272617920696e646578206973206f7574206f6620626f756e6473",
  "source": "pragma solidity >=0.5.0 <0.6.0;\n\nimport \"./base/ZkAssetMintableBase.sol\";\nimport \"./base/ZkAssetBurnableBase.sol\";\n\n/**\n * @title ZkAssetAdjustable\n * @author AZTEC\n * @dev A contract defining the standard interface and behaviours of a mintable confidential asset.\n * The ownership values and transfer values are encrypted.\n *\n * Copyright 2020 Spilsbury Holdings Ltd \n *\n * Licensed under the GNU Lesser General Public Licence, Version 3.0 (the \"License\");\n * you may not use this file except in compliance with the License.\n *\n * This program is distributed in the hope that it will be useful,\n * but WITHOUT ANY WARRANTY; without even the implied warranty of\n * MERCHANTABILITY or FITNESS FOR A PARTICULAR PURPOSE.  See the\n * GNU Lesser General Public License for more details.\n *\n * You should have received a copy of the GNU Lesser General Public License\n * along with this program.  If not, see <https://www.gnu.org/licenses/>\n**/\ncontract ZkAssetAdjustable is ZkAssetMintableBase, ZkAssetBurnableBase {\n    constructor(\n        address _aceAddress,\n        address _linkedTokenAddress,\n        uint256 _scalingFactor,\n        uint24 _optionalMintProofId,\n        bytes memory _optionalInitialisationMint\n    ) public ZkAssetOwnableBase(\n        _aceAddress,\n        _linkedTokenAddress,\n        _scalingFactor,\n        true // canAdjustSupply\n    ) {\n        if (_optionalMintProofId != 0 && _optionalInitialisationMint.length != 0) {\n            confidentialMint(_optionalMintProofId, _optionalInitialisationMint);\n        }\n    }\n}\n\n",
  "sourcePath": "/Users/suleymankardas/Desktop/aztec/aztec-protocol/contracts/ERC1724/ZkAssetAdjustable.sol",
  "compiler": {
    "name": "solc",
    "version": "0.5.17+commit.d19bba13.Emscripten.clang"
  },
  "schemaVersion": "3.4.1",
  "updatedAt": "2022-03-28T15:00:31.185Z",
  "networkType": "ethereum",
  "devdoc": {
    "author": "AZTEC",
    "details": "A contract defining the standard interface and behaviours of a mintable confidential asset. The ownership values and transfer values are encrypted. * Copyright 2020 Spilsbury Holdings Ltd  * Licensed under the GNU Lesser General Public Licence, Version 3.0 (the \"License\"); you may not use this file except in compliance with the License. * This program is distributed in the hope that it will be useful, but WITHOUT ANY WARRANTY; without even the implied warranty of MERCHANTABILITY or FITNESS FOR A PARTICULAR PURPOSE.  See the GNU Lesser General Public License for more details. * You should have received a copy of the GNU Lesser General Public License along with this program.  If not, see <https://www.gnu.org/licenses/>*",
    "methods": {
      "approveProof(uint24,bytes,address,bool,bytes)": {
        "details": "Note owner can approve a third party address, such as a smart contract, to spend a proof on their behalf. This allows a batch approval of notes to be performed, rather than individually for each note via confidentialApprove().",
        "params": {
          "_proofId": "- id of proof to be approved. Needs to be a balanced proof.",
          "_proofOutputs": "- data of proof",
          "_proofSignature": "- ECDSA signature over the proof, approving it to be spent",
          "_spender": "- address being approved to spend the notes"
        }
      },
      "confidentialApprove(bytes32,address,bool,bytes)": {
        "details": "Note owner approving a third party, another address, to spend the note on owner's behalf. This is necessary to allow the confidentialTransferFrom() method to be called",
        "params": {
          "_noteHash": "- keccak256 hash of the note coordinates (gamma and sigma)",
          "_signature": "- ECDSA signature from the note owner that validates the confidentialApprove() instruction",
          "_spender": "- address being approved to spend the note",
          "_spenderApproval": "- defines whether the _spender address is being approved to spend the note, or if permission is being revoked. True if approved, false if not approved"
        }
      },
      "confidentialBurn(uint24,bytes)": {
        "details": "Executes a confidential burning procedure, dependent on the provided proofData being succesfully validated by the zero-knowledge validator",
        "params": {
          "_proof": "- uint24 variable which acts as a unique identifier for the proof which _proofOutput is being submitted. _proof contains three concatenated uint8 variables: 1) epoch number 2) category number 3) ID number for the proof",
          "_proofData": "- bytes array of proof data, outputted from a proof construction"
        }
      },
      "confidentialMint(uint24,bytes)": {
        "details": "Executes a confidential minting procedure, dependent on the provided proofData being succesfully validated by the zero-knowledge validator",
        "params": {
          "_proof": "- uint24 variable which acts as a unique identifier for the proof which _proofOutput is being submitted. _proof contains three concatenated uint8 variables: 1) epoch number 2) category number 3) ID number for the proof",
          "_proofData": "- bytes array of proof data, outputted from a proof construction"
        }
      },
      "confidentialTransfer(bytes,bytes)": {
        "details": "Executes a basic unilateral, confidential transfer of AZTEC notes adapted for use with a mintable ZkAsset.    * Will submit _proofData to the validateProof() function of the Cryptography Engine.    * If public value is being transferred out of the ACE, and the minted value is greater than ACE's token balance, then tokens will be minted from the linked ERC20 token using supplementTokens()    * Upon successfull verification, it will update note registry state - creating output notes and destroying input notes.",
        "params": {
          "_proofData": "bytes variable outputted from proof construction",
          "_signatures": "ECDSA signatures over all input notes involved in the confidentialTransfer()"
        }
      },
      "confidentialTransfer(uint24,bytes,bytes)": {
        "details": "Executes a basic unilateral, confidential transfer of AZTEC notes Will submit _proofData to the validateProof() function of the Cryptography Engine.    * Upon successfull verification, it will update note registry state - creating output notes and destroying input notes.",
        "params": {
          "_proofData": "- bytes variable outputted from a proof verification contract, representing transfer instructions for the ACE",
          "_proofId": "- id of proof to be validated. Needs to be a balanced proof.",
          "_signatures": "- array of the ECDSA signatures over all inputNotes"
        }
      },
      "confidentialTransferFrom(uint24,bytes)": {
        "details": "Executes a value transfer mediated by smart contracts. The method is supplied with transfer instructions represented by a bytes _proofOutput argument that was outputted from a proof verification contract. Adapted for use with a mintable ZkAsset. If public value is being transferred out of the ACE, and the minted value is greater than ACE's token balance, then tokens will be minted from the linked ERC20 token using supplementTokens()",
        "params": {
          "_proofId": "- uint24 variable which acts as a unique identifier for the proof which _proofOutput is being submitted. _proof contains three concatenated uint8 variables: 1) epoch number 2) category number 3) ID number for the proof",
          "_proofOutput": "- output of a zero-knowledge proof validation contract. Represents transfer instructions for the ACE"
        }
      },
      "isOwner()": {
        "details": "Returns true if the caller is the current owner."
      },
      "owner()": {
        "details": "Returns the address of the current owner."
      },
      "renounceOwnership()": {
        "details": "Leaves the contract without owner. It will not be possible to call `onlyOwner` functions anymore. Can only be called by the current owner.     * NOTE: Renouncing ownership will leave the contract without an owner, thereby removing any functionality that is only available to the owner."
      },
      "setProofs(uint8,uint256)": {
        "details": "Set which proofs this asset is able to listen to and validate",
        "params": {
          "_epoch": "epoch number to which the proof belongs",
          "_proofs": "proofs for which the asset will listen to"
        }
      },
      "supportsProof(uint24)": {
        "details": "Return whether the proof is supported or not by this asset. Note that we have    to subtract 1 from the proof id because the original representation is uint8,    but here that id is considered to be an exponent",
        "params": {
          "_proof": "- unique identifier specifying the proof to be checked as to whether it is                supported by the asset"
        },
        "return": "boolean defining whether the asset supports the proof specified by _proof input"
      },
      "transferOwnership(address)": {
        "details": "Transfers ownership of the contract to a new account (`newOwner`). Can only be called by the current owner."
      },
      "updateNoteMetaData(bytes32,bytes)": {
        "details": "Update the metadata of a note that already exists in storage.",
        "params": {
          "metaData": "- metadata to update the note with",
          "noteHash": "- hash of a note, used as a unique identifier for the note"
        }
      },
      "upgradeRegistryVersion(uint24)": {
        "details": "Upgrade the note registry of this asset, by pointing it to a new factory",
        "params": {
          "_factoryId": "- the ID of the factory which will supply the upgraded behaviour contracts"
        }
      }
    },
    "title": "ZkAssetAdjustable"
  },
  "userdoc": {
    "methods": {}
  }
}