{
  "contractName": "ZkAssetBurnable",
  "abi": [
    {
      "inputs": [
        {
          "internalType": "address",
          "name": "_aceAddress",
          "type": "address"
        },
        {
          "internalType": "address",
          "name": "_linkedTokenAddress",
          "type": "address"
        },
        {
          "internalType": "uint256",
          "name": "_scalingFactor",
          "type": "uint256"
        }
      ],
      "payable": false,
      "stateMutability": "nonpayable",
      "type": "constructor"
    },
    {
      "anonymous": false,
      "inputs": [
        {
          "indexed": true,
          "internalType": "address",
          "name": "owner",
          "type": "address"
        },
        {
          "indexed": false,
          "internalType": "uint256",
          "name": "value",
          "type": "uint256"
        }
      ],
      "name": "ConvertTokens",
      "type": "event"
    },
    {
      "anonymous": false,
      "inputs": [
        {
          "indexed": true,
          "internalType": "address",
          "name": "owner",
          "type": "address"
        },
        {
          "indexed": true,
          "internalType": "bytes32",
          "name": "noteHash",
          "type": "bytes32"
        },
        {
          "indexed": false,
          "internalType": "bytes",
          "name": "metadata",
          "type": "bytes"
        }
      ],
      "name": "CreateNote",
      "type": "event"
    },
    {
      "anonymous": false,
      "inputs": [
        {
          "indexed": false,
          "internalType": "uint256",
          "name": "noteRegistryId",
          "type": "uint256"
        }
      ],
      "name": "CreateNoteRegistry",
      "type": "event"
    },
    {
      "anonymous": false,
      "inputs": [
        {
          "indexed": true,
          "internalType": "address",
          "name": "aceAddress",
          "type": "address"
        },
        {
          "indexed": true,
          "internalType": "address",
          "name": "linkedTokenAddress",
          "type": "address"
        },
        {
          "indexed": false,
          "internalType": "uint256",
          "name": "scalingFactor",
          "type": "uint256"
        },
        {
          "indexed": true,
          "internalType": "bool",
          "name": "_canAdjustSupply",
          "type": "bool"
        },
        {
          "indexed": false,
          "internalType": "bool",
          "name": "_canConvert",
          "type": "bool"
        }
      ],
      "name": "CreateZkAsset",
      "type": "event"
    },
    {
      "anonymous": false,
      "inputs": [
        {
          "indexed": true,
          "internalType": "address",
          "name": "owner",
          "type": "address"
        },
        {
          "indexed": true,
          "internalType": "bytes32",
          "name": "noteHash",
          "type": "bytes32"
        }
      ],
      "name": "DestroyNote",
      "type": "event"
    },
    {
      "anonymous": false,
      "inputs": [
        {
          "indexed": true,
          "internalType": "address",
          "name": "previousOwner",
          "type": "address"
        },
        {
          "indexed": true,
          "internalType": "address",
          "name": "newOwner",
          "type": "address"
        }
      ],
      "name": "OwnershipTransferred",
      "type": "event"
    },
    {
      "anonymous": false,
      "inputs": [
        {
          "indexed": true,
          "internalType": "address",
          "name": "owner",
          "type": "address"
        },
        {
          "indexed": false,
          "internalType": "uint256",
          "name": "value",
          "type": "uint256"
        }
      ],
      "name": "RedeemTokens",
      "type": "event"
    },
    {
      "anonymous": false,
      "inputs": [
        {
          "indexed": true,
          "internalType": "address",
          "name": "owner",
          "type": "address"
        },
        {
          "indexed": true,
          "internalType": "bytes32",
          "name": "noteHash",
          "type": "bytes32"
        },
        {
          "indexed": false,
          "internalType": "bytes",
          "name": "metadata",
          "type": "bytes"
        }
      ],
      "name": "UpdateNoteMetaData",
      "type": "event"
    },
    {
      "anonymous": false,
      "inputs": [
        {
          "indexed": false,
          "internalType": "bytes32",
          "name": "noteHash",
          "type": "bytes32"
        },
        {
          "indexed": false,
          "internalType": "bytes",
          "name": "noteData",
          "type": "bytes"
        }
      ],
      "name": "UpdateTotalBurned",
      "type": "event"
    },
    {
      "constant": true,
      "inputs": [],
      "name": "BURN_PROOF",
      "outputs": [
        {
          "internalType": "uint24",
          "name": "",
          "type": "uint24"
        }
      ],
      "payable": false,
      "stateMutability": "view",
      "type": "function"
    },
    {
      "constant": true,
      "inputs": [],
      "name": "DIVIDEND_PROOF",
      "outputs": [
        {
          "internalType": "uint24",
          "name": "",
          "type": "uint24"
        }
      ],
      "payable": false,
      "stateMutability": "view",
      "type": "function"
    },
    {
      "constant": true,
      "inputs": [],
      "name": "EIP712_DOMAIN_HASH",
      "outputs": [
        {
          "internalType": "bytes32",
          "name": "",
          "type": "bytes32"
        }
      ],
      "payable": false,
      "stateMutability": "view",
      "type": "function"
    },
    {
      "constant": true,
      "inputs": [],
      "name": "JOIN_SPLIT_PROOF",
      "outputs": [
        {
          "internalType": "uint24",
          "name": "",
          "type": "uint24"
        }
      ],
      "payable": false,
      "stateMutability": "view",
      "type": "function"
    },
    {
      "constant": true,
      "inputs": [],
      "name": "MINT_PROOF",
      "outputs": [
        {
          "internalType": "uint24",
          "name": "",
          "type": "uint24"
        }
      ],
      "payable": false,
      "stateMutability": "view",
      "type": "function"
    },
    {
      "constant": true,
      "inputs": [],
      "name": "PRIVATE_RANGE_PROOF",
      "outputs": [
        {
          "internalType": "uint24",
          "name": "",
          "type": "uint24"
        }
      ],
      "payable": false,
      "stateMutability": "view",
      "type": "function"
    },
    {
      "constant": true,
      "inputs": [],
      "name": "PUBLIC_RANGE_PROOF",
      "outputs": [
        {
          "internalType": "uint24",
          "name": "",
          "type": "uint24"
        }
      ],
      "payable": false,
      "stateMutability": "view",
      "type": "function"
    },
    {
      "constant": true,
      "inputs": [],
      "name": "ace",
      "outputs": [
        {
          "internalType": "contract IACE",
          "name": "",
          "type": "address"
        }
      ],
      "payable": false,
      "stateMutability": "view",
      "type": "function"
    },
    {
      "constant": false,
      "inputs": [
        {
          "internalType": "uint24",
          "name": "_proofId",
          "type": "uint24"
        },
        {
          "internalType": "bytes",
          "name": "_proofOutputs",
          "type": "bytes"
        },
        {
          "internalType": "address",
          "name": "_spender",
          "type": "address"
        },
        {
          "internalType": "bool",
          "name": "_approval",
          "type": "bool"
        },
        {
          "internalType": "bytes",
          "name": "_proofSignature",
          "type": "bytes"
        }
      ],
      "name": "approveProof",
      "outputs": [],
      "payable": false,
      "stateMutability": "nonpayable",
      "type": "function"
    },
    {
      "constant": false,
      "inputs": [
        {
          "internalType": "bytes32",
          "name": "_noteHash",
          "type": "bytes32"
        },
        {
          "internalType": "address",
          "name": "_spender",
          "type": "address"
        },
        {
          "internalType": "bool",
          "name": "_spenderApproval",
          "type": "bool"
        },
        {
          "internalType": "bytes",
          "name": "_signature",
          "type": "bytes"
        }
      ],
      "name": "confidentialApprove",
      "outputs": [],
      "payable": false,
      "stateMutability": "nonpayable",
      "type": "function"
    },
    {
      "constant": true,
      "inputs": [
        {
          "internalType": "bytes32",
          "name": "",
          "type": "bytes32"
        },
        {
          "internalType": "address",
          "name": "",
          "type": "address"
        }
      ],
      "name": "confidentialApproved",
      "outputs": [
        {
          "internalType": "bool",
          "name": "",
          "type": "bool"
        }
      ],
      "payable": false,
      "stateMutability": "view",
      "type": "function"
    },
    {
      "constant": false,
      "inputs": [
        {
          "internalType": "uint24",
          "name": "_proof",
          "type": "uint24"
        },
        {
          "internalType": "bytes",
          "name": "_proofData",
          "type": "bytes"
        }
      ],
      "name": "confidentialBurn",
      "outputs": [],
      "payable": false,
      "stateMutability": "nonpayable",
      "type": "function"
    },
    {
      "constant": false,
      "inputs": [
        {
          "internalType": "uint24",
          "name": "_proofId",
          "type": "uint24"
        },
        {
          "internalType": "bytes",
          "name": "_proofData",
          "type": "bytes"
        },
        {
          "internalType": "bytes",
          "name": "_signatures",
          "type": "bytes"
        }
      ],
      "name": "confidentialTransfer",
      "outputs": [],
      "payable": false,
      "stateMutability": "nonpayable",
      "type": "function"
    },
    {
      "constant": false,
      "inputs": [
        {
          "internalType": "bytes",
          "name": "_proofData",
          "type": "bytes"
        },
        {
          "internalType": "bytes",
          "name": "_signatures",
          "type": "bytes"
        }
      ],
      "name": "confidentialTransfer",
      "outputs": [],
      "payable": false,
      "stateMutability": "nonpayable",
      "type": "function"
    },
    {
      "constant": false,
      "inputs": [
        {
          "internalType": "uint24",
          "name": "_proofId",
          "type": "uint24"
        },
        {
          "internalType": "bytes",
          "name": "_proofOutput",
          "type": "bytes"
        }
      ],
      "name": "confidentialTransferFrom",
      "outputs": [],
      "payable": false,
      "stateMutability": "nonpayable",
      "type": "function"
    },
    {
      "constant": true,
      "inputs": [],
      "name": "isOwner",
      "outputs": [
        {
          "internalType": "bool",
          "name": "",
          "type": "bool"
        }
      ],
      "payable": false,
      "stateMutability": "view",
      "type": "function"
    },
    {
      "constant": true,
      "inputs": [],
      "name": "linkedToken",
      "outputs": [
        {
          "internalType": "contract IERC20Mintable",
          "name": "",
          "type": "address"
        }
      ],
      "payable": false,
      "stateMutability": "view",
      "type": "function"
    },
    {
      "constant": true,
      "inputs": [
        {
          "internalType": "bytes32",
          "name": "",
          "type": "bytes32"
        }
      ],
      "name": "metaDataTimeLog",
      "outputs": [
        {
          "internalType": "uint256",
          "name": "",
          "type": "uint256"
        }
      ],
      "payable": false,
      "stateMutability": "view",
      "type": "function"
    },
    {
      "constant": true,
      "inputs": [
        {
          "internalType": "bytes32",
          "name": "",
          "type": "bytes32"
        }
      ],
      "name": "noteAccess",
      "outputs": [
        {
          "internalType": "uint256",
          "name": "",
          "type": "uint256"
        }
      ],
      "payable": false,
      "stateMutability": "view",
      "type": "function"
    },
    {
      "constant": true,
      "inputs": [],
      "name": "owner",
      "outputs": [
        {
          "internalType": "address",
          "name": "",
          "type": "address"
        }
      ],
      "payable": false,
      "stateMutability": "view",
      "type": "function"
    },
    {
      "constant": true,
      "inputs": [
        {
          "internalType": "uint8",
          "name": "",
          "type": "uint8"
        }
      ],
      "name": "proofs",
      "outputs": [
        {
          "internalType": "uint256",
          "name": "",
          "type": "uint256"
        }
      ],
      "payable": false,
      "stateMutability": "view",
      "type": "function"
    },
    {
      "constant": false,
      "inputs": [],
      "name": "renounceOwnership",
      "outputs": [],
      "payable": false,
      "stateMutability": "nonpayable",
      "type": "function"
    },
    {
      "constant": false,
      "inputs": [
        {
          "internalType": "uint8",
          "name": "_epoch",
          "type": "uint8"
        },
        {
          "internalType": "uint256",
          "name": "_proofs",
          "type": "uint256"
        }
      ],
      "name": "setProofs",
      "outputs": [],
      "payable": false,
      "stateMutability": "nonpayable",
      "type": "function"
    },
    {
      "constant": true,
      "inputs": [
        {
          "internalType": "bytes32",
          "name": "",
          "type": "bytes32"
        }
      ],
      "name": "signatureLog",
      "outputs": [
        {
          "internalType": "bool",
          "name": "",
          "type": "bool"
        }
      ],
      "payable": false,
      "stateMutability": "view",
      "type": "function"
    },
    {
      "constant": true,
      "inputs": [
        {
          "internalType": "uint24",
          "name": "_proof",
          "type": "uint24"
        }
      ],
      "name": "supportsProof",
      "outputs": [
        {
          "internalType": "bool",
          "name": "",
          "type": "bool"
        }
      ],
      "payable": false,
      "stateMutability": "view",
      "type": "function"
    },
    {
      "constant": false,
      "inputs": [
        {
          "internalType": "address",
          "name": "newOwner",
          "type": "address"
        }
      ],
      "name": "transferOwnership",
      "outputs": [],
      "payable": false,
      "stateMutability": "nonpayable",
      "type": "function"
    },
    {
      "constant": false,
      "inputs": [
        {
          "internalType": "bytes32",
          "name": "noteHash",
          "type": "bytes32"
        },
        {
          "internalType": "bytes",
          "name": "metaData",
          "type": "bytes"
        }
      ],
      "name": "updateNoteMetaData",
      "outputs": [],
      "payable": false,
      "stateMutability": "nonpayable",
      "type": "function"
    },
    {
      "constant": false,
      "inputs": [
        {
          "internalType": "uint24",
          "name": "_factoryId",
          "type": "uint24"
        }
      ],
      "name": "upgradeRegistryVersion",
      "outputs": [],
      "payable": false,
      "stateMutability": "nonpayable",
      "type": "function"
    }
  ],
  "bytecode": "0x60806040523480156200001157600080fd5b506040516200326d3803806200326d833981810160405260608110156200003757600080fd5b50805160208083015160409384015184517f454950373132446f6d61696e2800000000000000000000000000000000000000818501527f737472696e67206e616d652c0000000000000000000000000000000000000000602d8201527f737472696e672076657273696f6e2c000000000000000000000000000000000060398201527f6164647265737320766572696679696e67436f6e74726163740000000000000060488201527f29000000000000000000000000000000000000000000000000000000000000006061820152855160428183030181526062820180885281519186019190912060a28301885260199091527f415a5445435f43525950544f4752415048595f454e47494e45000000000000006082909201919091528551808701875260018082527f3100000000000000000000000000000000000000000000000000000000000000918601919091528651808601929092527fc8066e2c715ce196630b273cd256d8959d5b9fefc55e9e6d999fb0f08bb7f75f828801526000805160206200324d8339815191526060830152306080808401919091528751808403909101815260a090920190965280519301929092206000908155929390928491849184919084908490849084906001600160a01b038416156200021f57600162000222565b60005b604080517f454950373132446f6d61696e28000000000000000000000000000000000000006020808301919091527f737472696e67206e616d652c0000000000000000000000000000000000000000602d8301527f737472696e672076657273696f6e2c000000000000000000000000000000000060398301527f6164647265737320766572696679696e67436f6e74726163740000000000000060488301527f29000000000000000000000000000000000000000000000000000000000000006061830152825160428184030181526062830180855281519183019190912060a28401855260089091527f5a4b5f41535345540000000000000000000000000000000000000000000000006082909301929092528251808401845260018082527f3100000000000000000000000000000000000000000000000000000000000000918301919091528351808301939093527f34a1782c7b6da6ed013d1c63b38e9a7204574db51f6df9ff13aa1786590013fd838501526000805160206200324d8339815191526060840152306080808501919091528451808503909101815260a0840180865281519190930120600090815581546001600160a01b038c81166001600160a01b03199283161793849055600280548d83169316831790557fa5468ca20000000000000000000000000000000000000000000000000000000090945260a485015260c4840189905287151560e48501528515156101048501529351949550169263a5468ca2926101248084019391929182900301818387803b1580156200046e57600080fd5b505af115801562000483573d6000803e3d6000fd5b5050604080518681528415156020820152815186151594506001600160a01b03808a1694508a16927fca576e79bcb5c4a0045d9d596a80c733c3997559f688f69e5c03bd737d885b86928290030190a450505050506000620004ea620005dd60201b60201c565b600780546001600160a01b0319166001600160a01b038316908117909155604051919250906000907f8be0079c531659141344cd1fd0a4f28419497f9722a3daafe3b4186f6b6457e0908290a350601160086000600160009054906101000a90046001600160a01b03166001600160a01b0316639cb118bf6040518163ffffffff1660e01b815260040160206040518083038186803b1580156200058d57600080fd5b505afa158015620005a2573d6000803e3d6000fd5b505050506040513d6020811015620005b957600080fd5b505160ff16815260208101919091526040016000205550620005e195505050505050565b3390565b612c5c80620005f16000396000f3fe608060405234801561001057600080fd5b50600436106101c35760003560e01c80637f08dede116100f9578063985cd3b711610097578063df92462511610071578063df9246251461094f578063e306f77914610957578063ea12489f1461095f578063f2fde38b14610967576101c3565b8063985cd3b71461087a578063a5c8fa8414610897578063cdfea90e1461089f576101c3565b80638da5cb5b116100d35780638da5cb5b1461071d5780638e526d9b146107415780638f32d59b146107495780639698849814610751576101c3565b80637f08dede146106d657806384a26fc8146106f85780638500e1f814610715576101c3565b80631f2ac16a1161016657806349518b281161014057806349518b281461066e578063715018a614610676578063764481181461067e57806376ae6bee146106b0576101c3565b80631f2ac16a146104df5780632140e0c5146105a15780632e3b9a3b146105c3576101c3565b806309146c7c116101a257806309146c7c146103275780630a60305a146103585780630c1bcabc146104395780630f4a80fe146104b3576101c3565b80625bf732146101c857806302d1fdc9146101e857806308ae900a1461031f575b600080fd5b6101d061098d565b6040805162ffffff9092168252519081900360200190f35b61031d600480360360608110156101fe57600080fd5b62ffffff8235169190810190604081016020820135600160201b81111561022457600080fd5b82018360208201111561023657600080fd5b803590602001918460018302840111600160201b8311171561025757600080fd5b91908080601f0160208091040260200160405190810160405280939291908181526020018383808284376000920191909152509295949360208101935035915050600160201b8111156102a957600080fd5b8201836020820111156102bb57600080fd5b803590602001918460018302840111600160201b831117156102dc57600080fd5b91908080601f016020809104026020016040519081016040528093929190818152602001838380828437600092019190915250929550610994945050505050565b005b6101d0610a09565b6103446004803603602081101561033d57600080fd5b5035610a10565b604080519115158252519081900360200190f35b61031d600480360360a081101561036e57600080fd5b62ffffff8235169190810190604081016020820135600160201b81111561039457600080fd5b8201836020820111156103a657600080fd5b803590602001918460018302840111600160201b831117156103c757600080fd5b919390926001600160a01b038335169260208101351515929190606081019060400135600160201b8111156103fb57600080fd5b82018360208201111561040d57600080fd5b803590602001918460018302840111600160201b8311171561042e57600080fd5b509092509050610a25565b61031d6004803603604081101561044f57600080fd5b62ffffff8235169190810190604081016020820135600160201b81111561047557600080fd5b82018360208201111561048757600080fd5b803590602001918460018302840111600160201b831117156104a857600080fd5b509092509050610f69565b610344600480360360408110156104c957600080fd5b50803590602001356001600160a01b0316611296565b61031d600480360360808110156104f557600080fd5b8135916001600160a01b0360208201351691604082013515159190810190608081016060820135600160201b81111561052d57600080fd5b82018360208201111561053f57600080fd5b803590602001918460018302840111600160201b8311171561056057600080fd5b91908080601f0160208091040260200160405190810160405280939291908181526020018383808284376000920191909152509295506112b6945050505050565b61031d600480360360208110156105b757600080fd5b503562ffffff16611588565b61031d600480360360408110156105d957600080fd5b81359190810190604081016020820135600160201b8111156105fa57600080fd5b82018360208201111561060c57600080fd5b803590602001918460018302840111600160201b8311171561062d57600080fd5b91908080601f01602080910402602001604051908101604052809392919081815260200183838082843760009201919091525092955061163b945050505050565b6101d0611836565b61031d61183d565b61069e6004803603602081101561069457600080fd5b503560ff166118ce565b60408051918252519081900360200190f35b61031d600480360360408110156106c657600080fd5b5060ff81351690602001356118e0565b610344600480360360208110156106ec57600080fd5b503562ffffff1661193d565b61069e6004803603602081101561070e57600080fd5b50356119d9565b6101d06119eb565b6107256119f2565b604080516001600160a01b039092168252519081900360200190f35b6101d0611a01565b610344611a08565b61031d6004803603604081101561076757600080fd5b810190602081018135600160201b81111561078157600080fd5b82018360208201111561079357600080fd5b803590602001918460018302840111600160201b831117156107b457600080fd5b91908080601f0160208091040260200160405190810160405280939291908181526020018383808284376000920191909152509295949360208101935035915050600160201b81111561080657600080fd5b82018360208201111561081857600080fd5b803590602001918460018302840111600160201b8311171561083957600080fd5b91908080601f016020809104026020016040519081016040528093929190818152602001838380828437600092019190915250929550611a2e945050505050565b61069e6004803603602081101561089057600080fd5b5035611a40565b610725611a52565b61031d600480360360408110156108b557600080fd5b62ffffff8235169190810190604081016020820135600160201b8111156108db57600080fd5b8201836020820111156108ed57600080fd5b803590602001918460018302840111600160201b8311171561090e57600080fd5b91908080601f016020809104026020016040519081016040528093929190818152602001838380828437600092019190915250929550611a61945050505050565b6101d0611ad4565b61069e611adb565b610725611ae1565b61031d6004803603602081101561097d57600080fd5b50356001600160a01b0316611af0565b6201010181565b600061099f8461193d565b90506001811515146109f8576040805162461bcd60e51b815260206004820152601e60248201527f65787065637465642070726f6f6620746f20626520737570706f727465640000604482015290519081900360640190fd5b610a03848484611b43565b50505050565b6201040381565b60066020526000908152604090205460ff1681565b600082826040518083838082843760408051939091018390039092206000818152600660205292909220549195505060ff161515600114159250610ab3915050576040805162461bcd60e51b815260206004820152601f60248201527f7369676e61747572652068617320616c7265616479206265656e207573656400604482015290519081900360640190fd5b6000818152600660209081526040808320805460ff1916600117905580516080810190915260428082529091612abe908301396040516020018082805190602001908083835b60208310610b185780518252601f199092019160209182019101610af9565b51815160001960209485036101000a0190811690199190911617905260408051601f1995909301838103959095018352848152825192820192909220671692d7d054d4d15560c21b85528251948590036008018520603160f81b8652835195869003600101862086840192909252858401526060850152306080808601919091528251808603909101815260a0850183528051908201206e0a0e4dedecca6d2cedcc2e8eae4ca5608b1b60c086015271189e5d195ccccc881c1c9bdbd992185cda0b60721b60cf8601526f1859191c995cdcc81cdc195b99195c8b60821b60e18601526c189bdbdb08185c1c1c9bdd985b609a1b60f1860152602960f81b60fe860152825160df81870301815260ff9095019283905284519490910193909320929550600094508593508c91508b908083838082843760408051939091018390038320602080850198909852838201526001600160a01b038f1660608401528d15156080808501919091528151808503909101815260a08401825280519088012061190160f01b60c085015260c284019890985260e280840198909852805180840390980188526101028301808252885198880198909820610122601f8e01899004909802840188019091528b88529750600096610d17968996509094508c93508b9283925001838280828437600092019190915250611d6d92505050565b905060005b610d5b8b8b8080601f016020809104026020016040519081016040528093929190818152602001838380828437600092019190915250611ec692505050565b811015610f5b576060610dad828d8d8080601f016020809104026020016040519081016040528093929190818152602001838380828437600092019190915250929392505063ffffffff611ecd169050565b90506060610dba82611f1d565b5091925060009150505b610dcd82611ec6565b811015610f1f576000610dee610de9848463ffffffff611ecd16565b611f47565b5060015460408051637f6f713360e11b81523060048201526024810184905290519294506000935083926001600160a01b039092169163fedee26691604480820192608092909190829003018186803b158015610e4a57600080fd5b505afa158015610e5e573d6000803e3d6000fd5b505050506040513d6080811015610e7457600080fd5b5080516060909101519092509050600160ff831614610ec45760405162461bcd60e51b8152600401808060200182810382526022815260200180612a286022913960400191505060405180910390fd5b876001600160a01b0316816001600160a01b031614610f145760405162461bcd60e51b8152600401808060200182810382526026815260200180612a986026913960400191505060405180910390fd5b505050600101610dc4565b5050805160209182012060009081526003825260408082206001600160a01b038d16835290925220805460ff1916891515179055600101610d1c565b505050505050505050505050565b610f71611a08565b610fb0576040805162461bcd60e51b81526020600482018190526024820152600080516020612b00833981519152604482015290519081900360640190fd5b80610ff2576040805162461bcd60e51b815260206004820152600d60248201526c1c1c9bdbd9881a5b9d985b1a59609a1b604482015290519081900360640190fd5b6001546060906001600160a01b031663d19287a68585856110116119f2565b6040516001600160e01b031960e087901b16815262ffffff8516600482019081526001600160a01b0383166044830152606060248301908152606483018590529091608401858580828437600081840152601f19601f82011690508083019250505095505050505050600060405180830381600087803b15801561109457600080fd5b505af11580156110a8573d6000803e3d6000fd5b505050506040513d6000823e601f3d908101601f1916820160405260208110156110d157600080fd5b8101908080516040519392919084600160201b8211156110f057600080fd5b90830190602082018581111561110557600080fd5b8251600160201b81118282018810171561111e57600080fd5b82525081516020918201929091019080838360005b8381101561114b578181015183820152602001611133565b50505050905090810190601f1680156111785780820380516001836020036101000a031916815260200191505b506040525050509050606061119f61119a600084611ecd90919063ffffffff16565b611f1d565b505091505060606111bd61119a600185611ecd90919063ffffffff16565b5050915050600060606111dd610de9600086611ecd90919063ffffffff16565b92509250506111eb83611f65565b7fe7f58324ed760f269f5239f2065a9c0bd4e11261d24ba3cab2454d68efa7ac1982826040518083815260200180602001828103825283818151815260200191508051906020019080838360005b83811015611251578181015183820152602001611239565b50505050905090810190601f16801561127e5780820380516001836020036101000a031916815260200191505b50935050505060405180910390a15050505050505050565b600360209081526000928352604080842090915290825290205460ff1681565b60015460408051637f6f713360e11b81523060048201526024810187905290516000926001600160a01b03169163fedee266916044808301926080929190829003018186803b15801561130857600080fd5b505afa15801561131c573d6000803e3d6000fd5b505050506040513d608081101561133257600080fd5b50519050600160ff8216146113785760405162461bcd60e51b8152600401808060200182810382526022815260200180612a286022913960400191505060405180910390fd5b6000826040516020018082805190602001908083835b602083106113ad5780518252601f19909201916020918201910161138e565b51815160209384036101000a60001901801990921691161790526040805192909401828103601f190183528452815191810191909120600081815260069092529290205491945050600160ff9091161515141591506114559050576040805162461bcd60e51b815260206004820152601f60248201527f7369676e61747572652068617320616c7265616479206265656e207573656400604482015290519081900360640190fd5b825115611476576000818152600660205260409020805460ff191660011790555b604080516d09cdee8caa6d2cedcc2e8eae4ca560931b60208083019190915270189e5d195ccccc881b9bdd1952185cda0b607a1b602e8301526f1859191c995cdcc81cdc195b99195c8b60821b603f83015273189bdbdb081cdc195b99195c905c1c1c9bdd985b60621b604f830152602960f81b606383015282516044818403018152606483018452805190820120608483015260a482018990526001600160a01b03881660c483015286151560e48084019190915283518084039091018152610104909201909252805191012061154f818886611fd4565b5050506000938452506003602090815260408085206001600160a01b039490941685529290529120805460ff1916911515919091179055565b611590611a08565b6115cf576040805162461bcd60e51b81526020600482018190526024820152600080516020612b00833981519152604482015290519081900360640190fd5b6001546040805163216da75f60e21b815262ffffff8416600482015290516001600160a01b03909216916385b69d7c9160248082019260009290919082900301818387803b15801561162057600080fd5b505af1158015611634573d6000803e3d6000fd5b5050505050565b60015460408051637f6f713360e11b815230600482015260248101859052905160009283926001600160a01b039091169163fedee26691604480820192608092909190829003018186803b15801561169257600080fd5b505afa1580156116a6573d6000803e3d6000fd5b505050506040513d60808110156116bc57600080fd5b508051606091820151604080513390941b60208581019190915260348086018a9052825180870390910181526054909501825284519481019490942060008981526004865282812054828252600590965291909120549295509093509111158061172e57506001600160a01b03821633145b801561173d57508260ff166001145b6117785760405162461bcd60e51b8152600401808060200182810382526032815260200180612b206032913960400191505060405180910390fd5b61178284866120d4565b61178b85612157565b84826001600160a01b03167fda392cb8aa0843e7e474e7bacfae355313fc4202094b3e81d2a488b5c05207bf866040518080602001828103825283818151815260200191508051906020019080838360005b838110156117f55781810151838201526020016117dd565b50505050905090810190601f1680156118225780820380516001836020036101000a031916815260200191505b509250505060405180910390a35050505050565b6201040281565b611845611a08565b611884576040805162461bcd60e51b81526020600482018190526024820152600080516020612b00833981519152604482015290519081900360640190fd5b6007546040516000916001600160a01b0316907f8be0079c531659141344cd1fd0a4f28419497f9722a3daafe3b4186f6b6457e0908390a3600780546001600160a01b0319169055565b60086020526000908152604090205481565b6118e8611a08565b611927576040805162461bcd60e51b81526020600482018190526024820152600080516020612b00833981519152604482015290519081900360640190fd5b60ff909116600090815260086020526040902055565b6000806000806119518562ffffff1661216a565b9194509250905060ff821660011461199a5760405162461bcd60e51b8152600401808060200182810382526028815260200180612a006028913960400191505060405180910390fd5b60006119b060ff8316600163ffffffff61218416565b60ff94851660009081526008602052604090205494169390931c60019081161495945050505050565b60056020526000908152604090205481565b6201040181565b6007546001600160a01b031690565b6201020181565b6007546000906001600160a01b0316611a1f6121d1565b6001600160a01b031614905090565b611a3c620101018383610994565b5050565b60046020526000908152604090205481565b6001546001600160a01b031681565b6000611a6c8361193d565b9050600181151514611ac5576040805162461bcd60e51b815260206004820152601e60248201527f65787065637465642070726f6f6620746f20626520737570706f727465640000604482015290519081900360640190fd5b611acf83836121d5565b505050565b6201030181565b60005481565b6002546001600160a01b031681565b611af8611a08565b611b37576040805162461bcd60e51b81526020600482018190526024820152600080516020612b00833981519152604482015290519081900360640190fd5b611b408161244d565b50565b6000611b538462ffffff1661216a565b5091505060ff8116600114611baf576040805162461bcd60e51b815260206004820152601c60248201527f74686973206973206e6f7420612062616c616e6365642070726f6f6600000000604482015290519081900360640190fd5b60015460405163a2866ea360e01b815262ffffff861660048201908152336024830181905260606044840181815288516064860152885191956001600160a01b03169463a2866ea3948b94938b93919260840190602085019080838360005b83811015611c26578181015183820152602001611c0e565b50505050905090810190601f168015611c535780820380516001836020036101000a031916815260200191505b50945050505050600060405180830381600087803b158015611c7457600080fd5b505af1158015611c88573d6000803e3d6000fd5b505050506040513d6000823e601f3d908101601f191682016040526020811015611cb157600080fd5b8101908080516040519392919084600160201b821115611cd057600080fd5b908301906020820185811115611ce557600080fd5b8251600160201b811182820188101715611cfe57600080fd5b82525081516020918201929091019080838360005b83811015611d2b578181015183820152602001611d13565b50505050905090810190601f168015611d585780820380516001836020036101000a031916815260200191505b506040525050509050611634858285876124ee565b6000808251848452606084015160408501518160f81c9150604086015160608701526020860151604087015281602087015260208660808860015afa601c8314601b84141760418514167f7fffffffffffffffffffffffffffffff5d576e7357a4501ddfe92f46681b20a08310161693508551871460008114611def57611df4565b865195505b5050508352808015611e0e57506001600160a01b03821615155b611ebf576001600160a01b038216611e6d576040805162461bcd60e51b815260206004820152601a60248201527f7369676e657220616464726573732063616e6e6f742062652030000000000000604482015290519081900360640190fd5b80611ebf576040805162461bcd60e51b815260206004820152601960248201527f7369676e6174757265207265636f76657279206661696c656400000000000000604482015290519081900360640190fd5b5092915050565b6020015190565b602082810151908202830160400151830190821080611ebf5760405162461bcd60e51b8152600401808060200182810382526022815260200180612c066022913960400191505060405180910390fd5b60208101516040820151606083015160808401519284019491909301926001600160a01b03169190565b604081015160608201516001600160a01b0390911692909160800190565b60005b611f7182611ec6565b811015611a3c57600080611f8e610de9858563ffffffff611ecd16565b509150915080826001600160a01b03167f979308e20fbd28822c4526e85d528175e04e3ca0cf91c46301db34401a26a8c660405160405180910390a35050600101611f68565b60015460408051637f6f713360e11b81523060048201526024810185905290516000926001600160a01b03169163fedee266916044808301926080929190829003018186803b15801561202657600080fd5b505afa15801561203a573d6000803e3d6000fd5b505050506040513d608081101561205057600080fd5b506060015182519091506000901561208157600061206d8661284c565b90506120798185611d6d565b915050612084565b50335b816001600160a01b0316816001600160a01b0316146116345760405162461bcd60e51b8152600401808060200182810382526028815260200180612a706028913960400191505060405180910390fd5b815160e18301516061821115610a035760005b818110156116345760006120fb868361286d565b6040805160609290921b6bffffffffffffffffffffffff191660208084019190915260348084018990528251808503909101815260549093018252825192810192909220600090815260059092529020429055506001016120e7565b6000908152600460205260409020429055565b60ff62010000820481169261010083048216929190911690565b60008260ff168260ff1611156121cb5760405162461bcd60e51b8152600401808060200182810382526025815260200180612be16025913960400191505060405180910390fd5b50900390565b3390565b6060806000806121e485611f1d565b88516020808b01919091206000818152600383526040808220338352909352919091205494985092965090945092509060ff1615156001146122bc57600061222b86611ec6565b905060005b818110156122b957600061224d610de9898463ffffffff611ecd16565b50600081815260036020908152604080832033845290915290205490925060ff16151560011490506122b05760405162461bcd60e51b8152600401808060200182810382526031815260200180612bb06031913960400191505060405180910390fd5b50600101612230565b50505b600154604051634bbbcb6960e11b815262ffffff89166004820190815233604483018190526060602484019081528a5160648501528a516001600160a01b039095169463977796d2948d948d94939092909160840190602086019080838360005b8381101561233557818101518382015260200161231d565b50505050905090810190601f1680156123625780820380516001836020036101000a031916815260200191505b50945050505050600060405180830381600087803b15801561238357600080fd5b505af1158015612397573d6000803e3d6000fd5b505050506123a485611f65565b6123ad846128bc565b60008212156123fb57826001600160a01b03167ffed3b27b73d78d9d1f344bbbf25f7af35e0ac4d6cf8193604ce18082168e461a836000036040518082815260200191505060405180910390a25b6000821315612444576040805183815290516001600160a01b038516917f60213c45c34d8b94e495fd5871fdea7a7511f659e884ea25a0c8843b7f98bfad919081900360200190a25b50505050505050565b6001600160a01b0381166124925760405162461bcd60e51b8152600401808060200182810382526026815260200180612a4a6026913960400191505060405180910390fd5b6007546040516001600160a01b038084169216907f8be0079c531659141344cd1fd0a4f28419497f9722a3daafe3b4186f6b6457e090600090a3600780546001600160a01b0319166001600160a01b0392909216919091179055565b604081015160005b6124ff85611ec6565b811015612844576060612518868363ffffffff611ecd16565b600154604051634bbbcb6960e11b815262ffffff8a166004820190815230604483018190526060602484019081528551606485015285519596506001600160a01b039094169463977796d2948d94889492608490910190602086019080838360005b8381101561259257818101518382015260200161257a565b50505050905090810190601f1680156125bf5780820380516001836020036101000a031916815260200191505b50945050505050600060405180830381600087803b1580156125e057600080fd5b505af11580156125f4573d6000803e3d6000fd5b5050505060608060008061260785611f1d565b9350935093509350600061261a85611ec6565b111561278b5760005b61262c85611ec6565b81101561278957606061263f8b836129af565b90506000612656610de9888563ffffffff611ecd16565b509150506000604051602001808072094ded2dca6e0d8d2e8a6d2cedcc2e8eae4ca5606b1b815250601301806c1d5a5b9d0c8d081c1c9bdbd98b609a1b815250600d018070189e5d195ccccc881b9bdd1952185cda0b607a1b81525060110180711d5a5b9d0c8d4d8818da185b1b195b99d94b60721b815250601201806d30b2323932b9b99039b2b73232b960911b815250600e0180602960f81b8152506001019050604051602081830303815290604052805190602001208f838d33604051602001808681526020018562ffffff1662ffffff168152602001848152602001838152602001826001600160a01b03166001600160a01b031681526020019550505050505060405160208183030381529060405280519060200120905061277e818385611fd4565b505050600101612623565b505b61279484611f65565b61279d836128bc565b60008112156127eb57816001600160a01b03167ffed3b27b73d78d9d1f344bbbf25f7af35e0ac4d6cf8193604ce18082168e461a826000036040518082815260200191505060405180910390a25b6000811315612834576040805182815290516001600160a01b038416917f60213c45c34d8b94e495fd5871fdea7a7511f659e884ea25a0c8843b7f98bfad919081900360200190a25b50505050506001810190506124f6565b505050505050565b60008054604080516119019093526020919091529182526042601e20915290565b6020828101519082028301610101015190808310611ebf5760405162461bcd60e51b815260040180806020018281038252605e815260200180612b52605e913960600191505060405180910390fd5b60005b6128c882611ec6565b811015611a3c5760008060606128e7610de9868663ffffffff611ecd16565b9250925092506128f682612157565b61290081836120d4565b81836001600160a01b03167f5ffb3072e4515cf3bfae8b16be9dff6313cf7c313a0c26faafe6971d8c7585f1836040518080602001828103825283818151815260200191508051906020019080838360005b8381101561296a578181015183820152602001612952565b50505050905090810190601f1680156129975780820380516001836020036101000a031916815260200191505b509250505060405180910390a35050506001016128bf565b60419081029190910160208181015160408084015193850151815193840192909252828101939093526001600160f81b031960f89190911b1660608201528151808203909301835260610190529056fe74686973206173736574206f6e6c7920737570706f7274732062616c616e6365642070726f6f66736f6e6c7920756e7370656e74206e6f7465732063616e20626520617070726f7665644f776e61626c653a206e6577206f776e657220697320746865207a65726f2061646472657373746865206e6f7465206f776e657220646964206e6f74207369676e2074686973206d657373616765746865206e6f7465206f776e657220646964206e6f74207369676e20746869732070726f6f66454950373132446f6d61696e28737472696e67206e616d652c737472696e672076657273696f6e2c6164647265737320766572696679696e67436f6e7472616374294f776e61626c653a2063616c6c6572206973206e6f7420746865206f776e657263616c6c657220646f6573206e6f742068617665207065726d697373696f6e20746f20757064617465206d6574614461746161646472657373506f73206f7574206f6620626f756e6473202d2061646472657373506f73206d757374206265206c657373207468616e20746865206e756d626572206f662061646472657373657320746f20626520617070726f76656473656e64657220646f6573206e6f74206861766520617070726f76616c20746f207370656e6420696e707574206e6f746575696e7438207375622074726967676572656420696e746567657220756e646572666c6f77415a54454320617272617920696e646578206973206f7574206f6620626f756e6473a265627a7a72315820acb31127029b3b02365597b77762f7c768b69c37000079ec6d78bb222045addb64736f6c63430005110032c89efdaa54c0f20c7adf612882df0950f5a951637e0307cdcb4c672f298b8bc6",
  "source": "\n\npragma solidity >=0.5.0 <0.6.0;\n\nimport \"./base/ZkAssetBurnableBase.sol\";\n\n/**\n * @title ZkAssetBurnable\n * @author AZTEC\n * @dev A contract defining the standard interface and behaviours of a confidential burnable asset.\n *\n * Copyright 2020 Spilsbury Holdings Ltd \n *\n * Licensed under the GNU Lesser General Public Licence, Version 3.0 (the \"License\");\n * you may not use this file except in compliance with the License.\n *\n * This program is distributed in the hope that it will be useful,\n * but WITHOUT ANY WARRANTY; without even the implied warranty of\n * MERCHANTABILITY or FITNESS FOR A PARTICULAR PURPOSE.  See the\n * GNU Lesser General Public License for more details.\n *\n * You should have received a copy of the GNU Lesser General Public License\n * along with this program.  If not, see <https://www.gnu.org/licenses/>.\n**/\ncontract ZkAssetBurnable is ZkAssetBurnableBase {\n    constructor(\n        address _aceAddress,\n        address _linkedTokenAddress,\n        uint256 _scalingFactor\n    ) public ZkAssetOwnableBase(\n        _aceAddress,\n        _linkedTokenAddress,\n        _scalingFactor,\n        true // canAdjustSupply\n    ) {\n    }\n}\n\n\n",
  "sourcePath": "/Users/suleymankardas/Desktop/aztec/aztec-protocol/contracts/ERC1724/ZkAssetBurnable.sol",
  "compiler": {
    "name": "solc",
    "version": "0.5.17+commit.d19bba13.Emscripten.clang"
  },
  "schemaVersion": "3.4.1",
  "updatedAt": "2022-03-28T14:36:05.483Z",
  "devdoc": {
    "author": "AZTEC",
    "details": "A contract defining the standard interface and behaviours of a confidential burnable asset. * Copyright 2020 Spilsbury Holdings Ltd  * Licensed under the GNU Lesser General Public Licence, Version 3.0 (the \"License\"); you may not use this file except in compliance with the License. * This program is distributed in the hope that it will be useful, but WITHOUT ANY WARRANTY; without even the implied warranty of MERCHANTABILITY or FITNESS FOR A PARTICULAR PURPOSE.  See the GNU Lesser General Public License for more details. * You should have received a copy of the GNU Lesser General Public License along with this program.  If not, see <https://www.gnu.org/licenses/>.*",
    "methods": {
      "approveProof(uint24,bytes,address,bool,bytes)": {
        "details": "Note owner can approve a third party address, such as a smart contract, to spend a proof on their behalf. This allows a batch approval of notes to be performed, rather than individually for each note via confidentialApprove().",
        "params": {
          "_proofId": "- id of proof to be approved. Needs to be a balanced proof.",
          "_proofOutputs": "- data of proof",
          "_proofSignature": "- ECDSA signature over the proof, approving it to be spent",
          "_spender": "- address being approved to spend the notes"
        }
      },
      "confidentialApprove(bytes32,address,bool,bytes)": {
        "details": "Note owner approving a third party, another address, to spend the note on owner's behalf. This is necessary to allow the confidentialTransferFrom() method to be called",
        "params": {
          "_noteHash": "- keccak256 hash of the note coordinates (gamma and sigma)",
          "_signature": "- ECDSA signature from the note owner that validates the confidentialApprove() instruction",
          "_spender": "- address being approved to spend the note",
          "_spenderApproval": "- defines whether the _spender address is being approved to spend the note, or if permission is being revoked. True if approved, false if not approved"
        }
      },
      "confidentialBurn(uint24,bytes)": {
        "details": "Executes a confidential burning procedure, dependent on the provided proofData being succesfully validated by the zero-knowledge validator",
        "params": {
          "_proof": "- uint24 variable which acts as a unique identifier for the proof which _proofOutput is being submitted. _proof contains three concatenated uint8 variables: 1) epoch number 2) category number 3) ID number for the proof",
          "_proofData": "- bytes array of proof data, outputted from a proof construction"
        }
      },
      "confidentialTransfer(bytes,bytes)": {
        "details": "Executes a basic unilateral, confidential transfer of AZTEC notes Will submit _proofData to the validateProof() function of the Cryptography Engine.    * Upon successfull verification, it will update note registry state - creating output notes and destroying input notes.",
        "params": {
          "_proofData": "- bytes variable outputted from a proof verification contract, representing transfer instructions for the IACE",
          "_signatures": "- array of the ECDSA signatures over all inputNotes"
        }
      },
      "confidentialTransfer(uint24,bytes,bytes)": {
        "details": "Executes a basic unilateral, confidential transfer of AZTEC notes Will submit _proofData to the validateProof() function of the Cryptography Engine.    * Upon successfull verification, it will update note registry state - creating output notes and destroying input notes.",
        "params": {
          "_proofData": "- bytes variable outputted from a proof verification contract, representing transfer instructions for the ACE",
          "_proofId": "- id of proof to be validated. Needs to be a balanced proof.",
          "_signatures": "- array of the ECDSA signatures over all inputNotes"
        }
      },
      "confidentialTransferFrom(uint24,bytes)": {
        "details": "Executes a value transfer mediated by smart contracts. The method is supplied with transfer instructions represented by a bytes _proofOutput argument that was outputted from a proof verification contract.",
        "params": {
          "_proofId": "- uint24 variable which acts as a unique identifier for the proof which _proofOutput is being submitted. _proof contains three concatenated uint8 variables: 1) epoch number 2) category number 3) ID number for the proof",
          "_proofOutput": "- output of a zero-knowledge proof validation contract. Represents transfer instructions for the ACE"
        }
      },
      "isOwner()": {
        "details": "Returns true if the caller is the current owner."
      },
      "owner()": {
        "details": "Returns the address of the current owner."
      },
      "renounceOwnership()": {
        "details": "Leaves the contract without owner. It will not be possible to call `onlyOwner` functions anymore. Can only be called by the current owner.     * NOTE: Renouncing ownership will leave the contract without an owner, thereby removing any functionality that is only available to the owner."
      },
      "setProofs(uint8,uint256)": {
        "details": "Set which proofs this asset is able to listen to and validate",
        "params": {
          "_epoch": "epoch number to which the proof belongs",
          "_proofs": "proofs for which the asset will listen to"
        }
      },
      "supportsProof(uint24)": {
        "details": "Return whether the proof is supported or not by this asset. Note that we have    to subtract 1 from the proof id because the original representation is uint8,    but here that id is considered to be an exponent",
        "params": {
          "_proof": "- unique identifier specifying the proof to be checked as to whether it is                supported by the asset"
        },
        "return": "boolean defining whether the asset supports the proof specified by _proof input"
      },
      "transferOwnership(address)": {
        "details": "Transfers ownership of the contract to a new account (`newOwner`). Can only be called by the current owner."
      },
      "updateNoteMetaData(bytes32,bytes)": {
        "details": "Update the metadata of a note that already exists in storage.",
        "params": {
          "metaData": "- metadata to update the note with",
          "noteHash": "- hash of a note, used as a unique identifier for the note"
        }
      },
      "upgradeRegistryVersion(uint24)": {
        "details": "Upgrade the note registry of this asset, by pointing it to a new factory",
        "params": {
          "_factoryId": "- the ID of the factory which will supply the upgraded behaviour contracts"
        }
      }
    },
    "title": "ZkAssetBurnable"
  },
  "userdoc": {
    "methods": {}
  }
}